{
  "_format": "hh3-artifact-1",
  "contractName": "VoucherProtocol",
  "sourceName": "contracts/VoucherProtocol.sol",
  "abi": [
    {
      "inputs": [],
      "stateMutability": "nonpayable",
      "type": "constructor"
    },
    {
      "inputs": [],
      "name": "AccessControlBadConfirmation",
      "type": "error"
    },
    {
      "inputs": [
        {
          "internalType": "address",
          "name": "account",
          "type": "address"
        },
        {
          "internalType": "bytes32",
          "name": "neededRole",
          "type": "bytes32"
        }
      ],
      "name": "AccessControlUnauthorizedAccount",
      "type": "error"
    },
    {
      "inputs": [],
      "name": "AlreadyCoSigned",
      "type": "error"
    },
    {
      "inputs": [],
      "name": "CoSignerNotWhitelisted",
      "type": "error"
    },
    {
      "inputs": [],
      "name": "DocumentAlreadyExists",
      "type": "error"
    },
    {
      "inputs": [],
      "name": "DocumentAlreadyRevoked",
      "type": "error"
    },
    {
      "inputs": [],
      "name": "DocumentNotFound",
      "type": "error"
    },
    {
      "inputs": [],
      "name": "DocumentNotValid",
      "type": "error"
    },
    {
      "inputs": [],
      "name": "ECDSAInvalidSignature",
      "type": "error"
    },
    {
      "inputs": [
        {
          "internalType": "uint256",
          "name": "length",
          "type": "uint256"
        }
      ],
      "name": "ECDSAInvalidSignatureLength",
      "type": "error"
    },
    {
      "inputs": [
        {
          "internalType": "bytes32",
          "name": "s",
          "type": "bytes32"
        }
      ],
      "name": "ECDSAInvalidSignatureS",
      "type": "error"
    },
    {
      "inputs": [],
      "name": "EthTransferFailed",
      "type": "error"
    },
    {
      "inputs": [],
      "name": "ExpiredSignature",
      "type": "error"
    },
    {
      "inputs": [
        {
          "internalType": "uint256",
          "name": "currentStake",
          "type": "uint256"
        },
        {
          "internalType": "uint256",
          "name": "requiredStake",
          "type": "uint256"
        }
      ],
      "name": "InsufficientCoSignStake",
      "type": "error"
    },
    {
      "inputs": [
        {
          "internalType": "uint256",
          "name": "sent",
          "type": "uint256"
        },
        {
          "internalType": "uint256",
          "name": "required",
          "type": "uint256"
        }
      ],
      "name": "InsufficientStake",
      "type": "error"
    },
    {
      "inputs": [],
      "name": "InvalidCoSignPolicy",
      "type": "error"
    },
    {
      "inputs": [],
      "name": "InvalidCoSignRole",
      "type": "error"
    },
    {
      "inputs": [],
      "name": "InvalidConfigValue",
      "type": "error"
    },
    {
      "inputs": [
        {
          "internalType": "uint16",
          "name": "provided",
          "type": "uint16"
        }
      ],
      "name": "InvalidPenaltyBps",
      "type": "error"
    },
    {
      "inputs": [],
      "name": "InvalidRecoveryTarget",
      "type": "error"
    },
    {
      "inputs": [],
      "name": "InvalidSignature",
      "type": "error"
    },
    {
      "inputs": [],
      "name": "InvalidTenantAddress",
      "type": "error"
    },
    {
      "inputs": [],
      "name": "NoPendingUnstake",
      "type": "error"
    },
    {
      "inputs": [],
      "name": "NoStake",
      "type": "error"
    },
    {
      "inputs": [],
      "name": "NoStakeToRecover",
      "type": "error"
    },
    {
      "inputs": [],
      "name": "OperatorAlreadyActive",
      "type": "error"
    },
    {
      "inputs": [],
      "name": "OperatorNotActive",
      "type": "error"
    },
    {
      "inputs": [],
      "name": "OperatorNotInTenant",
      "type": "error"
    },
    {
      "inputs": [],
      "name": "OperatorNotLost",
      "type": "error"
    },
    {
      "inputs": [
        {
          "internalType": "bytes32",
          "name": "violationCode",
          "type": "bytes32"
        }
      ],
      "name": "PenaltyNotConfigured",
      "type": "error"
    },
    {
      "inputs": [],
      "name": "RecoveryNotAllowed",
      "type": "error"
    },
    {
      "inputs": [],
      "name": "ReentrancyGuardReentrantCall",
      "type": "error"
    },
    {
      "inputs": [],
      "name": "TenantAlreadyExists",
      "type": "error"
    },
    {
      "inputs": [],
      "name": "TenantInactive",
      "type": "error"
    },
    {
      "inputs": [],
      "name": "TenantNotFound",
      "type": "error"
    },
    {
      "inputs": [],
      "name": "Unauthorized",
      "type": "error"
    },
    {
      "inputs": [],
      "name": "UnstakeInProgress",
      "type": "error"
    },
    {
      "inputs": [
        {
          "internalType": "uint256",
          "name": "readyAt",
          "type": "uint256"
        }
      ],
      "name": "UnstakeNotReady",
      "type": "error"
    },
    {
      "anonymous": false,
      "inputs": [
        {
          "indexed": true,
          "internalType": "bytes32",
          "name": "tenantId",
          "type": "bytes32"
        },
        {
          "indexed": true,
          "internalType": "uint32",
          "name": "docType",
          "type": "uint32"
        },
        {
          "indexed": true,
          "internalType": "address",
          "name": "operator",
          "type": "address"
        },
        {
          "indexed": false,
          "internalType": "bool",
          "name": "whitelisted",
          "type": "bool"
        },
        {
          "indexed": false,
          "internalType": "uint16",
          "name": "roleId",
          "type": "uint16"
        }
      ],
      "name": "CoSignOperatorConfigured",
      "type": "event"
    },
    {
      "anonymous": false,
      "inputs": [
        {
          "indexed": true,
          "internalType": "bytes32",
          "name": "tenantId",
          "type": "bytes32"
        },
        {
          "indexed": true,
          "internalType": "uint32",
          "name": "docType",
          "type": "uint32"
        },
        {
          "indexed": false,
          "internalType": "bool",
          "name": "enabled",
          "type": "bool"
        },
        {
          "indexed": false,
          "internalType": "uint256",
          "name": "minStake",
          "type": "uint256"
        },
        {
          "indexed": false,
          "internalType": "uint256",
          "name": "minSigners",
          "type": "uint256"
        },
        {
          "indexed": false,
          "internalType": "uint256",
          "name": "requiredRoleMask",
          "type": "uint256"
        }
      ],
      "name": "CoSignPolicyUpdated",
      "type": "event"
    },
    {
      "anonymous": false,
      "inputs": [
        {
          "indexed": true,
          "internalType": "bytes32",
          "name": "tenantId",
          "type": "bytes32"
        },
        {
          "indexed": true,
          "internalType": "bytes32",
          "name": "fileHash",
          "type": "bytes32"
        },
        {
          "indexed": false,
          "internalType": "string",
          "name": "cid",
          "type": "string"
        },
        {
          "indexed": true,
          "internalType": "address",
          "name": "issuer",
          "type": "address"
        },
        {
          "indexed": false,
          "internalType": "bytes32",
          "name": "ciphertextHash",
          "type": "bytes32"
        },
        {
          "indexed": false,
          "internalType": "bytes32",
          "name": "encryptionMetaHash",
          "type": "bytes32"
        },
        {
          "indexed": false,
          "internalType": "uint32",
          "name": "docType",
          "type": "uint32"
        },
        {
          "indexed": false,
          "internalType": "uint32",
          "name": "version",
          "type": "uint32"
        }
      ],
      "name": "DocumentAnchored",
      "type": "event"
    },
    {
      "anonymous": false,
      "inputs": [
        {
          "indexed": true,
          "internalType": "bytes32",
          "name": "tenantId",
          "type": "bytes32"
        },
        {
          "indexed": true,
          "internalType": "bytes32",
          "name": "fileHash",
          "type": "bytes32"
        },
        {
          "indexed": false,
          "internalType": "uint256",
          "name": "trustedSigners",
          "type": "uint256"
        },
        {
          "indexed": false,
          "internalType": "uint256",
          "name": "roleMask",
          "type": "uint256"
        }
      ],
      "name": "DocumentCoSignQualified",
      "type": "event"
    },
    {
      "anonymous": false,
      "inputs": [
        {
          "indexed": true,
          "internalType": "bytes32",
          "name": "tenantId",
          "type": "bytes32"
        },
        {
          "indexed": true,
          "internalType": "bytes32",
          "name": "fileHash",
          "type": "bytes32"
        },
        {
          "indexed": true,
          "internalType": "address",
          "name": "signer",
          "type": "address"
        },
        {
          "indexed": false,
          "internalType": "uint256",
          "name": "totalSigners",
          "type": "uint256"
        }
      ],
      "name": "DocumentCoSigned",
      "type": "event"
    },
    {
      "anonymous": false,
      "inputs": [
        {
          "indexed": true,
          "internalType": "bytes32",
          "name": "tenantId",
          "type": "bytes32"
        },
        {
          "indexed": true,
          "internalType": "bytes32",
          "name": "fileHash",
          "type": "bytes32"
        },
        {
          "indexed": true,
          "internalType": "address",
          "name": "revoker",
          "type": "address"
        },
        {
          "indexed": false,
          "internalType": "string",
          "name": "reason",
          "type": "string"
        }
      ],
      "name": "DocumentRevoked",
      "type": "event"
    },
    {
      "anonymous": false,
      "inputs": [
        {
          "indexed": true,
          "internalType": "bytes32",
          "name": "tenantId",
          "type": "bytes32"
        },
        {
          "indexed": false,
          "internalType": "uint256",
          "name": "oldValue",
          "type": "uint256"
        },
        {
          "indexed": false,
          "internalType": "uint256",
          "name": "newValue",
          "type": "uint256"
        }
      ],
      "name": "MinOperatorStakeUpdated",
      "type": "event"
    },
    {
      "anonymous": false,
      "inputs": [
        {
          "indexed": true,
          "internalType": "bytes32",
          "name": "tenantId",
          "type": "bytes32"
        },
        {
          "indexed": true,
          "internalType": "address",
          "name": "signer",
          "type": "address"
        },
        {
          "indexed": false,
          "internalType": "uint256",
          "name": "oldNonce",
          "type": "uint256"
        },
        {
          "indexed": false,
          "internalType": "uint256",
          "name": "newNonce",
          "type": "uint256"
        }
      ],
      "name": "NonceConsumed",
      "type": "event"
    },
    {
      "anonymous": false,
      "inputs": [
        {
          "indexed": true,
          "internalType": "bytes32",
          "name": "tenantId",
          "type": "bytes32"
        },
        {
          "indexed": true,
          "internalType": "address",
          "name": "operator",
          "type": "address"
        },
        {
          "indexed": false,
          "internalType": "string",
          "name": "metadata",
          "type": "string"
        },
        {
          "indexed": false,
          "internalType": "uint256",
          "name": "stake",
          "type": "uint256"
        }
      ],
      "name": "OperatorJoined",
      "type": "event"
    },
    {
      "anonymous": false,
      "inputs": [
        {
          "indexed": true,
          "internalType": "bytes32",
          "name": "tenantId",
          "type": "bytes32"
        },
        {
          "indexed": true,
          "internalType": "address",
          "name": "operator",
          "type": "address"
        },
        {
          "indexed": false,
          "internalType": "string",
          "name": "metadataURI",
          "type": "string"
        }
      ],
      "name": "OperatorMetadataUpdated",
      "type": "event"
    },
    {
      "anonymous": false,
      "inputs": [
        {
          "indexed": true,
          "internalType": "bytes32",
          "name": "tenantId",
          "type": "bytes32"
        },
        {
          "indexed": true,
          "internalType": "address",
          "name": "oldOperator",
          "type": "address"
        },
        {
          "indexed": true,
          "internalType": "address",
          "name": "newOperator",
          "type": "address"
        },
        {
          "indexed": false,
          "internalType": "uint256",
          "name": "stakeAmount",
          "type": "uint256"
        },
        {
          "indexed": false,
          "internalType": "string",
          "name": "reason",
          "type": "string"
        }
      ],
      "name": "OperatorRecovered",
      "type": "event"
    },
    {
      "anonymous": false,
      "inputs": [
        {
          "indexed": true,
          "internalType": "bytes32",
          "name": "tenantId",
          "type": "bytes32"
        },
        {
          "indexed": true,
          "internalType": "address",
          "name": "operator",
          "type": "address"
        },
        {
          "indexed": true,
          "internalType": "address",
          "name": "delegate",
          "type": "address"
        }
      ],
      "name": "OperatorRecoveryDelegateUpdated",
      "type": "event"
    },
    {
      "anonymous": false,
      "inputs": [
        {
          "indexed": true,
          "internalType": "bytes32",
          "name": "tenantId",
          "type": "bytes32"
        },
        {
          "indexed": true,
          "internalType": "address",
          "name": "operator",
          "type": "address"
        },
        {
          "indexed": false,
          "internalType": "uint256",
          "name": "amount",
          "type": "uint256"
        },
        {
          "indexed": true,
          "internalType": "address",
          "name": "slasher",
          "type": "address"
        },
        {
          "indexed": false,
          "internalType": "string",
          "name": "reason",
          "type": "string"
        }
      ],
      "name": "OperatorSlashed",
      "type": "event"
    },
    {
      "anonymous": false,
      "inputs": [
        {
          "indexed": true,
          "internalType": "bytes32",
          "name": "tenantId",
          "type": "bytes32"
        },
        {
          "indexed": true,
          "internalType": "address",
          "name": "operator",
          "type": "address"
        },
        {
          "indexed": true,
          "internalType": "bytes32",
          "name": "violationCode",
          "type": "bytes32"
        },
        {
          "indexed": false,
          "internalType": "uint16",
          "name": "penaltyBps",
          "type": "uint16"
        },
        {
          "indexed": false,
          "internalType": "uint256",
          "name": "slashedAmount",
          "type": "uint256"
        },
        {
          "indexed": false,
          "internalType": "uint256",
          "name": "remainingStake",
          "type": "uint256"
        },
        {
          "indexed": false,
          "internalType": "address",
          "name": "slasher",
          "type": "address"
        },
        {
          "indexed": false,
          "internalType": "string",
          "name": "reason",
          "type": "string"
        }
      ],
      "name": "OperatorSoftSlashed",
      "type": "event"
    },
    {
      "anonymous": false,
      "inputs": [
        {
          "indexed": true,
          "internalType": "bytes32",
          "name": "tenantId",
          "type": "bytes32"
        },
        {
          "indexed": true,
          "internalType": "address",
          "name": "operator",
          "type": "address"
        },
        {
          "indexed": false,
          "internalType": "uint256",
          "name": "amount",
          "type": "uint256"
        },
        {
          "indexed": false,
          "internalType": "uint256",
          "name": "totalStake",
          "type": "uint256"
        }
      ],
      "name": "OperatorStakeToppedUp",
      "type": "event"
    },
    {
      "anonymous": false,
      "inputs": [
        {
          "indexed": true,
          "internalType": "bytes32",
          "name": "tenantId",
          "type": "bytes32"
        },
        {
          "indexed": true,
          "internalType": "address",
          "name": "operator",
          "type": "address"
        },
        {
          "indexed": false,
          "internalType": "bool",
          "name": "isActive",
          "type": "bool"
        },
        {
          "indexed": false,
          "internalType": "string",
          "name": "reason",
          "type": "string"
        }
      ],
      "name": "OperatorStatusUpdated",
      "type": "event"
    },
    {
      "anonymous": false,
      "inputs": [
        {
          "indexed": true,
          "internalType": "bytes32",
          "name": "tenantId",
          "type": "bytes32"
        },
        {
          "indexed": true,
          "internalType": "address",
          "name": "operator",
          "type": "address"
        },
        {
          "indexed": false,
          "internalType": "uint256",
          "name": "availableAt",
          "type": "uint256"
        }
      ],
      "name": "OperatorUnstakeRequested",
      "type": "event"
    },
    {
      "anonymous": false,
      "inputs": [
        {
          "indexed": true,
          "internalType": "bytes32",
          "name": "tenantId",
          "type": "bytes32"
        },
        {
          "indexed": true,
          "internalType": "address",
          "name": "operator",
          "type": "address"
        },
        {
          "indexed": false,
          "internalType": "uint256",
          "name": "amount",
          "type": "uint256"
        }
      ],
      "name": "OperatorUnstaked",
      "type": "event"
    },
    {
      "anonymous": false,
      "inputs": [
        {
          "indexed": true,
          "internalType": "address",
          "name": "protocolOwner",
          "type": "address"
        }
      ],
      "name": "ProtocolInitialized",
      "type": "event"
    },
    {
      "anonymous": false,
      "inputs": [
        {
          "indexed": true,
          "internalType": "bytes32",
          "name": "role",
          "type": "bytes32"
        },
        {
          "indexed": true,
          "internalType": "bytes32",
          "name": "previousAdminRole",
          "type": "bytes32"
        },
        {
          "indexed": true,
          "internalType": "bytes32",
          "name": "newAdminRole",
          "type": "bytes32"
        }
      ],
      "name": "RoleAdminChanged",
      "type": "event"
    },
    {
      "anonymous": false,
      "inputs": [
        {
          "indexed": true,
          "internalType": "bytes32",
          "name": "role",
          "type": "bytes32"
        },
        {
          "indexed": true,
          "internalType": "address",
          "name": "account",
          "type": "address"
        },
        {
          "indexed": true,
          "internalType": "address",
          "name": "sender",
          "type": "address"
        }
      ],
      "name": "RoleGranted",
      "type": "event"
    },
    {
      "anonymous": false,
      "inputs": [
        {
          "indexed": true,
          "internalType": "bytes32",
          "name": "role",
          "type": "bytes32"
        },
        {
          "indexed": true,
          "internalType": "address",
          "name": "account",
          "type": "address"
        },
        {
          "indexed": true,
          "internalType": "address",
          "name": "sender",
          "type": "address"
        }
      ],
      "name": "RoleRevoked",
      "type": "event"
    },
    {
      "anonymous": false,
      "inputs": [
        {
          "indexed": true,
          "internalType": "bytes32",
          "name": "tenantId",
          "type": "bytes32"
        },
        {
          "indexed": true,
          "internalType": "address",
          "name": "admin",
          "type": "address"
        },
        {
          "indexed": true,
          "internalType": "address",
          "name": "treasury",
          "type": "address"
        }
      ],
      "name": "TenantCreated",
      "type": "event"
    },
    {
      "anonymous": false,
      "inputs": [
        {
          "indexed": true,
          "internalType": "bytes32",
          "name": "tenantId",
          "type": "bytes32"
        },
        {
          "indexed": false,
          "internalType": "bool",
          "name": "isActive",
          "type": "bool"
        }
      ],
      "name": "TenantStatusUpdated",
      "type": "event"
    },
    {
      "anonymous": false,
      "inputs": [
        {
          "indexed": true,
          "internalType": "bytes32",
          "name": "tenantId",
          "type": "bytes32"
        },
        {
          "indexed": true,
          "internalType": "address",
          "name": "oldTreasury",
          "type": "address"
        },
        {
          "indexed": true,
          "internalType": "address",
          "name": "newTreasury",
          "type": "address"
        }
      ],
      "name": "TreasuryUpdated",
      "type": "event"
    },
    {
      "anonymous": false,
      "inputs": [
        {
          "indexed": true,
          "internalType": "bytes32",
          "name": "tenantId",
          "type": "bytes32"
        },
        {
          "indexed": false,
          "internalType": "uint256",
          "name": "oldValue",
          "type": "uint256"
        },
        {
          "indexed": false,
          "internalType": "uint256",
          "name": "newValue",
          "type": "uint256"
        }
      ],
      "name": "UnstakeCooldownUpdated",
      "type": "event"
    },
    {
      "anonymous": false,
      "inputs": [
        {
          "indexed": true,
          "internalType": "bytes32",
          "name": "tenantId",
          "type": "bytes32"
        },
        {
          "indexed": true,
          "internalType": "bytes32",
          "name": "violationCode",
          "type": "bytes32"
        },
        {
          "indexed": false,
          "internalType": "uint16",
          "name": "oldPenaltyBps",
          "type": "uint16"
        },
        {
          "indexed": false,
          "internalType": "uint16",
          "name": "newPenaltyBps",
          "type": "uint16"
        }
      ],
      "name": "ViolationPenaltyUpdated",
      "type": "event"
    },
    {
      "inputs": [],
      "name": "COSIGN_ROLE_NONE",
      "outputs": [
        {
          "internalType": "uint16",
          "name": "",
          "type": "uint16"
        }
      ],
      "stateMutability": "view",
      "type": "function"
    },
    {
      "inputs": [],
      "name": "DEFAULT_ADMIN_ROLE",
      "outputs": [
        {
          "internalType": "bytes32",
          "name": "",
          "type": "bytes32"
        }
      ],
      "stateMutability": "view",
      "type": "function"
    },
    {
      "inputs": [],
      "name": "MAX_COSIGN_ROLE_ID",
      "outputs": [
        {
          "internalType": "uint16",
          "name": "",
          "type": "uint16"
        }
      ],
      "stateMutability": "view",
      "type": "function"
    },
    {
      "inputs": [],
      "name": "MAX_PENALTY_BPS",
      "outputs": [
        {
          "internalType": "uint16",
          "name": "",
          "type": "uint16"
        }
      ],
      "stateMutability": "view",
      "type": "function"
    },
    {
      "inputs": [],
      "name": "MIN_COSIGN_ROLE_ID",
      "outputs": [
        {
          "internalType": "uint16",
          "name": "",
          "type": "uint16"
        }
      ],
      "stateMutability": "view",
      "type": "function"
    },
    {
      "inputs": [],
      "name": "MIN_STAKE",
      "outputs": [
        {
          "internalType": "uint256",
          "name": "",
          "type": "uint256"
        }
      ],
      "stateMutability": "view",
      "type": "function"
    },
    {
      "inputs": [],
      "name": "PROTOCOL_ADMIN_ROLE",
      "outputs": [
        {
          "internalType": "bytes32",
          "name": "",
          "type": "bytes32"
        }
      ],
      "stateMutability": "view",
      "type": "function"
    },
    {
      "inputs": [],
      "name": "UNSTAKE_COOLDOWN",
      "outputs": [
        {
          "internalType": "uint256",
          "name": "",
          "type": "uint256"
        }
      ],
      "stateMutability": "view",
      "type": "function"
    },
    {
      "inputs": [
        {
          "internalType": "bytes32",
          "name": "",
          "type": "bytes32"
        },
        {
          "internalType": "bytes32",
          "name": "",
          "type": "bytes32"
        }
      ],
      "name": "coSignCount",
      "outputs": [
        {
          "internalType": "uint256",
          "name": "",
          "type": "uint256"
        }
      ],
      "stateMutability": "view",
      "type": "function"
    },
    {
      "inputs": [
        {
          "components": [
            {
              "internalType": "bytes32",
              "name": "tenantId",
              "type": "bytes32"
            },
            {
              "internalType": "bytes32",
              "name": "fileHash",
              "type": "bytes32"
            },
            {
              "internalType": "uint256",
              "name": "nonce",
              "type": "uint256"
            },
            {
              "internalType": "uint256",
              "name": "deadline",
              "type": "uint256"
            }
          ],
          "internalType": "struct VoucherProtocol.CoSignPayload",
          "name": "payload",
          "type": "tuple"
        },
        {
          "internalType": "bytes",
          "name": "signature",
          "type": "bytes"
        }
      ],
      "name": "coSignDocumentWithSignature",
      "outputs": [],
      "stateMutability": "nonpayable",
      "type": "function"
    },
    {
      "inputs": [
        {
          "internalType": "bytes32",
          "name": "",
          "type": "bytes32"
        },
        {
          "internalType": "bytes32",
          "name": "",
          "type": "bytes32"
        }
      ],
      "name": "coSignQualified",
      "outputs": [
        {
          "internalType": "bool",
          "name": "",
          "type": "bool"
        }
      ],
      "stateMutability": "view",
      "type": "function"
    },
    {
      "inputs": [
        {
          "internalType": "bytes32",
          "name": "tenantId",
          "type": "bytes32"
        },
        {
          "internalType": "address",
          "name": "tenantAdmin",
          "type": "address"
        },
        {
          "internalType": "address",
          "name": "tenantTreasury",
          "type": "address"
        }
      ],
      "name": "createTenant",
      "outputs": [],
      "stateMutability": "nonpayable",
      "type": "function"
    },
    {
      "inputs": [
        {
          "internalType": "bytes32",
          "name": "tenantId",
          "type": "bytes32"
        }
      ],
      "name": "executeUnstake",
      "outputs": [],
      "stateMutability": "nonpayable",
      "type": "function"
    },
    {
      "inputs": [
        {
          "internalType": "bytes32",
          "name": "tenantId",
          "type": "bytes32"
        },
        {
          "internalType": "bytes32",
          "name": "fileHash",
          "type": "bytes32"
        }
      ],
      "name": "getCoSignStatus",
      "outputs": [
        {
          "internalType": "bool",
          "name": "qualified",
          "type": "bool"
        },
        {
          "internalType": "uint256",
          "name": "totalSigners",
          "type": "uint256"
        },
        {
          "internalType": "uint256",
          "name": "trustedSigners",
          "type": "uint256"
        },
        {
          "internalType": "uint256",
          "name": "currentRoleMask",
          "type": "uint256"
        },
        {
          "internalType": "uint256",
          "name": "requiredRoleMask",
          "type": "uint256"
        },
        {
          "internalType": "uint256",
          "name": "minSigners",
          "type": "uint256"
        },
        {
          "internalType": "uint256",
          "name": "minStake",
          "type": "uint256"
        }
      ],
      "stateMutability": "view",
      "type": "function"
    },
    {
      "inputs": [
        {
          "internalType": "bytes32",
          "name": "tenantId",
          "type": "bytes32"
        },
        {
          "internalType": "bytes32",
          "name": "fileHash",
          "type": "bytes32"
        }
      ],
      "name": "getDocumentOrRevert",
      "outputs": [
        {
          "components": [
            {
              "internalType": "bytes32",
              "name": "tenantId",
              "type": "bytes32"
            },
            {
              "internalType": "string",
              "name": "cid",
              "type": "string"
            },
            {
              "internalType": "address",
              "name": "issuer",
              "type": "address"
            },
            {
              "internalType": "uint256",
              "name": "timestamp",
              "type": "uint256"
            },
            {
              "internalType": "bool",
              "name": "isValid",
              "type": "bool"
            },
            {
              "internalType": "bytes32",
              "name": "ciphertextHash",
              "type": "bytes32"
            },
            {
              "internalType": "bytes32",
              "name": "encryptionMetaHash",
              "type": "bytes32"
            },
            {
              "internalType": "uint32",
              "name": "docType",
              "type": "uint32"
            },
            {
              "internalType": "uint32",
              "name": "version",
              "type": "uint32"
            }
          ],
          "internalType": "struct VoucherProtocol.Document",
          "name": "",
          "type": "tuple"
        }
      ],
      "stateMutability": "view",
      "type": "function"
    },
    {
      "inputs": [
        {
          "internalType": "bytes32",
          "name": "role",
          "type": "bytes32"
        }
      ],
      "name": "getRoleAdmin",
      "outputs": [
        {
          "internalType": "bytes32",
          "name": "",
          "type": "bytes32"
        }
      ],
      "stateMutability": "view",
      "type": "function"
    },
    {
      "inputs": [],
      "name": "getTenantCount",
      "outputs": [
        {
          "internalType": "uint256",
          "name": "",
          "type": "uint256"
        }
      ],
      "stateMutability": "view",
      "type": "function"
    },
    {
      "inputs": [
        {
          "internalType": "bytes32",
          "name": "role",
          "type": "bytes32"
        },
        {
          "internalType": "address",
          "name": "account",
          "type": "address"
        }
      ],
      "name": "grantRole",
      "outputs": [],
      "stateMutability": "nonpayable",
      "type": "function"
    },
    {
      "inputs": [
        {
          "internalType": "bytes32",
          "name": "role",
          "type": "bytes32"
        },
        {
          "internalType": "address",
          "name": "account",
          "type": "address"
        }
      ],
      "name": "hasRole",
      "outputs": [
        {
          "internalType": "bool",
          "name": "",
          "type": "bool"
        }
      ],
      "stateMutability": "view",
      "type": "function"
    },
    {
      "inputs": [
        {
          "internalType": "bytes32",
          "name": "tenantId",
          "type": "bytes32"
        },
        {
          "internalType": "bytes32",
          "name": "fileHash",
          "type": "bytes32"
        },
        {
          "internalType": "address",
          "name": "signer",
          "type": "address"
        }
      ],
      "name": "hasSignedDocument",
      "outputs": [
        {
          "internalType": "bool",
          "name": "",
          "type": "bool"
        }
      ],
      "stateMutability": "view",
      "type": "function"
    },
    {
      "inputs": [
        {
          "internalType": "bytes32",
          "name": "tenantId",
          "type": "bytes32"
        },
        {
          "internalType": "bytes32",
          "name": "fileHash",
          "type": "bytes32"
        }
      ],
      "name": "isDocumentCoSignQualified",
      "outputs": [
        {
          "internalType": "bool",
          "name": "",
          "type": "bool"
        }
      ],
      "stateMutability": "view",
      "type": "function"
    },
    {
      "inputs": [
        {
          "internalType": "bytes32",
          "name": "tenantId",
          "type": "bytes32"
        },
        {
          "internalType": "string",
          "name": "_metadataURI",
          "type": "string"
        }
      ],
      "name": "joinAsOperator",
      "outputs": [],
      "stateMutability": "payable",
      "type": "function"
    },
    {
      "inputs": [
        {
          "internalType": "bytes32",
          "name": "",
          "type": "bytes32"
        },
        {
          "internalType": "address",
          "name": "",
          "type": "address"
        }
      ],
      "name": "nonces",
      "outputs": [
        {
          "internalType": "uint256",
          "name": "",
          "type": "uint256"
        }
      ],
      "stateMutability": "view",
      "type": "function"
    },
    {
      "inputs": [
        {
          "internalType": "bytes32",
          "name": "",
          "type": "bytes32"
        },
        {
          "internalType": "address",
          "name": "",
          "type": "address"
        }
      ],
      "name": "operators",
      "outputs": [
        {
          "internalType": "bytes32",
          "name": "tenantId",
          "type": "bytes32"
        },
        {
          "internalType": "string",
          "name": "metadataURI",
          "type": "string"
        },
        {
          "internalType": "uint256",
          "name": "stakeAmount",
          "type": "uint256"
        },
        {
          "internalType": "bool",
          "name": "isActive",
          "type": "bool"
        }
      ],
      "stateMutability": "view",
      "type": "function"
    },
    {
      "inputs": [
        {
          "internalType": "bytes32",
          "name": "",
          "type": "bytes32"
        },
        {
          "internalType": "address",
          "name": "",
          "type": "address"
        }
      ],
      "name": "pendingUnstakeAt",
      "outputs": [
        {
          "internalType": "uint256",
          "name": "",
          "type": "uint256"
        }
      ],
      "stateMutability": "view",
      "type": "function"
    },
    {
      "inputs": [],
      "name": "protocolOwner",
      "outputs": [
        {
          "internalType": "address",
          "name": "",
          "type": "address"
        }
      ],
      "stateMutability": "view",
      "type": "function"
    },
    {
      "inputs": [
        {
          "internalType": "bytes32",
          "name": "tenantId",
          "type": "bytes32"
        },
        {
          "internalType": "address",
          "name": "lostOperator",
          "type": "address"
        },
        {
          "internalType": "address",
          "name": "newOperator",
          "type": "address"
        },
        {
          "internalType": "string",
          "name": "reason",
          "type": "string"
        }
      ],
      "name": "recoverOperatorByAdmin",
      "outputs": [],
      "stateMutability": "nonpayable",
      "type": "function"
    },
    {
      "inputs": [
        {
          "internalType": "bytes32",
          "name": "tenantId",
          "type": "bytes32"
        },
        {
          "internalType": "address",
          "name": "lostOperator",
          "type": "address"
        },
        {
          "internalType": "string",
          "name": "reason",
          "type": "string"
        }
      ],
      "name": "recoverOperatorByDelegate",
      "outputs": [],
      "stateMutability": "nonpayable",
      "type": "function"
    },
    {
      "inputs": [
        {
          "internalType": "bytes32",
          "name": "",
          "type": "bytes32"
        },
        {
          "internalType": "address",
          "name": "",
          "type": "address"
        }
      ],
      "name": "recoveryDelegates",
      "outputs": [
        {
          "internalType": "address",
          "name": "",
          "type": "address"
        }
      ],
      "stateMutability": "view",
      "type": "function"
    },
    {
      "inputs": [
        {
          "components": [
            {
              "internalType": "bytes32",
              "name": "tenantId",
              "type": "bytes32"
            },
            {
              "internalType": "bytes32",
              "name": "fileHash",
              "type": "bytes32"
            },
            {
              "internalType": "string",
              "name": "cid",
              "type": "string"
            },
            {
              "internalType": "bytes32",
              "name": "ciphertextHash",
              "type": "bytes32"
            },
            {
              "internalType": "bytes32",
              "name": "encryptionMetaHash",
              "type": "bytes32"
            },
            {
              "internalType": "uint32",
              "name": "docType",
              "type": "uint32"
            },
            {
              "internalType": "uint32",
              "name": "version",
              "type": "uint32"
            },
            {
              "internalType": "uint256",
              "name": "nonce",
              "type": "uint256"
            },
            {
              "internalType": "uint256",
              "name": "deadline",
              "type": "uint256"
            }
          ],
          "internalType": "struct VoucherProtocol.RegisterPayload",
          "name": "payload",
          "type": "tuple"
        },
        {
          "internalType": "bytes",
          "name": "signature",
          "type": "bytes"
        }
      ],
      "name": "registerWithSignature",
      "outputs": [],
      "stateMutability": "nonpayable",
      "type": "function"
    },
    {
      "inputs": [
        {
          "internalType": "bytes32",
          "name": "role",
          "type": "bytes32"
        },
        {
          "internalType": "address",
          "name": "callerConfirmation",
          "type": "address"
        }
      ],
      "name": "renounceRole",
      "outputs": [],
      "stateMutability": "nonpayable",
      "type": "function"
    },
    {
      "inputs": [
        {
          "internalType": "bytes32",
          "name": "tenantId",
          "type": "bytes32"
        }
      ],
      "name": "requestUnstake",
      "outputs": [],
      "stateMutability": "nonpayable",
      "type": "function"
    },
    {
      "inputs": [
        {
          "internalType": "bytes32",
          "name": "tenantId",
          "type": "bytes32"
        },
        {
          "internalType": "bytes32",
          "name": "fileHash",
          "type": "bytes32"
        },
        {
          "internalType": "string",
          "name": "reason",
          "type": "string"
        }
      ],
      "name": "revokeDocument",
      "outputs": [],
      "stateMutability": "nonpayable",
      "type": "function"
    },
    {
      "inputs": [
        {
          "internalType": "bytes32",
          "name": "role",
          "type": "bytes32"
        },
        {
          "internalType": "address",
          "name": "account",
          "type": "address"
        }
      ],
      "name": "revokeRole",
      "outputs": [],
      "stateMutability": "nonpayable",
      "type": "function"
    },
    {
      "inputs": [
        {
          "internalType": "bytes32",
          "name": "tenantId",
          "type": "bytes32"
        },
        {
          "internalType": "uint32",
          "name": "docType",
          "type": "uint32"
        },
        {
          "internalType": "address",
          "name": "operator",
          "type": "address"
        },
        {
          "internalType": "bool",
          "name": "whitelisted",
          "type": "bool"
        },
        {
          "internalType": "uint16",
          "name": "roleId",
          "type": "uint16"
        }
      ],
      "name": "setCoSignOperator",
      "outputs": [],
      "stateMutability": "nonpayable",
      "type": "function"
    },
    {
      "inputs": [
        {
          "internalType": "bytes32",
          "name": "tenantId",
          "type": "bytes32"
        },
        {
          "internalType": "uint32",
          "name": "docType",
          "type": "uint32"
        },
        {
          "internalType": "bool",
          "name": "enabled",
          "type": "bool"
        },
        {
          "internalType": "uint256",
          "name": "minStake",
          "type": "uint256"
        },
        {
          "internalType": "uint256",
          "name": "minSigners",
          "type": "uint256"
        },
        {
          "internalType": "uint256",
          "name": "requiredRoleMask",
          "type": "uint256"
        }
      ],
      "name": "setCoSignPolicy",
      "outputs": [],
      "stateMutability": "nonpayable",
      "type": "function"
    },
    {
      "inputs": [
        {
          "internalType": "bytes32",
          "name": "tenantId",
          "type": "bytes32"
        },
        {
          "internalType": "uint256",
          "name": "newMinOperatorStake",
          "type": "uint256"
        }
      ],
      "name": "setMinOperatorStake",
      "outputs": [],
      "stateMutability": "nonpayable",
      "type": "function"
    },
    {
      "inputs": [
        {
          "internalType": "bytes32",
          "name": "tenantId",
          "type": "bytes32"
        },
        {
          "internalType": "address",
          "name": "operator",
          "type": "address"
        },
        {
          "internalType": "bool",
          "name": "isActive",
          "type": "bool"
        },
        {
          "internalType": "string",
          "name": "reason",
          "type": "string"
        }
      ],
      "name": "setOperatorStatus",
      "outputs": [],
      "stateMutability": "nonpayable",
      "type": "function"
    },
    {
      "inputs": [
        {
          "internalType": "bytes32",
          "name": "tenantId",
          "type": "bytes32"
        },
        {
          "internalType": "address",
          "name": "delegate",
          "type": "address"
        }
      ],
      "name": "setRecoveryDelegate",
      "outputs": [],
      "stateMutability": "nonpayable",
      "type": "function"
    },
    {
      "inputs": [
        {
          "internalType": "bytes32",
          "name": "tenantId",
          "type": "bytes32"
        },
        {
          "internalType": "bool",
          "name": "isActive",
          "type": "bool"
        }
      ],
      "name": "setTenantStatus",
      "outputs": [],
      "stateMutability": "nonpayable",
      "type": "function"
    },
    {
      "inputs": [
        {
          "internalType": "bytes32",
          "name": "tenantId",
          "type": "bytes32"
        },
        {
          "internalType": "address",
          "name": "newTreasury",
          "type": "address"
        }
      ],
      "name": "setTreasury",
      "outputs": [],
      "stateMutability": "nonpayable",
      "type": "function"
    },
    {
      "inputs": [
        {
          "internalType": "bytes32",
          "name": "tenantId",
          "type": "bytes32"
        },
        {
          "internalType": "uint256",
          "name": "newUnstakeCooldown",
          "type": "uint256"
        }
      ],
      "name": "setUnstakeCooldown",
      "outputs": [],
      "stateMutability": "nonpayable",
      "type": "function"
    },
    {
      "inputs": [
        {
          "internalType": "bytes32",
          "name": "tenantId",
          "type": "bytes32"
        },
        {
          "internalType": "bytes32",
          "name": "violationCode",
          "type": "bytes32"
        },
        {
          "internalType": "uint16",
          "name": "penaltyBps",
          "type": "uint16"
        }
      ],
      "name": "setViolationPenalty",
      "outputs": [],
      "stateMutability": "nonpayable",
      "type": "function"
    },
    {
      "inputs": [
        {
          "internalType": "bytes32",
          "name": "tenantId",
          "type": "bytes32"
        },
        {
          "internalType": "address",
          "name": "_operator",
          "type": "address"
        },
        {
          "internalType": "string",
          "name": "reason",
          "type": "string"
        }
      ],
      "name": "slashOperator",
      "outputs": [],
      "stateMutability": "nonpayable",
      "type": "function"
    },
    {
      "inputs": [
        {
          "internalType": "bytes32",
          "name": "tenantId",
          "type": "bytes32"
        },
        {
          "internalType": "address",
          "name": "_operator",
          "type": "address"
        },
        {
          "internalType": "bytes32",
          "name": "violationCode",
          "type": "bytes32"
        },
        {
          "internalType": "string",
          "name": "reason",
          "type": "string"
        }
      ],
      "name": "softSlashOperator",
      "outputs": [],
      "stateMutability": "nonpayable",
      "type": "function"
    },
    {
      "inputs": [
        {
          "internalType": "bytes4",
          "name": "interfaceId",
          "type": "bytes4"
        }
      ],
      "name": "supportsInterface",
      "outputs": [
        {
          "internalType": "bool",
          "name": "",
          "type": "bool"
        }
      ],
      "stateMutability": "view",
      "type": "function"
    },
    {
      "inputs": [
        {
          "internalType": "bytes32",
          "name": "",
          "type": "bytes32"
        },
        {
          "internalType": "uint32",
          "name": "",
          "type": "uint32"
        }
      ],
      "name": "tenantCoSignPolicies",
      "outputs": [
        {
          "internalType": "bool",
          "name": "enabled",
          "type": "bool"
        },
        {
          "internalType": "uint256",
          "name": "minStake",
          "type": "uint256"
        },
        {
          "internalType": "uint256",
          "name": "minSigners",
          "type": "uint256"
        },
        {
          "internalType": "uint256",
          "name": "requiredRoleMask",
          "type": "uint256"
        }
      ],
      "stateMutability": "view",
      "type": "function"
    },
    {
      "inputs": [
        {
          "internalType": "bytes32",
          "name": "",
          "type": "bytes32"
        },
        {
          "internalType": "uint32",
          "name": "",
          "type": "uint32"
        },
        {
          "internalType": "address",
          "name": "",
          "type": "address"
        }
      ],
      "name": "tenantCoSignRoles",
      "outputs": [
        {
          "internalType": "uint16",
          "name": "",
          "type": "uint16"
        }
      ],
      "stateMutability": "view",
      "type": "function"
    },
    {
      "inputs": [
        {
          "internalType": "bytes32",
          "name": "",
          "type": "bytes32"
        },
        {
          "internalType": "uint32",
          "name": "",
          "type": "uint32"
        },
        {
          "internalType": "address",
          "name": "",
          "type": "address"
        }
      ],
      "name": "tenantCoSignWhitelisted",
      "outputs": [
        {
          "internalType": "bool",
          "name": "",
          "type": "bool"
        }
      ],
      "stateMutability": "view",
      "type": "function"
    },
    {
      "inputs": [
        {
          "internalType": "uint256",
          "name": "",
          "type": "uint256"
        }
      ],
      "name": "tenantList",
      "outputs": [
        {
          "internalType": "bytes32",
          "name": "",
          "type": "bytes32"
        }
      ],
      "stateMutability": "view",
      "type": "function"
    },
    {
      "inputs": [
        {
          "internalType": "bytes32",
          "name": "",
          "type": "bytes32"
        }
      ],
      "name": "tenantMinOperatorStake",
      "outputs": [
        {
          "internalType": "uint256",
          "name": "",
          "type": "uint256"
        }
      ],
      "stateMutability": "view",
      "type": "function"
    },
    {
      "inputs": [
        {
          "internalType": "bytes32",
          "name": "",
          "type": "bytes32"
        }
      ],
      "name": "tenantUnstakeCooldown",
      "outputs": [
        {
          "internalType": "uint256",
          "name": "",
          "type": "uint256"
        }
      ],
      "stateMutability": "view",
      "type": "function"
    },
    {
      "inputs": [
        {
          "internalType": "bytes32",
          "name": "",
          "type": "bytes32"
        },
        {
          "internalType": "bytes32",
          "name": "",
          "type": "bytes32"
        }
      ],
      "name": "tenantViolationPenalties",
      "outputs": [
        {
          "internalType": "uint16",
          "name": "",
          "type": "uint16"
        }
      ],
      "stateMutability": "view",
      "type": "function"
    },
    {
      "inputs": [
        {
          "internalType": "bytes32",
          "name": "",
          "type": "bytes32"
        }
      ],
      "name": "tenants",
      "outputs": [
        {
          "internalType": "address",
          "name": "admin",
          "type": "address"
        },
        {
          "internalType": "address",
          "name": "treasury",
          "type": "address"
        },
        {
          "internalType": "bool",
          "name": "isActive",
          "type": "bool"
        },
        {
          "internalType": "uint256",
          "name": "createdAt",
          "type": "uint256"
        }
      ],
      "stateMutability": "view",
      "type": "function"
    },
    {
      "inputs": [
        {
          "internalType": "bytes32",
          "name": "tenantId",
          "type": "bytes32"
        }
      ],
      "name": "topUpStake",
      "outputs": [],
      "stateMutability": "payable",
      "type": "function"
    },
    {
      "inputs": [
        {
          "internalType": "bytes32",
          "name": "",
          "type": "bytes32"
        },
        {
          "internalType": "bytes32",
          "name": "",
          "type": "bytes32"
        }
      ],
      "name": "trustedCoSignCount",
      "outputs": [
        {
          "internalType": "uint256",
          "name": "",
          "type": "uint256"
        }
      ],
      "stateMutability": "view",
      "type": "function"
    },
    {
      "inputs": [
        {
          "internalType": "bytes32",
          "name": "",
          "type": "bytes32"
        },
        {
          "internalType": "bytes32",
          "name": "",
          "type": "bytes32"
        }
      ],
      "name": "trustedCoSignRoleMask",
      "outputs": [
        {
          "internalType": "uint256",
          "name": "",
          "type": "uint256"
        }
      ],
      "stateMutability": "view",
      "type": "function"
    },
    {
      "inputs": [
        {
          "internalType": "bytes32",
          "name": "tenantId",
          "type": "bytes32"
        },
        {
          "internalType": "string",
          "name": "metadataURI",
          "type": "string"
        }
      ],
      "name": "updateOperatorMetadata",
      "outputs": [],
      "stateMutability": "nonpayable",
      "type": "function"
    },
    {
      "inputs": [
        {
          "internalType": "bytes32",
          "name": "tenantId",
          "type": "bytes32"
        },
        {
          "internalType": "bytes32",
          "name": "fileHash",
          "type": "bytes32"
        }
      ],
      "name": "verify",
      "outputs": [
        {
          "internalType": "bool",
          "name": "exists",
          "type": "bool"
        },
        {
          "internalType": "bool",
          "name": "isValid",
          "type": "bool"
        },
        {
          "internalType": "address",
          "name": "issuer",
          "type": "address"
        },
        {
          "internalType": "string",
          "name": "cid",
          "type": "string"
        }
      ],
      "stateMutability": "view",
      "type": "function"
    }
  ],
  "bytecode": "0x60a060405234801561000f575f5ffd5b5060017f9b779b17422d0df92223018b32b4d1fa46e071723d6817e2486d003becc55f0055600180546001600160a01b03191633908117909155610054905f9061014f565b5061007f7fd0c934f24ef5a377dc3832429ce607cbe940a3ca3c6cd7e532bd35b4b212d1963361014f565b50604080517f8b73c3c69bb8fe3d512ecc4cf759cc79239f7b179b0ffacaa9a75d522b39400f60208201527f32e8a79951df9d41f0345a487dbe19ec03b0a7de9751dd4031f0cc3d0a623968918101919091527fc89efdaa54c0f20c7adf612882df0950f5a951637e0307cdcb4c672f298b8bc660608201524660808201523060a082015260c00160408051601f1981840301815290829052805160209091012060805233907fc130514d7c8c002bccb3fd35204490d020b73c0188386dbb07de86d15d5cb9a0905f90a26101f8565b5f828152602081815260408083206001600160a01b038516845290915281205460ff166101ef575f838152602081815260408083206001600160a01b03861684529091529020805460ff191660011790556101a73390565b6001600160a01b0316826001600160a01b0316847f2f8788117e7eff1d82e926ec794901d17c78024a50270940304540a733656f0d60405160405180910390a45060016101f2565b505f5b92915050565b6080516158596102105f395f6146de01526158595ff3fe60806040526004361061037c575f3560e01c80639149cd49116101d3578063cbbb0fec116100fd578063e26edb7a1161009d578063f3e49baa1161006d578063f3e49baa14610c7b578063f4410c0614610cba578063fb827fa814610cd9578063fc89626714610d08575f5ffd5b8063e26edb7a14610bf1578063e7b06ccd14610c10578063eaa3668f14610c2f578063f049b65014610c42575f5ffd5b8063d4b77cfc116100d8578063d4b77cfc14610b34578063d547741f14610b53578063d9fe7f6714610b72578063dfa89c1d14610bb2575f5ffd5b8063cbbb0fec14610aac578063d019036e14610acb578063d1e4bbde14610ade575f5ffd5b8063a2375cf311610173578063b04da8a111610143578063b04da8a114610a05578063c1d6ba6914610a3b578063c664e0d514610a72578063cb1c2b5c14610a91575f5ffd5b8063a2375cf314610975578063a468703d14610994578063a60f4c09146109b3578063aee2bc86146109d2575f5ffd5b806395f001e6116101ae57806395f001e6146108a057806399c89404146108bf5780639e531042146108de578063a217fddf14610962575f5ffd5b80639149cd491461085957806391d148541461086d578063920da4331461088c575f5ffd5b80634d00857a116102b45780636b044e3d116102545780637ff63731116102245780637ff63731146107a357806386e2b63f146107d95780638bdb1de31461080f5780638d18edf01461083a575f5ffd5b80636b044e3d146106e45780636d184dd314610703578063715eba9a146107395780637c6b9adb14610758575f5ffd5b8063502ea5c21161028f578063502ea5c21461064e578063541bd3ee146106875780635e509807146106a65780635f2ec6ba146106c5575f5ffd5b80634d00857a146105ca5780634e8fee00146105e95780634f138e0114610618575f5ffd5b8063248a9ca31161031f57806336568abe116102fa57806336568abe146104ef5780633ebf6f7d1461050e57806342149fd01461057f578063421f9b421461059e575f5ffd5b8063248a9ca31461046857806328a1b2c9146104965780632f2ff15d146104d0575f5ffd5b80630e0895b91161035a5780630e0895b9146104005780630f3384e014610415578063130d571b14610436578063246145d814610455575f5ffd5b806301ffc9a7146103805780630225d3cc146103b45780630b60c58f146103dc575b5f5ffd5b34801561038b575f5ffd5b5061039f61039a366004614d75565b610d33565b60405190151581526020015b60405180910390f35b3480156103bf575f5ffd5b506103c961271081565b60405161ffff90911681526020016103ab565b3480156103e7575f5ffd5b506103f26201518081565b6040519081526020016103ab565b34801561040b575f5ffd5b506103c961010081565b348015610420575f5ffd5b5061043461042f366004614d9c565b610d69565b005b348015610441575f5ffd5b50610434610450366004614e2b565b610e41565b610434610463366004614e95565b610f73565b348015610473575f5ffd5b506103f2610482366004614edd565b5f9081526020819052604090206001015490565b3480156104a1575f5ffd5b506103c96104b0366004614d9c565b601160209081525f928352604080842090915290825290205461ffff1681565b3480156104db575f5ffd5b506104346104ea366004614ef4565b6111e8565b3480156104fa575f5ffd5b50610434610509366004614ef4565b611212565b348015610519575f5ffd5b5061055d610528366004614f31565b600e60209081525f9283526040808420909152908252902080546001820154600283015460039093015460ff90921692909184565b60408051941515855260208501939093529183015260608201526080016103ab565b34801561058a575f5ffd5b50610434610599366004614f52565b61124a565b3480156105a9575f5ffd5b506105bd6105b8366004614d9c565b6116bd565b6040516103ab9190614fd6565b3480156105d5575f5ffd5b506104346105e4366004615091565b61186f565b3480156105f4575f5ffd5b50610608610603366004614d9c565b611a4e565b6040516103ab94939291906150eb565b348015610623575f5ffd5b506103f2610632366004614d9c565b600a60209081525f928352604080842090915290825290205481565b348015610659575f5ffd5b5061039f610668366004614d9c565b600d60209081525f928352604080842090915290825290205460ff1681565b348015610692575f5ffd5b506104346106a1366004614edd565b611bd2565b3480156106b1575f5ffd5b506104346106c036600461511e565b611dbd565b3480156106d0575f5ffd5b506104346106df366004615150565b611ee2565b3480156106ef575f5ffd5b506104346106fe366004615180565b6120f9565b34801561070e575f5ffd5b506103f261071d366004614d9c565b600b60209081525f928352604080842090915290825290205481565b348015610744575f5ffd5b50610434610753366004614ef4565b6121e8565b348015610763575f5ffd5b5061039f6107723660046151b7565b5f9283526009602090815260408085209385529281528284206001600160a01b039290921684525290205460ff1690565b3480156107ae575f5ffd5b506103f26107bd366004614d9c565b600c60209081525f928352604080842090915290825290205481565b3480156107e4575f5ffd5b506103f26107f3366004614ef4565b600560209081525f928352604080842090915290825290205481565b34801561081a575f5ffd5b506103f2610829366004614edd565b60126020525f908152604090205481565b348015610845575f5ffd5b506104346108543660046151e0565b6122cb565b348015610864575f5ffd5b506003546103f2565b348015610878575f5ffd5b5061039f610887366004614ef4565b6129db565b348015610897575f5ffd5b506103c9600181565b3480156108ab575f5ffd5b506104346108ba366004615235565b612a03565b3480156108ca575f5ffd5b506103f26108d9366004614edd565b612abe565b3480156108e9575f5ffd5b506109316108f8366004614edd565b600260208190525f91825260409091208054600182015491909201546001600160a01b0392831692821691600160a01b900460ff169084565b604080516001600160a01b0395861681529490931660208501529015159183019190915260608201526080016103ab565b34801561096d575f5ffd5b506103f25f81565b348015610980575f5ffd5b5061043461098f366004614e95565b612add565b34801561099f575f5ffd5b506104346109ae366004615256565b612bb0565b3480156109be575f5ffd5b506104346109cd366004615293565b613149565b3480156109dd575f5ffd5b506103f27fd0c934f24ef5a377dc3832429ce607cbe940a3ca3c6cd7e532bd35b4b212d19681565b348015610a10575f5ffd5b506103f2610a1f366004614ef4565b600660209081525f928352604080842090915290825290205481565b348015610a46575f5ffd5b50600154610a5a906001600160a01b031681565b6040516001600160a01b0390911681526020016103ab565b348015610a7d575f5ffd5b50610434610a8c366004614ef4565b61329c565b348015610a9c575f5ffd5b506103f267016345785d8a000081565b348015610ab7575f5ffd5b50610434610ac6366004614d9c565b6133bf565b348015610ad6575f5ffd5b506103c95f81565b348015610ae9575f5ffd5b50610afd610af8366004614d9c565b613488565b6040805197151588526020880196909652948601939093526060850191909152608084015260a083015260c082015260e0016103ab565b348015610b3f575f5ffd5b50610434610b4e3660046152e7565b613715565b348015610b5e575f5ffd5b50610434610b6d366004614ef4565b613b5b565b348015610b7d575f5ffd5b506103c9610b8c366004615319565b601060209081525f938452604080852082529284528284209052825290205461ffff1681565b348015610bbd575f5ffd5b50610a5a610bcc366004614ef4565b600760209081525f92835260408084209091529082529020546001600160a01b031681565b348015610bfc575f5ffd5b50610434610c0b366004614edd565b613b7f565b348015610c1b575f5ffd5b50610434610c2a36600461533b565b613c9a565b610434610c3d366004614edd565b613f9d565b348015610c4d575f5ffd5b5061039f610c5c366004614d9c565b5f918252600d6020908152604080842092845291905290205460ff1690565b348015610c86575f5ffd5b5061039f610c95366004615319565b600f60209081525f938452604080852082529284528284209052825290205460ff1681565b348015610cc5575f5ffd5b50610434610cd4366004614f52565b6140f0565b348015610ce4575f5ffd5b50610cf8610cf3366004614ef4565b614332565b6040516103ab9493929190615381565b348015610d13575f5ffd5b506103f2610d22366004614edd565b60136020525f908152604090205481565b5f6001600160e01b03198216637965db0b60e01b1480610d6357506301ffc9a760e01b6001600160e01b03198316145b92915050565b5f828152600260205260409020546001600160a01b0316610d9d576040516315858c8d60e31b815260040160405180910390fd5b610daf610da9836143ef565b336129db565b610dcb576040516282b42960e81b815260040160405180910390fd5b805f03610deb576040516310a571d160e31b815260040160405180910390fd5b5f8281526012602090815260409182902080549084905582518181529182018490529184917fb3e495fc3e71835a852989aa9b3d6b27f6b8d42624cb9b3cf02660a2398cc4f691015b60405180910390a2505050565b5f858152600260205260409020546001600160a01b0316610e75576040516315858c8d60e31b815260040160405180910390fd5b610e81610da9866143ef565b610e9d576040516282b42960e81b815260040160405180910390fd5b5f8581526004602090815260408083206001600160a01b03881684529091528120600201549003610ee157604051636567cc4d60e11b815260040160405180910390fd5b5f8581526004602090815260408083206001600160a01b03881684529091529020600301805460ff191684151517905582610f39575f8581526006602090815260408083206001600160a01b03881684529091528120555b836001600160a01b0316855f5160206158045f395f51905f52858585604051610f64939291906153d9565b60405180910390a35050505050565b5f838152600260205260409020546001600160a01b0316610fa7576040516315858c8d60e31b815260040160405180910390fd5b5f83815260026020526040902060010154600160a01b900460ff16610fdf57604051633ae035b560e21b815260040160405180910390fd5b5f8381526012602052604090205434101561102b575f83815260126020526040908190205490516322df051360e11b815234600482015260248101919091526044015b60405180910390fd5b5f83815260046020908152604080832033845290915290206002015415158061106f57505f83815260046020908152604080832033845290915290206003015460ff165b1561108d5760405163781f2ed160e11b815260040160405180910390fd5b604051806080016040528084815260200183838080601f0160208091040260200160405190810160405280939291908181526020018383808284375f92018290525093855250503460208085019190915260016040948501819052888452600482528484203385528252939092208451815591840151919283019161111391508261548d565b5060408281015160028301556060909201516003909101805460ff19169115159190911790555f8481526006602090815282822033808452915282822091909155905184907f89093fa8f3c791613d772d3d77195c6050e6b0d2f7915c934f7299c3e60e14d19061118990869086903490615548565b60405180910390a3336001600160a01b0316835f5160206158045f395f51905f5260016040516111db9115158152604060208201819052600690820152651293d253915160d21b606082015260800190565b60405180910390a3505050565b5f8281526020819052604090206001015461120281614450565b61120c838361445a565b50505050565b6001600160a01b038116331461123b5760405163334bd91960e11b815260040160405180910390fd5b61124582826144e9565b505050565b5f848152600260205260409020546001600160a01b031661127e576040516315858c8d60e31b815260040160405180910390fd5b5f8481526004602090815260408083206001600160a01b038716845290915290206003015460ff16156112c457604051631ae4c62160e31b815260040160405180910390fd5b5f8481526004602090815260408083206001600160a01b038716845290915281206002015490036113085760405163e5e6218160e01b815260040160405180910390fd5b5f8481526006602090815260408083206001600160a01b03871684529091529020541561134857604051633c10931960e21b815260040160405180910390fd5b5f8481526007602090815260408083206001600160a01b03878116855292529091205416331461138b5760405163ce4f24bb60e01b815260040160405180910390fd5b5f8481526004602090815260408083203384529091529020600201541515806113cf57505f84815260046020908152604080832033845290915290206003015460ff165b156113ed57604051632f55c93160e11b815260040160405180910390fd5b5f8481526004602090815260408083206001600160a01b0387168452825280832081516080810190925280548252600181018054929391929184019161143290615411565b80601f016020809104026020016040519081016040528092919081815260200182805461145e90615411565b80156114a95780601f10611480576101008083540402835291602001916114a9565b820191905f5260205f20905b81548152906001019060200180831161148c57829003601f168201915b50505091835250506002820154602082015260039091015460ff1615156040918201528101519091505f036114f157604051636567cc4d60e11b815260040160405180910390fd5b6040805160808101825286815260208381015181830190815284840151838501526060808601511515908401525f89815260048352848120338252909252929020815181559151909190600182019061154a908261548d565b5060408281015160028301556060909201516003909101805460ff19169115159190911790555f868152600560209081528282206001600160a01b038816808452908252838320543380855285852091909155898452600683528484209084528252838320839055888352600482528383209083529052908120818155906115d56001830182614d2b565b505f600282018190556003909101805460ff191690558581526005602090815260408083206001600160a01b038816808552908352818420849055888452600683528184208185528352818420849055888452600783528184208185529092529182902080546001600160a01b0319169055828201519151339288917fd9f8b9c3708d68f065bd3abc87d385dd96a656d93537a092b9612a9775bd631091611680918990899061556b565b60405180910390a46040515f90339087907f7e8f7689d5c1589dea13355ed1b30d2a11c050a08189c224a84103455f87036f908490a45050505050565b61171b6040518061012001604052805f8152602001606081526020015f6001600160a01b031681526020015f81526020015f151581526020015f81526020015f81526020015f63ffffffff1681526020015f63ffffffff1681525090565b5f83815260086020908152604080832085845282528083208151610120810190925280548252600181018054929391929184019161175890615411565b80601f016020809104026020016040519081016040528092919081815260200182805461178490615411565b80156117cf5780601f106117a6576101008083540402835291602001916117cf565b820191905f5260205f20905b8154815290600101906020018083116117b257829003601f168201915b505050918352505060028201546001600160a01b0390811660208301526003830154604080840191909152600484015460ff161515606084015260058401546080840152600684015460a084015260079093015463ffffffff80821660c08501526401000000009091041660e0909201919091529082015191925016611868576040516328193b9d60e21b815260040160405180910390fd5b9392505050565b5f858152600260205260409020546001600160a01b03166118a3576040516315858c8d60e31b815260040160405180910390fd5b6118af610da9866143ef565b6118cb576040516282b42960e81b815260040160405180910390fd5b6001600160a01b0383166118f1576040516282b42960e81b815260040160405180910390fd5b811561197057600161ffff8216108061190f575061010061ffff8216115b1561192d57604051636005ea8760e11b815260040160405180910390fd5b5f85815260106020908152604080832063ffffffff8816845282528083206001600160a01b03871684529091529020805461ffff191661ffff83161790556119a9565b5f85815260106020908152604080832063ffffffff8816845282528083206001600160a01b03871684529091529020805461ffff191690555b5f858152600f6020908152604080832063ffffffff88168085529083528184206001600160a01b038816808652908452828520805460ff19168815159081179091558a865260108552838620838752855283862082875285529483902054835195865261ffff1693850193909352919288917fdef872ea7445739ffc07c56472edf8475b85cca6440175796472fbf2026f079d91015b60405180910390a45050505050565b5f5f5f60605f60085f8881526020019081526020015f205f8781526020019081526020015f20604051806101200160405290815f8201548152602001600182018054611a9990615411565b80601f0160208091040260200160405190810160405280929190818152602001828054611ac590615411565b8015611b105780601f10611ae757610100808354040283529160200191611b10565b820191905f5260205f20905b815481529060010190602001808311611af357829003601f168201915b505050918352505060028201546001600160a01b0390811660208301526003830154604080840191909152600484015460ff161515606084015260058401546080840152600684015460a084015260079093015463ffffffff80821660c08501526401000000009091041660e0909201919091529082015191925016611bae57505060408051602081019091525f8082529350839250829150611bc9565b60018160800151826040015183602001519450945094509450505b92959194509250565b611bda614552565b5f81815260066020908152604080832033845290915281205490819003611c1457604051631509a84360e11b815260040160405180910390fd5b80421015611c3857604051633a84e5cf60e01b815260048101829052602401611022565b5f82815260046020908152604080832033845290915281206002015490819003611c7557604051636567cc4d60e11b815260040160405180910390fd5b5f8381526004602090815260408083203380855290835281842060028101859055600301805460ff19169055868452600683528184208185529092528083208390555183908381818185875af1925050503d805f8114611cf0576040519150601f19603f3d011682016040523d82523d5f602084013e611cf5565b606091505b5050905080611d1757604051630db2c7f160e31b815260040160405180910390fd5b604051828152339085907fc95c831f7facab10cbf2586454bb2cdaec5e9702311d8c3c3c2cc804a1abb4ca9060200160405180910390a3336001600160a01b0316845f5160206158045f395f51905f525f604051611d99911515815260406020820181905260089082015267155394d51052d15160c21b606082015260800190565b60405180910390a3505050611dba60015f5160206157e45f395f51905f5255565b50565b5f838152600260205260409020546001600160a01b0316611df1576040516315858c8d60e31b815260040160405180910390fd5b611dfd610da9846143ef565b611e19576040516282b42960e81b815260040160405180910390fd5b81611e37576040516310a571d160e31b815260040160405180910390fd5b61ffff81161580611e4d575061271061ffff8216115b15611e71576040516332938fe960e21b815261ffff82166004820152602401611022565b5f838152601160209081526040808320858452825291829020805461ffff19811661ffff868116918217909355845192909116808352928201529091849186917fcb56c846dda3cc605bef1888996092a907b9919475bf7505bda8fa8c95123301910160405180910390a350505050565b7fd0c934f24ef5a377dc3832429ce607cbe940a3ca3c6cd7e532bd35b4b212d196611f0c81614450565b83611f2a576040516310a571d160e31b815260040160405180910390fd5b6001600160a01b0383161580611f4757506001600160a01b038216155b15611f6557604051630e4607ed60e41b815260040160405180910390fd5b5f848152600260205260409020546001600160a01b031615611f9a576040516355ad509160e11b815260040160405180910390fd5b604080516080810182526001600160a01b0380861682528481166020808401918252600184860181815242606087019081525f8c8152600294859052978820965187549087166001600160a01b03199091161787559351868301805492511515600160a01b026001600160a81b0319909316919096161717909355905192019190915560038054918201815582527fc2575a0e9e593c00f959f8c92f12db2869c3395a3b0502d05e2516446f71f85b018590556120568561456d565b90505f612062866145a9565b90505f61206e876143ef565b905061207a838761445a565b50612085828761445a565b50612090818761445a565b505f87815260126020908152604080832067016345785d8a000090556013909152808220620151809055516001600160a01b0380881692908916918a917f76815c6c3d66579360681cc597126b11d4eaabe670b868db92df92d641a5965c91a450505050505050565b5f848152600860209081526040808320868452909152902060028101546001600160a01b031661213c576040516328193b9d60e21b815260040160405180910390fd5b612148610da98661456d565b158015612162575060028101546001600160a01b03163314155b1561217f576040516282b42960e81b815260040160405180910390fd5b600481015460ff166121a45760405163499945c160e01b815260040160405180910390fd5b60048101805460ff191690556040513390859087907fc3cb92e8b6c0aebd791488f8d927216bf2ea5ede447d480f483c21865b04f1a190611a3f9088908890615584565b5f828152600260205260409020546001600160a01b031661221c576040516315858c8d60e31b815260040160405180910390fd5b612228610da98361456d565b612244576040516282b42960e81b815260040160405180910390fd5b6001600160a01b03811661226b57604051630e4607ed60e41b815260040160405180910390fd5b5f8281526002602052604080822060010180546001600160a01b031981166001600160a01b038681169182179093559251911692839186917f7e9441be41617a5403de8dfc31de5901f7525f4e4a606654266fa886d567f53f91a4505050565b6122d3614552565b82355f908152600260205260409020546001600160a01b0316612309576040516315858c8d60e31b815260040160405180910390fd5b82355f90815260026020526040902060010154600160a01b900460ff1661234357604051633ae035b560e21b815260040160405180910390fd5b8261010001354211156123695760405163df4cc36d60e01b815260040160405180910390fd5b82355f9081526008602090815260408083208287013584529091529020600201546001600160a01b0316156123b15760405163019b268b60e71b815260040160405180910390fd5b5f6123bd8484846145e7565b84355f9081526004602090815260408083206001600160a01b0385168452909152812060020154919250036124055760405163127225b560e11b815260040160405180910390fd5b83355f9081526004602090815260408083206001600160a01b038516845290915290206003015460ff1661244c57604051631a8660cb60e01b815260040160405180910390fd5b83355f9081526005602090815260408083206001600160a01b038516845290915290205460e08501351461249357604051638baa579f60e01b815260040160405180910390fd5b6040805161012081018252853581529060208201906124b49087018761559f565b8080601f0160208091040260200160405190810160405280939291908181526020018383808284375f920191909152505050908252506001600160a01b0383166020820152426040820152600160608083019190915286013560808083019190915286013560a08083019190915260c091820191612537919088019088016155e2565b63ffffffff16815260200161255260e0870160c088016155e2565b63ffffffff16905284355f90815260086020908152604080832082890135845282529091208251815590820151600182019061258e908261548d565b506040828101516002830180546001600160a01b039283166001600160a01b031990911617905560608401516003840155608084015160048401805491151560ff1992831617905560a080860151600586015560c080870151600687015560e0870151600790960180546101009098015163ffffffff9081166401000000000267ffffffffffffffff199099169716969096179690961790945588355f81815260096020908152858220818d0135808452908252868320958a16835294815285822080549094166001908117909455828252600a8152858220948252938452848120929092558152600e909152908120909290918391612693919089019089016155e2565b63ffffffff16815260208082019290925260409081015f208151608081018352815460ff16151580825260018301549482019490945260028201549281019290925260030154606082015291506127115784355f908152600d602090815260408083208289013584529091529020805460ff19166001179055612870565b84355f908152600f602052604081209061273160c0880160a089016155e2565b63ffffffff16815260208082019290925260409081015f9081206001600160a01b038616825290925290205460ff168015612796575060208082015186355f9081526004835260408082206001600160a01b0387168352909352919091206002015410155b156128705784355f908152601060205260408120816127bb60c0890160a08a016155e2565b63ffffffff16815260208082019290925260409081015f9081206001600160a01b038716825290925290205461ffff16905060018110801590612804575061010061ffff821611155b1561286e5785355f908152600b60209081526040808320828a0135845290915290206001905561283381614792565b86355f818152600c60209081526040808320828c013580855292529091209290925561286e9161286960c08a0160a08b016155e2565b6147ad565b505b61287f60e0860135600161560f565b85355f8181526005602090815260408083206001600160a01b0388168085529252909120929092557f092b6bbc92673a71e1b53a3b945184caf28010a041d50f717734c740984858d460e08801356128d881600161560f565b6040805192835260208301919091520160405180910390a36001600160a01b038216602086013586357fd352cb361a4f142c2abad9421dd213ae4d4b7e836b57e422fbb6c0d6512632e461292f60408a018a61559f565b60608b013560808c013561294960c08e0160a08f016155e2565b8d60c001602081019061295c91906155e2565b60405161296e96959493929190615622565b60405180910390a4816001600160a01b03168560200135865f01357f1aa23f6aa7a78fe1f2e49edc378c1d7d45f3593993339beb9f6f9835f87517be60016040516129bb91815260200190565b60405180910390a4505061124560015f5160206157e45f395f51905f5255565b5f918252602082815260408084206001600160a01b0393909316845291905290205460ff1690565b7fd0c934f24ef5a377dc3832429ce607cbe940a3ca3c6cd7e532bd35b4b212d196612a2d81614450565b5f838152600260205260409020546001600160a01b0316612a61576040516315858c8d60e31b815260040160405180910390fd5b5f83815260026020526040908190206001018054841515600160a01b0260ff60a01b199091161790555183907ff232ed796c7d121df062e0962438bf7a57d1fb9a2c6451caaf7e2695a963cfe690610e3490851515815260200190565b60038181548110612acd575f80fd5b5f91825260209091200154905081565b5f838152600260205260409020546001600160a01b0316612b11576040516315858c8d60e31b815260040160405180910390fd5b5f83815260046020908152604080832033845290915290206003015460ff16612b4d57604051631a8660cb60e01b815260040160405180910390fd5b5f8381526004602090815260408083203384529091529020600101612b73828483615660565b50336001600160a01b0316837f8313da849f3eb567d52489e0ba249ce302063096590f8d8b6025d5f7fec89ad984846040516111db929190615584565b612bb8614552565b82355f908152600260205260409020546001600160a01b0316612bee576040516315858c8d60e31b815260040160405180910390fd5b82355f90815260026020526040902060010154600160a01b900460ff16612c2857604051633ae035b560e21b815260040160405180910390fd5b8260600135421115612c4d5760405163df4cc36d60e01b815260040160405180910390fd5b82355f908152600860209081526040808320828701358452825280832081516101208101909252805482526001810180549293919291840191612c8f90615411565b80601f0160208091040260200160405190810160405280929190818152602001828054612cbb90615411565b8015612d065780601f10612cdd57610100808354040283529160200191612d06565b820191905f5260205f20905b815481529060010190602001808311612ce957829003601f168201915b505050918352505060028201546001600160a01b0390811660208301526003830154604080840191909152600484015460ff161515606084015260058401546080840152600684015460a084015260079093015463ffffffff80821660c08501526401000000009091041660e0909201919091529082015191925016612d9f576040516328193b9d60e21b815260040160405180910390fd5b8060800151612dc15760405163b863738b60e01b815260040160405180910390fd5b5f612dcd858585614931565b85355f9081526004602090815260408083206001600160a01b038516845290915281206002015491925003612e155760405163127225b560e11b815260040160405180910390fd5b84355f9081526004602090815260408083206001600160a01b038516845290915290206003015460ff16612e5c57604051631a8660cb60e01b815260040160405180910390fd5b84355f9081526005602090815260408083206001600160a01b038516845290915290819020549086013514612ea457604051638baa579f60e01b815260040160405180910390fd5b84355f90815260096020908152604080832082890135845282528083206001600160a01b038516845290915290205460ff1615612ef457604051630709bc1d60e31b815260040160405180910390fd5b84355f908152600e6020908152604080832060e086015163ffffffff16845282528083208151608081018352815460ff1615801582526001830154948201949094526002820154928101929092526003015460608201529190612f6b57612f68875f01358560e0015185856020015161498f565b90505b86355f818152600960209081526040808320828c01358085529083528184206001600160a01b03891685528352818420805460ff19166001908117909155948452600a83528184209084529091528120549091612fc8919061560f565b88355f908152600a60209081526040808320828d0135845290915290819020829055909150612ffb90890135600161560f565b88355f9081526005602090815260408083206001600160a01b038916845290915290205582511561308d5787355f908152600b60209081526040808320828c01358452909152812080546001929061305490849061560f565b909155505087355f818152600c60209081526040808320828d0135808552925290912080548517905560e087015161308d9291906147ad565b6001600160a01b03841688357f092b6bbc92673a71e1b53a3b945184caf28010a041d50f717734c740984858d460408b01356130ca81600161560f565b6040805192835260208301919091520160405180910390a3836001600160a01b03168860200135895f01357f1aa23f6aa7a78fe1f2e49edc378c1d7d45f3593993339beb9f6f9835f87517be8460405161312691815260200190565b60405180910390a4505050505061124560015f5160206157e45f395f51905f5255565b5f868152600260205260409020546001600160a01b031661317d576040516315858c8d60e31b815260040160405180910390fd5b613189610da9876143ef565b6131a5576040516282b42960e81b815260040160405180910390fd5b8380156131b0575081155b80156131ba575080155b156131d857604051631cc23ed560e31b815260040160405180910390fd5b6040805160808101825285151581526020808201868152828401868152606084018681525f8c8152600e855286812063ffffffff8d1680835295528690209451855490151560ff199091161785559151600185015551600284015551600390920191909155905187907ff0a24041e06d08c0414775769d1f217c906f14d760e3f298d16d2c64b2672d909061328c908890889088908890931515845260208401929092526040830152606082015260800190565b60405180910390a3505050505050565b5f828152600260205260409020546001600160a01b03166132d0576040516315858c8d60e31b815260040160405180910390fd5b5f82815260046020908152604080832033845290915290206003015460ff1661330c57604051631a8660cb60e01b815260040160405180910390fd5b6001600160a01b03811661333357604051632f55c93160e11b815260040160405180910390fd5b336001600160a01b0382160361335c57604051632f55c93160e11b815260040160405180910390fd5b5f82815260076020908152604080832033808552925280832080546001600160a01b0319166001600160a01b0386169081179091559051909285917f7e8f7689d5c1589dea13355ed1b30d2a11c050a08189c224a84103455f87036f9190a45050565b5f828152600260205260409020546001600160a01b03166133f3576040516315858c8d60e31b815260040160405180910390fd5b6133ff610da9836143ef565b61341b576040516282b42960e81b815260040160405180910390fd5b805f0361343b576040516310a571d160e31b815260040160405180910390fd5b5f8281526013602090815260409182902080549084905582518181529182018490529184917fac9a0b846eb7810e402bb79aeb08206ea6da2dc091e6775f62391fcf42df6cfc9101610e34565b5f5f5f5f5f5f5f5f60085f8b81526020019081526020015f205f8a81526020019081526020015f20604051806101200160405290815f82015481526020016001820180546134d590615411565b80601f016020809104026020016040519081016040528092919081815260200182805461350190615411565b801561354c5780601f106135235761010080835404028352916020019161354c565b820191905f5260205f20905b81548152906001019060200180831161352f57829003601f168201915b505050918352505060028201546001600160a01b0390811660208301526003830154604080840191909152600484015460ff161515606084015260058401546080840152600684015460a084015260079093015463ffffffff80821660c08501526401000000009091041660e09092019190915290820151919250166135e5576040516328193b9d60e21b815260040160405180910390fd5b5f600e5f8c81526020019081526020015f205f8360e0015163ffffffff1663ffffffff1681526020019081526020015f206040518060800160405290815f82015f9054906101000a900460ff1615151515815260200160018201548152602001600282015481526020016003820154815250509050600d5f8c81526020019081526020015f205f8b81526020019081526020015f205f9054906101000a900460ff16600a5f8d81526020019081526020015f205f8c81526020019081526020015f2054600b5f8e81526020019081526020015f205f8d81526020019081526020015f2054600c5f8f81526020019081526020015f205f8e81526020019081526020015f20548460600151856040015186602001519850985098509850985098509850505092959891949750929550565b5f858152600260205260409020546001600160a01b0316613749576040516315858c8d60e31b815260040160405180910390fd5b613755610da9866143ef565b613771576040516282b42960e81b815260040160405180910390fd5b5f8581526004602090815260408083206001600160a01b038816845290915290206003015460ff16156137b757604051631ae4c62160e31b815260040160405180910390fd5b6001600160a01b03831615806137de5750836001600160a01b0316836001600160a01b0316145b156137fc57604051632f55c93160e11b815260040160405180910390fd5b5f8581526004602090815260408083206001600160a01b038716845290915290206002015415158061385257505f8581526004602090815260408083206001600160a01b038716845290915290206003015460ff165b1561387057604051632f55c93160e11b815260040160405180910390fd5b5f8581526004602090815260408083206001600160a01b038816845282528083208151608081019092528054825260018101805492939192918401916138b590615411565b80601f01602080910402602001604051908101604052809291908181526020018280546138e190615411565b801561392c5780601f106139035761010080835404028352916020019161392c565b820191905f5260205f20905b81548152906001019060200180831161390f57829003601f168201915b50505091835250506002820154602082015260039091015460ff1615156040918201528101519091505f0361397457604051636567cc4d60e11b815260040160405180910390fd5b6040805160808101825287815260208381015181830190815284840151838501526060808601511515908401525f8a8152600483528481206001600160a01b038a16825290925292902081518155915190919060018201906139d6908261548d565b5060408281015160028301556060909201516003909101805460ff19169115159190911790555f878152600560209081528282206001600160a01b0389811680855291835284842054908916808552858520919091558a845260068352848420908452825283832083905589835260048252838320908352905290812081815590613a646001830182614d2b565b505f600282018190556003909101805460ff191690558681526005602090815260408083206001600160a01b03808a168086529184528285208590558a85526006845282852082865284528285208590558a8552600784528285208286529093529281902080546001600160a01b0319169055838101519051918716929189917fd9f8b9c3708d68f065bd3abc87d385dd96a656d93537a092b9612a9775bd631091613b1491908990899061556b565b60405180910390a46040515f906001600160a01b0386169088907f7e8f7689d5c1589dea13355ed1b30d2a11c050a08189c224a84103455f87036f908490a4505050505050565b5f82815260208190526040902060010154613b7581614450565b61120c83836144e9565b5f818152600260205260409020546001600160a01b0316613bb3576040516315858c8d60e31b815260040160405180910390fd5b5f81815260046020908152604080832033845290915290206003015460ff16613bef57604051631a8660cb60e01b815260040160405180910390fd5b5f8181526004602090815260408083203384529091528120600201549003613c2a57604051636567cc4d60e11b815260040160405180910390fd5b5f81815260136020526040812054613c42904261560f565b5f838152600660209081526040808320338085529083529281902084905551838152929350909184917f1e522a03c71586a099d51a73c0f68c1c799fed85c43cf290bcf7158d8b163ad2910160405180910390a35050565b613ca2614552565b5f858152600260205260409020546001600160a01b0316613cd6576040516315858c8d60e31b815260040160405180910390fd5b613ce2610da9866145a9565b613cfe576040516282b42960e81b815260040160405180910390fd5b5f8581526004602090815260408083206001600160a01b038816845290915281206002015490819003613d4457604051636567cc4d60e11b815260040160405180910390fd5b5f86815260116020908152604080832087845290915281205461ffff1690819003613d85576040516331deee5760e01b815260048101869052602401611022565b5f612710613d9761ffff84168561571a565b613da19190615731565b9050805f03613dae575060015b5f613db98285615750565b5f8a81526004602090815260408083206001600160a01b038d168085529083528184206002018590558d84526006835281842090845282528083208390558c83526012909152902054909150811015613eaf575f8981526004602090815260408083206001600160a01b038c16808552908352818420600301805460ff191690558c845260078352818420818552835281842080546001600160a01b03191690558151938452918301819052601c908301527f534f46545f534c41534845445f42454c4f575f4d494e5f5354414b45000000006060830152908a905f5160206158045f395f51905f529060800160405180910390a35b5f898152600260205260408082206001015490516001600160a01b039091169084908381818185875af1925050503d805f8114613f07576040519150601f19603f3d011682016040523d82523d5f602084013e613f0c565b606091505b5050905080613f2e57604051630db2c7f160e31b815260040160405180910390fd5b87896001600160a01b03168b7fe7a3bd933c3f07d41c0cb8538135a0a594505125738765a878a693108558ac3b878787338e8e604051613f7396959493929190615763565b60405180910390a45050505050613f9660015f5160206157e45f395f51905f5255565b5050505050565b5f818152600260205260409020546001600160a01b0316613fd1576040516315858c8d60e31b815260040160405180910390fd5b5f818152600460209081526040808320338452909152812060020154900361400c5760405163127225b560e11b815260040160405180910390fd5b5f81815260046020908152604080832033845290915290206003015460ff1661404857604051631a8660cb60e01b815260040160405180910390fd5b345f0361406857604051636567cc4d60e11b815260040160405180910390fd5b5f8181526004602090815260408083203384529091528120600201805434929061409390849061560f565b90915550505f81815260046020908152604080832033808552908352928190206002015481513481529283015283917f98354ada0e4b6a8410fec2063480eb039a321691ae42acf10b9ad333b092672f910160405180910390a350565b6140f8614552565b5f848152600260205260409020546001600160a01b031661412c576040516315858c8d60e31b815260040160405180910390fd5b614138610da9856145a9565b614154576040516282b42960e81b815260040160405180910390fd5b5f8481526004602090815260408083206001600160a01b03871684529091528120600201549081900361419a57604051636567cc4d60e11b815260040160405180910390fd5b5f8581526004602090815260408083206001600160a01b0388811680865291845282852060038101805460ff1916905560029081018690558a86526006855283862083875285528386208690558a86526007855283862092865291845282852080546001600160a01b0319169055898552925280832060010154905191169083908381818185875af1925050503d805f8114614251576040519150601f19603f3d011682016040523d82523d5f602084013e614256565b606091505b505090508061427857604051630db2c7f160e31b815260040160405180910390fd5b336001600160a01b0316856001600160a01b0316877f175ef2f76f006472eb75e90808dc704bb073491330e002ec9e017969699c14ca8588886040516142c09392919061556b565b60405180910390a4846001600160a01b0316865f5160206158045f395f51905f525f60405161431291151581526040602082018190526007908201526614d31054d2115160ca1b606082015260800190565b60405180910390a3505061120c60015f5160206157e45f395f51905f5255565b600460209081525f92835260408084209091529082529020805460018201805491929161435e90615411565b80601f016020809104026020016040519081016040528092919081815260200182805461438a90615411565b80156143d55780601f106143ac576101008083540402835291602001916143d5565b820191905f5260205f20905b8154815290600101906020018083116143b857829003601f168201915b50505050600283015460039093015491929160ff16905084565b6040805160208101829052601c60608201527f54454e414e545f4f50455241544f525f4d414e414745525f524f4c450000000060808201529081018290525f9060a0015b604051602081830303815290604052805190602001209050919050565b611dba8133614acc565b5f61446583836129db565b6144e2575f838152602081815260408083206001600160a01b03861684529091529020805460ff1916600117905561449a3390565b6001600160a01b0316826001600160a01b0316847f2f8788117e7eff1d82e926ec794901d17c78024a50270940304540a733656f0d60405160405180910390a4506001610d63565b505f610d63565b5f6144f483836129db565b156144e2575f838152602081815260408083206001600160a01b0386168085529252808320805460ff1916905551339286917ff6391f5c32d9c69d2a47ea670b442974b53935d1edc7fd64eb21e047a839171b9190a4506001610d63565b61455a614b09565b60025f5160206157e45f395f51905f5255565b6040805160208101829052601160608201527054454e414e545f41444d494e5f524f4c4560781b60808201529081018290525f9060a001614433565b6040805160208101829052601360608201527254454e414e545f534c41534845525f524f4c4560681b60808201529081018290525f9060a001614433565b5f807f5a2a29527149cfad2193f6f6cc0087ff61ae917e661c07c22456d63a5183659c8535602087013561461e604089018961559f565b60405161462c9291906157a6565b604051908190039020606089013560808a013561464f60c08c0160a08d016155e2565b61465f60e08d0160c08e016155e2565b6040805160208101999099528801969096526060870194909452608086019290925260a085015260c084015263ffffffff90811660e08481019190915291166101008381019190915290870135610120830152860135610140820152610160015b6040516020818303038152906040528051906020012090505f61471d7f00000000000000000000000000000000000000000000000000000000000000008360405161190160f01b8152600281019290925260228201526042902090565b905061476085858080601f0160208091040260200160405190810160405280939291908181526020018383808284375f920191909152508593925050614b3a9050565b92506001600160a01b03831661478957604051638baa579f60e01b815260040160405180910390fd5b50509392505050565b5f61479e6001836157b5565b61ffff166001901b9050919050565b5f838152600d6020908152604080832085845290915290205460ff16156147d357505050565b5f838152600e6020908152604080832063ffffffff851684528252918290208251608081018452815460ff1615158082526001830154938201939093526002820154938101939093526003015460608301526148505750505f918252600d602090815260408084209284529190529020805460ff19166001179055565b6040808201515f868152600b60209081528382208783528152838220546060860151898452600c835285842089855290925293909120549190921080159291821690911490829061489e5750805b15614929575f868152600d602090815260408083208884528252808320805460ff19166001179055888352600b8252808320888452825280832054898452600c835281842089855290925291829020549151879289927faddff4259d1ed72121575a0a8627d986e7e63da19e837c06d33a958c61e730329261328c9290918252602082015260400190565b505050505050565b604080517f362c00056d2ad738d0353633a51831825692201225c7f50e6206735b03e575e06020828101919091528535828401528501356060828101919091529185013560808201529084013560a08201525f90819060c0016146c0565b5f848152600f6020908152604080832063ffffffff8716845282528083206001600160a01b038616845290915281205460ff166149df5760405163fbf23f3360e01b815260040160405180910390fd5b5f8581526004602090815260408083206001600160a01b0387168452909152902060020154821115614a53575f8581526004602081815260408084206001600160a01b03881685529091529182902060020154915162c09e3560e81b81526110229291859101918252602082015260400190565b5f85815260106020908152604080832063ffffffff8816845282528083206001600160a01b038716845290915290205461ffff166001811080614a9b575061010061ffff8216115b15614ab957604051636005ea8760e11b815260040160405180910390fd5b614ac281614792565b9695505050505050565b614ad682826129db565b614b055760405163e2517d3f60e01b81526001600160a01b038216600482015260248101839052604401611022565b5050565b5f5160206157e45f395f51905f5254600203614b3857604051633ee5aeb560e01b815260040160405180910390fd5b565b5f5f5f5f614b488686614b62565b925092509250614b588282614bab565b5090949350505050565b5f5f5f8351604103614b99576020840151604085015160608601515f1a614b8b88828585614c63565b955095509550505050614ba4565b505081515f91506002905b9250925092565b5f826003811115614bbe57614bbe6157cf565b03614bc7575050565b6001826003811115614bdb57614bdb6157cf565b03614bf95760405163f645eedf60e01b815260040160405180910390fd5b6002826003811115614c0d57614c0d6157cf565b03614c2e5760405163fce698f760e01b815260048101829052602401611022565b6003826003811115614c4257614c426157cf565b03614b05576040516335e2f38360e21b815260048101829052602401611022565b5f80807f7fffffffffffffffffffffffffffffff5d576e7357a4501ddfe92f46681b20a0841115614c9c57505f91506003905082614d21565b604080515f808252602082018084528a905260ff891692820192909252606081018790526080810186905260019060a0016020604051602081039080840390855afa158015614ced573d5f5f3e3d5ffd5b5050604051601f1901519150506001600160a01b038116614d1857505f925060019150829050614d21565b92505f91508190505b9450945094915050565b508054614d3790615411565b5f825580601f10614d46575050565b601f0160209004905f5260205f2090810190611dba91905b80821115614d71575f8155600101614d5e565b5090565b5f60208284031215614d85575f5ffd5b81356001600160e01b031981168114611868575f5ffd5b5f5f60408385031215614dad575f5ffd5b50508035926020909101359150565b80356001600160a01b0381168114614dd2575f5ffd5b919050565b80358015158114614dd2575f5ffd5b5f5f83601f840112614df6575f5ffd5b50813567ffffffffffffffff811115614e0d575f5ffd5b602083019150836020828501011115614e24575f5ffd5b9250929050565b5f5f5f5f5f60808688031215614e3f575f5ffd5b85359450614e4f60208701614dbc565b9350614e5d60408701614dd7565b9250606086013567ffffffffffffffff811115614e78575f5ffd5b614e8488828901614de6565b969995985093965092949392505050565b5f5f5f60408486031215614ea7575f5ffd5b83359250602084013567ffffffffffffffff811115614ec4575f5ffd5b614ed086828701614de6565b9497909650939450505050565b5f60208284031215614eed575f5ffd5b5035919050565b5f5f60408385031215614f05575f5ffd5b82359150614f1560208401614dbc565b90509250929050565b803563ffffffff81168114614dd2575f5ffd5b5f5f60408385031215614f42575f5ffd5b82359150614f1560208401614f1e565b5f5f5f5f60608587031215614f65575f5ffd5b84359350614f7560208601614dbc565b9250604085013567ffffffffffffffff811115614f90575f5ffd5b614f9c87828801614de6565b95989497509550505050565b5f81518084528060208401602086015e5f602082860101526020601f19601f83011685010191505092915050565b60208152815160208201525f60208301516101206040840152614ffd610140840182614fa8565b9050604084015161501960608501826001600160a01b03169052565b5060608401516080840152608084015161503760a085018215159052565b5060a084015160c084015260c084015160e084015260e084015161506461010085018263ffffffff169052565b5061010084015163ffffffff8116610120850152509392505050565b803561ffff81168114614dd2575f5ffd5b5f5f5f5f5f60a086880312156150a5575f5ffd5b853594506150b560208701614f1e565b93506150c360408701614dbc565b92506150d160608701614dd7565b91506150df60808701615080565b90509295509295909350565b841515815283151560208201526001600160a01b03831660408201526080606082018190525f90614ac290830184614fa8565b5f5f5f60608486031215615130575f5ffd5b833592506020840135915061514760408501615080565b90509250925092565b5f5f5f60608486031215615162575f5ffd5b8335925061517260208501614dbc565b915061514760408501614dbc565b5f5f5f5f60608587031215615193575f5ffd5b8435935060208501359250604085013567ffffffffffffffff811115614f90575f5ffd5b5f5f5f606084860312156151c9575f5ffd5b833592506020840135915061514760408501614dbc565b5f5f5f604084860312156151f2575f5ffd5b833567ffffffffffffffff811115615208575f5ffd5b8401610120818703121561521a575f5ffd5b9250602084013567ffffffffffffffff811115614ec4575f5ffd5b5f5f60408385031215615246575f5ffd5b82359150614f1560208401614dd7565b5f5f5f83850360a0811215615269575f5ffd5b6080811215615276575f5ffd5b50839250608084013567ffffffffffffffff811115614ec4575f5ffd5b5f5f5f5f5f5f60c087890312156152a8575f5ffd5b863595506152b860208801614f1e565b94506152c660408801614dd7565b959894975094956060810135955060808101359460a0909101359350915050565b5f5f5f5f5f608086880312156152fb575f5ffd5b8535945061530b60208701614dbc565b9350614e5d60408701614dbc565b5f5f5f6060848603121561532b575f5ffd5b8335925061517260208501614f1e565b5f5f5f5f5f6080868803121561534f575f5ffd5b8535945061535f60208701614dbc565b935060408601359250606086013567ffffffffffffffff811115614e78575f5ffd5b848152608060208201525f6153996080830186614fa8565b60408301949094525090151560609091015292915050565b81835281816020850137505f828201602090810191909152601f909101601f19169091010190565b8315158152604060208201525f6153f46040830184866153b1565b95945050505050565b634e487b7160e01b5f52604160045260245ffd5b600181811c9082168061542557607f821691505b60208210810361544357634e487b7160e01b5f52602260045260245ffd5b50919050565b601f82111561124557805f5260205f20601f840160051c8101602085101561546e5750805b601f840160051c820191505b81811015613f96575f815560010161547a565b815167ffffffffffffffff8111156154a7576154a76153fd565b6154bb816154b58454615411565b84615449565b6020601f8211600181146154ed575f83156154d65750848201515b5f19600385901b1c1916600184901b178455613f96565b5f84815260208120601f198516915b8281101561551c57878501518255602094850194600190920191016154fc565b508482101561553957868401515f19600387901b60f8161c191681555b50505050600190811b01905550565b604081525f61555b6040830185876153b1565b9050826020830152949350505050565b838152604060208201525f6153f46040830184866153b1565b602081525f6155976020830184866153b1565b949350505050565b5f5f8335601e198436030181126155b4575f5ffd5b83018035915067ffffffffffffffff8211156155ce575f5ffd5b602001915036819003821315614e24575f5ffd5b5f602082840312156155f2575f5ffd5b61186882614f1e565b634e487b7160e01b5f52601160045260245ffd5b80820180821115610d6357610d636155fb565b60a081525f61563560a08301888a6153b1565b602083019690965250604081019390935263ffffffff91821660608401521660809091015292915050565b67ffffffffffffffff831115615678576156786153fd565b61568c836156868354615411565b83615449565b5f601f8411600181146156bd575f85156156a65750838201355b5f19600387901b1c1916600186901b178355613f96565b5f83815260208120601f198716915b828110156156ec57868501358255602094850194600190920191016156cc565b5086821015615708575f1960f88860031b161c19848701351681555b505060018560011b0183555050505050565b8082028115828204841417610d6357610d636155fb565b5f8261574b57634e487b7160e01b5f52601260045260245ffd5b500490565b81810381811115610d6357610d636155fb565b61ffff8716815285602082015284604082015260018060a01b038416606082015260a060808201525f61579a60a0830184866153b1565b98975050505050505050565b818382375f9101908152919050565b61ffff8281168282160390811115610d6357610d636155fb565b634e487b7160e01b5f52602160045260245ffdfe9b779b17422d0df92223018b32b4d1fa46e071723d6817e2486d003becc55f00c974b626665c0d05de92a6d1c80baa1fecf1d44a7fe6c4fb1dcbe04cddebb540a26469706673582212203335244fcfbcaf0d7a3c0ad9a8aa03744376fdb8f922f4e1f744714e74f3148164736f6c634300081c0033",
  "linkReferences": {},
  "deployedLinkReferences": {},
  "immutableReferences": {
    "7551": [
      {
        "length": 32,
        "start": 18142
      }
    ]
  },
  "inputSourceName": "project/contracts/VoucherProtocol.sol",
  "buildInfoId": "solc-0_8_28-d7cdd73677d8b0e5ce7711323045a4d8a6f98bfc"
}