{
  "_format": "hh3-artifact-1",
  "contractName": "VoucherProtocolReader",
  "sourceName": "contracts/VoucherProtocolReader.sol",
  "abi": [
    {
      "inputs": [
        {
          "internalType": "address",
          "name": "_protocol",
          "type": "address"
        }
      ],
      "stateMutability": "nonpayable",
      "type": "constructor"
    },
    {
      "inputs": [],
      "name": "DocumentNotFound",
      "type": "error"
    },
    {
      "inputs": [
        {
          "internalType": "bytes32",
          "name": "tenantId",
          "type": "bytes32"
        },
        {
          "internalType": "uint32",
          "name": "docType",
          "type": "uint32"
        },
        {
          "internalType": "address",
          "name": "operator",
          "type": "address"
        }
      ],
      "name": "getCoSignOperatorConfig",
      "outputs": [
        {
          "internalType": "bool",
          "name": "whitelisted",
          "type": "bool"
        },
        {
          "internalType": "uint16",
          "name": "roleId",
          "type": "uint16"
        }
      ],
      "stateMutability": "view",
      "type": "function"
    },
    {
      "inputs": [
        {
          "internalType": "bytes32",
          "name": "tenantId",
          "type": "bytes32"
        },
        {
          "internalType": "uint32",
          "name": "docType",
          "type": "uint32"
        }
      ],
      "name": "getCoSignPolicy",
      "outputs": [
        {
          "internalType": "bool",
          "name": "enabled",
          "type": "bool"
        },
        {
          "internalType": "uint256",
          "name": "minStake",
          "type": "uint256"
        },
        {
          "internalType": "uint256",
          "name": "minSigners",
          "type": "uint256"
        },
        {
          "internalType": "uint256",
          "name": "requiredRoleMask",
          "type": "uint256"
        }
      ],
      "stateMutability": "view",
      "type": "function"
    },
    {
      "inputs": [
        {
          "internalType": "bytes32",
          "name": "tenantId",
          "type": "bytes32"
        },
        {
          "internalType": "bytes32",
          "name": "fileHash",
          "type": "bytes32"
        }
      ],
      "name": "getCoSignStatus",
      "outputs": [
        {
          "internalType": "bool",
          "name": "qualified",
          "type": "bool"
        },
        {
          "internalType": "uint256",
          "name": "totalSigners",
          "type": "uint256"
        },
        {
          "internalType": "uint256",
          "name": "trustedSigners",
          "type": "uint256"
        },
        {
          "internalType": "uint256",
          "name": "currentRoleMask",
          "type": "uint256"
        },
        {
          "internalType": "uint256",
          "name": "requiredRoleMask",
          "type": "uint256"
        },
        {
          "internalType": "uint256",
          "name": "minSigners",
          "type": "uint256"
        },
        {
          "internalType": "uint256",
          "name": "minStake",
          "type": "uint256"
        }
      ],
      "stateMutability": "view",
      "type": "function"
    },
    {
      "inputs": [
        {
          "internalType": "bytes32",
          "name": "tenantId",
          "type": "bytes32"
        },
        {
          "internalType": "bytes32",
          "name": "fileHash",
          "type": "bytes32"
        }
      ],
      "name": "getDocumentOrRevert",
      "outputs": [
        {
          "components": [
            {
              "internalType": "bytes32",
              "name": "tenantId",
              "type": "bytes32"
            },
            {
              "internalType": "string",
              "name": "cid",
              "type": "string"
            },
            {
              "internalType": "address",
              "name": "issuer",
              "type": "address"
            },
            {
              "internalType": "uint256",
              "name": "timestamp",
              "type": "uint256"
            },
            {
              "internalType": "bool",
              "name": "isValid",
              "type": "bool"
            },
            {
              "internalType": "bytes32",
              "name": "ciphertextHash",
              "type": "bytes32"
            },
            {
              "internalType": "bytes32",
              "name": "encryptionMetaHash",
              "type": "bytes32"
            },
            {
              "internalType": "uint32",
              "name": "docType",
              "type": "uint32"
            },
            {
              "internalType": "uint32",
              "name": "version",
              "type": "uint32"
            }
          ],
          "internalType": "struct VoucherProtocol.Document",
          "name": "",
          "type": "tuple"
        }
      ],
      "stateMutability": "view",
      "type": "function"
    },
    {
      "inputs": [
        {
          "internalType": "bytes32",
          "name": "tenantId",
          "type": "bytes32"
        },
        {
          "internalType": "bytes32",
          "name": "fileHash",
          "type": "bytes32"
        }
      ],
      "name": "getDocumentStatus",
      "outputs": [
        {
          "components": [
            {
              "internalType": "bool",
              "name": "exists",
              "type": "bool"
            },
            {
              "internalType": "bool",
              "name": "isValid",
              "type": "bool"
            },
            {
              "internalType": "address",
              "name": "issuer",
              "type": "address"
            },
            {
              "internalType": "string",
              "name": "cid",
              "type": "string"
            },
            {
              "internalType": "uint256",
              "name": "timestamp",
              "type": "uint256"
            },
            {
              "internalType": "bytes32",
              "name": "ciphertextHash",
              "type": "bytes32"
            },
            {
              "internalType": "bytes32",
              "name": "encryptionMetaHash",
              "type": "bytes32"
            },
            {
              "internalType": "uint32",
              "name": "docType",
              "type": "uint32"
            },
            {
              "internalType": "uint32",
              "name": "version",
              "type": "uint32"
            },
            {
              "internalType": "uint256",
              "name": "coSignCount",
              "type": "uint256"
            },
            {
              "internalType": "uint256",
              "name": "trustedCoSignCount",
              "type": "uint256"
            },
            {
              "internalType": "uint256",
              "name": "trustedCoSignRoleMask",
              "type": "uint256"
            },
            {
              "internalType": "bool",
              "name": "coSignQualified",
              "type": "bool"
            }
          ],
          "internalType": "struct VoucherProtocol.DocumentSnapshot",
          "name": "",
          "type": "tuple"
        }
      ],
      "stateMutability": "view",
      "type": "function"
    },
    {
      "inputs": [
        {
          "internalType": "bytes32",
          "name": "tenantId",
          "type": "bytes32"
        }
      ],
      "name": "getOperatorCount",
      "outputs": [
        {
          "internalType": "uint256",
          "name": "",
          "type": "uint256"
        }
      ],
      "stateMutability": "view",
      "type": "function"
    },
    {
      "inputs": [
        {
          "internalType": "bytes32",
          "name": "tenantId",
          "type": "bytes32"
        },
        {
          "internalType": "uint256",
          "name": "offset",
          "type": "uint256"
        },
        {
          "internalType": "uint256",
          "name": "limit",
          "type": "uint256"
        }
      ],
      "name": "getOperatorIds",
      "outputs": [
        {
          "internalType": "address[]",
          "name": "ids",
          "type": "address[]"
        }
      ],
      "stateMutability": "view",
      "type": "function"
    },
    {
      "inputs": [
        {
          "internalType": "bytes32",
          "name": "tenantId",
          "type": "bytes32"
        },
        {
          "internalType": "address",
          "name": "operator",
          "type": "address"
        }
      ],
      "name": "getOperatorStatus",
      "outputs": [
        {
          "internalType": "bool",
          "name": "exists",
          "type": "bool"
        },
        {
          "internalType": "bool",
          "name": "isActive",
          "type": "bool"
        },
        {
          "internalType": "string",
          "name": "metadataURI",
          "type": "string"
        },
        {
          "internalType": "uint256",
          "name": "stakeAmount",
          "type": "uint256"
        },
        {
          "internalType": "uint256",
          "name": "nonce",
          "type": "uint256"
        },
        {
          "internalType": "uint256",
          "name": "unstakeReadyAt",
          "type": "uint256"
        },
        {
          "internalType": "bool",
          "name": "canUnstakeNow",
          "type": "bool"
        },
        {
          "internalType": "address",
          "name": "recoveryDelegate",
          "type": "address"
        }
      ],
      "stateMutability": "view",
      "type": "function"
    },
    {
      "inputs": [],
      "name": "getTenantCount",
      "outputs": [
        {
          "internalType": "uint256",
          "name": "",
          "type": "uint256"
        }
      ],
      "stateMutability": "view",
      "type": "function"
    },
    {
      "inputs": [
        {
          "internalType": "uint256",
          "name": "offset",
          "type": "uint256"
        },
        {
          "internalType": "uint256",
          "name": "limit",
          "type": "uint256"
        }
      ],
      "name": "getTenantIds",
      "outputs": [
        {
          "internalType": "bytes32[]",
          "name": "ids",
          "type": "bytes32[]"
        }
      ],
      "stateMutability": "view",
      "type": "function"
    },
    {
      "inputs": [
        {
          "internalType": "bytes32",
          "name": "tenantId",
          "type": "bytes32"
        }
      ],
      "name": "getTenantInfo",
      "outputs": [
        {
          "internalType": "bool",
          "name": "exists",
          "type": "bool"
        },
        {
          "internalType": "address",
          "name": "admin",
          "type": "address"
        },
        {
          "internalType": "address",
          "name": "treasury",
          "type": "address"
        },
        {
          "internalType": "bool",
          "name": "isActive",
          "type": "bool"
        },
        {
          "internalType": "uint256",
          "name": "createdAt",
          "type": "uint256"
        }
      ],
      "stateMutability": "view",
      "type": "function"
    },
    {
      "inputs": [
        {
          "internalType": "bytes32",
          "name": "tenantId",
          "type": "bytes32"
        }
      ],
      "name": "getTenantRuntimeConfig",
      "outputs": [
        {
          "internalType": "uint256",
          "name": "minOperatorStake",
          "type": "uint256"
        },
        {
          "internalType": "uint256",
          "name": "unstakeCooldown",
          "type": "uint256"
        }
      ],
      "stateMutability": "view",
      "type": "function"
    },
    {
      "inputs": [
        {
          "internalType": "bytes32",
          "name": "tenantId",
          "type": "bytes32"
        },
        {
          "internalType": "bytes32",
          "name": "violationCode",
          "type": "bytes32"
        }
      ],
      "name": "getViolationPenalty",
      "outputs": [
        {
          "internalType": "uint16",
          "name": "penaltyBps",
          "type": "uint16"
        }
      ],
      "stateMutability": "view",
      "type": "function"
    },
    {
      "inputs": [
        {
          "internalType": "bytes32",
          "name": "tenantId",
          "type": "bytes32"
        },
        {
          "internalType": "bytes32",
          "name": "fileHash",
          "type": "bytes32"
        },
        {
          "internalType": "address",
          "name": "signer",
          "type": "address"
        }
      ],
      "name": "hasSignedDocument",
      "outputs": [
        {
          "internalType": "bool",
          "name": "",
          "type": "bool"
        }
      ],
      "stateMutability": "view",
      "type": "function"
    },
    {
      "inputs": [
        {
          "internalType": "bytes32",
          "name": "tenantId",
          "type": "bytes32"
        },
        {
          "internalType": "bytes32",
          "name": "fileHash",
          "type": "bytes32"
        }
      ],
      "name": "isDocumentCoSignQualified",
      "outputs": [
        {
          "internalType": "bool",
          "name": "",
          "type": "bool"
        }
      ],
      "stateMutability": "view",
      "type": "function"
    },
    {
      "inputs": [],
      "name": "protocol",
      "outputs": [
        {
          "internalType": "contract VoucherProtocol",
          "name": "",
          "type": "address"
        }
      ],
      "stateMutability": "view",
      "type": "function"
    },
    {
      "inputs": [
        {
          "internalType": "bytes32",
          "name": "tenantId",
          "type": "bytes32"
        },
        {
          "internalType": "bytes32",
          "name": "fileHash",
          "type": "bytes32"
        }
      ],
      "name": "verify",
      "outputs": [
        {
          "internalType": "bool",
          "name": "exists",
          "type": "bool"
        },
        {
          "internalType": "bool",
          "name": "isValid",
          "type": "bool"
        },
        {
          "internalType": "address",
          "name": "issuer",
          "type": "address"
        },
        {
          "internalType": "string",
          "name": "cid",
          "type": "string"
        }
      ],
      "stateMutability": "view",
      "type": "function"
    }
  ],
  "bytecode": "0x6080604052348015600e575f5ffd5b5060405161205e38038061205e833981016040819052602b91604e565b5f80546001600160a01b0319166001600160a01b03929092169190911790556079565b5f60208284031215605d575f5ffd5b81516001600160a01b03811681146072575f5ffd5b9392505050565b611fd8806100865f395ff3fe608060405234801561000f575f5ffd5b5060043610610106575f3560e01c80637c6b9adb1161009e578063bb37cd171161006e578063bb37cd17146102ea578063c53455dc14610317578063d1e4bbde1461032a578063f049b65014610374578063f85efb8014610387575f5ffd5b80637c6b9adb1461025257806385123fd5146102755780638ce74426146102aa5780639149cd49146102d4575f5ffd5b80634b263e74116100d95780634b263e74146101955780634e8fee00146101e05780636ea14e751461020357806375cc94361461022a575f5ffd5b8063082a88761461010a578063361410a5146101355780633dadf67714610155578063421f9b4214610175575b5f5ffd5b61011d6101183660046117a5565b6103a7565b60405161ffff90911681526020015b60405180910390f35b6101486101433660046117a5565b610422565b60405161012c91906117c5565b6101686101633660046117a5565b6105bd565b60405161012c9190611835565b6101886101833660046117a5565b6109a6565b60405161012c919061191b565b6101a86101a33660046119c2565b610aa6565b6040805195151586526001600160a01b039485166020870152929093169184019190915215156060830152608082015260a00161012c565b6101f36101ee3660046117a5565b610b4d565b60405161012c94939291906119d9565b610216610211366004611a2d565b610c21565b60405161012c989796959493929190611a5b565b61023d6102383660046119c2565b610e60565b6040805192835260208301919091520161012c565b610265610260366004611ab5565b610f3e565b604051901515815260200161012c565b610288610283366004611afc565b610fc2565b604080519415158552602085019390935291830152606082015260800161012c565b5f546102bc906001600160a01b031681565b6040516001600160a01b03909116815260200161012c565b6102dc611063565b60405190815260200161012c565b6102fd6102f8366004611b1f565b6110dc565b60408051921515835261ffff90911660208301520161012c565b6102dc6103253660046119c2565b6111e5565b61033d6103383660046117a5565b611250565b6040805197151588526020880196909652948601939093526060850191909152608084015260a083015260c082015260e00161012c565b6102656103823660046117a5565b611582565b61039a610395366004611b53565b6115f4565b60405161012c9190611b7c565b5f80546040516328a1b2c960e01b815260048101859052602481018490526001600160a01b03909116906328a1b2c990604401602060405180830381865afa1580156103f5573d5f5f3e3d5ffd5b505050506040513d601f19601f820116820180604052508101906104199190611bbc565b90505b92915050565b5f80546040805162a75a2f60e41b81529051606093926001600160a01b031691630a75a2f09160048083019260209291908290030181865afa15801561046a573d5f5f3e3d5ffd5b505050506040513d601f19601f8201168201806040525081019061048e9190611bdd565b90508084106104ac575050604080515f81526020810190915261041c565b5f6104b78486611c1c565b9050818111156104c45750805b6104ce8582611c2f565b67ffffffffffffffff8111156104e6576104e6611bf4565b60405190808252806020026020018201604052801561050f578160200160208202803683370190505b509250845b818110156105b4575f546040516331c125a960e21b8152600481018390526001600160a01b039091169063c70496a490602401602060405180830381865afa158015610562573d5f5f3e3d5ffd5b505050506040513d601f19601f820116820180604052508101906105869190611bdd565b846105918884611c2f565b815181106105a1576105a1611c42565b6020908102919091010152600101610514565b50505092915050565b604080516101a0810182525f808252602082018190529181018290526060808201526080810182905260a0810182905260c0810182905260e0810182905261010081018290526101208101829052610140810182905261016081018290526101808101919091525f8054604051631b48ba1f60e01b815260048101869052602481018590526001600160a01b0390911690631b48ba1f906044015f60405180830381865afa158015610671573d5f5f3e3d5ffd5b505050506040513d5f823e601f3d908101601f191682016040526106989190810190611d58565b60408101519091506001600160a01b0316610729575050604080516101a0810182525f8082526020808301829052828401829052835190810190935280835260608201929092526080810182905260a0810182905260c0810182905260e08101829052610100810182905261012081018290526101408101829052610160810182905261018081019190915261041c565b604051806101a0016040528060011515815260200182608001511515815260200182604001516001600160a01b0316815260200182602001518152602001826060015181526020018260a0015181526020018260c0015181526020018260e0015163ffffffff16815260200182610100015163ffffffff1681526020015f5f9054906101000a90046001600160a01b03166001600160a01b0316634f138e0187876040518363ffffffff1660e01b81526004016107f0929190918252602082015260400190565b602060405180830381865afa15801561080b573d5f5f3e3d5ffd5b505050506040513d601f19601f8201168201806040525081019061082f9190611bdd565b81525f54604051636d184dd360e01b815260048101889052602481018790526020909201916001600160a01b0390911690636d184dd390604401602060405180830381865afa158015610884573d5f5f3e3d5ffd5b505050506040513d601f19601f820116820180604052508101906108a89190611bdd565b81525f54604051637ff6373160e01b815260048101889052602481018790526020909201916001600160a01b0390911690637ff6373190604401602060405180830381865afa1580156108fd573d5f5f3e3d5ffd5b505050506040513d601f19601f820116820180604052508101906109219190611bdd565b81525f5460405163281752e160e11b815260048101889052602481018790526020909201916001600160a01b039091169063502ea5c290604401602060405180830381865afa158015610976573d5f5f3e3d5ffd5b505050506040513d601f19601f8201168201806040525081019061099a9190611e33565b15159052949350505050565b610a046040518061012001604052805f8152602001606081526020015f6001600160a01b031681526020015f81526020015f151581526020015f81526020015f81526020015f63ffffffff1681526020015f63ffffffff1681525090565b5f8054604051631b48ba1f60e01b815260048101869052602481018590526001600160a01b0390911690631b48ba1f906044015f60405180830381865afa158015610a51573d5f5f3e3d5ffd5b505050506040513d5f823e601f3d908101601f19168201604052610a789190810190611d58565b60408101519091506001600160a01b0316610419576040516328193b9d60e21b815260040160405180910390fd5b5f80546040516001621d657560e31b0319815260048101849052829182918291829182916001600160a01b03169063ff14d45890602401608060405180830381865afa158015610af8573d5f5f3e3d5ffd5b505050506040513d601f19601f82011682018060405250810190610b1c9190611e4c565b8051602082015160408301516060909301516001600160a01b03831615159b929a5090985091965090945092505050565b5f8054604051631b48ba1f60e01b815260048101859052602481018490528291829160609183916001600160a01b0390911690631b48ba1f906044015f60405180830381865afa158015610ba3573d5f5f3e3d5ffd5b505050506040513d5f823e601f3d908101601f19168201604052610bca9190810190611d58565b60408101519091506001600160a01b0316610bfd57505060408051602081019091525f8082529350839250829150610c18565b60018160800151826040015183602001519450945094509450505b92959194509250565b5f8054604051631b314c7560e21b8152600481018590526001600160a01b0384811660248301528392606092849283928392839283928392911690636cc531d4906044015f60405180830381865afa158015610c7f573d5f5f3e3d5ffd5b505050506040513d5f823e601f3d908101601f19168201604052610ca69190810190611eaa565b905080604001515f141580610cbc575080606001515b606082015160208301516040808501515f5491516386e2b63f60e01b8152949d50929b509099509097506001600160a01b0316906386e2b63f90610d18908e908e906004019182526001600160a01b0316602082015260400190565b602060405180830381865afa158015610d33573d5f5f3e3d5ffd5b505050506040513d601f19601f82011682018060405250810190610d579190611bdd565b5f5460405163b04da8a160e01b8152600481018e90526001600160a01b038d8116602483015292975091169063b04da8a190604401602060405180830381865afa158015610da7573d5f5f3e3d5ffd5b505050506040513d601f19601f82011682018060405250810190610dcb9190611bdd565b93508315801590610ddc5750834210155b5f5460405163dfa89c1d60e01b8152600481018e90526001600160a01b038d8116602483015292955091169063dfa89c1d90604401602060405180830381865afa158015610e2c573d5f5f3e3d5ffd5b505050506040513d601f19601f82011682018060405250810190610e509190611f3b565b9150509295985092959890939650565b5f8054604051638bdb1de360e01b81526004810184905282916001600160a01b031690638bdb1de390602401602060405180830381865afa158015610ea7573d5f5f3e3d5ffd5b505050506040513d601f19601f82011682018060405250810190610ecb9190611bdd565b5f5460405163fc89626760e01b8152600481018690526001600160a01b039091169063fc89626790602401602060405180830381865afa158015610f11573d5f5f3e3d5ffd5b505050506040513d601f19601f82011682018060405250810190610f359190611bdd565b91509150915091565b5f805460405163015d4ad360e01b815260048101869052602481018590526001600160a01b0384811660448301529091169063015d4ad390606401602060405180830381865afa158015610f94573d5f5f3e3d5ffd5b505050506040513d601f19601f82011682018060405250810190610fb89190611e33565b90505b9392505050565b5f805460405162619a7d60e41b81526004810185905263ffffffff8416602482015282918291829182916001600160a01b0390911690630619a7d090604401608060405180830381865afa15801561101c573d5f5f3e3d5ffd5b505050506040513d601f19601f820116820180604052508101906110409190611f56565b805160208201516040830151606090930151919a90995091975095509350505050565b5f5f5f9054906101000a90046001600160a01b03166001600160a01b0316630a75a2f06040518163ffffffff1660e01b8152600401602060405180830381865afa1580156110b3573d5f5f3e3d5ffd5b505050506040513d601f19601f820116820180604052508101906110d79190611bdd565b905090565b5f80546040516379f24dd560e11b81526004810186905263ffffffff851660248201526001600160a01b0384811660448301528392169063f3e49baa90606401602060405180830381865afa158015611137573d5f5f3e3d5ffd5b505050506040513d601f19601f8201168201806040525081019061115b9190611e33565b5f5460405163d9fe7f6760e01b81526004810188905263ffffffff871660248201526001600160a01b0386811660448301529091169063d9fe7f6790606401602060405180830381865afa1580156111b5573d5f5f3e3d5ffd5b505050506040513d601f19601f820116820180604052508101906111d99190611bbc565b91509150935093915050565b5f8054604051635533b9bf60e01b8152600481018490526001600160a01b0390911690635533b9bf90602401602060405180830381865afa15801561122c573d5f5f3e3d5ffd5b505050506040513d601f19601f8201168201806040525081019061041c9190611bdd565b5f8054604051631b48ba1f60e01b8152600481018590526024810184905282918291829182918291829182916001600160a01b031690631b48ba1f906044015f60405180830381865afa1580156112a9573d5f5f3e3d5ffd5b505050506040513d5f823e601f3d908101601f191682016040526112d09190810190611d58565b60408101519091506001600160a01b03166112fe576040516328193b9d60e21b815260040160405180910390fd5b5f805460e083015160405162619a7d60e41b8152600481018e905263ffffffff90911660248201526001600160a01b0390911690630619a7d090604401608060405180830381865afa158015611356573d5f5f3e3d5ffd5b505050506040513d601f19601f8201168201806040525081019061137a9190611f56565b5f5460405163281752e160e11b8152600481018e9052602481018d90529192506001600160a01b03169063502ea5c290604401602060405180830381865afa1580156113c8573d5f5f3e3d5ffd5b505050506040513d601f19601f820116820180604052508101906113ec9190611e33565b5f54604051634f138e0160e01b8152600481018e9052602481018d90526001600160a01b0390911690634f138e0190604401602060405180830381865afa158015611439573d5f5f3e3d5ffd5b505050506040513d601f19601f8201168201806040525081019061145d9190611bdd565b5f54604051636d184dd360e01b8152600481018f9052602481018e90526001600160a01b0390911690636d184dd390604401602060405180830381865afa1580156114aa573d5f5f3e3d5ffd5b505050506040513d601f19601f820116820180604052508101906114ce9190611bdd565b5f5f9054906101000a90046001600160a01b03166001600160a01b0316637ff637318f8f6040518363ffffffff1660e01b8152600401611518929190918252602082015260400190565b602060405180830381865afa158015611533573d5f5f3e3d5ffd5b505050506040513d601f19601f820116820180604052508101906115579190611bdd565b8460600151856040015186602001519850985098509850985098509850505092959891949750929550565b5f805460405163281752e160e11b815260048101859052602481018490526001600160a01b039091169063502ea5c290604401602060405180830381865afa1580156115d0573d5f5f3e3d5ffd5b505050506040513d601f19601f820116820180604052508101906104199190611e33565b5f8054604051635533b9bf60e01b815260048101869052606092916001600160a01b031690635533b9bf90602401602060405180830381865afa15801561163d573d5f5f3e3d5ffd5b505050506040513d601f19601f820116820180604052508101906116619190611bdd565b905080841061167f575050604080515f815260208101909152610fbb565b5f61168a8486611c1c565b9050818111156116975750805b6116a18582611c2f565b67ffffffffffffffff8111156116b9576116b9611bf4565b6040519080825280602002602001820160405280156116e2578160200160208202803683370190505b509250845b8181101561179b575f5460405163b5004d7960e01b815260048101899052602481018390526001600160a01b039091169063b5004d7990604401602060405180830381865afa15801561173c573d5f5f3e3d5ffd5b505050506040513d601f19601f820116820180604052508101906117609190611f3b565b8461176b8884611c2f565b8151811061177b5761177b611c42565b6001600160a01b03909216602092830291909101909101526001016116e7565b5050509392505050565b5f5f604083850312156117b6575f5ffd5b50508035926020909101359150565b602080825282518282018190525f918401906040840190835b818110156117fc5783518352602093840193909201916001016117de565b509095945050505050565b5f81518084528060208401602086015e5f602082860101526020601f19601f83011685010191505092915050565b6020815261184860208201835115159052565b5f602083015161185c604084018215159052565b5060408301516001600160a01b03811660608401525060608301516101a0608084015261188d6101c0840182611807565b9050608084015160a084015260a084015160c084015260c084015160e084015260e08401516118c561010085018263ffffffff169052565b5061010084015163ffffffff8116610120850152506101208401516101408401526101408401516101608401526101608401516101808401526101808401516119136101a085018215159052565b509392505050565b60208152815160208201525f60208301516101206040840152611942610140840182611807565b9050604084015161195e60608501826001600160a01b03169052565b5060608401516080840152608084015161197c60a085018215159052565b5060a084015160c084015260c084015160e084015260e08401516119a961010085018263ffffffff169052565b5061010084015163ffffffff8116610120850152611913565b5f602082840312156119d2575f5ffd5b5035919050565b841515815283151560208201526001600160a01b03831660408201526080606082018190525f90611a0c90830184611807565b9695505050505050565b6001600160a01b0381168114611a2a575f5ffd5b50565b5f5f60408385031215611a3e575f5ffd5b823591506020830135611a5081611a16565b809150509250929050565b8815158152871515602082015261010060408201525f611a7f610100830189611807565b606083019790975250608081019490945260a0840192909252151560c08301526001600160a01b031660e0909101529392505050565b5f5f5f60608486031215611ac7575f5ffd5b83359250602084013591506040840135611ae081611a16565b809150509250925092565b63ffffffff81168114611a2a575f5ffd5b5f5f60408385031215611b0d575f5ffd5b823591506020830135611a5081611aeb565b5f5f5f60608486031215611b31575f5ffd5b833592506020840135611b4381611aeb565b91506040840135611ae081611a16565b5f5f5f60608486031215611b65575f5ffd5b505081359360208301359350604090920135919050565b602080825282518282018190525f918401906040840190835b818110156117fc5783516001600160a01b0316835260209384019390920191600101611b95565b5f60208284031215611bcc575f5ffd5b815161ffff81168114610419575f5ffd5b5f60208284031215611bed575f5ffd5b5051919050565b634e487b7160e01b5f52604160045260245ffd5b634e487b7160e01b5f52601160045260245ffd5b8082018082111561041c5761041c611c08565b8181038181111561041c5761041c611c08565b634e487b7160e01b5f52603260045260245ffd5b604051610120810167ffffffffffffffff81118282101715611c7a57611c7a611bf4565b60405290565b6040516080810167ffffffffffffffff81118282101715611c7a57611c7a611bf4565b5f82601f830112611cb2575f5ffd5b815167ffffffffffffffff811115611ccc57611ccc611bf4565b604051601f8201601f19908116603f0116810167ffffffffffffffff81118282101715611cfb57611cfb611bf4565b604052818152838201602001851015611d12575f5ffd5b8160208501602083015e5f918101602001919091529392505050565b8051611d3981611a16565b919050565b80518015158114611d39575f5ffd5b8051611d3981611aeb565b5f60208284031215611d68575f5ffd5b815167ffffffffffffffff811115611d7e575f5ffd5b82016101208185031215611d90575f5ffd5b611d98611c56565b81518152602082015167ffffffffffffffff811115611db5575f5ffd5b611dc186828501611ca3565b602083015250611dd360408301611d2e565b604082015260608281015190820152611dee60808301611d3e565b608082015260a0828101519082015260c08083015190820152611e1360e08301611d4d565b60e0820152611e256101008301611d4d565b610100820152949350505050565b5f60208284031215611e43575f5ffd5b61041982611d3e565b5f6080828403128015611e5d575f5ffd5b50611e66611c80565b8251611e7181611a16565b81526020830151611e8181611a16565b6020820152611e9260408401611d3e565b60408201526060928301519281019290925250919050565b5f60208284031215611eba575f5ffd5b815167ffffffffffffffff811115611ed0575f5ffd5b820160808185031215611ee1575f5ffd5b611ee9611c80565b81518152602082015167ffffffffffffffff811115611f06575f5ffd5b611f1286828501611ca3565b60208301525060408281015190820152611f2e60608301611d3e565b6060820152949350505050565b5f60208284031215611f4b575f5ffd5b815161041981611a16565b5f6080828403128015611f67575f5ffd5b50611f70611c80565b611f7983611d3e565b81526020838101519082015260408084015190820152606092830151928101929092525091905056fea2646970667358221220e50dbaacf1293987d8b28a2ae4eb6068c9ca3f3497a2a1e8a3640871399e734364736f6c634300081c0033",
  "linkReferences": {},
  "deployedLinkReferences": {},
  "immutableReferences": {},
  "inputSourceName": "project/contracts/VoucherProtocolReader.sol",
  "buildInfoId": "solc-0_8_28-f7ed328896ace961b403dd493b76740d146fa301"
}