{
  "_format": "hh3-artifact-1",
  "contractName": "VoucherProtocolReader",
  "sourceName": "contracts/VoucherProtocolReader.sol",
  "abi": [
    {
      "inputs": [
        {
          "internalType": "address",
          "name": "_protocol",
          "type": "address"
        }
      ],
      "stateMutability": "nonpayable",
      "type": "constructor"
    },
    {
      "inputs": [],
      "name": "DocumentNotFound",
      "type": "error"
    },
    {
      "inputs": [],
      "name": "InvalidProtocolAddress",
      "type": "error"
    },
    {
      "inputs": [
        {
          "internalType": "bytes32",
          "name": "tenantId",
          "type": "bytes32"
        },
        {
          "internalType": "uint32",
          "name": "docType",
          "type": "uint32"
        },
        {
          "internalType": "address",
          "name": "operator",
          "type": "address"
        }
      ],
      "name": "getCoSignOperatorConfig",
      "outputs": [
        {
          "internalType": "bool",
          "name": "whitelisted",
          "type": "bool"
        },
        {
          "internalType": "uint16",
          "name": "roleId",
          "type": "uint16"
        }
      ],
      "stateMutability": "view",
      "type": "function"
    },
    {
      "inputs": [
        {
          "internalType": "bytes32",
          "name": "tenantId",
          "type": "bytes32"
        },
        {
          "internalType": "uint32",
          "name": "docType",
          "type": "uint32"
        }
      ],
      "name": "getCoSignPolicy",
      "outputs": [
        {
          "internalType": "bool",
          "name": "enabled",
          "type": "bool"
        },
        {
          "internalType": "uint256",
          "name": "minStake",
          "type": "uint256"
        },
        {
          "internalType": "uint256",
          "name": "minSigners",
          "type": "uint256"
        },
        {
          "internalType": "uint256",
          "name": "requiredRoleMask",
          "type": "uint256"
        }
      ],
      "stateMutability": "view",
      "type": "function"
    },
    {
      "inputs": [
        {
          "internalType": "bytes32",
          "name": "tenantId",
          "type": "bytes32"
        },
        {
          "internalType": "bytes32",
          "name": "fileHash",
          "type": "bytes32"
        }
      ],
      "name": "getCoSignStatus",
      "outputs": [
        {
          "internalType": "bool",
          "name": "qualified",
          "type": "bool"
        },
        {
          "internalType": "uint256",
          "name": "totalSigners",
          "type": "uint256"
        },
        {
          "internalType": "uint256",
          "name": "trustedSigners",
          "type": "uint256"
        },
        {
          "internalType": "uint256",
          "name": "currentRoleMask",
          "type": "uint256"
        },
        {
          "internalType": "uint256",
          "name": "requiredRoleMask",
          "type": "uint256"
        },
        {
          "internalType": "uint256",
          "name": "minSigners",
          "type": "uint256"
        },
        {
          "internalType": "uint256",
          "name": "minStake",
          "type": "uint256"
        }
      ],
      "stateMutability": "view",
      "type": "function"
    },
    {
      "inputs": [
        {
          "internalType": "bytes32",
          "name": "tenantId",
          "type": "bytes32"
        },
        {
          "internalType": "bytes32",
          "name": "fileHash",
          "type": "bytes32"
        }
      ],
      "name": "getDocumentOrRevert",
      "outputs": [
        {
          "components": [
            {
              "internalType": "bytes32",
              "name": "tenantId",
              "type": "bytes32"
            },
            {
              "internalType": "string",
              "name": "cid",
              "type": "string"
            },
            {
              "internalType": "address",
              "name": "owner",
              "type": "address"
            },
            {
              "internalType": "address",
              "name": "issuer",
              "type": "address"
            },
            {
              "internalType": "uint256",
              "name": "timestamp",
              "type": "uint256"
            },
            {
              "internalType": "bool",
              "name": "isValid",
              "type": "bool"
            },
            {
              "internalType": "bytes32",
              "name": "ciphertextHash",
              "type": "bytes32"
            },
            {
              "internalType": "bytes32",
              "name": "encryptionMetaHash",
              "type": "bytes32"
            },
            {
              "internalType": "uint32",
              "name": "docType",
              "type": "uint32"
            },
            {
              "internalType": "uint32",
              "name": "version",
              "type": "uint32"
            }
          ],
          "internalType": "struct VoucherTypes.Document",
          "name": "",
          "type": "tuple"
        }
      ],
      "stateMutability": "view",
      "type": "function"
    },
    {
      "inputs": [
        {
          "internalType": "bytes32",
          "name": "tenantId",
          "type": "bytes32"
        },
        {
          "internalType": "bytes32",
          "name": "fileHash",
          "type": "bytes32"
        }
      ],
      "name": "getDocumentStatus",
      "outputs": [
        {
          "components": [
            {
              "internalType": "bool",
              "name": "exists",
              "type": "bool"
            },
            {
              "internalType": "bool",
              "name": "isValid",
              "type": "bool"
            },
            {
              "internalType": "address",
              "name": "issuer",
              "type": "address"
            },
            {
              "internalType": "string",
              "name": "cid",
              "type": "string"
            },
            {
              "internalType": "uint256",
              "name": "timestamp",
              "type": "uint256"
            },
            {
              "internalType": "bytes32",
              "name": "ciphertextHash",
              "type": "bytes32"
            },
            {
              "internalType": "bytes32",
              "name": "encryptionMetaHash",
              "type": "bytes32"
            },
            {
              "internalType": "uint32",
              "name": "docType",
              "type": "uint32"
            },
            {
              "internalType": "uint32",
              "name": "version",
              "type": "uint32"
            },
            {
              "internalType": "uint256",
              "name": "coSignCount",
              "type": "uint256"
            },
            {
              "internalType": "uint256",
              "name": "trustedCoSignCount",
              "type": "uint256"
            },
            {
              "internalType": "uint256",
              "name": "trustedCoSignRoleMask",
              "type": "uint256"
            },
            {
              "internalType": "bool",
              "name": "coSignQualified",
              "type": "bool"
            }
          ],
          "internalType": "struct VoucherTypes.DocumentSnapshot",
          "name": "",
          "type": "tuple"
        }
      ],
      "stateMutability": "view",
      "type": "function"
    },
    {
      "inputs": [
        {
          "internalType": "bytes32",
          "name": "tenantId",
          "type": "bytes32"
        }
      ],
      "name": "getOperatorCount",
      "outputs": [
        {
          "internalType": "uint256",
          "name": "",
          "type": "uint256"
        }
      ],
      "stateMutability": "view",
      "type": "function"
    },
    {
      "inputs": [
        {
          "internalType": "bytes32",
          "name": "tenantId",
          "type": "bytes32"
        },
        {
          "internalType": "uint256",
          "name": "offset",
          "type": "uint256"
        },
        {
          "internalType": "uint256",
          "name": "limit",
          "type": "uint256"
        }
      ],
      "name": "getOperatorIds",
      "outputs": [
        {
          "internalType": "address[]",
          "name": "ids",
          "type": "address[]"
        }
      ],
      "stateMutability": "view",
      "type": "function"
    },
    {
      "inputs": [
        {
          "internalType": "bytes32",
          "name": "tenantId",
          "type": "bytes32"
        },
        {
          "internalType": "address",
          "name": "operator",
          "type": "address"
        }
      ],
      "name": "getOperatorStatus",
      "outputs": [
        {
          "internalType": "bool",
          "name": "exists",
          "type": "bool"
        },
        {
          "internalType": "bool",
          "name": "isActive",
          "type": "bool"
        },
        {
          "internalType": "address",
          "name": "walletAddress",
          "type": "address"
        },
        {
          "internalType": "string",
          "name": "metadataURI",
          "type": "string"
        },
        {
          "internalType": "uint256",
          "name": "stakeAmount",
          "type": "uint256"
        },
        {
          "internalType": "uint256",
          "name": "nonce",
          "type": "uint256"
        },
        {
          "internalType": "uint256",
          "name": "unstakeReadyAt",
          "type": "uint256"
        },
        {
          "internalType": "bool",
          "name": "canUnstakeNow",
          "type": "bool"
        },
        {
          "internalType": "address",
          "name": "recoveryDelegate",
          "type": "address"
        }
      ],
      "stateMutability": "view",
      "type": "function"
    },
    {
      "inputs": [
        {
          "internalType": "bytes32",
          "name": "tenantId",
          "type": "bytes32"
        },
        {
          "internalType": "address",
          "name": "operator",
          "type": "address"
        }
      ],
      "name": "getRecoveryAliasStatus",
      "outputs": [
        {
          "internalType": "bool",
          "name": "hasRecoveryHistory",
          "type": "bool"
        },
        {
          "internalType": "address",
          "name": "rootOperator",
          "type": "address"
        },
        {
          "internalType": "address",
          "name": "replacedBy",
          "type": "address"
        }
      ],
      "stateMutability": "view",
      "type": "function"
    },
    {
      "inputs": [],
      "name": "getTenantCount",
      "outputs": [
        {
          "internalType": "uint256",
          "name": "",
          "type": "uint256"
        }
      ],
      "stateMutability": "view",
      "type": "function"
    },
    {
      "inputs": [
        {
          "internalType": "uint256",
          "name": "offset",
          "type": "uint256"
        },
        {
          "internalType": "uint256",
          "name": "limit",
          "type": "uint256"
        }
      ],
      "name": "getTenantIds",
      "outputs": [
        {
          "internalType": "bytes32[]",
          "name": "ids",
          "type": "bytes32[]"
        }
      ],
      "stateMutability": "view",
      "type": "function"
    },
    {
      "inputs": [
        {
          "internalType": "bytes32",
          "name": "tenantId",
          "type": "bytes32"
        }
      ],
      "name": "getTenantInfo",
      "outputs": [
        {
          "internalType": "bool",
          "name": "exists",
          "type": "bool"
        },
        {
          "internalType": "address",
          "name": "admin",
          "type": "address"
        },
        {
          "internalType": "address",
          "name": "operatorManager",
          "type": "address"
        },
        {
          "internalType": "address",
          "name": "treasury",
          "type": "address"
        },
        {
          "internalType": "bool",
          "name": "isActive",
          "type": "bool"
        },
        {
          "internalType": "uint256",
          "name": "createdAt",
          "type": "uint256"
        }
      ],
      "stateMutability": "view",
      "type": "function"
    },
    {
      "inputs": [
        {
          "internalType": "bytes32",
          "name": "tenantId",
          "type": "bytes32"
        }
      ],
      "name": "getTenantRuntimeConfig",
      "outputs": [
        {
          "internalType": "uint256",
          "name": "minOperatorStake",
          "type": "uint256"
        },
        {
          "internalType": "uint256",
          "name": "unstakeCooldown",
          "type": "uint256"
        }
      ],
      "stateMutability": "view",
      "type": "function"
    },
    {
      "inputs": [
        {
          "internalType": "bytes32",
          "name": "tenantId",
          "type": "bytes32"
        },
        {
          "internalType": "bytes32",
          "name": "violationCode",
          "type": "bytes32"
        }
      ],
      "name": "getViolationPenalty",
      "outputs": [
        {
          "internalType": "uint16",
          "name": "penaltyBps",
          "type": "uint16"
        }
      ],
      "stateMutability": "view",
      "type": "function"
    },
    {
      "inputs": [
        {
          "internalType": "bytes32",
          "name": "tenantId",
          "type": "bytes32"
        },
        {
          "internalType": "bytes32",
          "name": "fileHash",
          "type": "bytes32"
        },
        {
          "internalType": "address",
          "name": "signer",
          "type": "address"
        }
      ],
      "name": "hasSignedDocument",
      "outputs": [
        {
          "internalType": "bool",
          "name": "",
          "type": "bool"
        }
      ],
      "stateMutability": "view",
      "type": "function"
    },
    {
      "inputs": [
        {
          "internalType": "bytes32",
          "name": "tenantId",
          "type": "bytes32"
        },
        {
          "internalType": "bytes32",
          "name": "fileHash",
          "type": "bytes32"
        }
      ],
      "name": "isDocumentCoSignQualified",
      "outputs": [
        {
          "internalType": "bool",
          "name": "",
          "type": "bool"
        }
      ],
      "stateMutability": "view",
      "type": "function"
    },
    {
      "inputs": [],
      "name": "protocol",
      "outputs": [
        {
          "internalType": "contract VoucherProtocol",
          "name": "",
          "type": "address"
        }
      ],
      "stateMutability": "view",
      "type": "function"
    },
    {
      "inputs": [
        {
          "internalType": "bytes32",
          "name": "tenantId",
          "type": "bytes32"
        },
        {
          "internalType": "bytes32",
          "name": "fileHash",
          "type": "bytes32"
        }
      ],
      "name": "verify",
      "outputs": [
        {
          "internalType": "bool",
          "name": "exists",
          "type": "bool"
        },
        {
          "internalType": "bool",
          "name": "isValid",
          "type": "bool"
        },
        {
          "internalType": "address",
          "name": "issuer",
          "type": "address"
        },
        {
          "internalType": "string",
          "name": "cid",
          "type": "string"
        }
      ],
      "stateMutability": "view",
      "type": "function"
    }
  ],
  "bytecode": "0x60a060405234801561000f575f5ffd5b5060405161272338038061272383398101604081905261002e91610066565b6001600160a01b03811661005557604051630ff6dc2560e11b815260040160405180910390fd5b6001600160a01b0316608052610093565b5f60208284031215610076575f5ffd5b81516001600160a01b038116811461008c575f5ffd5b9392505050565b6080516125916101925f395f81816102fc01528181610428015281816104a7015281816105d4015281816107020152818161088601528181610947015281816109dd01528181610a7301528181610b7401528181610c1e01528181610ce901528181610de301528181610ed301528181610f990152818161103e015281816110db0152818161115a015281816112030152818161127d0152818161137901528181611408015281816114c10152818161155c015281816115e90152818161166401528181611752015281816117e301528181611871015281816119070152818161199501528181611a4801528181611adc0152611bfb01526125915ff3fe608060405234801561000f575f5ffd5b5060043610610111575f3560e01c80637efb4fd01161009e578063bb37cd171161006e578063bb37cd171461034c578063c53455dc14610379578063d1e4bbde1461038c578063f049b650146103d6578063f85efb80146103e9575f5ffd5b80637efb4fd01461028857806385123fd5146102c25780638ce74426146102f75780639149cd4914610336575f5ffd5b80634b263e74116100e45780634b263e74146101a05780634e8fee00146101f25780636ea14e751461021557806375cc94361461023d5780637c6b9adb14610265575f5ffd5b8063082a887614610115578063361410a5146101405780633dadf67714610160578063421f9b4214610180575b5f5ffd5b610128610123366004611cb1565b610409565b60405161ffff90911681526020015b60405180910390f35b61015361014e366004611cb1565b6104a2565b6040516101379190611cd1565b61017361016e366004611cb1565b61067c565b6040516101379190611d41565b61019361018e366004611cb1565b610ae8565b6040516101379190611e27565b6101b36101ae366004611ee5565b610c15565b6040805196151587526001600160a01b0395861660208801529385169386019390935292166060840152901515608083015260a082015260c001610137565b610205610200366004611cb1565b610ce1565b6040516101379493929190611efc565b610228610223366004611f50565b610dd6565b60405161013799989796959493929190611f7e565b61025061024b366004611ee5565b6110b9565b60408051928352602083019190915201610137565b610278610273366004611fea565b6111d4565b6040519015158152602001610137565b61029b610296366004611f50565b611278565b6040805193151584526001600160a01b039283166020850152911690820152606001610137565b6102d56102d0366004612031565b611346565b6040805194151585526020850193909352918301526060820152608001610137565b61031e7f000000000000000000000000000000000000000000000000000000000000000081565b6040516001600160a01b039091168152602001610137565b61033e611405565b604051908152602001610137565b61035f61035a366004612054565b61148b565b60408051921515835261ffff909116602083015201610137565b61033e610387366004611ee5565b6115d1565b61039f61039a366004611cb1565b61165a565b6040805197151588526020880196909652948601939093526060850191909152608084015260a083015260c082015260e001610137565b6102786103e4366004611cb1565b611a29565b6103fc6103f7366004612088565b611ab9565b60405161013791906120b1565b6040516328a1b2c960e01b815260048101839052602481018290525f907f00000000000000000000000000000000000000000000000000000000000000006001600160a01b0316906328a1b2c990604401602060405180830381865afa158015610475573d5f5f3e3d5ffd5b505050506040513d601f19601f8201168201806040525081019061049991906120f1565b90505b92915050565b60605f7f00000000000000000000000000000000000000000000000000000000000000006001600160a01b0316630a75a2f06040518163ffffffff1660e01b8152600401602060405180830381865afa158015610501573d5f5f3e3d5ffd5b505050506040513d601f19601f820116820180604052508101906105259190612112565b90508215806105345750808410155b1561054e575050604080515f81526020810190915261049c565b5f6105598486612151565b9050818111156105665750805b6105708582612164565b67ffffffffffffffff81111561058857610588612129565b6040519080825280602002602001820160405280156105b1578160200160208202803683370190505b509250845b81811015610673576040516331c125a960e21b8152600481018290527f00000000000000000000000000000000000000000000000000000000000000006001600160a01b03169063c70496a490602401602060405180830381865afa158015610621573d5f5f3e3d5ffd5b505050506040513d601f19601f820116820180604052508101906106459190612112565b846106508884612164565b8151811061066057610660612177565b60209081029190910101526001016105b6565b50505092915050565b604080516101a0810182525f808252602082018190529181018290526060808201526080810182905260a0810182905260c0810182905260e081018290526101008101829052610120810182905261014081018290526101608101829052610180810191909152604051631b48ba1f60e01b815260048101849052602481018390525f907f00000000000000000000000000000000000000000000000000000000000000006001600160a01b031690631b48ba1f906044015f60405180830381865afa15801561074e573d5f5f3e3d5ffd5b505050506040513d5f823e601f3d908101601f19168201604052610775919081019061228d565b60608101519091506001600160a01b0316610806575050604080516101a0810182525f8082526020808301829052828401829052835190810190935280835260608201929092526080810182905260a0810182905260c0810182905260e08101829052610100810182905261012081018290526101408101829052610160810182905261018081019190915261049c565b604051806101a001604052806001151581526020018260a001511515815260200182606001516001600160a01b0316815260200182602001518152602001826080015181526020018260c0015181526020018260e00151815260200182610100015163ffffffff16815260200182610120015163ffffffff1681526020017f00000000000000000000000000000000000000000000000000000000000000006001600160a01b0316634f138e0187876040518363ffffffff1660e01b81526004016108db929190918252602082015260400190565b602060405180830381865afa1580156108f6573d5f5f3e3d5ffd5b505050506040513d601f19601f8201168201806040525081019061091a9190612112565b8152604051636d184dd360e01b815260048101879052602481018690526020909101906001600160a01b037f00000000000000000000000000000000000000000000000000000000000000001690636d184dd390604401602060405180830381865afa15801561098c573d5f5f3e3d5ffd5b505050506040513d601f19601f820116820180604052508101906109b09190612112565b8152604051637ff6373160e01b815260048101879052602481018690526020909101906001600160a01b037f00000000000000000000000000000000000000000000000000000000000000001690637ff6373190604401602060405180830381865afa158015610a22573d5f5f3e3d5ffd5b505050506040513d601f19601f82011682018060405250810190610a469190612112565b815260405163281752e160e11b815260048101879052602481018690526020909101906001600160a01b037f0000000000000000000000000000000000000000000000000000000000000000169063502ea5c290604401602060405180830381865afa158015610ab8573d5f5f3e3d5ffd5b505050506040513d601f19601f82011682018060405250810190610adc919061237b565b15159052949350505050565b610b556040518061014001604052805f8152602001606081526020015f6001600160a01b031681526020015f6001600160a01b031681526020015f81526020015f151581526020015f81526020015f81526020015f63ffffffff1681526020015f63ffffffff1681525090565b604051631b48ba1f60e01b815260048101849052602481018390525f907f00000000000000000000000000000000000000000000000000000000000000006001600160a01b031690631b48ba1f906044015f60405180830381865afa158015610bc0573d5f5f3e3d5ffd5b505050506040513d5f823e601f3d908101601f19168201604052610be7919081019061228d565b60608101519091506001600160a01b0316610499576040516328193b9d60e21b815260040160405180910390fd5b5f5f5f5f5f5f5f7f00000000000000000000000000000000000000000000000000000000000000006001600160a01b031663ff14d458896040518263ffffffff1660e01b8152600401610c6a91815260200190565b60a060405180830381865afa158015610c85573d5f5f3e3d5ffd5b505050506040513d601f19601f82011682018060405250810190610ca99190612394565b80516020820151604083015160608401516080909401516001600160a01b03841615159d939c50919a50985091965090945092505050565b5f5f5f60605f7f00000000000000000000000000000000000000000000000000000000000000006001600160a01b0316631b48ba1f88886040518363ffffffff1660e01b8152600401610d3e929190918252602082015260400190565b5f60405180830381865afa158015610d58573d5f5f3e3d5ffd5b505050506040513d5f823e601f3d908101601f19168201604052610d7f919081019061228d565b60608101519091506001600160a01b0316610db257505060408051602081019091525f8082529350839250829150610dcd565b60018160a00151826060015183602001519450945094509450505b92959194509250565b5f5f5f60605f5f5f5f5f5f7f00000000000000000000000000000000000000000000000000000000000000006001600160a01b0316636cc531d48d8d6040518363ffffffff1660e01b8152600401610e419291909182526001600160a01b0316602082015260400190565b5f60405180830381865afa158015610e5b573d5f5f3e3d5ffd5b505050506040513d5f823e601f3d908101601f19168201604052610e829190810190612405565b905080606001515f141580610e98575080608001515b60808201516020830151919b5099506001600160a01b031615610ebf578060200151610ec1565b8a5b975080604001519650806060015195507f00000000000000000000000000000000000000000000000000000000000000006001600160a01b03166386e2b63f8d8d6040518363ffffffff1660e01b8152600401610f319291909182526001600160a01b0316602082015260400190565b602060405180830381865afa158015610f4c573d5f5f3e3d5ffd5b505050506040513d601f19601f82011682018060405250810190610f709190612112565b60405163b04da8a160e01b8152600481018e90526001600160a01b038d811660248301529196507f00000000000000000000000000000000000000000000000000000000000000009091169063b04da8a190604401602060405180830381865afa158015610fe0573d5f5f3e3d5ffd5b505050506040513d601f19601f820116820180604052508101906110049190612112565b935083158015906110155750834210155b60405163dfa89c1d60e01b8152600481018e90526001600160a01b038d811660248301529194507f00000000000000000000000000000000000000000000000000000000000000009091169063dfa89c1d90604401602060405180830381865afa158015611085573d5f5f3e3d5ffd5b505050506040513d601f19601f820116820180604052508101906110a991906124a9565b9150509295985092959850929598565b604051638bdb1de360e01b8152600481018290525f9081906001600160a01b037f00000000000000000000000000000000000000000000000000000000000000001690638bdb1de390602401602060405180830381865afa158015611120573d5f5f3e3d5ffd5b505050506040513d601f19601f820116820180604052508101906111449190612112565b60405163fc89626760e01b8152600481018590527f00000000000000000000000000000000000000000000000000000000000000006001600160a01b03169063fc89626790602401602060405180830381865afa1580156111a7573d5f5f3e3d5ffd5b505050506040513d601f19601f820116820180604052508101906111cb9190612112565b91509150915091565b60405163015d4ad360e01b815260048101849052602481018390526001600160a01b0382811660448301525f917f00000000000000000000000000000000000000000000000000000000000000009091169063015d4ad390606401602060405180830381865afa15801561124a573d5f5f3e3d5ffd5b505050506040513d601f19601f8201168201806040525081019061126e919061237b565b90505b9392505050565b5f5f5f7f00000000000000000000000000000000000000000000000000000000000000006001600160a01b0316631b90bef186866040518363ffffffff1660e01b81526004016112db9291909182526001600160a01b0316602082015260400190565b6040805180830381865afa1580156112f5573d5f5f3e3d5ffd5b505050506040513d601f19601f8201168201806040525081019061131991906124c4565b90925090506001600160a01b03821615158061133d57506001600160a01b03811615155b92509250925092565b60405162619a7d60e41b81526004810183905263ffffffff821660248201525f9081908190819081906001600160a01b037f00000000000000000000000000000000000000000000000000000000000000001690630619a7d090604401608060405180830381865afa1580156113be573d5f5f3e3d5ffd5b505050506040513d601f19601f820116820180604052508101906113e291906124f1565b805160208201516040830151606090930151919a90995091975095509350505050565b5f7f00000000000000000000000000000000000000000000000000000000000000006001600160a01b0316630a75a2f06040518163ffffffff1660e01b8152600401602060405180830381865afa158015611462573d5f5f3e3d5ffd5b505050506040513d601f19601f820116820180604052508101906114869190612112565b905090565b6040516379f24dd560e11b81526004810184905263ffffffff831660248201526001600160a01b0382811660448301525f9182917f0000000000000000000000000000000000000000000000000000000000000000169063f3e49baa90606401602060405180830381865afa158015611506573d5f5f3e3d5ffd5b505050506040513d601f19601f8201168201806040525081019061152a919061237b565b60405163d9fe7f6760e01b81526004810187905263ffffffff861660248201526001600160a01b0385811660448301527f0000000000000000000000000000000000000000000000000000000000000000169063d9fe7f6790606401602060405180830381865afa1580156115a1573d5f5f3e3d5ffd5b505050506040513d601f19601f820116820180604052508101906115c591906120f1565b91509150935093915050565b604051635533b9bf60e01b8152600481018290525f907f00000000000000000000000000000000000000000000000000000000000000006001600160a01b031690635533b9bf90602401602060405180830381865afa158015611636573d5f5f3e3d5ffd5b505050506040513d601f19601f8201168201806040525081019061049c9190612112565b5f5f5f5f5f5f5f5f7f00000000000000000000000000000000000000000000000000000000000000006001600160a01b0316631b48ba1f8b8b6040518363ffffffff1660e01b81526004016116b9929190918252602082015260400190565b5f60405180830381865afa1580156116d3573d5f5f3e3d5ffd5b505050506040513d5f823e601f3d908101601f191682016040526116fa919081019061228d565b60608101519091506001600160a01b0316611728576040516328193b9d60e21b815260040160405180910390fd5b61010081015160405162619a7d60e41b8152600481018c905263ffffffff90911660248201525f907f00000000000000000000000000000000000000000000000000000000000000006001600160a01b031690630619a7d090604401608060405180830381865afa15801561179f573d5f5f3e3d5ffd5b505050506040513d601f19601f820116820180604052508101906117c391906124f1565b60405163281752e160e11b8152600481018d9052602481018c90529091507f00000000000000000000000000000000000000000000000000000000000000006001600160a01b03169063502ea5c290604401602060405180830381865afa158015611830573d5f5f3e3d5ffd5b505050506040513d601f19601f82011682018060405250810190611854919061237b565b604051634f138e0160e01b8152600481018d9052602481018c90527f00000000000000000000000000000000000000000000000000000000000000006001600160a01b031690634f138e0190604401602060405180830381865afa1580156118be573d5f5f3e3d5ffd5b505050506040513d601f19601f820116820180604052508101906118e29190612112565b604051636d184dd360e01b8152600481018e9052602481018d90526001600160a01b037f00000000000000000000000000000000000000000000000000000000000000001690636d184dd390604401602060405180830381865afa15801561194c573d5f5f3e3d5ffd5b505050506040513d601f19601f820116820180604052508101906119709190612112565b604051637ff6373160e01b8152600481018f9052602481018e90526001600160a01b037f00000000000000000000000000000000000000000000000000000000000000001690637ff6373190604401602060405180830381865afa1580156119da573d5f5f3e3d5ffd5b505050506040513d601f19601f820116820180604052508101906119fe9190612112565b8460600151856040015186602001519850985098509850985098509850505092959891949750929550565b60405163281752e160e11b815260048101839052602481018290525f907f00000000000000000000000000000000000000000000000000000000000000006001600160a01b03169063502ea5c290604401602060405180830381865afa158015611a95573d5f5f3e3d5ffd5b505050506040513d601f19601f82011682018060405250810190610499919061237b565b604051635533b9bf60e01b8152600481018490526060905f906001600160a01b037f00000000000000000000000000000000000000000000000000000000000000001690635533b9bf90602401602060405180830381865afa158015611b21573d5f5f3e3d5ffd5b505050506040513d601f19601f82011682018060405250810190611b459190612112565b9050821580611b545750808410155b15611b6e575050604080515f815260208101909152611271565b5f611b798486612151565b905081811115611b865750805b611b908582612164565b67ffffffffffffffff811115611ba857611ba8612129565b604051908082528060200260200182016040528015611bd1578160200160208202803683370190505b509250845b81811015611ca75760405163b5004d7960e01b815260048101889052602481018290527f00000000000000000000000000000000000000000000000000000000000000006001600160a01b03169063b5004d7990604401602060405180830381865afa158015611c48573d5f5f3e3d5ffd5b505050506040513d601f19601f82011682018060405250810190611c6c91906124a9565b84611c778884612164565b81518110611c8757611c87612177565b6001600160a01b0390921660209283029190910190910152600101611bd6565b5050509392505050565b5f5f60408385031215611cc2575f5ffd5b50508035926020909101359150565b602080825282518282018190525f918401906040840190835b81811015611d08578351835260209384019390920191600101611cea565b509095945050505050565b5f81518084528060208401602086015e5f602082860101526020601f19601f83011685010191505092915050565b60208152611d5460208201835115159052565b5f6020830151611d68604084018215159052565b5060408301516001600160a01b03811660608401525060608301516101a06080840152611d996101c0840182611d13565b9050608084015160a084015260a084015160c084015260c084015160e084015260e0840151611dd161010085018263ffffffff169052565b5061010084015163ffffffff811661012085015250610120840151610140840152610140840151610160840152610160840151610180840152610180840151611e1f6101a085018215159052565b509392505050565b60208152815160208201525f60208301516101406040840152611e4e610160840182611d13565b90506040840151611e6a60608501826001600160a01b03169052565b5060608401516001600160a01b038116608085015250608084015160a084015260a0840151611e9d60c085018215159052565b5060c084015160e084015260e0840151610100840152610100840151611ecc61012085018263ffffffff169052565b5061012084015163ffffffff8116610140850152611e1f565b5f60208284031215611ef5575f5ffd5b5035919050565b841515815283151560208201526001600160a01b03831660408201526080606082018190525f90611f2f90830184611d13565b9695505050505050565b6001600160a01b0381168114611f4d575f5ffd5b50565b5f5f60408385031215611f61575f5ffd5b823591506020830135611f7381611f39565b809150509250929050565b891515815288151560208201526001600160a01b0388166040820152610120606082018190525f90611fb290830189611d13565b60808301979097525060a081019490945260c0840192909252151560e08301526001600160a01b031661010090910152949350505050565b5f5f5f60608486031215611ffc575f5ffd5b8335925060208401359150604084013561201581611f39565b809150509250925092565b63ffffffff81168114611f4d575f5ffd5b5f5f60408385031215612042575f5ffd5b823591506020830135611f7381612020565b5f5f5f60608486031215612066575f5ffd5b83359250602084013561207881612020565b9150604084013561201581611f39565b5f5f5f6060848603121561209a575f5ffd5b505081359360208301359350604090920135919050565b602080825282518282018190525f918401906040840190835b81811015611d085783516001600160a01b03168352602093840193909201916001016120ca565b5f60208284031215612101575f5ffd5b815161ffff81168114610499575f5ffd5b5f60208284031215612122575f5ffd5b5051919050565b634e487b7160e01b5f52604160045260245ffd5b634e487b7160e01b5f52601160045260245ffd5b8082018082111561049c5761049c61213d565b8181038181111561049c5761049c61213d565b634e487b7160e01b5f52603260045260245ffd5b604051610140810167ffffffffffffffff811182821017156121af576121af612129565b60405290565b60405160a0810167ffffffffffffffff811182821017156121af576121af612129565b5f82601f8301126121e7575f5ffd5b815167ffffffffffffffff81111561220157612201612129565b604051601f8201601f19908116603f0116810167ffffffffffffffff8111828210171561223057612230612129565b604052818152838201602001851015612247575f5ffd5b8160208501602083015e5f918101602001919091529392505050565b805161226e81611f39565b919050565b8051801515811461226e575f5ffd5b805161226e81612020565b5f6020828403121561229d575f5ffd5b815167ffffffffffffffff8111156122b3575f5ffd5b820161014081850312156122c5575f5ffd5b6122cd61218b565b81518152602082015167ffffffffffffffff8111156122ea575f5ffd5b6122f6868285016121d8565b60208301525061230860408301612263565b604082015261231960608301612263565b60608201526080828101519082015261233460a08301612273565b60a082015260c0828101519082015260e0808301519082015261235a6101008301612282565b61010082015261236d6101208301612282565b610120820152949350505050565b5f6020828403121561238b575f5ffd5b61049982612273565b5f60a08284031280156123a5575f5ffd5b506123ae6121b5565b82516123b981611f39565b815260208301516123c981611f39565b602082015260408301516123dc81611f39565b60408201526123ed60608401612273565b60608201526080928301519281019290925250919050565b5f60208284031215612415575f5ffd5b815167ffffffffffffffff81111561242b575f5ffd5b820160a0818503121561243c575f5ffd5b6124446121b5565b81518152602082015161245681611f39565b6020820152604082015167ffffffffffffffff811115612474575f5ffd5b612480868285016121d8565b6040830152506060828101519082015261249c60808301612273565b6080820152949350505050565b5f602082840312156124b9575f5ffd5b815161049981611f39565b5f5f604083850312156124d5575f5ffd5b82516124e081611f39565b6020840151909250611f7381611f39565b5f6080828403128015612502575f5ffd5b506040516080810167ffffffffffffffff8111828210171561252657612526612129565b60405261253283612273565b81526020838101519082015260408084015190820152606092830151928101929092525091905056fea2646970667358221220090b755017f7326cad53d9c53368a4116f53d7c7ff13bfec20529e61ba22ac3664736f6c634300081c0033",
  "linkReferences": {},
  "deployedLinkReferences": {},
  "immutableReferences": {
    "13017": [
      {
        "length": 32,
        "start": 764
      },
      {
        "length": 32,
        "start": 1064
      },
      {
        "length": 32,
        "start": 1191
      },
      {
        "length": 32,
        "start": 1492
      },
      {
        "length": 32,
        "start": 1794
      },
      {
        "length": 32,
        "start": 2182
      },
      {
        "length": 32,
        "start": 2375
      },
      {
        "length": 32,
        "start": 2525
      },
      {
        "length": 32,
        "start": 2675
      },
      {
        "length": 32,
        "start": 2932
      },
      {
        "length": 32,
        "start": 3102
      },
      {
        "length": 32,
        "start": 3305
      },
      {
        "length": 32,
        "start": 3555
      },
      {
        "length": 32,
        "start": 3795
      },
      {
        "length": 32,
        "start": 3993
      },
      {
        "length": 32,
        "start": 4158
      },
      {
        "length": 32,
        "start": 4315
      },
      {
        "length": 32,
        "start": 4442
      },
      {
        "length": 32,
        "start": 4611
      },
      {
        "length": 32,
        "start": 4733
      },
      {
        "length": 32,
        "start": 4985
      },
      {
        "length": 32,
        "start": 5128
      },
      {
        "length": 32,
        "start": 5313
      },
      {
        "length": 32,
        "start": 5468
      },
      {
        "length": 32,
        "start": 5609
      },
      {
        "length": 32,
        "start": 5732
      },
      {
        "length": 32,
        "start": 5970
      },
      {
        "length": 32,
        "start": 6115
      },
      {
        "length": 32,
        "start": 6257
      },
      {
        "length": 32,
        "start": 6407
      },
      {
        "length": 32,
        "start": 6549
      },
      {
        "length": 32,
        "start": 6728
      },
      {
        "length": 32,
        "start": 6876
      },
      {
        "length": 32,
        "start": 7163
      }
    ]
  },
  "inputSourceName": "project/contracts/VoucherProtocolReader.sol",
  "buildInfoId": "solc-0_8_28-55ed1507e52fcf388ee3fdc96867ee437ca5b268"
}