{
  "_format": "hh3-artifact-1",
  "contractName": "VoucherProtocolReader",
  "sourceName": "contracts/VoucherProtocolReader.sol",
  "abi": [
    {
      "inputs": [
        {
          "internalType": "address",
          "name": "_protocol",
          "type": "address"
        }
      ],
      "stateMutability": "nonpayable",
      "type": "constructor"
    },
    {
      "inputs": [],
      "name": "DocumentNotFound",
      "type": "error"
    },
    {
      "inputs": [],
      "name": "InvalidProtocolAddress",
      "type": "error"
    },
    {
      "inputs": [
        {
          "internalType": "bytes32",
          "name": "tenantId",
          "type": "bytes32"
        },
        {
          "internalType": "uint32",
          "name": "docType",
          "type": "uint32"
        },
        {
          "internalType": "address",
          "name": "operator",
          "type": "address"
        }
      ],
      "name": "getCoSignOperatorConfig",
      "outputs": [
        {
          "internalType": "bool",
          "name": "whitelisted",
          "type": "bool"
        },
        {
          "internalType": "uint16",
          "name": "roleId",
          "type": "uint16"
        }
      ],
      "stateMutability": "view",
      "type": "function"
    },
    {
      "inputs": [
        {
          "internalType": "bytes32",
          "name": "tenantId",
          "type": "bytes32"
        },
        {
          "internalType": "uint32",
          "name": "docType",
          "type": "uint32"
        }
      ],
      "name": "getCoSignPolicy",
      "outputs": [
        {
          "internalType": "bool",
          "name": "enabled",
          "type": "bool"
        },
        {
          "internalType": "uint256",
          "name": "minStake",
          "type": "uint256"
        },
        {
          "internalType": "uint256",
          "name": "minSigners",
          "type": "uint256"
        },
        {
          "internalType": "uint256",
          "name": "requiredRoleMask",
          "type": "uint256"
        }
      ],
      "stateMutability": "view",
      "type": "function"
    },
    {
      "inputs": [
        {
          "internalType": "bytes32",
          "name": "tenantId",
          "type": "bytes32"
        },
        {
          "internalType": "bytes32",
          "name": "fileHash",
          "type": "bytes32"
        }
      ],
      "name": "getCoSignStatus",
      "outputs": [
        {
          "internalType": "bool",
          "name": "qualified",
          "type": "bool"
        },
        {
          "internalType": "uint256",
          "name": "totalSigners",
          "type": "uint256"
        },
        {
          "internalType": "uint256",
          "name": "trustedSigners",
          "type": "uint256"
        },
        {
          "internalType": "uint256",
          "name": "currentRoleMask",
          "type": "uint256"
        },
        {
          "internalType": "uint256",
          "name": "requiredRoleMask",
          "type": "uint256"
        },
        {
          "internalType": "uint256",
          "name": "minSigners",
          "type": "uint256"
        },
        {
          "internalType": "uint256",
          "name": "minStake",
          "type": "uint256"
        }
      ],
      "stateMutability": "view",
      "type": "function"
    },
    {
      "inputs": [
        {
          "internalType": "bytes32",
          "name": "tenantId",
          "type": "bytes32"
        },
        {
          "internalType": "bytes32",
          "name": "fileHash",
          "type": "bytes32"
        }
      ],
      "name": "getDocumentOrRevert",
      "outputs": [
        {
          "components": [
            {
              "internalType": "bytes32",
              "name": "tenantId",
              "type": "bytes32"
            },
            {
              "internalType": "string",
              "name": "cid",
              "type": "string"
            },
            {
              "internalType": "address",
              "name": "issuer",
              "type": "address"
            },
            {
              "internalType": "uint256",
              "name": "timestamp",
              "type": "uint256"
            },
            {
              "internalType": "bool",
              "name": "isValid",
              "type": "bool"
            },
            {
              "internalType": "bytes32",
              "name": "ciphertextHash",
              "type": "bytes32"
            },
            {
              "internalType": "bytes32",
              "name": "encryptionMetaHash",
              "type": "bytes32"
            },
            {
              "internalType": "uint32",
              "name": "docType",
              "type": "uint32"
            },
            {
              "internalType": "uint32",
              "name": "version",
              "type": "uint32"
            }
          ],
          "internalType": "struct VoucherTypes.Document",
          "name": "",
          "type": "tuple"
        }
      ],
      "stateMutability": "view",
      "type": "function"
    },
    {
      "inputs": [
        {
          "internalType": "bytes32",
          "name": "tenantId",
          "type": "bytes32"
        },
        {
          "internalType": "bytes32",
          "name": "fileHash",
          "type": "bytes32"
        }
      ],
      "name": "getDocumentStatus",
      "outputs": [
        {
          "components": [
            {
              "internalType": "bool",
              "name": "exists",
              "type": "bool"
            },
            {
              "internalType": "bool",
              "name": "isValid",
              "type": "bool"
            },
            {
              "internalType": "address",
              "name": "issuer",
              "type": "address"
            },
            {
              "internalType": "string",
              "name": "cid",
              "type": "string"
            },
            {
              "internalType": "uint256",
              "name": "timestamp",
              "type": "uint256"
            },
            {
              "internalType": "bytes32",
              "name": "ciphertextHash",
              "type": "bytes32"
            },
            {
              "internalType": "bytes32",
              "name": "encryptionMetaHash",
              "type": "bytes32"
            },
            {
              "internalType": "uint32",
              "name": "docType",
              "type": "uint32"
            },
            {
              "internalType": "uint32",
              "name": "version",
              "type": "uint32"
            },
            {
              "internalType": "uint256",
              "name": "coSignCount",
              "type": "uint256"
            },
            {
              "internalType": "uint256",
              "name": "trustedCoSignCount",
              "type": "uint256"
            },
            {
              "internalType": "uint256",
              "name": "trustedCoSignRoleMask",
              "type": "uint256"
            },
            {
              "internalType": "bool",
              "name": "coSignQualified",
              "type": "bool"
            }
          ],
          "internalType": "struct VoucherTypes.DocumentSnapshot",
          "name": "",
          "type": "tuple"
        }
      ],
      "stateMutability": "view",
      "type": "function"
    },
    {
      "inputs": [
        {
          "internalType": "bytes32",
          "name": "tenantId",
          "type": "bytes32"
        }
      ],
      "name": "getOperatorCount",
      "outputs": [
        {
          "internalType": "uint256",
          "name": "",
          "type": "uint256"
        }
      ],
      "stateMutability": "view",
      "type": "function"
    },
    {
      "inputs": [
        {
          "internalType": "bytes32",
          "name": "tenantId",
          "type": "bytes32"
        },
        {
          "internalType": "uint256",
          "name": "offset",
          "type": "uint256"
        },
        {
          "internalType": "uint256",
          "name": "limit",
          "type": "uint256"
        }
      ],
      "name": "getOperatorIds",
      "outputs": [
        {
          "internalType": "address[]",
          "name": "ids",
          "type": "address[]"
        }
      ],
      "stateMutability": "view",
      "type": "function"
    },
    {
      "inputs": [
        {
          "internalType": "bytes32",
          "name": "tenantId",
          "type": "bytes32"
        },
        {
          "internalType": "address",
          "name": "operator",
          "type": "address"
        }
      ],
      "name": "getOperatorStatus",
      "outputs": [
        {
          "internalType": "bool",
          "name": "exists",
          "type": "bool"
        },
        {
          "internalType": "bool",
          "name": "isActive",
          "type": "bool"
        },
        {
          "internalType": "address",
          "name": "walletAddress",
          "type": "address"
        },
        {
          "internalType": "string",
          "name": "metadataURI",
          "type": "string"
        },
        {
          "internalType": "uint256",
          "name": "stakeAmount",
          "type": "uint256"
        },
        {
          "internalType": "uint256",
          "name": "nonce",
          "type": "uint256"
        },
        {
          "internalType": "uint256",
          "name": "unstakeReadyAt",
          "type": "uint256"
        },
        {
          "internalType": "bool",
          "name": "canUnstakeNow",
          "type": "bool"
        },
        {
          "internalType": "address",
          "name": "recoveryDelegate",
          "type": "address"
        }
      ],
      "stateMutability": "view",
      "type": "function"
    },
    {
      "inputs": [
        {
          "internalType": "bytes32",
          "name": "tenantId",
          "type": "bytes32"
        },
        {
          "internalType": "address",
          "name": "operator",
          "type": "address"
        }
      ],
      "name": "getRecoveryAliasStatus",
      "outputs": [
        {
          "internalType": "bool",
          "name": "hasRecoveryHistory",
          "type": "bool"
        },
        {
          "internalType": "address",
          "name": "rootOperator",
          "type": "address"
        },
        {
          "internalType": "address",
          "name": "replacedBy",
          "type": "address"
        }
      ],
      "stateMutability": "view",
      "type": "function"
    },
    {
      "inputs": [],
      "name": "getTenantCount",
      "outputs": [
        {
          "internalType": "uint256",
          "name": "",
          "type": "uint256"
        }
      ],
      "stateMutability": "view",
      "type": "function"
    },
    {
      "inputs": [
        {
          "internalType": "uint256",
          "name": "offset",
          "type": "uint256"
        },
        {
          "internalType": "uint256",
          "name": "limit",
          "type": "uint256"
        }
      ],
      "name": "getTenantIds",
      "outputs": [
        {
          "internalType": "bytes32[]",
          "name": "ids",
          "type": "bytes32[]"
        }
      ],
      "stateMutability": "view",
      "type": "function"
    },
    {
      "inputs": [
        {
          "internalType": "bytes32",
          "name": "tenantId",
          "type": "bytes32"
        }
      ],
      "name": "getTenantInfo",
      "outputs": [
        {
          "internalType": "bool",
          "name": "exists",
          "type": "bool"
        },
        {
          "internalType": "address",
          "name": "admin",
          "type": "address"
        },
        {
          "internalType": "address",
          "name": "operatorManager",
          "type": "address"
        },
        {
          "internalType": "address",
          "name": "treasury",
          "type": "address"
        },
        {
          "internalType": "bool",
          "name": "isActive",
          "type": "bool"
        },
        {
          "internalType": "uint256",
          "name": "createdAt",
          "type": "uint256"
        }
      ],
      "stateMutability": "view",
      "type": "function"
    },
    {
      "inputs": [
        {
          "internalType": "bytes32",
          "name": "tenantId",
          "type": "bytes32"
        }
      ],
      "name": "getTenantRuntimeConfig",
      "outputs": [
        {
          "internalType": "uint256",
          "name": "minOperatorStake",
          "type": "uint256"
        },
        {
          "internalType": "uint256",
          "name": "unstakeCooldown",
          "type": "uint256"
        }
      ],
      "stateMutability": "view",
      "type": "function"
    },
    {
      "inputs": [
        {
          "internalType": "bytes32",
          "name": "tenantId",
          "type": "bytes32"
        },
        {
          "internalType": "bytes32",
          "name": "violationCode",
          "type": "bytes32"
        }
      ],
      "name": "getViolationPenalty",
      "outputs": [
        {
          "internalType": "uint16",
          "name": "penaltyBps",
          "type": "uint16"
        }
      ],
      "stateMutability": "view",
      "type": "function"
    },
    {
      "inputs": [
        {
          "internalType": "bytes32",
          "name": "tenantId",
          "type": "bytes32"
        },
        {
          "internalType": "bytes32",
          "name": "fileHash",
          "type": "bytes32"
        },
        {
          "internalType": "address",
          "name": "signer",
          "type": "address"
        }
      ],
      "name": "hasSignedDocument",
      "outputs": [
        {
          "internalType": "bool",
          "name": "",
          "type": "bool"
        }
      ],
      "stateMutability": "view",
      "type": "function"
    },
    {
      "inputs": [
        {
          "internalType": "bytes32",
          "name": "tenantId",
          "type": "bytes32"
        },
        {
          "internalType": "bytes32",
          "name": "fileHash",
          "type": "bytes32"
        }
      ],
      "name": "isDocumentCoSignQualified",
      "outputs": [
        {
          "internalType": "bool",
          "name": "",
          "type": "bool"
        }
      ],
      "stateMutability": "view",
      "type": "function"
    },
    {
      "inputs": [],
      "name": "protocol",
      "outputs": [
        {
          "internalType": "contract VoucherProtocol",
          "name": "",
          "type": "address"
        }
      ],
      "stateMutability": "view",
      "type": "function"
    },
    {
      "inputs": [
        {
          "internalType": "bytes32",
          "name": "tenantId",
          "type": "bytes32"
        },
        {
          "internalType": "bytes32",
          "name": "fileHash",
          "type": "bytes32"
        }
      ],
      "name": "verify",
      "outputs": [
        {
          "internalType": "bool",
          "name": "exists",
          "type": "bool"
        },
        {
          "internalType": "bool",
          "name": "isValid",
          "type": "bool"
        },
        {
          "internalType": "address",
          "name": "issuer",
          "type": "address"
        },
        {
          "internalType": "string",
          "name": "cid",
          "type": "string"
        }
      ],
      "stateMutability": "view",
      "type": "function"
    }
  ],
  "bytecode": "0x60a060405234801561000f575f5ffd5b506040516126e83803806126e883398101604081905261002e91610066565b6001600160a01b03811661005557604051630ff6dc2560e11b815260040160405180910390fd5b6001600160a01b0316608052610093565b5f60208284031215610076575f5ffd5b81516001600160a01b038116811461008c575f5ffd5b9392505050565b6080516125566101925f395f81816102fc01528181610428015281816104a7015281816105d4015281816107020152818161088501528181610946015281816109dc01528181610a7201528181610b6401528181610c0e01528181610cd901528181610dd301528181610ec301528181610f890152818161102e015281816110cb0152818161114a015281816111f30152818161126d01528181611369015281816113f8015281816114b10152818161154c015281816115d90152818161165401528181611741015281816117d201528181611860015281816118f60152818161198401528181611a3701528181611acb0152611bea01526125565ff3fe608060405234801561000f575f5ffd5b5060043610610111575f3560e01c80637efb4fd01161009e578063bb37cd171161006e578063bb37cd171461034c578063c53455dc14610379578063d1e4bbde1461038c578063f049b650146103d6578063f85efb80146103e9575f5ffd5b80637efb4fd01461028857806385123fd5146102c25780638ce74426146102f75780639149cd4914610336575f5ffd5b80634b263e74116100e45780634b263e74146101a05780634e8fee00146101f25780636ea14e751461021557806375cc94361461023d5780637c6b9adb14610265575f5ffd5b8063082a887614610115578063361410a5146101405780633dadf67714610160578063421f9b4214610180575b5f5ffd5b610128610123366004611ca0565b610409565b60405161ffff90911681526020015b60405180910390f35b61015361014e366004611ca0565b6104a2565b6040516101379190611cc0565b61017361016e366004611ca0565b61067c565b6040516101379190611d30565b61019361018e366004611ca0565b610ae7565b6040516101379190611e16565b6101b36101ae366004611ebd565b610c05565b6040805196151587526001600160a01b0395861660208801529385169386019390935292166060840152901515608083015260a082015260c001610137565b610205610200366004611ca0565b610cd1565b6040516101379493929190611ed4565b610228610223366004611f28565b610dc6565b60405161013799989796959493929190611f56565b61025061024b366004611ebd565b6110a9565b60408051928352602083019190915201610137565b610278610273366004611fc2565b6111c4565b6040519015158152602001610137565b61029b610296366004611f28565b611268565b6040805193151584526001600160a01b039283166020850152911690820152606001610137565b6102d56102d0366004612009565b611336565b6040805194151585526020850193909352918301526060820152608001610137565b61031e7f000000000000000000000000000000000000000000000000000000000000000081565b6040516001600160a01b039091168152602001610137565b61033e6113f5565b604051908152602001610137565b61035f61035a36600461202c565b61147b565b60408051921515835261ffff909116602083015201610137565b61033e610387366004611ebd565b6115c1565b61039f61039a366004611ca0565b61164a565b6040805197151588526020880196909652948601939093526060850191909152608084015260a083015260c082015260e001610137565b6102786103e4366004611ca0565b611a18565b6103fc6103f7366004612060565b611aa8565b6040516101379190612089565b6040516328a1b2c960e01b815260048101839052602481018290525f907f00000000000000000000000000000000000000000000000000000000000000006001600160a01b0316906328a1b2c990604401602060405180830381865afa158015610475573d5f5f3e3d5ffd5b505050506040513d601f19601f8201168201806040525081019061049991906120c9565b90505b92915050565b60605f7f00000000000000000000000000000000000000000000000000000000000000006001600160a01b0316630a75a2f06040518163ffffffff1660e01b8152600401602060405180830381865afa158015610501573d5f5f3e3d5ffd5b505050506040513d601f19601f8201168201806040525081019061052591906120ea565b90508215806105345750808410155b1561054e575050604080515f81526020810190915261049c565b5f6105598486612129565b9050818111156105665750805b610570858261213c565b67ffffffffffffffff81111561058857610588612101565b6040519080825280602002602001820160405280156105b1578160200160208202803683370190505b509250845b81811015610673576040516331c125a960e21b8152600481018290527f00000000000000000000000000000000000000000000000000000000000000006001600160a01b03169063c70496a490602401602060405180830381865afa158015610621573d5f5f3e3d5ffd5b505050506040513d601f19601f8201168201806040525081019061064591906120ea565b84610650888461213c565b815181106106605761066061214f565b60209081029190910101526001016105b6565b50505092915050565b604080516101a0810182525f808252602082018190529181018290526060808201526080810182905260a0810182905260c0810182905260e081018290526101008101829052610120810182905261014081018290526101608101829052610180810191909152604051631b48ba1f60e01b815260048101849052602481018390525f907f00000000000000000000000000000000000000000000000000000000000000006001600160a01b031690631b48ba1f906044015f60405180830381865afa15801561074e573d5f5f3e3d5ffd5b505050506040513d5f823e601f3d908101601f191682016040526107759190810190612265565b60408101519091506001600160a01b0316610806575050604080516101a0810182525f8082526020808301829052828401829052835190810190935280835260608201929092526080810182905260a0810182905260c0810182905260e08101829052610100810182905261012081018290526101408101829052610160810182905261018081019190915261049c565b604051806101a0016040528060011515815260200182608001511515815260200182604001516001600160a01b0316815260200182602001518152602001826060015181526020018260a0015181526020018260c0015181526020018260e0015163ffffffff16815260200182610100015163ffffffff1681526020017f00000000000000000000000000000000000000000000000000000000000000006001600160a01b0316634f138e0187876040518363ffffffff1660e01b81526004016108da929190918252602082015260400190565b602060405180830381865afa1580156108f5573d5f5f3e3d5ffd5b505050506040513d601f19601f8201168201806040525081019061091991906120ea565b8152604051636d184dd360e01b815260048101879052602481018690526020909101906001600160a01b037f00000000000000000000000000000000000000000000000000000000000000001690636d184dd390604401602060405180830381865afa15801561098b573d5f5f3e3d5ffd5b505050506040513d601f19601f820116820180604052508101906109af91906120ea565b8152604051637ff6373160e01b815260048101879052602481018690526020909101906001600160a01b037f00000000000000000000000000000000000000000000000000000000000000001690637ff6373190604401602060405180830381865afa158015610a21573d5f5f3e3d5ffd5b505050506040513d601f19601f82011682018060405250810190610a4591906120ea565b815260405163281752e160e11b815260048101879052602481018690526020909101906001600160a01b037f0000000000000000000000000000000000000000000000000000000000000000169063502ea5c290604401602060405180830381865afa158015610ab7573d5f5f3e3d5ffd5b505050506040513d601f19601f82011682018060405250810190610adb9190612340565b15159052949350505050565b610b456040518061012001604052805f8152602001606081526020015f6001600160a01b031681526020015f81526020015f151581526020015f81526020015f81526020015f63ffffffff1681526020015f63ffffffff1681525090565b604051631b48ba1f60e01b815260048101849052602481018390525f907f00000000000000000000000000000000000000000000000000000000000000006001600160a01b031690631b48ba1f906044015f60405180830381865afa158015610bb0573d5f5f3e3d5ffd5b505050506040513d5f823e601f3d908101601f19168201604052610bd79190810190612265565b60408101519091506001600160a01b0316610499576040516328193b9d60e21b815260040160405180910390fd5b5f5f5f5f5f5f5f7f00000000000000000000000000000000000000000000000000000000000000006001600160a01b031663ff14d458896040518263ffffffff1660e01b8152600401610c5a91815260200190565b60a060405180830381865afa158015610c75573d5f5f3e3d5ffd5b505050506040513d601f19601f82011682018060405250810190610c999190612359565b80516020820151604083015160608401516080909401516001600160a01b03841615159d939c50919a50985091965090945092505050565b5f5f5f60605f7f00000000000000000000000000000000000000000000000000000000000000006001600160a01b0316631b48ba1f88886040518363ffffffff1660e01b8152600401610d2e929190918252602082015260400190565b5f60405180830381865afa158015610d48573d5f5f3e3d5ffd5b505050506040513d5f823e601f3d908101601f19168201604052610d6f9190810190612265565b60408101519091506001600160a01b0316610da257505060408051602081019091525f8082529350839250829150610dbd565b60018160800151826040015183602001519450945094509450505b92959194509250565b5f5f5f60605f5f5f5f5f5f7f00000000000000000000000000000000000000000000000000000000000000006001600160a01b0316636cc531d48d8d6040518363ffffffff1660e01b8152600401610e319291909182526001600160a01b0316602082015260400190565b5f60405180830381865afa158015610e4b573d5f5f3e3d5ffd5b505050506040513d5f823e601f3d908101601f19168201604052610e7291908101906123ca565b905080606001515f141580610e88575080608001515b60808201516020830151919b5099506001600160a01b031615610eaf578060200151610eb1565b8a5b975080604001519650806060015195507f00000000000000000000000000000000000000000000000000000000000000006001600160a01b03166386e2b63f8d8d6040518363ffffffff1660e01b8152600401610f219291909182526001600160a01b0316602082015260400190565b602060405180830381865afa158015610f3c573d5f5f3e3d5ffd5b505050506040513d601f19601f82011682018060405250810190610f6091906120ea565b60405163b04da8a160e01b8152600481018e90526001600160a01b038d811660248301529196507f00000000000000000000000000000000000000000000000000000000000000009091169063b04da8a190604401602060405180830381865afa158015610fd0573d5f5f3e3d5ffd5b505050506040513d601f19601f82011682018060405250810190610ff491906120ea565b935083158015906110055750834210155b60405163dfa89c1d60e01b8152600481018e90526001600160a01b038d811660248301529194507f00000000000000000000000000000000000000000000000000000000000000009091169063dfa89c1d90604401602060405180830381865afa158015611075573d5f5f3e3d5ffd5b505050506040513d601f19601f82011682018060405250810190611099919061246e565b9150509295985092959850929598565b604051638bdb1de360e01b8152600481018290525f9081906001600160a01b037f00000000000000000000000000000000000000000000000000000000000000001690638bdb1de390602401602060405180830381865afa158015611110573d5f5f3e3d5ffd5b505050506040513d601f19601f8201168201806040525081019061113491906120ea565b60405163fc89626760e01b8152600481018590527f00000000000000000000000000000000000000000000000000000000000000006001600160a01b03169063fc89626790602401602060405180830381865afa158015611197573d5f5f3e3d5ffd5b505050506040513d601f19601f820116820180604052508101906111bb91906120ea565b91509150915091565b60405163015d4ad360e01b815260048101849052602481018390526001600160a01b0382811660448301525f917f00000000000000000000000000000000000000000000000000000000000000009091169063015d4ad390606401602060405180830381865afa15801561123a573d5f5f3e3d5ffd5b505050506040513d601f19601f8201168201806040525081019061125e9190612340565b90505b9392505050565b5f5f5f7f00000000000000000000000000000000000000000000000000000000000000006001600160a01b0316631b90bef186866040518363ffffffff1660e01b81526004016112cb9291909182526001600160a01b0316602082015260400190565b6040805180830381865afa1580156112e5573d5f5f3e3d5ffd5b505050506040513d601f19601f820116820180604052508101906113099190612489565b90925090506001600160a01b03821615158061132d57506001600160a01b03811615155b92509250925092565b60405162619a7d60e41b81526004810183905263ffffffff821660248201525f9081908190819081906001600160a01b037f00000000000000000000000000000000000000000000000000000000000000001690630619a7d090604401608060405180830381865afa1580156113ae573d5f5f3e3d5ffd5b505050506040513d601f19601f820116820180604052508101906113d291906124b6565b805160208201516040830151606090930151919a90995091975095509350505050565b5f7f00000000000000000000000000000000000000000000000000000000000000006001600160a01b0316630a75a2f06040518163ffffffff1660e01b8152600401602060405180830381865afa158015611452573d5f5f3e3d5ffd5b505050506040513d601f19601f8201168201806040525081019061147691906120ea565b905090565b6040516379f24dd560e11b81526004810184905263ffffffff831660248201526001600160a01b0382811660448301525f9182917f0000000000000000000000000000000000000000000000000000000000000000169063f3e49baa90606401602060405180830381865afa1580156114f6573d5f5f3e3d5ffd5b505050506040513d601f19601f8201168201806040525081019061151a9190612340565b60405163d9fe7f6760e01b81526004810187905263ffffffff861660248201526001600160a01b0385811660448301527f0000000000000000000000000000000000000000000000000000000000000000169063d9fe7f6790606401602060405180830381865afa158015611591573d5f5f3e3d5ffd5b505050506040513d601f19601f820116820180604052508101906115b591906120c9565b91509150935093915050565b604051635533b9bf60e01b8152600481018290525f907f00000000000000000000000000000000000000000000000000000000000000006001600160a01b031690635533b9bf90602401602060405180830381865afa158015611626573d5f5f3e3d5ffd5b505050506040513d601f19601f8201168201806040525081019061049c91906120ea565b5f5f5f5f5f5f5f5f7f00000000000000000000000000000000000000000000000000000000000000006001600160a01b0316631b48ba1f8b8b6040518363ffffffff1660e01b81526004016116a9929190918252602082015260400190565b5f60405180830381865afa1580156116c3573d5f5f3e3d5ffd5b505050506040513d5f823e601f3d908101601f191682016040526116ea9190810190612265565b60408101519091506001600160a01b0316611718576040516328193b9d60e21b815260040160405180910390fd5b60e081015160405162619a7d60e41b8152600481018c905263ffffffff90911660248201525f907f00000000000000000000000000000000000000000000000000000000000000006001600160a01b031690630619a7d090604401608060405180830381865afa15801561178e573d5f5f3e3d5ffd5b505050506040513d601f19601f820116820180604052508101906117b291906124b6565b60405163281752e160e11b8152600481018d9052602481018c90529091507f00000000000000000000000000000000000000000000000000000000000000006001600160a01b03169063502ea5c290604401602060405180830381865afa15801561181f573d5f5f3e3d5ffd5b505050506040513d601f19601f820116820180604052508101906118439190612340565b604051634f138e0160e01b8152600481018d9052602481018c90527f00000000000000000000000000000000000000000000000000000000000000006001600160a01b031690634f138e0190604401602060405180830381865afa1580156118ad573d5f5f3e3d5ffd5b505050506040513d601f19601f820116820180604052508101906118d191906120ea565b604051636d184dd360e01b8152600481018e9052602481018d90526001600160a01b037f00000000000000000000000000000000000000000000000000000000000000001690636d184dd390604401602060405180830381865afa15801561193b573d5f5f3e3d5ffd5b505050506040513d601f19601f8201168201806040525081019061195f91906120ea565b604051637ff6373160e01b8152600481018f9052602481018e90526001600160a01b037f00000000000000000000000000000000000000000000000000000000000000001690637ff6373190604401602060405180830381865afa1580156119c9573d5f5f3e3d5ffd5b505050506040513d601f19601f820116820180604052508101906119ed91906120ea565b8460600151856040015186602001519850985098509850985098509850505092959891949750929550565b60405163281752e160e11b815260048101839052602481018290525f907f00000000000000000000000000000000000000000000000000000000000000006001600160a01b03169063502ea5c290604401602060405180830381865afa158015611a84573d5f5f3e3d5ffd5b505050506040513d601f19601f820116820180604052508101906104999190612340565b604051635533b9bf60e01b8152600481018490526060905f906001600160a01b037f00000000000000000000000000000000000000000000000000000000000000001690635533b9bf90602401602060405180830381865afa158015611b10573d5f5f3e3d5ffd5b505050506040513d601f19601f82011682018060405250810190611b3491906120ea565b9050821580611b435750808410155b15611b5d575050604080515f815260208101909152611261565b5f611b688486612129565b905081811115611b755750805b611b7f858261213c565b67ffffffffffffffff811115611b9757611b97612101565b604051908082528060200260200182016040528015611bc0578160200160208202803683370190505b509250845b81811015611c965760405163b5004d7960e01b815260048101889052602481018290527f00000000000000000000000000000000000000000000000000000000000000006001600160a01b03169063b5004d7990604401602060405180830381865afa158015611c37573d5f5f3e3d5ffd5b505050506040513d601f19601f82011682018060405250810190611c5b919061246e565b84611c66888461213c565b81518110611c7657611c7661214f565b6001600160a01b0390921660209283029190910190910152600101611bc5565b5050509392505050565b5f5f60408385031215611cb1575f5ffd5b50508035926020909101359150565b602080825282518282018190525f918401906040840190835b81811015611cf7578351835260209384019390920191600101611cd9565b509095945050505050565b5f81518084528060208401602086015e5f602082860101526020601f19601f83011685010191505092915050565b60208152611d4360208201835115159052565b5f6020830151611d57604084018215159052565b5060408301516001600160a01b03811660608401525060608301516101a06080840152611d886101c0840182611d02565b9050608084015160a084015260a084015160c084015260c084015160e084015260e0840151611dc061010085018263ffffffff169052565b5061010084015163ffffffff811661012085015250610120840151610140840152610140840151610160840152610160840151610180840152610180840151611e0e6101a085018215159052565b509392505050565b60208152815160208201525f60208301516101206040840152611e3d610140840182611d02565b90506040840151611e5960608501826001600160a01b03169052565b50606084015160808401526080840151611e7760a085018215159052565b5060a084015160c084015260c084015160e084015260e0840151611ea461010085018263ffffffff169052565b5061010084015163ffffffff8116610120850152611e0e565b5f60208284031215611ecd575f5ffd5b5035919050565b841515815283151560208201526001600160a01b03831660408201526080606082018190525f90611f0790830184611d02565b9695505050505050565b6001600160a01b0381168114611f25575f5ffd5b50565b5f5f60408385031215611f39575f5ffd5b823591506020830135611f4b81611f11565b809150509250929050565b891515815288151560208201526001600160a01b0388166040820152610120606082018190525f90611f8a90830189611d02565b60808301979097525060a081019490945260c0840192909252151560e08301526001600160a01b031661010090910152949350505050565b5f5f5f60608486031215611fd4575f5ffd5b83359250602084013591506040840135611fed81611f11565b809150509250925092565b63ffffffff81168114611f25575f5ffd5b5f5f6040838503121561201a575f5ffd5b823591506020830135611f4b81611ff8565b5f5f5f6060848603121561203e575f5ffd5b83359250602084013561205081611ff8565b91506040840135611fed81611f11565b5f5f5f60608486031215612072575f5ffd5b505081359360208301359350604090920135919050565b602080825282518282018190525f918401906040840190835b81811015611cf75783516001600160a01b03168352602093840193909201916001016120a2565b5f602082840312156120d9575f5ffd5b815161ffff81168114610499575f5ffd5b5f602082840312156120fa575f5ffd5b5051919050565b634e487b7160e01b5f52604160045260245ffd5b634e487b7160e01b5f52601160045260245ffd5b8082018082111561049c5761049c612115565b8181038181111561049c5761049c612115565b634e487b7160e01b5f52603260045260245ffd5b604051610120810167ffffffffffffffff8111828210171561218757612187612101565b60405290565b60405160a0810167ffffffffffffffff8111828210171561218757612187612101565b5f82601f8301126121bf575f5ffd5b815167ffffffffffffffff8111156121d9576121d9612101565b604051601f8201601f19908116603f0116810167ffffffffffffffff8111828210171561220857612208612101565b60405281815283820160200185101561221f575f5ffd5b8160208501602083015e5f918101602001919091529392505050565b805161224681611f11565b919050565b80518015158114612246575f5ffd5b805161224681611ff8565b5f60208284031215612275575f5ffd5b815167ffffffffffffffff81111561228b575f5ffd5b8201610120818503121561229d575f5ffd5b6122a5612163565b81518152602082015167ffffffffffffffff8111156122c2575f5ffd5b6122ce868285016121b0565b6020830152506122e06040830161223b565b6040820152606082810151908201526122fb6080830161224b565b608082015260a0828101519082015260c0808301519082015261232060e0830161225a565b60e0820152612332610100830161225a565b610100820152949350505050565b5f60208284031215612350575f5ffd5b6104998261224b565b5f60a082840312801561236a575f5ffd5b5061237361218d565b825161237e81611f11565b8152602083015161238e81611f11565b602082015260408301516123a181611f11565b60408201526123b26060840161224b565b60608201526080928301519281019290925250919050565b5f602082840312156123da575f5ffd5b815167ffffffffffffffff8111156123f0575f5ffd5b820160a08185031215612401575f5ffd5b61240961218d565b81518152602082015161241b81611f11565b6020820152604082015167ffffffffffffffff811115612439575f5ffd5b612445868285016121b0565b604083015250606082810151908201526124616080830161224b565b6080820152949350505050565b5f6020828403121561247e575f5ffd5b815161049981611f11565b5f5f6040838503121561249a575f5ffd5b82516124a581611f11565b6020840151909250611f4b81611f11565b5f60808284031280156124c7575f5ffd5b506040516080810167ffffffffffffffff811182821017156124eb576124eb612101565b6040526124f78361224b565b81526020838101519082015260408084015190820152606092830151928101929092525091905056fea26469706673582212204b5472e6dae520dbab8d0f3c09bfb168acdd3353ae896f84ca1d3030ab1ab45864736f6c634300081c0033",
  "linkReferences": {},
  "deployedLinkReferences": {},
  "immutableReferences": {
    "12986": [
      {
        "length": 32,
        "start": 764
      },
      {
        "length": 32,
        "start": 1064
      },
      {
        "length": 32,
        "start": 1191
      },
      {
        "length": 32,
        "start": 1492
      },
      {
        "length": 32,
        "start": 1794
      },
      {
        "length": 32,
        "start": 2181
      },
      {
        "length": 32,
        "start": 2374
      },
      {
        "length": 32,
        "start": 2524
      },
      {
        "length": 32,
        "start": 2674
      },
      {
        "length": 32,
        "start": 2916
      },
      {
        "length": 32,
        "start": 3086
      },
      {
        "length": 32,
        "start": 3289
      },
      {
        "length": 32,
        "start": 3539
      },
      {
        "length": 32,
        "start": 3779
      },
      {
        "length": 32,
        "start": 3977
      },
      {
        "length": 32,
        "start": 4142
      },
      {
        "length": 32,
        "start": 4299
      },
      {
        "length": 32,
        "start": 4426
      },
      {
        "length": 32,
        "start": 4595
      },
      {
        "length": 32,
        "start": 4717
      },
      {
        "length": 32,
        "start": 4969
      },
      {
        "length": 32,
        "start": 5112
      },
      {
        "length": 32,
        "start": 5297
      },
      {
        "length": 32,
        "start": 5452
      },
      {
        "length": 32,
        "start": 5593
      },
      {
        "length": 32,
        "start": 5716
      },
      {
        "length": 32,
        "start": 5953
      },
      {
        "length": 32,
        "start": 6098
      },
      {
        "length": 32,
        "start": 6240
      },
      {
        "length": 32,
        "start": 6390
      },
      {
        "length": 32,
        "start": 6532
      },
      {
        "length": 32,
        "start": 6711
      },
      {
        "length": 32,
        "start": 6859
      },
      {
        "length": 32,
        "start": 7146
      }
    ]
  },
  "inputSourceName": "project/contracts/VoucherProtocolReader.sol",
  "buildInfoId": "solc-0_8_28-c3c07028a5bc64b3f6bde9bce39bc0f0f0f7480f"
}