{
  "_format": "hh3-artifact-1",
  "contractName": "VoucherProtocol",
  "sourceName": "contracts/VoucherProtocol.sol",
  "abi": [
    {
      "inputs": [],
      "stateMutability": "nonpayable",
      "type": "constructor"
    },
    {
      "inputs": [],
      "name": "AccessControlBadConfirmation",
      "type": "error"
    },
    {
      "inputs": [
        {
          "internalType": "address",
          "name": "account",
          "type": "address"
        },
        {
          "internalType": "bytes32",
          "name": "neededRole",
          "type": "bytes32"
        }
      ],
      "name": "AccessControlUnauthorizedAccount",
      "type": "error"
    },
    {
      "inputs": [],
      "name": "AlreadyCoSigned",
      "type": "error"
    },
    {
      "inputs": [],
      "name": "CoSignerNotWhitelisted",
      "type": "error"
    },
    {
      "inputs": [],
      "name": "DocumentAlreadyExists",
      "type": "error"
    },
    {
      "inputs": [],
      "name": "DocumentAlreadyRevoked",
      "type": "error"
    },
    {
      "inputs": [],
      "name": "DocumentNotFound",
      "type": "error"
    },
    {
      "inputs": [],
      "name": "DocumentNotValid",
      "type": "error"
    },
    {
      "inputs": [],
      "name": "ECDSAInvalidSignature",
      "type": "error"
    },
    {
      "inputs": [
        {
          "internalType": "uint256",
          "name": "length",
          "type": "uint256"
        }
      ],
      "name": "ECDSAInvalidSignatureLength",
      "type": "error"
    },
    {
      "inputs": [
        {
          "internalType": "bytes32",
          "name": "s",
          "type": "bytes32"
        }
      ],
      "name": "ECDSAInvalidSignatureS",
      "type": "error"
    },
    {
      "inputs": [],
      "name": "EthTransferFailed",
      "type": "error"
    },
    {
      "inputs": [],
      "name": "ExpiredSignature",
      "type": "error"
    },
    {
      "inputs": [
        {
          "internalType": "uint256",
          "name": "currentStake",
          "type": "uint256"
        },
        {
          "internalType": "uint256",
          "name": "requiredStake",
          "type": "uint256"
        }
      ],
      "name": "InsufficientCoSignStake",
      "type": "error"
    },
    {
      "inputs": [
        {
          "internalType": "uint256",
          "name": "sent",
          "type": "uint256"
        },
        {
          "internalType": "uint256",
          "name": "required",
          "type": "uint256"
        }
      ],
      "name": "InsufficientStake",
      "type": "error"
    },
    {
      "inputs": [],
      "name": "InvalidCoSignPolicy",
      "type": "error"
    },
    {
      "inputs": [],
      "name": "InvalidCoSignRole",
      "type": "error"
    },
    {
      "inputs": [],
      "name": "InvalidConfigValue",
      "type": "error"
    },
    {
      "inputs": [
        {
          "internalType": "uint16",
          "name": "provided",
          "type": "uint16"
        }
      ],
      "name": "InvalidPenaltyBps",
      "type": "error"
    },
    {
      "inputs": [],
      "name": "InvalidRecoveryTarget",
      "type": "error"
    },
    {
      "inputs": [],
      "name": "InvalidSignature",
      "type": "error"
    },
    {
      "inputs": [],
      "name": "InvalidTenantAddress",
      "type": "error"
    },
    {
      "inputs": [],
      "name": "NoPendingUnstake",
      "type": "error"
    },
    {
      "inputs": [],
      "name": "NoStake",
      "type": "error"
    },
    {
      "inputs": [],
      "name": "NoStakeToRecover",
      "type": "error"
    },
    {
      "inputs": [],
      "name": "OperatorAlreadyActive",
      "type": "error"
    },
    {
      "inputs": [],
      "name": "OperatorNotActive",
      "type": "error"
    },
    {
      "inputs": [],
      "name": "OperatorNotInTenant",
      "type": "error"
    },
    {
      "inputs": [],
      "name": "OperatorNotLost",
      "type": "error"
    },
    {
      "inputs": [
        {
          "internalType": "bytes32",
          "name": "violationCode",
          "type": "bytes32"
        }
      ],
      "name": "PenaltyNotConfigured",
      "type": "error"
    },
    {
      "inputs": [],
      "name": "RecoveryNotAllowed",
      "type": "error"
    },
    {
      "inputs": [],
      "name": "ReentrancyGuardReentrantCall",
      "type": "error"
    },
    {
      "inputs": [],
      "name": "TenantAlreadyExists",
      "type": "error"
    },
    {
      "inputs": [],
      "name": "TenantInactive",
      "type": "error"
    },
    {
      "inputs": [],
      "name": "TenantNotFound",
      "type": "error"
    },
    {
      "inputs": [],
      "name": "Unauthorized",
      "type": "error"
    },
    {
      "inputs": [],
      "name": "UnstakeInProgress",
      "type": "error"
    },
    {
      "inputs": [
        {
          "internalType": "uint256",
          "name": "readyAt",
          "type": "uint256"
        }
      ],
      "name": "UnstakeNotReady",
      "type": "error"
    },
    {
      "anonymous": false,
      "inputs": [
        {
          "indexed": true,
          "internalType": "bytes32",
          "name": "tenantId",
          "type": "bytes32"
        },
        {
          "indexed": true,
          "internalType": "uint32",
          "name": "docType",
          "type": "uint32"
        },
        {
          "indexed": true,
          "internalType": "address",
          "name": "operator",
          "type": "address"
        },
        {
          "indexed": false,
          "internalType": "bool",
          "name": "whitelisted",
          "type": "bool"
        },
        {
          "indexed": false,
          "internalType": "uint16",
          "name": "roleId",
          "type": "uint16"
        }
      ],
      "name": "CoSignOperatorConfigured",
      "type": "event"
    },
    {
      "anonymous": false,
      "inputs": [
        {
          "indexed": true,
          "internalType": "bytes32",
          "name": "tenantId",
          "type": "bytes32"
        },
        {
          "indexed": true,
          "internalType": "uint32",
          "name": "docType",
          "type": "uint32"
        },
        {
          "indexed": false,
          "internalType": "bool",
          "name": "enabled",
          "type": "bool"
        },
        {
          "indexed": false,
          "internalType": "uint256",
          "name": "minStake",
          "type": "uint256"
        },
        {
          "indexed": false,
          "internalType": "uint256",
          "name": "minSigners",
          "type": "uint256"
        },
        {
          "indexed": false,
          "internalType": "uint256",
          "name": "requiredRoleMask",
          "type": "uint256"
        }
      ],
      "name": "CoSignPolicyUpdated",
      "type": "event"
    },
    {
      "anonymous": false,
      "inputs": [
        {
          "indexed": true,
          "internalType": "bytes32",
          "name": "tenantId",
          "type": "bytes32"
        },
        {
          "indexed": true,
          "internalType": "bytes32",
          "name": "fileHash",
          "type": "bytes32"
        },
        {
          "indexed": false,
          "internalType": "string",
          "name": "cid",
          "type": "string"
        },
        {
          "indexed": true,
          "internalType": "address",
          "name": "issuer",
          "type": "address"
        },
        {
          "indexed": false,
          "internalType": "bytes32",
          "name": "ciphertextHash",
          "type": "bytes32"
        },
        {
          "indexed": false,
          "internalType": "bytes32",
          "name": "encryptionMetaHash",
          "type": "bytes32"
        },
        {
          "indexed": false,
          "internalType": "uint32",
          "name": "docType",
          "type": "uint32"
        },
        {
          "indexed": false,
          "internalType": "uint32",
          "name": "version",
          "type": "uint32"
        }
      ],
      "name": "DocumentAnchored",
      "type": "event"
    },
    {
      "anonymous": false,
      "inputs": [
        {
          "indexed": true,
          "internalType": "bytes32",
          "name": "tenantId",
          "type": "bytes32"
        },
        {
          "indexed": true,
          "internalType": "bytes32",
          "name": "fileHash",
          "type": "bytes32"
        },
        {
          "indexed": false,
          "internalType": "uint256",
          "name": "trustedSigners",
          "type": "uint256"
        },
        {
          "indexed": false,
          "internalType": "uint256",
          "name": "roleMask",
          "type": "uint256"
        }
      ],
      "name": "DocumentCoSignQualified",
      "type": "event"
    },
    {
      "anonymous": false,
      "inputs": [
        {
          "indexed": true,
          "internalType": "bytes32",
          "name": "tenantId",
          "type": "bytes32"
        },
        {
          "indexed": true,
          "internalType": "bytes32",
          "name": "fileHash",
          "type": "bytes32"
        },
        {
          "indexed": true,
          "internalType": "address",
          "name": "signer",
          "type": "address"
        },
        {
          "indexed": false,
          "internalType": "uint256",
          "name": "totalSigners",
          "type": "uint256"
        }
      ],
      "name": "DocumentCoSigned",
      "type": "event"
    },
    {
      "anonymous": false,
      "inputs": [
        {
          "indexed": true,
          "internalType": "bytes32",
          "name": "tenantId",
          "type": "bytes32"
        },
        {
          "indexed": true,
          "internalType": "bytes32",
          "name": "fileHash",
          "type": "bytes32"
        },
        {
          "indexed": true,
          "internalType": "address",
          "name": "revoker",
          "type": "address"
        },
        {
          "indexed": false,
          "internalType": "string",
          "name": "reason",
          "type": "string"
        }
      ],
      "name": "DocumentRevoked",
      "type": "event"
    },
    {
      "anonymous": false,
      "inputs": [
        {
          "indexed": true,
          "internalType": "bytes32",
          "name": "tenantId",
          "type": "bytes32"
        },
        {
          "indexed": false,
          "internalType": "uint256",
          "name": "oldValue",
          "type": "uint256"
        },
        {
          "indexed": false,
          "internalType": "uint256",
          "name": "newValue",
          "type": "uint256"
        }
      ],
      "name": "MinOperatorStakeUpdated",
      "type": "event"
    },
    {
      "anonymous": false,
      "inputs": [
        {
          "indexed": true,
          "internalType": "bytes32",
          "name": "tenantId",
          "type": "bytes32"
        },
        {
          "indexed": true,
          "internalType": "address",
          "name": "signer",
          "type": "address"
        },
        {
          "indexed": false,
          "internalType": "uint256",
          "name": "oldNonce",
          "type": "uint256"
        },
        {
          "indexed": false,
          "internalType": "uint256",
          "name": "newNonce",
          "type": "uint256"
        }
      ],
      "name": "NonceConsumed",
      "type": "event"
    },
    {
      "anonymous": false,
      "inputs": [
        {
          "indexed": true,
          "internalType": "bytes32",
          "name": "tenantId",
          "type": "bytes32"
        },
        {
          "indexed": true,
          "internalType": "address",
          "name": "operator",
          "type": "address"
        },
        {
          "indexed": false,
          "internalType": "string",
          "name": "metadata",
          "type": "string"
        },
        {
          "indexed": false,
          "internalType": "uint256",
          "name": "stake",
          "type": "uint256"
        }
      ],
      "name": "OperatorJoined",
      "type": "event"
    },
    {
      "anonymous": false,
      "inputs": [
        {
          "indexed": true,
          "internalType": "bytes32",
          "name": "tenantId",
          "type": "bytes32"
        },
        {
          "indexed": true,
          "internalType": "address",
          "name": "operator",
          "type": "address"
        },
        {
          "indexed": false,
          "internalType": "string",
          "name": "metadataURI",
          "type": "string"
        }
      ],
      "name": "OperatorMetadataUpdated",
      "type": "event"
    },
    {
      "anonymous": false,
      "inputs": [
        {
          "indexed": true,
          "internalType": "bytes32",
          "name": "tenantId",
          "type": "bytes32"
        },
        {
          "indexed": true,
          "internalType": "address",
          "name": "oldOperator",
          "type": "address"
        },
        {
          "indexed": true,
          "internalType": "address",
          "name": "newOperator",
          "type": "address"
        },
        {
          "indexed": false,
          "internalType": "uint256",
          "name": "stakeAmount",
          "type": "uint256"
        },
        {
          "indexed": false,
          "internalType": "string",
          "name": "reason",
          "type": "string"
        }
      ],
      "name": "OperatorRecovered",
      "type": "event"
    },
    {
      "anonymous": false,
      "inputs": [
        {
          "indexed": true,
          "internalType": "bytes32",
          "name": "tenantId",
          "type": "bytes32"
        },
        {
          "indexed": true,
          "internalType": "address",
          "name": "operator",
          "type": "address"
        },
        {
          "indexed": true,
          "internalType": "address",
          "name": "delegate",
          "type": "address"
        }
      ],
      "name": "OperatorRecoveryDelegateUpdated",
      "type": "event"
    },
    {
      "anonymous": false,
      "inputs": [
        {
          "indexed": true,
          "internalType": "bytes32",
          "name": "tenantId",
          "type": "bytes32"
        },
        {
          "indexed": true,
          "internalType": "address",
          "name": "operator",
          "type": "address"
        },
        {
          "indexed": false,
          "internalType": "uint256",
          "name": "amount",
          "type": "uint256"
        },
        {
          "indexed": true,
          "internalType": "address",
          "name": "slasher",
          "type": "address"
        },
        {
          "indexed": false,
          "internalType": "string",
          "name": "reason",
          "type": "string"
        }
      ],
      "name": "OperatorSlashed",
      "type": "event"
    },
    {
      "anonymous": false,
      "inputs": [
        {
          "indexed": true,
          "internalType": "bytes32",
          "name": "tenantId",
          "type": "bytes32"
        },
        {
          "indexed": true,
          "internalType": "address",
          "name": "operator",
          "type": "address"
        },
        {
          "indexed": true,
          "internalType": "bytes32",
          "name": "violationCode",
          "type": "bytes32"
        },
        {
          "indexed": false,
          "internalType": "uint16",
          "name": "penaltyBps",
          "type": "uint16"
        },
        {
          "indexed": false,
          "internalType": "uint256",
          "name": "slashedAmount",
          "type": "uint256"
        },
        {
          "indexed": false,
          "internalType": "uint256",
          "name": "remainingStake",
          "type": "uint256"
        },
        {
          "indexed": false,
          "internalType": "address",
          "name": "slasher",
          "type": "address"
        },
        {
          "indexed": false,
          "internalType": "string",
          "name": "reason",
          "type": "string"
        }
      ],
      "name": "OperatorSoftSlashed",
      "type": "event"
    },
    {
      "anonymous": false,
      "inputs": [
        {
          "indexed": true,
          "internalType": "bytes32",
          "name": "tenantId",
          "type": "bytes32"
        },
        {
          "indexed": true,
          "internalType": "address",
          "name": "operator",
          "type": "address"
        },
        {
          "indexed": false,
          "internalType": "uint256",
          "name": "amount",
          "type": "uint256"
        },
        {
          "indexed": false,
          "internalType": "uint256",
          "name": "totalStake",
          "type": "uint256"
        }
      ],
      "name": "OperatorStakeToppedUp",
      "type": "event"
    },
    {
      "anonymous": false,
      "inputs": [
        {
          "indexed": true,
          "internalType": "bytes32",
          "name": "tenantId",
          "type": "bytes32"
        },
        {
          "indexed": true,
          "internalType": "address",
          "name": "operator",
          "type": "address"
        },
        {
          "indexed": false,
          "internalType": "bool",
          "name": "isActive",
          "type": "bool"
        },
        {
          "indexed": false,
          "internalType": "string",
          "name": "reason",
          "type": "string"
        }
      ],
      "name": "OperatorStatusUpdated",
      "type": "event"
    },
    {
      "anonymous": false,
      "inputs": [
        {
          "indexed": true,
          "internalType": "bytes32",
          "name": "tenantId",
          "type": "bytes32"
        },
        {
          "indexed": true,
          "internalType": "address",
          "name": "operator",
          "type": "address"
        },
        {
          "indexed": false,
          "internalType": "uint256",
          "name": "availableAt",
          "type": "uint256"
        }
      ],
      "name": "OperatorUnstakeRequested",
      "type": "event"
    },
    {
      "anonymous": false,
      "inputs": [
        {
          "indexed": true,
          "internalType": "bytes32",
          "name": "tenantId",
          "type": "bytes32"
        },
        {
          "indexed": true,
          "internalType": "address",
          "name": "operator",
          "type": "address"
        },
        {
          "indexed": false,
          "internalType": "uint256",
          "name": "amount",
          "type": "uint256"
        }
      ],
      "name": "OperatorUnstaked",
      "type": "event"
    },
    {
      "anonymous": false,
      "inputs": [
        {
          "indexed": true,
          "internalType": "address",
          "name": "protocolOwner",
          "type": "address"
        }
      ],
      "name": "ProtocolInitialized",
      "type": "event"
    },
    {
      "anonymous": false,
      "inputs": [
        {
          "indexed": true,
          "internalType": "bytes32",
          "name": "role",
          "type": "bytes32"
        },
        {
          "indexed": true,
          "internalType": "bytes32",
          "name": "previousAdminRole",
          "type": "bytes32"
        },
        {
          "indexed": true,
          "internalType": "bytes32",
          "name": "newAdminRole",
          "type": "bytes32"
        }
      ],
      "name": "RoleAdminChanged",
      "type": "event"
    },
    {
      "anonymous": false,
      "inputs": [
        {
          "indexed": true,
          "internalType": "bytes32",
          "name": "role",
          "type": "bytes32"
        },
        {
          "indexed": true,
          "internalType": "address",
          "name": "account",
          "type": "address"
        },
        {
          "indexed": true,
          "internalType": "address",
          "name": "sender",
          "type": "address"
        }
      ],
      "name": "RoleGranted",
      "type": "event"
    },
    {
      "anonymous": false,
      "inputs": [
        {
          "indexed": true,
          "internalType": "bytes32",
          "name": "role",
          "type": "bytes32"
        },
        {
          "indexed": true,
          "internalType": "address",
          "name": "account",
          "type": "address"
        },
        {
          "indexed": true,
          "internalType": "address",
          "name": "sender",
          "type": "address"
        }
      ],
      "name": "RoleRevoked",
      "type": "event"
    },
    {
      "anonymous": false,
      "inputs": [
        {
          "indexed": true,
          "internalType": "bytes32",
          "name": "tenantId",
          "type": "bytes32"
        },
        {
          "indexed": true,
          "internalType": "address",
          "name": "admin",
          "type": "address"
        },
        {
          "indexed": true,
          "internalType": "address",
          "name": "treasury",
          "type": "address"
        }
      ],
      "name": "TenantCreated",
      "type": "event"
    },
    {
      "anonymous": false,
      "inputs": [
        {
          "indexed": true,
          "internalType": "bytes32",
          "name": "tenantId",
          "type": "bytes32"
        },
        {
          "indexed": false,
          "internalType": "bool",
          "name": "isActive",
          "type": "bool"
        }
      ],
      "name": "TenantStatusUpdated",
      "type": "event"
    },
    {
      "anonymous": false,
      "inputs": [
        {
          "indexed": true,
          "internalType": "bytes32",
          "name": "tenantId",
          "type": "bytes32"
        },
        {
          "indexed": true,
          "internalType": "address",
          "name": "oldTreasury",
          "type": "address"
        },
        {
          "indexed": true,
          "internalType": "address",
          "name": "newTreasury",
          "type": "address"
        }
      ],
      "name": "TreasuryUpdated",
      "type": "event"
    },
    {
      "anonymous": false,
      "inputs": [
        {
          "indexed": true,
          "internalType": "bytes32",
          "name": "tenantId",
          "type": "bytes32"
        },
        {
          "indexed": false,
          "internalType": "uint256",
          "name": "oldValue",
          "type": "uint256"
        },
        {
          "indexed": false,
          "internalType": "uint256",
          "name": "newValue",
          "type": "uint256"
        }
      ],
      "name": "UnstakeCooldownUpdated",
      "type": "event"
    },
    {
      "anonymous": false,
      "inputs": [
        {
          "indexed": true,
          "internalType": "bytes32",
          "name": "tenantId",
          "type": "bytes32"
        },
        {
          "indexed": true,
          "internalType": "bytes32",
          "name": "violationCode",
          "type": "bytes32"
        },
        {
          "indexed": false,
          "internalType": "uint16",
          "name": "oldPenaltyBps",
          "type": "uint16"
        },
        {
          "indexed": false,
          "internalType": "uint16",
          "name": "newPenaltyBps",
          "type": "uint16"
        }
      ],
      "name": "ViolationPenaltyUpdated",
      "type": "event"
    },
    {
      "inputs": [],
      "name": "COSIGN_ROLE_NONE",
      "outputs": [
        {
          "internalType": "uint16",
          "name": "",
          "type": "uint16"
        }
      ],
      "stateMutability": "view",
      "type": "function"
    },
    {
      "inputs": [],
      "name": "DEFAULT_ADMIN_ROLE",
      "outputs": [
        {
          "internalType": "bytes32",
          "name": "",
          "type": "bytes32"
        }
      ],
      "stateMutability": "view",
      "type": "function"
    },
    {
      "inputs": [],
      "name": "MAX_COSIGN_ROLE_ID",
      "outputs": [
        {
          "internalType": "uint16",
          "name": "",
          "type": "uint16"
        }
      ],
      "stateMutability": "view",
      "type": "function"
    },
    {
      "inputs": [],
      "name": "MAX_PENALTY_BPS",
      "outputs": [
        {
          "internalType": "uint16",
          "name": "",
          "type": "uint16"
        }
      ],
      "stateMutability": "view",
      "type": "function"
    },
    {
      "inputs": [],
      "name": "MIN_COSIGN_ROLE_ID",
      "outputs": [
        {
          "internalType": "uint16",
          "name": "",
          "type": "uint16"
        }
      ],
      "stateMutability": "view",
      "type": "function"
    },
    {
      "inputs": [],
      "name": "MIN_STAKE",
      "outputs": [
        {
          "internalType": "uint256",
          "name": "",
          "type": "uint256"
        }
      ],
      "stateMutability": "view",
      "type": "function"
    },
    {
      "inputs": [],
      "name": "PROTOCOL_ADMIN_ROLE",
      "outputs": [
        {
          "internalType": "bytes32",
          "name": "",
          "type": "bytes32"
        }
      ],
      "stateMutability": "view",
      "type": "function"
    },
    {
      "inputs": [],
      "name": "UNSTAKE_COOLDOWN",
      "outputs": [
        {
          "internalType": "uint256",
          "name": "",
          "type": "uint256"
        }
      ],
      "stateMutability": "view",
      "type": "function"
    },
    {
      "inputs": [
        {
          "internalType": "bytes32",
          "name": "",
          "type": "bytes32"
        },
        {
          "internalType": "bytes32",
          "name": "",
          "type": "bytes32"
        }
      ],
      "name": "coSignCount",
      "outputs": [
        {
          "internalType": "uint256",
          "name": "",
          "type": "uint256"
        }
      ],
      "stateMutability": "view",
      "type": "function"
    },
    {
      "inputs": [
        {
          "components": [
            {
              "internalType": "bytes32",
              "name": "tenantId",
              "type": "bytes32"
            },
            {
              "internalType": "bytes32",
              "name": "fileHash",
              "type": "bytes32"
            },
            {
              "internalType": "uint256",
              "name": "nonce",
              "type": "uint256"
            },
            {
              "internalType": "uint256",
              "name": "deadline",
              "type": "uint256"
            }
          ],
          "internalType": "struct VoucherProtocol.CoSignPayload",
          "name": "payload",
          "type": "tuple"
        },
        {
          "internalType": "bytes",
          "name": "signature",
          "type": "bytes"
        }
      ],
      "name": "coSignDocumentWithSignature",
      "outputs": [],
      "stateMutability": "nonpayable",
      "type": "function"
    },
    {
      "inputs": [
        {
          "internalType": "bytes32",
          "name": "",
          "type": "bytes32"
        },
        {
          "internalType": "bytes32",
          "name": "",
          "type": "bytes32"
        }
      ],
      "name": "coSignQualified",
      "outputs": [
        {
          "internalType": "bool",
          "name": "",
          "type": "bool"
        }
      ],
      "stateMutability": "view",
      "type": "function"
    },
    {
      "inputs": [
        {
          "internalType": "bytes32",
          "name": "tenantId",
          "type": "bytes32"
        },
        {
          "internalType": "address",
          "name": "tenantAdmin",
          "type": "address"
        },
        {
          "internalType": "address",
          "name": "tenantTreasury",
          "type": "address"
        }
      ],
      "name": "createTenant",
      "outputs": [],
      "stateMutability": "nonpayable",
      "type": "function"
    },
    {
      "inputs": [
        {
          "internalType": "bytes32",
          "name": "tenantId",
          "type": "bytes32"
        }
      ],
      "name": "executeUnstake",
      "outputs": [],
      "stateMutability": "nonpayable",
      "type": "function"
    },
    {
      "inputs": [
        {
          "internalType": "bytes32",
          "name": "tenantId",
          "type": "bytes32"
        },
        {
          "internalType": "bytes32",
          "name": "fileHash",
          "type": "bytes32"
        }
      ],
      "name": "getCoSignStatus",
      "outputs": [
        {
          "internalType": "bool",
          "name": "qualified",
          "type": "bool"
        },
        {
          "internalType": "uint256",
          "name": "totalSigners",
          "type": "uint256"
        },
        {
          "internalType": "uint256",
          "name": "trustedSigners",
          "type": "uint256"
        },
        {
          "internalType": "uint256",
          "name": "currentRoleMask",
          "type": "uint256"
        },
        {
          "internalType": "uint256",
          "name": "requiredRoleMask",
          "type": "uint256"
        },
        {
          "internalType": "uint256",
          "name": "minSigners",
          "type": "uint256"
        },
        {
          "internalType": "uint256",
          "name": "minStake",
          "type": "uint256"
        }
      ],
      "stateMutability": "view",
      "type": "function"
    },
    {
      "inputs": [
        {
          "internalType": "bytes32",
          "name": "tenantId",
          "type": "bytes32"
        },
        {
          "internalType": "bytes32",
          "name": "fileHash",
          "type": "bytes32"
        }
      ],
      "name": "getDocumentOrRevert",
      "outputs": [
        {
          "components": [
            {
              "internalType": "bytes32",
              "name": "tenantId",
              "type": "bytes32"
            },
            {
              "internalType": "string",
              "name": "cid",
              "type": "string"
            },
            {
              "internalType": "address",
              "name": "issuer",
              "type": "address"
            },
            {
              "internalType": "uint256",
              "name": "timestamp",
              "type": "uint256"
            },
            {
              "internalType": "bool",
              "name": "isValid",
              "type": "bool"
            },
            {
              "internalType": "bytes32",
              "name": "ciphertextHash",
              "type": "bytes32"
            },
            {
              "internalType": "bytes32",
              "name": "encryptionMetaHash",
              "type": "bytes32"
            },
            {
              "internalType": "uint32",
              "name": "docType",
              "type": "uint32"
            },
            {
              "internalType": "uint32",
              "name": "version",
              "type": "uint32"
            }
          ],
          "internalType": "struct VoucherProtocol.Document",
          "name": "",
          "type": "tuple"
        }
      ],
      "stateMutability": "view",
      "type": "function"
    },
    {
      "inputs": [
        {
          "internalType": "bytes32",
          "name": "role",
          "type": "bytes32"
        }
      ],
      "name": "getRoleAdmin",
      "outputs": [
        {
          "internalType": "bytes32",
          "name": "",
          "type": "bytes32"
        }
      ],
      "stateMutability": "view",
      "type": "function"
    },
    {
      "inputs": [],
      "name": "getTenantCount",
      "outputs": [
        {
          "internalType": "uint256",
          "name": "",
          "type": "uint256"
        }
      ],
      "stateMutability": "view",
      "type": "function"
    },
    {
      "inputs": [
        {
          "internalType": "uint256",
          "name": "offset",
          "type": "uint256"
        },
        {
          "internalType": "uint256",
          "name": "limit",
          "type": "uint256"
        }
      ],
      "name": "getTenantIds",
      "outputs": [
        {
          "internalType": "bytes32[]",
          "name": "ids",
          "type": "bytes32[]"
        }
      ],
      "stateMutability": "view",
      "type": "function"
    },
    {
      "inputs": [
        {
          "internalType": "bytes32",
          "name": "tenantId",
          "type": "bytes32"
        }
      ],
      "name": "getTenantInfo",
      "outputs": [
        {
          "internalType": "bool",
          "name": "exists",
          "type": "bool"
        },
        {
          "internalType": "address",
          "name": "admin",
          "type": "address"
        },
        {
          "internalType": "address",
          "name": "treasury",
          "type": "address"
        },
        {
          "internalType": "bool",
          "name": "isActive",
          "type": "bool"
        },
        {
          "internalType": "uint256",
          "name": "createdAt",
          "type": "uint256"
        }
      ],
      "stateMutability": "view",
      "type": "function"
    },
    {
      "inputs": [
        {
          "internalType": "bytes32",
          "name": "role",
          "type": "bytes32"
        },
        {
          "internalType": "address",
          "name": "account",
          "type": "address"
        }
      ],
      "name": "grantRole",
      "outputs": [],
      "stateMutability": "nonpayable",
      "type": "function"
    },
    {
      "inputs": [
        {
          "internalType": "bytes32",
          "name": "role",
          "type": "bytes32"
        },
        {
          "internalType": "address",
          "name": "account",
          "type": "address"
        }
      ],
      "name": "hasRole",
      "outputs": [
        {
          "internalType": "bool",
          "name": "",
          "type": "bool"
        }
      ],
      "stateMutability": "view",
      "type": "function"
    },
    {
      "inputs": [
        {
          "internalType": "bytes32",
          "name": "tenantId",
          "type": "bytes32"
        },
        {
          "internalType": "bytes32",
          "name": "fileHash",
          "type": "bytes32"
        },
        {
          "internalType": "address",
          "name": "signer",
          "type": "address"
        }
      ],
      "name": "hasSignedDocument",
      "outputs": [
        {
          "internalType": "bool",
          "name": "",
          "type": "bool"
        }
      ],
      "stateMutability": "view",
      "type": "function"
    },
    {
      "inputs": [
        {
          "internalType": "bytes32",
          "name": "tenantId",
          "type": "bytes32"
        },
        {
          "internalType": "bytes32",
          "name": "fileHash",
          "type": "bytes32"
        }
      ],
      "name": "isDocumentCoSignQualified",
      "outputs": [
        {
          "internalType": "bool",
          "name": "",
          "type": "bool"
        }
      ],
      "stateMutability": "view",
      "type": "function"
    },
    {
      "inputs": [
        {
          "internalType": "bytes32",
          "name": "tenantId",
          "type": "bytes32"
        },
        {
          "internalType": "string",
          "name": "_metadataURI",
          "type": "string"
        }
      ],
      "name": "joinAsOperator",
      "outputs": [],
      "stateMutability": "payable",
      "type": "function"
    },
    {
      "inputs": [
        {
          "internalType": "bytes32",
          "name": "",
          "type": "bytes32"
        },
        {
          "internalType": "address",
          "name": "",
          "type": "address"
        }
      ],
      "name": "nonces",
      "outputs": [
        {
          "internalType": "uint256",
          "name": "",
          "type": "uint256"
        }
      ],
      "stateMutability": "view",
      "type": "function"
    },
    {
      "inputs": [
        {
          "internalType": "bytes32",
          "name": "",
          "type": "bytes32"
        },
        {
          "internalType": "address",
          "name": "",
          "type": "address"
        }
      ],
      "name": "operators",
      "outputs": [
        {
          "internalType": "bytes32",
          "name": "tenantId",
          "type": "bytes32"
        },
        {
          "internalType": "string",
          "name": "metadataURI",
          "type": "string"
        },
        {
          "internalType": "uint256",
          "name": "stakeAmount",
          "type": "uint256"
        },
        {
          "internalType": "bool",
          "name": "isActive",
          "type": "bool"
        }
      ],
      "stateMutability": "view",
      "type": "function"
    },
    {
      "inputs": [
        {
          "internalType": "bytes32",
          "name": "",
          "type": "bytes32"
        },
        {
          "internalType": "address",
          "name": "",
          "type": "address"
        }
      ],
      "name": "pendingUnstakeAt",
      "outputs": [
        {
          "internalType": "uint256",
          "name": "",
          "type": "uint256"
        }
      ],
      "stateMutability": "view",
      "type": "function"
    },
    {
      "inputs": [],
      "name": "protocolOwner",
      "outputs": [
        {
          "internalType": "address",
          "name": "",
          "type": "address"
        }
      ],
      "stateMutability": "view",
      "type": "function"
    },
    {
      "inputs": [
        {
          "internalType": "bytes32",
          "name": "tenantId",
          "type": "bytes32"
        },
        {
          "internalType": "address",
          "name": "lostOperator",
          "type": "address"
        },
        {
          "internalType": "address",
          "name": "newOperator",
          "type": "address"
        },
        {
          "internalType": "string",
          "name": "reason",
          "type": "string"
        }
      ],
      "name": "recoverOperatorByAdmin",
      "outputs": [],
      "stateMutability": "nonpayable",
      "type": "function"
    },
    {
      "inputs": [
        {
          "internalType": "bytes32",
          "name": "tenantId",
          "type": "bytes32"
        },
        {
          "internalType": "address",
          "name": "lostOperator",
          "type": "address"
        },
        {
          "internalType": "string",
          "name": "reason",
          "type": "string"
        }
      ],
      "name": "recoverOperatorByDelegate",
      "outputs": [],
      "stateMutability": "nonpayable",
      "type": "function"
    },
    {
      "inputs": [
        {
          "internalType": "bytes32",
          "name": "",
          "type": "bytes32"
        },
        {
          "internalType": "address",
          "name": "",
          "type": "address"
        }
      ],
      "name": "recoveryDelegates",
      "outputs": [
        {
          "internalType": "address",
          "name": "",
          "type": "address"
        }
      ],
      "stateMutability": "view",
      "type": "function"
    },
    {
      "inputs": [
        {
          "components": [
            {
              "internalType": "bytes32",
              "name": "tenantId",
              "type": "bytes32"
            },
            {
              "internalType": "bytes32",
              "name": "fileHash",
              "type": "bytes32"
            },
            {
              "internalType": "string",
              "name": "cid",
              "type": "string"
            },
            {
              "internalType": "bytes32",
              "name": "ciphertextHash",
              "type": "bytes32"
            },
            {
              "internalType": "bytes32",
              "name": "encryptionMetaHash",
              "type": "bytes32"
            },
            {
              "internalType": "uint32",
              "name": "docType",
              "type": "uint32"
            },
            {
              "internalType": "uint32",
              "name": "version",
              "type": "uint32"
            },
            {
              "internalType": "uint256",
              "name": "nonce",
              "type": "uint256"
            },
            {
              "internalType": "uint256",
              "name": "deadline",
              "type": "uint256"
            }
          ],
          "internalType": "struct VoucherProtocol.RegisterPayload",
          "name": "payload",
          "type": "tuple"
        },
        {
          "internalType": "bytes",
          "name": "signature",
          "type": "bytes"
        }
      ],
      "name": "registerWithSignature",
      "outputs": [],
      "stateMutability": "nonpayable",
      "type": "function"
    },
    {
      "inputs": [
        {
          "internalType": "bytes32",
          "name": "role",
          "type": "bytes32"
        },
        {
          "internalType": "address",
          "name": "callerConfirmation",
          "type": "address"
        }
      ],
      "name": "renounceRole",
      "outputs": [],
      "stateMutability": "nonpayable",
      "type": "function"
    },
    {
      "inputs": [
        {
          "internalType": "bytes32",
          "name": "tenantId",
          "type": "bytes32"
        }
      ],
      "name": "requestUnstake",
      "outputs": [],
      "stateMutability": "nonpayable",
      "type": "function"
    },
    {
      "inputs": [
        {
          "internalType": "bytes32",
          "name": "tenantId",
          "type": "bytes32"
        },
        {
          "internalType": "bytes32",
          "name": "fileHash",
          "type": "bytes32"
        },
        {
          "internalType": "string",
          "name": "reason",
          "type": "string"
        }
      ],
      "name": "revokeDocument",
      "outputs": [],
      "stateMutability": "nonpayable",
      "type": "function"
    },
    {
      "inputs": [
        {
          "internalType": "bytes32",
          "name": "role",
          "type": "bytes32"
        },
        {
          "internalType": "address",
          "name": "account",
          "type": "address"
        }
      ],
      "name": "revokeRole",
      "outputs": [],
      "stateMutability": "nonpayable",
      "type": "function"
    },
    {
      "inputs": [
        {
          "internalType": "bytes32",
          "name": "tenantId",
          "type": "bytes32"
        },
        {
          "internalType": "uint32",
          "name": "docType",
          "type": "uint32"
        },
        {
          "internalType": "address",
          "name": "operator",
          "type": "address"
        },
        {
          "internalType": "bool",
          "name": "whitelisted",
          "type": "bool"
        },
        {
          "internalType": "uint16",
          "name": "roleId",
          "type": "uint16"
        }
      ],
      "name": "setCoSignOperator",
      "outputs": [],
      "stateMutability": "nonpayable",
      "type": "function"
    },
    {
      "inputs": [
        {
          "internalType": "bytes32",
          "name": "tenantId",
          "type": "bytes32"
        },
        {
          "internalType": "uint32",
          "name": "docType",
          "type": "uint32"
        },
        {
          "internalType": "bool",
          "name": "enabled",
          "type": "bool"
        },
        {
          "internalType": "uint256",
          "name": "minStake",
          "type": "uint256"
        },
        {
          "internalType": "uint256",
          "name": "minSigners",
          "type": "uint256"
        },
        {
          "internalType": "uint256",
          "name": "requiredRoleMask",
          "type": "uint256"
        }
      ],
      "name": "setCoSignPolicy",
      "outputs": [],
      "stateMutability": "nonpayable",
      "type": "function"
    },
    {
      "inputs": [
        {
          "internalType": "bytes32",
          "name": "tenantId",
          "type": "bytes32"
        },
        {
          "internalType": "uint256",
          "name": "newMinOperatorStake",
          "type": "uint256"
        }
      ],
      "name": "setMinOperatorStake",
      "outputs": [],
      "stateMutability": "nonpayable",
      "type": "function"
    },
    {
      "inputs": [
        {
          "internalType": "bytes32",
          "name": "tenantId",
          "type": "bytes32"
        },
        {
          "internalType": "address",
          "name": "operator",
          "type": "address"
        },
        {
          "internalType": "bool",
          "name": "isActive",
          "type": "bool"
        },
        {
          "internalType": "string",
          "name": "reason",
          "type": "string"
        }
      ],
      "name": "setOperatorStatus",
      "outputs": [],
      "stateMutability": "nonpayable",
      "type": "function"
    },
    {
      "inputs": [
        {
          "internalType": "bytes32",
          "name": "tenantId",
          "type": "bytes32"
        },
        {
          "internalType": "address",
          "name": "delegate",
          "type": "address"
        }
      ],
      "name": "setRecoveryDelegate",
      "outputs": [],
      "stateMutability": "nonpayable",
      "type": "function"
    },
    {
      "inputs": [
        {
          "internalType": "bytes32",
          "name": "tenantId",
          "type": "bytes32"
        },
        {
          "internalType": "bool",
          "name": "isActive",
          "type": "bool"
        }
      ],
      "name": "setTenantStatus",
      "outputs": [],
      "stateMutability": "nonpayable",
      "type": "function"
    },
    {
      "inputs": [
        {
          "internalType": "bytes32",
          "name": "tenantId",
          "type": "bytes32"
        },
        {
          "internalType": "address",
          "name": "newTreasury",
          "type": "address"
        }
      ],
      "name": "setTreasury",
      "outputs": [],
      "stateMutability": "nonpayable",
      "type": "function"
    },
    {
      "inputs": [
        {
          "internalType": "bytes32",
          "name": "tenantId",
          "type": "bytes32"
        },
        {
          "internalType": "uint256",
          "name": "newUnstakeCooldown",
          "type": "uint256"
        }
      ],
      "name": "setUnstakeCooldown",
      "outputs": [],
      "stateMutability": "nonpayable",
      "type": "function"
    },
    {
      "inputs": [
        {
          "internalType": "bytes32",
          "name": "tenantId",
          "type": "bytes32"
        },
        {
          "internalType": "bytes32",
          "name": "violationCode",
          "type": "bytes32"
        },
        {
          "internalType": "uint16",
          "name": "penaltyBps",
          "type": "uint16"
        }
      ],
      "name": "setViolationPenalty",
      "outputs": [],
      "stateMutability": "nonpayable",
      "type": "function"
    },
    {
      "inputs": [
        {
          "internalType": "bytes32",
          "name": "tenantId",
          "type": "bytes32"
        },
        {
          "internalType": "address",
          "name": "_operator",
          "type": "address"
        },
        {
          "internalType": "string",
          "name": "reason",
          "type": "string"
        }
      ],
      "name": "slashOperator",
      "outputs": [],
      "stateMutability": "nonpayable",
      "type": "function"
    },
    {
      "inputs": [
        {
          "internalType": "bytes32",
          "name": "tenantId",
          "type": "bytes32"
        },
        {
          "internalType": "address",
          "name": "_operator",
          "type": "address"
        },
        {
          "internalType": "bytes32",
          "name": "violationCode",
          "type": "bytes32"
        },
        {
          "internalType": "string",
          "name": "reason",
          "type": "string"
        }
      ],
      "name": "softSlashOperator",
      "outputs": [],
      "stateMutability": "nonpayable",
      "type": "function"
    },
    {
      "inputs": [
        {
          "internalType": "bytes4",
          "name": "interfaceId",
          "type": "bytes4"
        }
      ],
      "name": "supportsInterface",
      "outputs": [
        {
          "internalType": "bool",
          "name": "",
          "type": "bool"
        }
      ],
      "stateMutability": "view",
      "type": "function"
    },
    {
      "inputs": [
        {
          "internalType": "bytes32",
          "name": "",
          "type": "bytes32"
        },
        {
          "internalType": "uint32",
          "name": "",
          "type": "uint32"
        }
      ],
      "name": "tenantCoSignPolicies",
      "outputs": [
        {
          "internalType": "bool",
          "name": "enabled",
          "type": "bool"
        },
        {
          "internalType": "uint256",
          "name": "minStake",
          "type": "uint256"
        },
        {
          "internalType": "uint256",
          "name": "minSigners",
          "type": "uint256"
        },
        {
          "internalType": "uint256",
          "name": "requiredRoleMask",
          "type": "uint256"
        }
      ],
      "stateMutability": "view",
      "type": "function"
    },
    {
      "inputs": [
        {
          "internalType": "bytes32",
          "name": "",
          "type": "bytes32"
        },
        {
          "internalType": "uint32",
          "name": "",
          "type": "uint32"
        },
        {
          "internalType": "address",
          "name": "",
          "type": "address"
        }
      ],
      "name": "tenantCoSignRoles",
      "outputs": [
        {
          "internalType": "uint16",
          "name": "",
          "type": "uint16"
        }
      ],
      "stateMutability": "view",
      "type": "function"
    },
    {
      "inputs": [
        {
          "internalType": "bytes32",
          "name": "",
          "type": "bytes32"
        },
        {
          "internalType": "uint32",
          "name": "",
          "type": "uint32"
        },
        {
          "internalType": "address",
          "name": "",
          "type": "address"
        }
      ],
      "name": "tenantCoSignWhitelisted",
      "outputs": [
        {
          "internalType": "bool",
          "name": "",
          "type": "bool"
        }
      ],
      "stateMutability": "view",
      "type": "function"
    },
    {
      "inputs": [
        {
          "internalType": "uint256",
          "name": "",
          "type": "uint256"
        }
      ],
      "name": "tenantList",
      "outputs": [
        {
          "internalType": "bytes32",
          "name": "",
          "type": "bytes32"
        }
      ],
      "stateMutability": "view",
      "type": "function"
    },
    {
      "inputs": [
        {
          "internalType": "bytes32",
          "name": "",
          "type": "bytes32"
        }
      ],
      "name": "tenantMinOperatorStake",
      "outputs": [
        {
          "internalType": "uint256",
          "name": "",
          "type": "uint256"
        }
      ],
      "stateMutability": "view",
      "type": "function"
    },
    {
      "inputs": [
        {
          "internalType": "bytes32",
          "name": "",
          "type": "bytes32"
        }
      ],
      "name": "tenantUnstakeCooldown",
      "outputs": [
        {
          "internalType": "uint256",
          "name": "",
          "type": "uint256"
        }
      ],
      "stateMutability": "view",
      "type": "function"
    },
    {
      "inputs": [
        {
          "internalType": "bytes32",
          "name": "",
          "type": "bytes32"
        },
        {
          "internalType": "bytes32",
          "name": "",
          "type": "bytes32"
        }
      ],
      "name": "tenantViolationPenalties",
      "outputs": [
        {
          "internalType": "uint16",
          "name": "",
          "type": "uint16"
        }
      ],
      "stateMutability": "view",
      "type": "function"
    },
    {
      "inputs": [
        {
          "internalType": "bytes32",
          "name": "",
          "type": "bytes32"
        }
      ],
      "name": "tenants",
      "outputs": [
        {
          "internalType": "address",
          "name": "admin",
          "type": "address"
        },
        {
          "internalType": "address",
          "name": "treasury",
          "type": "address"
        },
        {
          "internalType": "bool",
          "name": "isActive",
          "type": "bool"
        },
        {
          "internalType": "uint256",
          "name": "createdAt",
          "type": "uint256"
        }
      ],
      "stateMutability": "view",
      "type": "function"
    },
    {
      "inputs": [
        {
          "internalType": "bytes32",
          "name": "tenantId",
          "type": "bytes32"
        }
      ],
      "name": "topUpStake",
      "outputs": [],
      "stateMutability": "payable",
      "type": "function"
    },
    {
      "inputs": [
        {
          "internalType": "bytes32",
          "name": "",
          "type": "bytes32"
        },
        {
          "internalType": "bytes32",
          "name": "",
          "type": "bytes32"
        }
      ],
      "name": "trustedCoSignCount",
      "outputs": [
        {
          "internalType": "uint256",
          "name": "",
          "type": "uint256"
        }
      ],
      "stateMutability": "view",
      "type": "function"
    },
    {
      "inputs": [
        {
          "internalType": "bytes32",
          "name": "",
          "type": "bytes32"
        },
        {
          "internalType": "bytes32",
          "name": "",
          "type": "bytes32"
        }
      ],
      "name": "trustedCoSignRoleMask",
      "outputs": [
        {
          "internalType": "uint256",
          "name": "",
          "type": "uint256"
        }
      ],
      "stateMutability": "view",
      "type": "function"
    },
    {
      "inputs": [
        {
          "internalType": "bytes32",
          "name": "tenantId",
          "type": "bytes32"
        },
        {
          "internalType": "string",
          "name": "metadataURI",
          "type": "string"
        }
      ],
      "name": "updateOperatorMetadata",
      "outputs": [],
      "stateMutability": "nonpayable",
      "type": "function"
    },
    {
      "inputs": [
        {
          "internalType": "bytes32",
          "name": "tenantId",
          "type": "bytes32"
        },
        {
          "internalType": "bytes32",
          "name": "fileHash",
          "type": "bytes32"
        }
      ],
      "name": "verify",
      "outputs": [
        {
          "internalType": "bool",
          "name": "exists",
          "type": "bool"
        },
        {
          "internalType": "bool",
          "name": "isValid",
          "type": "bool"
        },
        {
          "internalType": "address",
          "name": "issuer",
          "type": "address"
        },
        {
          "internalType": "string",
          "name": "cid",
          "type": "string"
        }
      ],
      "stateMutability": "view",
      "type": "function"
    }
  ],
  "bytecode": "0x60a060405234801561000f575f5ffd5b5060017f9b779b17422d0df92223018b32b4d1fa46e071723d6817e2486d003becc55f0055600180546001600160a01b03191633908117909155610054905f9061014f565b5061007f7fd0c934f24ef5a377dc3832429ce607cbe940a3ca3c6cd7e532bd35b4b212d1963361014f565b50604080517f8b73c3c69bb8fe3d512ecc4cf759cc79239f7b179b0ffacaa9a75d522b39400f60208201527f32e8a79951df9d41f0345a487dbe19ec03b0a7de9751dd4031f0cc3d0a623968918101919091527fc89efdaa54c0f20c7adf612882df0950f5a951637e0307cdcb4c672f298b8bc660608201524660808201523060a082015260c00160408051601f1981840301815290829052805160209091012060805233907fc130514d7c8c002bccb3fd35204490d020b73c0188386dbb07de86d15d5cb9a0905f90a26101f8565b5f828152602081815260408083206001600160a01b038516845290915281205460ff166101ef575f838152602081815260408083206001600160a01b03861684529091529020805460ff191660011790556101a73390565b6001600160a01b0316826001600160a01b0316847f2f8788117e7eff1d82e926ec794901d17c78024a50270940304540a733656f0d60405160405180910390a45060016101f2565b505f5b92915050565b608051615a7f6102105f395f6148ba0152615a7f5ff3fe608060405260043610610392575f3560e01c80638d18edf0116101de578063cb1c2b5c11610108578063e26edb7a1161009d578063f3e49baa1161006d578063f3e49baa14610d71578063f4410c0614610db0578063fb827fa814610dcf578063fc89626714610dfe575f5ffd5b8063e26edb7a14610ce7578063e7b06ccd14610d06578063eaa3668f14610d25578063f049b65014610d38575f5ffd5b8063d4b77cfc116100d8578063d4b77cfc14610c2a578063d547741f14610c49578063d9fe7f6714610c68578063dfa89c1d14610ca8575f5ffd5b8063cb1c2b5c14610b87578063cbbb0fec14610ba2578063d019036e14610bc1578063d1e4bbde14610bd4575f5ffd5b8063a217fddf1161017e578063aee2bc861161014e578063aee2bc8614610ac8578063b04da8a114610afb578063c1d6ba6914610b31578063c664e0d514610b68575f5ffd5b8063a217fddf14610a58578063a2375cf314610a6b578063a468703d14610a8a578063a60f4c0914610aa9575f5ffd5b8063920da433116101b9578063920da4331461098257806395f001e61461099657806399c89404146109b55780639e531042146109d4575f5ffd5b80638d18edf0146109305780639149cd491461094f57806391d1485414610963575f5ffd5b80634b263e74116102bf5780635f2ec6ba1161025f5780637c6b9adb1161022f5780637c6b9adb1461084e5780637ff637311461089957806386e2b63f146108cf5780638bdb1de314610905575f5ffd5b80635f2ec6ba146107bb5780636b044e3d146107da5780636d184dd3146107f9578063715eba9a1461082f575f5ffd5b80634f138e011161029a5780634f138e011461070e578063502ea5c214610744578063541bd3ee1461077d5780635e5098071461079c575f5ffd5b80634b263e741461060c5780634d00857a146106c05780634e8fee00146106df575f5ffd5b8063248a9ca31161033557806336568abe1161030557806336568abe146105315780633ebf6f7d1461055057806342149fd0146105c1578063421f9b42146105e0575f5ffd5b8063248a9ca31461047e57806328a1b2c9146104ac5780632f2ff15d146104e6578063361410a514610505575f5ffd5b80630e0895b9116103705780630e0895b9146104165780630f3384e01461042b578063130d571b1461044c578063246145d81461046b575f5ffd5b806301ffc9a7146103965780630225d3cc146103ca5780630b60c58f146103f2575b5f5ffd5b3480156103a1575f5ffd5b506103b56103b0366004614f51565b610e29565b60405190151581526020015b60405180910390f35b3480156103d5575f5ffd5b506103df61271081565b60405161ffff90911681526020016103c1565b3480156103fd575f5ffd5b506104086201518081565b6040519081526020016103c1565b348015610421575f5ffd5b506103df61010081565b348015610436575f5ffd5b5061044a610445366004614f78565b610e5f565b005b348015610457575f5ffd5b5061044a610466366004615006565b610f37565b61044a61047936600461506f565b611069565b348015610489575f5ffd5b506104086104983660046150b6565b5f9081526020819052604090206001015490565b3480156104b7575f5ffd5b506103df6104c6366004614f78565b601160209081525f928352604080842090915290825290205461ffff1681565b3480156104f1575f5ffd5b5061044a6105003660046150cd565b6112de565b348015610510575f5ffd5b5061052461051f366004614f78565b611308565b6040516103c191906150f7565b34801561053c575f5ffd5b5061044a61054b3660046150cd565b6113ee565b34801561055b575f5ffd5b5061059f61056a36600461514c565b600e60209081525f9283526040808420909152908252902080546001820154600283015460039093015460ff90921692909184565b60408051941515855260208501939093529183015260608201526080016103c1565b3480156105cc575f5ffd5b5061044a6105db36600461516d565b611426565b3480156105eb575f5ffd5b506105ff6105fa366004614f78565b611899565b6040516103c191906151f0565b348015610617575f5ffd5b506106886106263660046150b6565b5f90815260026020818152604092839020835160808101855281546001600160a01b039081168083526001840154918216948301859052600160a01b90910460ff16151595820186905291909301546060909301839052801515949093919290565b6040805195151586526001600160a01b039485166020870152929093169184019190915215156060830152608082015260a0016103c1565b3480156106cb575f5ffd5b5061044a6106da3660046152ab565b611a4b565b3480156106ea575f5ffd5b506106fe6106f9366004614f78565b611c2a565b6040516103c19493929190615305565b348015610719575f5ffd5b50610408610728366004614f78565b600a60209081525f928352604080842090915290825290205481565b34801561074f575f5ffd5b506103b561075e366004614f78565b600d60209081525f928352604080842090915290825290205460ff1681565b348015610788575f5ffd5b5061044a6107973660046150b6565b611dae565b3480156107a7575f5ffd5b5061044a6107b6366004615338565b611f99565b3480156107c6575f5ffd5b5061044a6107d536600461536a565b6120be565b3480156107e5575f5ffd5b5061044a6107f436600461539a565b6122d5565b348015610804575f5ffd5b50610408610813366004614f78565b600b60209081525f928352604080842090915290825290205481565b34801561083a575f5ffd5b5061044a6108493660046150cd565b6123c4565b348015610859575f5ffd5b506103b56108683660046153d0565b5f9283526009602090815260408085209385529281528284206001600160a01b039290921684525290205460ff1690565b3480156108a4575f5ffd5b506104086108b3366004614f78565b600c60209081525f928352604080842090915290825290205481565b3480156108da575f5ffd5b506104086108e93660046150cd565b600560209081525f928352604080842090915290825290205481565b348015610910575f5ffd5b5061040861091f3660046150b6565b60126020525f908152604090205481565b34801561093b575f5ffd5b5061044a61094a3660046153f9565b6124a7565b34801561095a575f5ffd5b50600354610408565b34801561096e575f5ffd5b506103b561097d3660046150cd565b612bb7565b34801561098d575f5ffd5b506103df600181565b3480156109a1575f5ffd5b5061044a6109b036600461544c565b612bdf565b3480156109c0575f5ffd5b506104086109cf3660046150b6565b612c9a565b3480156109df575f5ffd5b50610a276109ee3660046150b6565b600260208190525f91825260409091208054600182015491909201546001600160a01b0392831692821691600160a01b900460ff169084565b604080516001600160a01b0395861681529490931660208501529015159183019190915260608201526080016103c1565b348015610a63575f5ffd5b506104085f81565b348015610a76575f5ffd5b5061044a610a8536600461506f565b612cb9565b348015610a95575f5ffd5b5061044a610aa436600461546d565b612d8c565b348015610ab4575f5ffd5b5061044a610ac33660046154a9565b613325565b348015610ad3575f5ffd5b506104087fd0c934f24ef5a377dc3832429ce607cbe940a3ca3c6cd7e532bd35b4b212d19681565b348015610b06575f5ffd5b50610408610b153660046150cd565b600660209081525f928352604080842090915290825290205481565b348015610b3c575f5ffd5b50600154610b50906001600160a01b031681565b6040516001600160a01b0390911681526020016103c1565b348015610b73575f5ffd5b5061044a610b823660046150cd565b613478565b348015610b92575f5ffd5b5061040867016345785d8a000081565b348015610bad575f5ffd5b5061044a610bbc366004614f78565b61359b565b348015610bcc575f5ffd5b506103df5f81565b348015610bdf575f5ffd5b50610bf3610bee366004614f78565b613664565b6040805197151588526020880196909652948601939093526060850191909152608084015260a083015260c082015260e0016103c1565b348015610c35575f5ffd5b5061044a610c443660046154fd565b6138f1565b348015610c54575f5ffd5b5061044a610c633660046150cd565b613d37565b348015610c73575f5ffd5b506103df610c8236600461552f565b601060209081525f938452604080852082529284528284209052825290205461ffff1681565b348015610cb3575f5ffd5b50610b50610cc23660046150cd565b600760209081525f92835260408084209091529082529020546001600160a01b031681565b348015610cf2575f5ffd5b5061044a610d013660046150b6565b613d5b565b348015610d11575f5ffd5b5061044a610d20366004615551565b613e76565b61044a610d333660046150b6565b614179565b348015610d43575f5ffd5b506103b5610d52366004614f78565b5f918252600d6020908152604080842092845291905290205460ff1690565b348015610d7c575f5ffd5b506103b5610d8b36600461552f565b600f60209081525f938452604080852082529284528284209052825290205460ff1681565b348015610dbb575f5ffd5b5061044a610dca36600461516d565b6142cc565b348015610dda575f5ffd5b50610dee610de93660046150cd565b61450e565b6040516103c19493929190615596565b348015610e09575f5ffd5b50610408610e183660046150b6565b60136020525f908152604090205481565b5f6001600160e01b03198216637965db0b60e01b1480610e5957506301ffc9a760e01b6001600160e01b03198316145b92915050565b5f828152600260205260409020546001600160a01b0316610e93576040516315858c8d60e31b815260040160405180910390fd5b610ea5610e9f836145cb565b33612bb7565b610ec1576040516282b42960e81b815260040160405180910390fd5b805f03610ee1576040516310a571d160e31b815260040160405180910390fd5b5f8281526012602090815260409182902080549084905582518181529182018490529184917fb3e495fc3e71835a852989aa9b3d6b27f6b8d42624cb9b3cf02660a2398cc4f691015b60405180910390a2505050565b5f858152600260205260409020546001600160a01b0316610f6b576040516315858c8d60e31b815260040160405180910390fd5b610f77610e9f866145cb565b610f93576040516282b42960e81b815260040160405180910390fd5b5f8581526004602090815260408083206001600160a01b03881684529091528120600201549003610fd757604051636567cc4d60e11b815260040160405180910390fd5b5f8581526004602090815260408083206001600160a01b03881684529091529020600301805460ff19168415151790558261102f575f8581526006602090815260408083206001600160a01b03881684529091528120555b836001600160a01b0316855f516020615a2a5f395f51905f5285858560405161105a939291906155ee565b60405180910390a35050505050565b5f838152600260205260409020546001600160a01b031661109d576040516315858c8d60e31b815260040160405180910390fd5b5f83815260026020526040902060010154600160a01b900460ff166110d557604051633ae035b560e21b815260040160405180910390fd5b5f83815260126020526040902054341015611121575f83815260126020526040908190205490516322df051360e11b815234600482015260248101919091526044015b60405180910390fd5b5f83815260046020908152604080832033845290915290206002015415158061116557505f83815260046020908152604080832033845290915290206003015460ff165b156111835760405163781f2ed160e11b815260040160405180910390fd5b604051806080016040528084815260200183838080601f0160208091040260200160405190810160405280939291908181526020018383808284375f9201829052509385525050346020808501919091526001604094850181905288845260048252848420338552825293909220845181559184015191928301916112099150826156a2565b5060408281015160028301556060909201516003909101805460ff19169115159190911790555f8481526006602090815282822033808452915282822091909155905184907f89093fa8f3c791613d772d3d77195c6050e6b0d2f7915c934f7299c3e60e14d19061127f9086908690349061575c565b60405180910390a3336001600160a01b0316835f516020615a2a5f395f51905f5260016040516112d19115158152604060208201819052600690820152651293d253915160d21b606082015260800190565b60405180910390a3505050565b5f828152602081905260409020600101546112f88161462c565b6113028383614636565b50505050565b60035460609080841061132a575050604080515f815260208101909152610e59565b5f6113358486615793565b9050818111156113425750805b61134c85826157a6565b6001600160401b0381111561136357611363615612565b60405190808252806020026020018201604052801561138c578160200160208202803683370190505b509250845b818110156113e557600381815481106113ac576113ac6157b9565b905f5260205f2001548487836113c291906157a6565b815181106113d2576113d26157b9565b6020908102919091010152600101611391565b50505092915050565b6001600160a01b03811633146114175760405163334bd91960e11b815260040160405180910390fd5b61142182826146c5565b505050565b5f848152600260205260409020546001600160a01b031661145a576040516315858c8d60e31b815260040160405180910390fd5b5f8481526004602090815260408083206001600160a01b038716845290915290206003015460ff16156114a057604051631ae4c62160e31b815260040160405180910390fd5b5f8481526004602090815260408083206001600160a01b038716845290915281206002015490036114e45760405163e5e6218160e01b815260040160405180910390fd5b5f8481526006602090815260408083206001600160a01b03871684529091529020541561152457604051633c10931960e21b815260040160405180910390fd5b5f8481526007602090815260408083206001600160a01b0387811685529252909120541633146115675760405163ce4f24bb60e01b815260040160405180910390fd5b5f8481526004602090815260408083203384529091529020600201541515806115ab57505f84815260046020908152604080832033845290915290206003015460ff165b156115c957604051632f55c93160e11b815260040160405180910390fd5b5f8481526004602090815260408083206001600160a01b0387168452825280832081516080810190925280548252600181018054929391929184019161160e90615626565b80601f016020809104026020016040519081016040528092919081815260200182805461163a90615626565b80156116855780601f1061165c57610100808354040283529160200191611685565b820191905f5260205f20905b81548152906001019060200180831161166857829003601f168201915b50505091835250506002820154602082015260039091015460ff1615156040918201528101519091505f036116cd57604051636567cc4d60e11b815260040160405180910390fd5b6040805160808101825286815260208381015181830190815284840151838501526060808601511515908401525f89815260048352848120338252909252929020815181559151909190600182019061172690826156a2565b5060408281015160028301556060909201516003909101805460ff19169115159190911790555f868152600560209081528282206001600160a01b038816808452908252838320543380855285852091909155898452600683528484209084528252838320839055888352600482528383209083529052908120818155906117b16001830182614f07565b505f600282018190556003909101805460ff191690558581526005602090815260408083206001600160a01b038816808552908352818420849055888452600683528184208185528352818420849055888452600783528184208185529092529182902080546001600160a01b0319169055828201519151339288917fd9f8b9c3708d68f065bd3abc87d385dd96a656d93537a092b9612a9775bd63109161185c91899089906157cd565b60405180910390a46040515f90339087907f7e8f7689d5c1589dea13355ed1b30d2a11c050a08189c224a84103455f87036f908490a45050505050565b6118f76040518061012001604052805f8152602001606081526020015f6001600160a01b031681526020015f81526020015f151581526020015f81526020015f81526020015f63ffffffff1681526020015f63ffffffff1681525090565b5f83815260086020908152604080832085845282528083208151610120810190925280548252600181018054929391929184019161193490615626565b80601f016020809104026020016040519081016040528092919081815260200182805461196090615626565b80156119ab5780601f10611982576101008083540402835291602001916119ab565b820191905f5260205f20905b81548152906001019060200180831161198e57829003601f168201915b505050918352505060028201546001600160a01b0390811660208301526003830154604080840191909152600484015460ff161515606084015260058401546080840152600684015460a084015260079093015463ffffffff80821660c08501526401000000009091041660e0909201919091529082015191925016611a44576040516328193b9d60e21b815260040160405180910390fd5b9392505050565b5f858152600260205260409020546001600160a01b0316611a7f576040516315858c8d60e31b815260040160405180910390fd5b611a8b610e9f866145cb565b611aa7576040516282b42960e81b815260040160405180910390fd5b6001600160a01b038316611acd576040516282b42960e81b815260040160405180910390fd5b8115611b4c57600161ffff82161080611aeb575061010061ffff8216115b15611b0957604051636005ea8760e11b815260040160405180910390fd5b5f85815260106020908152604080832063ffffffff8816845282528083206001600160a01b03871684529091529020805461ffff191661ffff8316179055611b85565b5f85815260106020908152604080832063ffffffff8816845282528083206001600160a01b03871684529091529020805461ffff191690555b5f858152600f6020908152604080832063ffffffff88168085529083528184206001600160a01b038816808652908452828520805460ff19168815159081179091558a865260108552838620838752855283862082875285529483902054835195865261ffff1693850193909352919288917fdef872ea7445739ffc07c56472edf8475b85cca6440175796472fbf2026f079d91015b60405180910390a45050505050565b5f5f5f60605f60085f8881526020019081526020015f205f8781526020019081526020015f20604051806101200160405290815f8201548152602001600182018054611c7590615626565b80601f0160208091040260200160405190810160405280929190818152602001828054611ca190615626565b8015611cec5780601f10611cc357610100808354040283529160200191611cec565b820191905f5260205f20905b815481529060010190602001808311611ccf57829003601f168201915b505050918352505060028201546001600160a01b0390811660208301526003830154604080840191909152600484015460ff161515606084015260058401546080840152600684015460a084015260079093015463ffffffff80821660c08501526401000000009091041660e0909201919091529082015191925016611d8a57505060408051602081019091525f8082529350839250829150611da5565b60018160800151826040015183602001519450945094509450505b92959194509250565b611db661472e565b5f81815260066020908152604080832033845290915281205490819003611df057604051631509a84360e11b815260040160405180910390fd5b80421015611e1457604051633a84e5cf60e01b815260048101829052602401611118565b5f82815260046020908152604080832033845290915281206002015490819003611e5157604051636567cc4d60e11b815260040160405180910390fd5b5f8381526004602090815260408083203380855290835281842060028101859055600301805460ff19169055868452600683528184208185529092528083208390555183908381818185875af1925050503d805f8114611ecc576040519150601f19603f3d011682016040523d82523d5f602084013e611ed1565b606091505b5050905080611ef357604051630db2c7f160e31b815260040160405180910390fd5b604051828152339085907fc95c831f7facab10cbf2586454bb2cdaec5e9702311d8c3c3c2cc804a1abb4ca9060200160405180910390a3336001600160a01b0316845f516020615a2a5f395f51905f525f604051611f75911515815260406020820181905260089082015267155394d51052d15160c21b606082015260800190565b60405180910390a3505050611f9660015f516020615a0a5f395f51905f5255565b50565b5f838152600260205260409020546001600160a01b0316611fcd576040516315858c8d60e31b815260040160405180910390fd5b611fd9610e9f846145cb565b611ff5576040516282b42960e81b815260040160405180910390fd5b81612013576040516310a571d160e31b815260040160405180910390fd5b61ffff81161580612029575061271061ffff8216115b1561204d576040516332938fe960e21b815261ffff82166004820152602401611118565b5f838152601160209081526040808320858452825291829020805461ffff19811661ffff868116918217909355845192909116808352928201529091849186917fcb56c846dda3cc605bef1888996092a907b9919475bf7505bda8fa8c95123301910160405180910390a350505050565b7fd0c934f24ef5a377dc3832429ce607cbe940a3ca3c6cd7e532bd35b4b212d1966120e88161462c565b83612106576040516310a571d160e31b815260040160405180910390fd5b6001600160a01b038316158061212357506001600160a01b038216155b1561214157604051630e4607ed60e41b815260040160405180910390fd5b5f848152600260205260409020546001600160a01b031615612176576040516355ad509160e11b815260040160405180910390fd5b604080516080810182526001600160a01b0380861682528481166020808401918252600184860181815242606087019081525f8c8152600294859052978820965187549087166001600160a01b03199091161787559351868301805492511515600160a01b026001600160a81b0319909316919096161717909355905192019190915560038054918201815582527fc2575a0e9e593c00f959f8c92f12db2869c3395a3b0502d05e2516446f71f85b0185905561223285614749565b90505f61223e86614785565b90505f61224a876145cb565b90506122568387614636565b506122618287614636565b5061226c8187614636565b505f87815260126020908152604080832067016345785d8a000090556013909152808220620151809055516001600160a01b0380881692908916918a917f76815c6c3d66579360681cc597126b11d4eaabe670b868db92df92d641a5965c91a450505050505050565b5f848152600860209081526040808320868452909152902060028101546001600160a01b0316612318576040516328193b9d60e21b815260040160405180910390fd5b612324610e9f86614749565b15801561233e575060028101546001600160a01b03163314155b1561235b576040516282b42960e81b815260040160405180910390fd5b600481015460ff166123805760405163499945c160e01b815260040160405180910390fd5b60048101805460ff191690556040513390859087907fc3cb92e8b6c0aebd791488f8d927216bf2ea5ede447d480f483c21865b04f1a190611c1b90889088906157e6565b5f828152600260205260409020546001600160a01b03166123f8576040516315858c8d60e31b815260040160405180910390fd5b612404610e9f83614749565b612420576040516282b42960e81b815260040160405180910390fd5b6001600160a01b03811661244757604051630e4607ed60e41b815260040160405180910390fd5b5f8281526002602052604080822060010180546001600160a01b031981166001600160a01b038681169182179093559251911692839186917f7e9441be41617a5403de8dfc31de5901f7525f4e4a606654266fa886d567f53f91a4505050565b6124af61472e565b82355f908152600260205260409020546001600160a01b03166124e5576040516315858c8d60e31b815260040160405180910390fd5b82355f90815260026020526040902060010154600160a01b900460ff1661251f57604051633ae035b560e21b815260040160405180910390fd5b8261010001354211156125455760405163df4cc36d60e01b815260040160405180910390fd5b82355f9081526008602090815260408083208287013584529091529020600201546001600160a01b03161561258d5760405163019b268b60e71b815260040160405180910390fd5b5f6125998484846147c3565b84355f9081526004602090815260408083206001600160a01b0385168452909152812060020154919250036125e15760405163127225b560e11b815260040160405180910390fd5b83355f9081526004602090815260408083206001600160a01b038516845290915290206003015460ff1661262857604051631a8660cb60e01b815260040160405180910390fd5b83355f9081526005602090815260408083206001600160a01b038516845290915290205460e08501351461266f57604051638baa579f60e01b815260040160405180910390fd5b60408051610120810182528535815290602082019061269090870187615801565b8080601f0160208091040260200160405190810160405280939291908181526020018383808284375f920191909152505050908252506001600160a01b0383166020820152426040820152600160608083019190915286013560808083019190915286013560a08083019190915260c09182019161271391908801908801615843565b63ffffffff16815260200161272e60e0870160c08801615843565b63ffffffff16905284355f90815260086020908152604080832082890135845282529091208251815590820151600182019061276a90826156a2565b506040828101516002830180546001600160a01b039283166001600160a01b031990911617905560608401516003840155608084015160048401805491151560ff1992831617905560a080860151600586015560c080870151600687015560e0870151600790960180546101009098015163ffffffff9081166401000000000267ffffffffffffffff199099169716969096179690961790945588355f81815260096020908152858220818d0135808452908252868320958a16835294815285822080549094166001908117909455828252600a8152858220948252938452848120929092558152600e90915290812090929091839161286f91908901908901615843565b63ffffffff16815260208082019290925260409081015f208151608081018352815460ff16151580825260018301549482019490945260028201549281019290925260030154606082015291506128ed5784355f908152600d602090815260408083208289013584529091529020805460ff19166001179055612a4c565b84355f908152600f602052604081209061290d60c0880160a08901615843565b63ffffffff16815260208082019290925260409081015f9081206001600160a01b038616825290925290205460ff168015612972575060208082015186355f9081526004835260408082206001600160a01b0387168352909352919091206002015410155b15612a4c5784355f9081526010602052604081208161299760c0890160a08a01615843565b63ffffffff16815260208082019290925260409081015f9081206001600160a01b038716825290925290205461ffff169050600181108015906129e0575061010061ffff821611155b15612a4a5785355f908152600b60209081526040808320828a01358452909152902060019055612a0f8161496e565b86355f818152600c60209081526040808320828c0135808552925290912092909255612a4a91612a4560c08a0160a08b01615843565b614989565b505b612a5b60e08601356001615793565b85355f8181526005602090815260408083206001600160a01b0388168085529252909120929092557f092b6bbc92673a71e1b53a3b945184caf28010a041d50f717734c740984858d460e0880135612ab4816001615793565b6040805192835260208301919091520160405180910390a36001600160a01b038216602086013586357fd352cb361a4f142c2abad9421dd213ae4d4b7e836b57e422fbb6c0d6512632e4612b0b60408a018a615801565b60608b013560808c0135612b2560c08e0160a08f01615843565b8d60c0016020810190612b389190615843565b604051612b4a9695949392919061585c565b60405180910390a4816001600160a01b03168560200135865f01357f1aa23f6aa7a78fe1f2e49edc378c1d7d45f3593993339beb9f6f9835f87517be6001604051612b9791815260200190565b60405180910390a4505061142160015f516020615a0a5f395f51905f5255565b5f918252602082815260408084206001600160a01b0393909316845291905290205460ff1690565b7fd0c934f24ef5a377dc3832429ce607cbe940a3ca3c6cd7e532bd35b4b212d196612c098161462c565b5f838152600260205260409020546001600160a01b0316612c3d576040516315858c8d60e31b815260040160405180910390fd5b5f83815260026020526040908190206001018054841515600160a01b0260ff60a01b199091161790555183907ff232ed796c7d121df062e0962438bf7a57d1fb9a2c6451caaf7e2695a963cfe690610f2a90851515815260200190565b60038181548110612ca9575f80fd5b5f91825260209091200154905081565b5f838152600260205260409020546001600160a01b0316612ced576040516315858c8d60e31b815260040160405180910390fd5b5f83815260046020908152604080832033845290915290206003015460ff16612d2957604051631a8660cb60e01b815260040160405180910390fd5b5f8381526004602090815260408083203384529091529020600101612d4f82848361589a565b50336001600160a01b0316837f8313da849f3eb567d52489e0ba249ce302063096590f8d8b6025d5f7fec89ad984846040516112d19291906157e6565b612d9461472e565b82355f908152600260205260409020546001600160a01b0316612dca576040516315858c8d60e31b815260040160405180910390fd5b82355f90815260026020526040902060010154600160a01b900460ff16612e0457604051633ae035b560e21b815260040160405180910390fd5b8260600135421115612e295760405163df4cc36d60e01b815260040160405180910390fd5b82355f908152600860209081526040808320828701358452825280832081516101208101909252805482526001810180549293919291840191612e6b90615626565b80601f0160208091040260200160405190810160405280929190818152602001828054612e9790615626565b8015612ee25780601f10612eb957610100808354040283529160200191612ee2565b820191905f5260205f20905b815481529060010190602001808311612ec557829003601f168201915b505050918352505060028201546001600160a01b0390811660208301526003830154604080840191909152600484015460ff161515606084015260058401546080840152600684015460a084015260079093015463ffffffff80821660c08501526401000000009091041660e0909201919091529082015191925016612f7b576040516328193b9d60e21b815260040160405180910390fd5b8060800151612f9d5760405163b863738b60e01b815260040160405180910390fd5b5f612fa9858585614b0d565b85355f9081526004602090815260408083206001600160a01b038516845290915281206002015491925003612ff15760405163127225b560e11b815260040160405180910390fd5b84355f9081526004602090815260408083206001600160a01b038516845290915290206003015460ff1661303857604051631a8660cb60e01b815260040160405180910390fd5b84355f9081526005602090815260408083206001600160a01b03851684529091529081902054908601351461308057604051638baa579f60e01b815260040160405180910390fd5b84355f90815260096020908152604080832082890135845282528083206001600160a01b038516845290915290205460ff16156130d057604051630709bc1d60e31b815260040160405180910390fd5b84355f908152600e6020908152604080832060e086015163ffffffff16845282528083208151608081018352815460ff161580158252600183015494820194909452600282015492810192909252600301546060820152919061314757613144875f01358560e00151858560200151614b6b565b90505b86355f818152600960209081526040808320828c01358085529083528184206001600160a01b03891685528352818420805460ff19166001908117909155948452600a835281842090845290915281205490916131a49190615793565b88355f908152600a60209081526040808320828d01358452909152908190208290559091506131d7908901356001615793565b88355f9081526005602090815260408083206001600160a01b03891684529091529020558251156132695787355f908152600b60209081526040808320828c013584529091528120805460019290613230908490615793565b909155505087355f818152600c60209081526040808320828d0135808552925290912080548517905560e0870151613269929190614989565b6001600160a01b03841688357f092b6bbc92673a71e1b53a3b945184caf28010a041d50f717734c740984858d460408b01356132a6816001615793565b6040805192835260208301919091520160405180910390a3836001600160a01b03168860200135895f01357f1aa23f6aa7a78fe1f2e49edc378c1d7d45f3593993339beb9f6f9835f87517be8460405161330291815260200190565b60405180910390a4505050505061142160015f516020615a0a5f395f51905f5255565b5f868152600260205260409020546001600160a01b0316613359576040516315858c8d60e31b815260040160405180910390fd5b613365610e9f876145cb565b613381576040516282b42960e81b815260040160405180910390fd5b83801561338c575081155b8015613396575080155b156133b457604051631cc23ed560e31b815260040160405180910390fd5b6040805160808101825285151581526020808201868152828401868152606084018681525f8c8152600e855286812063ffffffff8d1680835295528690209451855490151560ff199091161785559151600185015551600284015551600390920191909155905187907ff0a24041e06d08c0414775769d1f217c906f14d760e3f298d16d2c64b2672d9090613468908890889088908890931515845260208401929092526040830152606082015260800190565b60405180910390a3505050505050565b5f828152600260205260409020546001600160a01b03166134ac576040516315858c8d60e31b815260040160405180910390fd5b5f82815260046020908152604080832033845290915290206003015460ff166134e857604051631a8660cb60e01b815260040160405180910390fd5b6001600160a01b03811661350f57604051632f55c93160e11b815260040160405180910390fd5b336001600160a01b0382160361353857604051632f55c93160e11b815260040160405180910390fd5b5f82815260076020908152604080832033808552925280832080546001600160a01b0319166001600160a01b0386169081179091559051909285917f7e8f7689d5c1589dea13355ed1b30d2a11c050a08189c224a84103455f87036f9190a45050565b5f828152600260205260409020546001600160a01b03166135cf576040516315858c8d60e31b815260040160405180910390fd5b6135db610e9f836145cb565b6135f7576040516282b42960e81b815260040160405180910390fd5b805f03613617576040516310a571d160e31b815260040160405180910390fd5b5f8281526013602090815260409182902080549084905582518181529182018490529184917fac9a0b846eb7810e402bb79aeb08206ea6da2dc091e6775f62391fcf42df6cfc9101610f2a565b5f5f5f5f5f5f5f5f60085f8b81526020019081526020015f205f8a81526020019081526020015f20604051806101200160405290815f82015481526020016001820180546136b190615626565b80601f01602080910402602001604051908101604052809291908181526020018280546136dd90615626565b80156137285780601f106136ff57610100808354040283529160200191613728565b820191905f5260205f20905b81548152906001019060200180831161370b57829003601f168201915b505050918352505060028201546001600160a01b0390811660208301526003830154604080840191909152600484015460ff161515606084015260058401546080840152600684015460a084015260079093015463ffffffff80821660c08501526401000000009091041660e09092019190915290820151919250166137c1576040516328193b9d60e21b815260040160405180910390fd5b5f600e5f8c81526020019081526020015f205f8360e0015163ffffffff1663ffffffff1681526020019081526020015f206040518060800160405290815f82015f9054906101000a900460ff1615151515815260200160018201548152602001600282015481526020016003820154815250509050600d5f8c81526020019081526020015f205f8b81526020019081526020015f205f9054906101000a900460ff16600a5f8d81526020019081526020015f205f8c81526020019081526020015f2054600b5f8e81526020019081526020015f205f8d81526020019081526020015f2054600c5f8f81526020019081526020015f205f8e81526020019081526020015f20548460600151856040015186602001519850985098509850985098509850505092959891949750929550565b5f858152600260205260409020546001600160a01b0316613925576040516315858c8d60e31b815260040160405180910390fd5b613931610e9f866145cb565b61394d576040516282b42960e81b815260040160405180910390fd5b5f8581526004602090815260408083206001600160a01b038816845290915290206003015460ff161561399357604051631ae4c62160e31b815260040160405180910390fd5b6001600160a01b03831615806139ba5750836001600160a01b0316836001600160a01b0316145b156139d857604051632f55c93160e11b815260040160405180910390fd5b5f8581526004602090815260408083206001600160a01b0387168452909152902060020154151580613a2e57505f8581526004602090815260408083206001600160a01b038716845290915290206003015460ff165b15613a4c57604051632f55c93160e11b815260040160405180910390fd5b5f8581526004602090815260408083206001600160a01b03881684528252808320815160808101909252805482526001810180549293919291840191613a9190615626565b80601f0160208091040260200160405190810160405280929190818152602001828054613abd90615626565b8015613b085780601f10613adf57610100808354040283529160200191613b08565b820191905f5260205f20905b815481529060010190602001808311613aeb57829003601f168201915b50505091835250506002820154602082015260039091015460ff1615156040918201528101519091505f03613b5057604051636567cc4d60e11b815260040160405180910390fd5b6040805160808101825287815260208381015181830190815284840151838501526060808601511515908401525f8a8152600483528481206001600160a01b038a1682529092529290208151815591519091906001820190613bb290826156a2565b5060408281015160028301556060909201516003909101805460ff19169115159190911790555f878152600560209081528282206001600160a01b0389811680855291835284842054908916808552858520919091558a845260068352848420908452825283832083905589835260048252838320908352905290812081815590613c406001830182614f07565b505f600282018190556003909101805460ff191690558681526005602090815260408083206001600160a01b03808a168086529184528285208590558a85526006845282852082865284528285208590558a8552600784528285208286529093529281902080546001600160a01b0319169055838101519051918716929189917fd9f8b9c3708d68f065bd3abc87d385dd96a656d93537a092b9612a9775bd631091613cf09190899089906157cd565b60405180910390a46040515f906001600160a01b0386169088907f7e8f7689d5c1589dea13355ed1b30d2a11c050a08189c224a84103455f87036f908490a4505050505050565b5f82815260208190526040902060010154613d518161462c565b61130283836146c5565b5f818152600260205260409020546001600160a01b0316613d8f576040516315858c8d60e31b815260040160405180910390fd5b5f81815260046020908152604080832033845290915290206003015460ff16613dcb57604051631a8660cb60e01b815260040160405180910390fd5b5f8181526004602090815260408083203384529091528120600201549003613e0657604051636567cc4d60e11b815260040160405180910390fd5b5f81815260136020526040812054613e1e9042615793565b5f838152600660209081526040808320338085529083529281902084905551838152929350909184917f1e522a03c71586a099d51a73c0f68c1c799fed85c43cf290bcf7158d8b163ad2910160405180910390a35050565b613e7e61472e565b5f858152600260205260409020546001600160a01b0316613eb2576040516315858c8d60e31b815260040160405180910390fd5b613ebe610e9f86614785565b613eda576040516282b42960e81b815260040160405180910390fd5b5f8581526004602090815260408083206001600160a01b038816845290915281206002015490819003613f2057604051636567cc4d60e11b815260040160405180910390fd5b5f86815260116020908152604080832087845290915281205461ffff1690819003613f61576040516331deee5760e01b815260048101869052602401611118565b5f612710613f7361ffff841685615953565b613f7d919061596a565b9050805f03613f8a575060015b5f613f9582856157a6565b5f8a81526004602090815260408083206001600160a01b038d168085529083528184206002018590558d84526006835281842090845282528083208390558c8352601290915290205490915081101561408b575f8981526004602090815260408083206001600160a01b038c16808552908352818420600301805460ff191690558c845260078352818420818552835281842080546001600160a01b03191690558151938452918301819052601c908301527f534f46545f534c41534845445f42454c4f575f4d494e5f5354414b45000000006060830152908a905f516020615a2a5f395f51905f529060800160405180910390a35b5f898152600260205260408082206001015490516001600160a01b039091169084908381818185875af1925050503d805f81146140e3576040519150601f19603f3d011682016040523d82523d5f602084013e6140e8565b606091505b505090508061410a57604051630db2c7f160e31b815260040160405180910390fd5b87896001600160a01b03168b7fe7a3bd933c3f07d41c0cb8538135a0a594505125738765a878a693108558ac3b878787338e8e60405161414f96959493929190615989565b60405180910390a4505050505061417260015f516020615a0a5f395f51905f5255565b5050505050565b5f818152600260205260409020546001600160a01b03166141ad576040516315858c8d60e31b815260040160405180910390fd5b5f81815260046020908152604080832033845290915281206002015490036141e85760405163127225b560e11b815260040160405180910390fd5b5f81815260046020908152604080832033845290915290206003015460ff1661422457604051631a8660cb60e01b815260040160405180910390fd5b345f0361424457604051636567cc4d60e11b815260040160405180910390fd5b5f8181526004602090815260408083203384529091528120600201805434929061426f908490615793565b90915550505f81815260046020908152604080832033808552908352928190206002015481513481529283015283917f98354ada0e4b6a8410fec2063480eb039a321691ae42acf10b9ad333b092672f910160405180910390a350565b6142d461472e565b5f848152600260205260409020546001600160a01b0316614308576040516315858c8d60e31b815260040160405180910390fd5b614314610e9f85614785565b614330576040516282b42960e81b815260040160405180910390fd5b5f8481526004602090815260408083206001600160a01b03871684529091528120600201549081900361437657604051636567cc4d60e11b815260040160405180910390fd5b5f8581526004602090815260408083206001600160a01b0388811680865291845282852060038101805460ff1916905560029081018690558a86526006855283862083875285528386208690558a86526007855283862092865291845282852080546001600160a01b0319169055898552925280832060010154905191169083908381818185875af1925050503d805f811461442d576040519150601f19603f3d011682016040523d82523d5f602084013e614432565b606091505b505090508061445457604051630db2c7f160e31b815260040160405180910390fd5b336001600160a01b0316856001600160a01b0316877f175ef2f76f006472eb75e90808dc704bb073491330e002ec9e017969699c14ca85888860405161449c939291906157cd565b60405180910390a4846001600160a01b0316865f516020615a2a5f395f51905f525f6040516144ee91151581526040602082018190526007908201526614d31054d2115160ca1b606082015260800190565b60405180910390a3505061130260015f516020615a0a5f395f51905f5255565b600460209081525f92835260408084209091529082529020805460018201805491929161453a90615626565b80601f016020809104026020016040519081016040528092919081815260200182805461456690615626565b80156145b15780601f10614588576101008083540402835291602001916145b1565b820191905f5260205f20905b81548152906001019060200180831161459457829003601f168201915b50505050600283015460039093015491929160ff16905084565b6040805160208101829052601c60608201527f54454e414e545f4f50455241544f525f4d414e414745525f524f4c450000000060808201529081018290525f9060a0015b604051602081830303815290604052805190602001209050919050565b611f968133614ca8565b5f6146418383612bb7565b6146be575f838152602081815260408083206001600160a01b03861684529091529020805460ff191660011790556146763390565b6001600160a01b0316826001600160a01b0316847f2f8788117e7eff1d82e926ec794901d17c78024a50270940304540a733656f0d60405160405180910390a4506001610e59565b505f610e59565b5f6146d08383612bb7565b156146be575f838152602081815260408083206001600160a01b0386168085529252808320805460ff1916905551339286917ff6391f5c32d9c69d2a47ea670b442974b53935d1edc7fd64eb21e047a839171b9190a4506001610e59565b614736614ce5565b60025f516020615a0a5f395f51905f5255565b6040805160208101829052601160608201527054454e414e545f41444d494e5f524f4c4560781b60808201529081018290525f9060a00161460f565b6040805160208101829052601360608201527254454e414e545f534c41534845525f524f4c4560681b60808201529081018290525f9060a00161460f565b5f807f5a2a29527149cfad2193f6f6cc0087ff61ae917e661c07c22456d63a5183659c853560208701356147fa6040890189615801565b6040516148089291906159cc565b604051908190039020606089013560808a013561482b60c08c0160a08d01615843565b61483b60e08d0160c08e01615843565b6040805160208101999099528801969096526060870194909452608086019290925260a085015260c084015263ffffffff90811660e08481019190915291166101008381019190915290870135610120830152860135610140820152610160015b6040516020818303038152906040528051906020012090505f6148f97f00000000000000000000000000000000000000000000000000000000000000008360405161190160f01b8152600281019290925260228201526042902090565b905061493c85858080601f0160208091040260200160405190810160405280939291908181526020018383808284375f920191909152508593925050614d169050565b92506001600160a01b03831661496557604051638baa579f60e01b815260040160405180910390fd5b50509392505050565b5f61497a6001836159db565b61ffff166001901b9050919050565b5f838152600d6020908152604080832085845290915290205460ff16156149af57505050565b5f838152600e6020908152604080832063ffffffff851684528252918290208251608081018452815460ff161515808252600183015493820193909352600282015493810193909352600301546060830152614a2c5750505f918252600d602090815260408084209284529190529020805460ff19166001179055565b6040808201515f868152600b60209081528382208783528152838220546060860151898452600c8352858420898552909252939091205491909210801592918216909114908290614a7a5750805b15614b05575f868152600d602090815260408083208884528252808320805460ff19166001179055888352600b8252808320888452825280832054898452600c835281842089855290925291829020549151879289927faddff4259d1ed72121575a0a8627d986e7e63da19e837c06d33a958c61e73032926134689290918252602082015260400190565b505050505050565b604080517f362c00056d2ad738d0353633a51831825692201225c7f50e6206735b03e575e06020828101919091528535828401528501356060828101919091529185013560808201529084013560a08201525f90819060c00161489c565b5f848152600f6020908152604080832063ffffffff8716845282528083206001600160a01b038616845290915281205460ff16614bbb5760405163fbf23f3360e01b815260040160405180910390fd5b5f8581526004602090815260408083206001600160a01b0387168452909152902060020154821115614c2f575f8581526004602081815260408084206001600160a01b03881685529091529182902060020154915162c09e3560e81b81526111189291859101918252602082015260400190565b5f85815260106020908152604080832063ffffffff8816845282528083206001600160a01b038716845290915290205461ffff166001811080614c77575061010061ffff8216115b15614c9557604051636005ea8760e11b815260040160405180910390fd5b614c9e8161496e565b9695505050505050565b614cb28282612bb7565b614ce15760405163e2517d3f60e01b81526001600160a01b038216600482015260248101839052604401611118565b5050565b5f516020615a0a5f395f51905f5254600203614d1457604051633ee5aeb560e01b815260040160405180910390fd5b565b5f5f5f5f614d248686614d3e565b925092509250614d348282614d87565b5090949350505050565b5f5f5f8351604103614d75576020840151604085015160608601515f1a614d6788828585614e3f565b955095509550505050614d80565b505081515f91506002905b9250925092565b5f826003811115614d9a57614d9a6159f5565b03614da3575050565b6001826003811115614db757614db76159f5565b03614dd55760405163f645eedf60e01b815260040160405180910390fd5b6002826003811115614de957614de96159f5565b03614e0a5760405163fce698f760e01b815260048101829052602401611118565b6003826003811115614e1e57614e1e6159f5565b03614ce1576040516335e2f38360e21b815260048101829052602401611118565b5f80807f7fffffffffffffffffffffffffffffff5d576e7357a4501ddfe92f46681b20a0841115614e7857505f91506003905082614efd565b604080515f808252602082018084528a905260ff891692820192909252606081018790526080810186905260019060a0016020604051602081039080840390855afa158015614ec9573d5f5f3e3d5ffd5b5050604051601f1901519150506001600160a01b038116614ef457505f925060019150829050614efd565b92505f91508190505b9450945094915050565b508054614f1390615626565b5f825580601f10614f22575050565b601f0160209004905f5260205f2090810190611f9691905b80821115614f4d575f8155600101614f3a565b5090565b5f60208284031215614f61575f5ffd5b81356001600160e01b031981168114611a44575f5ffd5b5f5f60408385031215614f89575f5ffd5b50508035926020909101359150565b80356001600160a01b0381168114614fae575f5ffd5b919050565b80358015158114614fae575f5ffd5b5f5f83601f840112614fd2575f5ffd5b5081356001600160401b03811115614fe8575f5ffd5b602083019150836020828501011115614fff575f5ffd5b9250929050565b5f5f5f5f5f6080868803121561501a575f5ffd5b8535945061502a60208701614f98565b935061503860408701614fb3565b925060608601356001600160401b03811115615052575f5ffd5b61505e88828901614fc2565b969995985093965092949392505050565b5f5f5f60408486031215615081575f5ffd5b8335925060208401356001600160401b0381111561509d575f5ffd5b6150a986828701614fc2565b9497909650939450505050565b5f602082840312156150c6575f5ffd5b5035919050565b5f5f604083850312156150de575f5ffd5b823591506150ee60208401614f98565b90509250929050565b602080825282518282018190525f918401906040840190835b8181101561512e578351835260209384019390920191600101615110565b509095945050505050565b803563ffffffff81168114614fae575f5ffd5b5f5f6040838503121561515d575f5ffd5b823591506150ee60208401615139565b5f5f5f5f60608587031215615180575f5ffd5b8435935061519060208601614f98565b925060408501356001600160401b038111156151aa575f5ffd5b6151b687828801614fc2565b95989497509550505050565b5f81518084528060208401602086015e5f602082860101526020601f19601f83011685010191505092915050565b60208152815160208201525f602083015161012060408401526152176101408401826151c2565b9050604084015161523360608501826001600160a01b03169052565b5060608401516080840152608084015161525160a085018215159052565b5060a084015160c084015260c084015160e084015260e084015161527e61010085018263ffffffff169052565b5061010084015163ffffffff8116610120850152509392505050565b803561ffff81168114614fae575f5ffd5b5f5f5f5f5f60a086880312156152bf575f5ffd5b853594506152cf60208701615139565b93506152dd60408701614f98565b92506152eb60608701614fb3565b91506152f96080870161529a565b90509295509295909350565b841515815283151560208201526001600160a01b03831660408201526080606082018190525f90614c9e908301846151c2565b5f5f5f6060848603121561534a575f5ffd5b83359250602084013591506153616040850161529a565b90509250925092565b5f5f5f6060848603121561537c575f5ffd5b8335925061538c60208501614f98565b915061536160408501614f98565b5f5f5f5f606085870312156153ad575f5ffd5b843593506020850135925060408501356001600160401b038111156151aa575f5ffd5b5f5f5f606084860312156153e2575f5ffd5b833592506020840135915061536160408501614f98565b5f5f5f6040848603121561540b575f5ffd5b83356001600160401b03811115615420575f5ffd5b84016101208187031215615432575f5ffd5b925060208401356001600160401b0381111561509d575f5ffd5b5f5f6040838503121561545d575f5ffd5b823591506150ee60208401614fb3565b5f5f5f83850360a0811215615480575f5ffd5b608081121561548d575f5ffd5b5083925060808401356001600160401b0381111561509d575f5ffd5b5f5f5f5f5f5f60c087890312156154be575f5ffd5b863595506154ce60208801615139565b94506154dc60408801614fb3565b959894975094956060810135955060808101359460a0909101359350915050565b5f5f5f5f5f60808688031215615511575f5ffd5b8535945061552160208701614f98565b935061503860408701614f98565b5f5f5f60608486031215615541575f5ffd5b8335925061538c60208501615139565b5f5f5f5f5f60808688031215615565575f5ffd5b8535945061557560208701614f98565b93506040860135925060608601356001600160401b03811115615052575f5ffd5b848152608060208201525f6155ae60808301866151c2565b60408301949094525090151560609091015292915050565b81835281816020850137505f828201602090810191909152601f909101601f19169091010190565b8315158152604060208201525f6156096040830184866155c6565b95945050505050565b634e487b7160e01b5f52604160045260245ffd5b600181811c9082168061563a57607f821691505b60208210810361565857634e487b7160e01b5f52602260045260245ffd5b50919050565b601f82111561142157805f5260205f20601f840160051c810160208510156156835750805b601f840160051c820191505b81811015614172575f815560010161568f565b81516001600160401b038111156156bb576156bb615612565b6156cf816156c98454615626565b8461565e565b6020601f821160018114615701575f83156156ea5750848201515b5f19600385901b1c1916600184901b178455614172565b5f84815260208120601f198516915b828110156157305787850151825560209485019460019092019101615710565b508482101561574d57868401515f19600387901b60f8161c191681555b50505050600190811b01905550565b604081525f61576f6040830185876155c6565b9050826020830152949350505050565b634e487b7160e01b5f52601160045260245ffd5b80820180821115610e5957610e5961577f565b81810381811115610e5957610e5961577f565b634e487b7160e01b5f52603260045260245ffd5b838152604060208201525f6156096040830184866155c6565b602081525f6157f96020830184866155c6565b949350505050565b5f5f8335601e19843603018112615816575f5ffd5b8301803591506001600160401b0382111561582f575f5ffd5b602001915036819003821315614fff575f5ffd5b5f60208284031215615853575f5ffd5b611a4482615139565b60a081525f61586f60a08301888a6155c6565b602083019690965250604081019390935263ffffffff91821660608401521660809091015292915050565b6001600160401b038311156158b1576158b1615612565b6158c5836158bf8354615626565b8361565e565b5f601f8411600181146158f6575f85156158df5750838201355b5f19600387901b1c1916600186901b178355614172565b5f83815260208120601f198716915b828110156159255786850135825560209485019460019092019101615905565b5086821015615941575f1960f88860031b161c19848701351681555b505060018560011b0183555050505050565b8082028115828204841417610e5957610e5961577f565b5f8261598457634e487b7160e01b5f52601260045260245ffd5b500490565b61ffff8716815285602082015284604082015260018060a01b038416606082015260a060808201525f6159c060a0830184866155c6565b98975050505050505050565b818382375f9101908152919050565b61ffff8281168282160390811115610e5957610e5961577f565b634e487b7160e01b5f52602160045260245ffdfe9b779b17422d0df92223018b32b4d1fa46e071723d6817e2486d003becc55f00c974b626665c0d05de92a6d1c80baa1fecf1d44a7fe6c4fb1dcbe04cddebb540a26469706673582212209b5c04d7921be8eee801c36d237aaec022ae820aa59a4cc9f5d530fafdc767ef64736f6c634300081c0033",
  "linkReferences": {},
  "deployedLinkReferences": {},
  "immutableReferences": {
    "7551": [
      {
        "length": 32,
        "start": 18618
      }
    ]
  },
  "inputSourceName": "project/contracts/VoucherProtocol.sol",
  "buildInfoId": "solc-0_8_28-89ed6bfbefa11af5aa5393337cd49a4c9c524f47"
}