{
  "_format": "hh3-artifact-1",
  "contractName": "VoucherProtocol",
  "sourceName": "contracts/VoucherProtocol.sol",
  "abi": [
    {
      "inputs": [],
      "stateMutability": "nonpayable",
      "type": "constructor"
    },
    {
      "inputs": [],
      "name": "AccessControlBadConfirmation",
      "type": "error"
    },
    {
      "inputs": [
        {
          "internalType": "address",
          "name": "account",
          "type": "address"
        },
        {
          "internalType": "bytes32",
          "name": "neededRole",
          "type": "bytes32"
        }
      ],
      "name": "AccessControlUnauthorizedAccount",
      "type": "error"
    },
    {
      "inputs": [],
      "name": "AlreadyCoSigned",
      "type": "error"
    },
    {
      "inputs": [],
      "name": "CannotSlashYourself",
      "type": "error"
    },
    {
      "inputs": [],
      "name": "CoSignerNotWhitelisted",
      "type": "error"
    },
    {
      "inputs": [],
      "name": "DocumentAlreadyExists",
      "type": "error"
    },
    {
      "inputs": [],
      "name": "DocumentAlreadyRevoked",
      "type": "error"
    },
    {
      "inputs": [],
      "name": "DocumentNotFound",
      "type": "error"
    },
    {
      "inputs": [],
      "name": "DocumentNotValid",
      "type": "error"
    },
    {
      "inputs": [],
      "name": "ECDSAInvalidSignature",
      "type": "error"
    },
    {
      "inputs": [
        {
          "internalType": "uint256",
          "name": "length",
          "type": "uint256"
        }
      ],
      "name": "ECDSAInvalidSignatureLength",
      "type": "error"
    },
    {
      "inputs": [
        {
          "internalType": "bytes32",
          "name": "s",
          "type": "bytes32"
        }
      ],
      "name": "ECDSAInvalidSignatureS",
      "type": "error"
    },
    {
      "inputs": [],
      "name": "EthTransferFailed",
      "type": "error"
    },
    {
      "inputs": [],
      "name": "ExpiredSignature",
      "type": "error"
    },
    {
      "inputs": [
        {
          "internalType": "uint256",
          "name": "currentStake",
          "type": "uint256"
        },
        {
          "internalType": "uint256",
          "name": "requiredStake",
          "type": "uint256"
        }
      ],
      "name": "InsufficientCoSignStake",
      "type": "error"
    },
    {
      "inputs": [
        {
          "internalType": "uint256",
          "name": "sent",
          "type": "uint256"
        },
        {
          "internalType": "uint256",
          "name": "required",
          "type": "uint256"
        }
      ],
      "name": "InsufficientStake",
      "type": "error"
    },
    {
      "inputs": [],
      "name": "InvalidCoSignPolicy",
      "type": "error"
    },
    {
      "inputs": [],
      "name": "InvalidCoSignRole",
      "type": "error"
    },
    {
      "inputs": [],
      "name": "InvalidConfigValue",
      "type": "error"
    },
    {
      "inputs": [
        {
          "internalType": "uint16",
          "name": "provided",
          "type": "uint16"
        }
      ],
      "name": "InvalidPenaltyBps",
      "type": "error"
    },
    {
      "inputs": [],
      "name": "InvalidRecoveryTarget",
      "type": "error"
    },
    {
      "inputs": [],
      "name": "InvalidSignature",
      "type": "error"
    },
    {
      "inputs": [],
      "name": "InvalidTenantAddress",
      "type": "error"
    },
    {
      "inputs": [],
      "name": "NoPendingUnstake",
      "type": "error"
    },
    {
      "inputs": [],
      "name": "NoStake",
      "type": "error"
    },
    {
      "inputs": [],
      "name": "NoStakeToRecover",
      "type": "error"
    },
    {
      "inputs": [],
      "name": "OperatorAlreadyActive",
      "type": "error"
    },
    {
      "inputs": [],
      "name": "OperatorNotActive",
      "type": "error"
    },
    {
      "inputs": [],
      "name": "OperatorNotInTenant",
      "type": "error"
    },
    {
      "inputs": [],
      "name": "OperatorNotLost",
      "type": "error"
    },
    {
      "inputs": [
        {
          "internalType": "bytes32",
          "name": "violationCode",
          "type": "bytes32"
        }
      ],
      "name": "PenaltyNotConfigured",
      "type": "error"
    },
    {
      "inputs": [],
      "name": "ProtocolAdminCannotHaveOtherRoles",
      "type": "error"
    },
    {
      "inputs": [],
      "name": "RecoveryNotAllowed",
      "type": "error"
    },
    {
      "inputs": [],
      "name": "ReentrancyGuardReentrantCall",
      "type": "error"
    },
    {
      "inputs": [],
      "name": "TenantAlreadyExists",
      "type": "error"
    },
    {
      "inputs": [],
      "name": "TenantInactive",
      "type": "error"
    },
    {
      "inputs": [],
      "name": "TenantNotFound",
      "type": "error"
    },
    {
      "inputs": [],
      "name": "Unauthorized",
      "type": "error"
    },
    {
      "inputs": [],
      "name": "UnstakeInProgress",
      "type": "error"
    },
    {
      "inputs": [
        {
          "internalType": "uint256",
          "name": "readyAt",
          "type": "uint256"
        }
      ],
      "name": "UnstakeNotReady",
      "type": "error"
    },
    {
      "anonymous": false,
      "inputs": [
        {
          "indexed": true,
          "internalType": "bytes32",
          "name": "tenantId",
          "type": "bytes32"
        },
        {
          "indexed": true,
          "internalType": "uint32",
          "name": "docType",
          "type": "uint32"
        },
        {
          "indexed": true,
          "internalType": "address",
          "name": "operator",
          "type": "address"
        },
        {
          "indexed": false,
          "internalType": "bool",
          "name": "whitelisted",
          "type": "bool"
        },
        {
          "indexed": false,
          "internalType": "uint16",
          "name": "roleId",
          "type": "uint16"
        }
      ],
      "name": "CoSignOperatorConfigured",
      "type": "event"
    },
    {
      "anonymous": false,
      "inputs": [
        {
          "indexed": true,
          "internalType": "bytes32",
          "name": "tenantId",
          "type": "bytes32"
        },
        {
          "indexed": true,
          "internalType": "uint32",
          "name": "docType",
          "type": "uint32"
        },
        {
          "indexed": false,
          "internalType": "bool",
          "name": "enabled",
          "type": "bool"
        },
        {
          "indexed": false,
          "internalType": "uint256",
          "name": "minStake",
          "type": "uint256"
        },
        {
          "indexed": false,
          "internalType": "uint256",
          "name": "minSigners",
          "type": "uint256"
        },
        {
          "indexed": false,
          "internalType": "uint256",
          "name": "requiredRoleMask",
          "type": "uint256"
        }
      ],
      "name": "CoSignPolicyUpdated",
      "type": "event"
    },
    {
      "anonymous": false,
      "inputs": [
        {
          "indexed": true,
          "internalType": "bytes32",
          "name": "tenantId",
          "type": "bytes32"
        },
        {
          "indexed": true,
          "internalType": "bytes32",
          "name": "fileHash",
          "type": "bytes32"
        },
        {
          "indexed": false,
          "internalType": "string",
          "name": "cid",
          "type": "string"
        },
        {
          "indexed": true,
          "internalType": "address",
          "name": "issuer",
          "type": "address"
        },
        {
          "indexed": false,
          "internalType": "bytes32",
          "name": "ciphertextHash",
          "type": "bytes32"
        },
        {
          "indexed": false,
          "internalType": "bytes32",
          "name": "encryptionMetaHash",
          "type": "bytes32"
        },
        {
          "indexed": false,
          "internalType": "uint32",
          "name": "docType",
          "type": "uint32"
        },
        {
          "indexed": false,
          "internalType": "uint32",
          "name": "version",
          "type": "uint32"
        }
      ],
      "name": "DocumentAnchored",
      "type": "event"
    },
    {
      "anonymous": false,
      "inputs": [
        {
          "indexed": true,
          "internalType": "bytes32",
          "name": "tenantId",
          "type": "bytes32"
        },
        {
          "indexed": true,
          "internalType": "bytes32",
          "name": "fileHash",
          "type": "bytes32"
        },
        {
          "indexed": false,
          "internalType": "uint256",
          "name": "trustedSigners",
          "type": "uint256"
        },
        {
          "indexed": false,
          "internalType": "uint256",
          "name": "roleMask",
          "type": "uint256"
        }
      ],
      "name": "DocumentCoSignQualified",
      "type": "event"
    },
    {
      "anonymous": false,
      "inputs": [
        {
          "indexed": true,
          "internalType": "bytes32",
          "name": "tenantId",
          "type": "bytes32"
        },
        {
          "indexed": true,
          "internalType": "bytes32",
          "name": "fileHash",
          "type": "bytes32"
        },
        {
          "indexed": true,
          "internalType": "address",
          "name": "signer",
          "type": "address"
        },
        {
          "indexed": false,
          "internalType": "uint256",
          "name": "totalSigners",
          "type": "uint256"
        }
      ],
      "name": "DocumentCoSigned",
      "type": "event"
    },
    {
      "anonymous": false,
      "inputs": [
        {
          "indexed": true,
          "internalType": "bytes32",
          "name": "tenantId",
          "type": "bytes32"
        },
        {
          "indexed": true,
          "internalType": "bytes32",
          "name": "fileHash",
          "type": "bytes32"
        },
        {
          "indexed": true,
          "internalType": "address",
          "name": "revoker",
          "type": "address"
        },
        {
          "indexed": false,
          "internalType": "string",
          "name": "reason",
          "type": "string"
        }
      ],
      "name": "DocumentRevoked",
      "type": "event"
    },
    {
      "anonymous": false,
      "inputs": [
        {
          "indexed": true,
          "internalType": "bytes32",
          "name": "tenantId",
          "type": "bytes32"
        },
        {
          "indexed": false,
          "internalType": "uint256",
          "name": "oldValue",
          "type": "uint256"
        },
        {
          "indexed": false,
          "internalType": "uint256",
          "name": "newValue",
          "type": "uint256"
        }
      ],
      "name": "MinOperatorStakeUpdated",
      "type": "event"
    },
    {
      "anonymous": false,
      "inputs": [
        {
          "indexed": true,
          "internalType": "bytes32",
          "name": "tenantId",
          "type": "bytes32"
        },
        {
          "indexed": true,
          "internalType": "address",
          "name": "signer",
          "type": "address"
        },
        {
          "indexed": false,
          "internalType": "uint256",
          "name": "oldNonce",
          "type": "uint256"
        },
        {
          "indexed": false,
          "internalType": "uint256",
          "name": "newNonce",
          "type": "uint256"
        }
      ],
      "name": "NonceConsumed",
      "type": "event"
    },
    {
      "anonymous": false,
      "inputs": [
        {
          "indexed": true,
          "internalType": "bytes32",
          "name": "tenantId",
          "type": "bytes32"
        },
        {
          "indexed": true,
          "internalType": "address",
          "name": "operator",
          "type": "address"
        },
        {
          "indexed": false,
          "internalType": "string",
          "name": "metadata",
          "type": "string"
        },
        {
          "indexed": false,
          "internalType": "uint256",
          "name": "stake",
          "type": "uint256"
        }
      ],
      "name": "OperatorJoined",
      "type": "event"
    },
    {
      "anonymous": false,
      "inputs": [
        {
          "indexed": true,
          "internalType": "bytes32",
          "name": "tenantId",
          "type": "bytes32"
        },
        {
          "indexed": true,
          "internalType": "address",
          "name": "operator",
          "type": "address"
        },
        {
          "indexed": false,
          "internalType": "string",
          "name": "metadataURI",
          "type": "string"
        }
      ],
      "name": "OperatorMetadataUpdated",
      "type": "event"
    },
    {
      "anonymous": false,
      "inputs": [
        {
          "indexed": true,
          "internalType": "bytes32",
          "name": "tenantId",
          "type": "bytes32"
        },
        {
          "indexed": true,
          "internalType": "address",
          "name": "oldOperator",
          "type": "address"
        },
        {
          "indexed": true,
          "internalType": "address",
          "name": "newOperator",
          "type": "address"
        },
        {
          "indexed": false,
          "internalType": "uint256",
          "name": "stakeAmount",
          "type": "uint256"
        },
        {
          "indexed": false,
          "internalType": "string",
          "name": "reason",
          "type": "string"
        }
      ],
      "name": "OperatorRecovered",
      "type": "event"
    },
    {
      "anonymous": false,
      "inputs": [
        {
          "indexed": true,
          "internalType": "bytes32",
          "name": "tenantId",
          "type": "bytes32"
        },
        {
          "indexed": true,
          "internalType": "address",
          "name": "operator",
          "type": "address"
        },
        {
          "indexed": true,
          "internalType": "address",
          "name": "delegate",
          "type": "address"
        }
      ],
      "name": "OperatorRecoveryDelegateUpdated",
      "type": "event"
    },
    {
      "anonymous": false,
      "inputs": [
        {
          "indexed": true,
          "internalType": "bytes32",
          "name": "tenantId",
          "type": "bytes32"
        },
        {
          "indexed": true,
          "internalType": "address",
          "name": "operator",
          "type": "address"
        },
        {
          "indexed": false,
          "internalType": "uint256",
          "name": "amount",
          "type": "uint256"
        },
        {
          "indexed": true,
          "internalType": "address",
          "name": "slasher",
          "type": "address"
        },
        {
          "indexed": false,
          "internalType": "string",
          "name": "reason",
          "type": "string"
        }
      ],
      "name": "OperatorSlashed",
      "type": "event"
    },
    {
      "anonymous": false,
      "inputs": [
        {
          "indexed": true,
          "internalType": "bytes32",
          "name": "tenantId",
          "type": "bytes32"
        },
        {
          "indexed": true,
          "internalType": "address",
          "name": "operator",
          "type": "address"
        },
        {
          "indexed": true,
          "internalType": "bytes32",
          "name": "violationCode",
          "type": "bytes32"
        },
        {
          "indexed": false,
          "internalType": "uint16",
          "name": "penaltyBps",
          "type": "uint16"
        },
        {
          "indexed": false,
          "internalType": "uint256",
          "name": "slashedAmount",
          "type": "uint256"
        },
        {
          "indexed": false,
          "internalType": "uint256",
          "name": "remainingStake",
          "type": "uint256"
        },
        {
          "indexed": false,
          "internalType": "address",
          "name": "slasher",
          "type": "address"
        },
        {
          "indexed": false,
          "internalType": "string",
          "name": "reason",
          "type": "string"
        }
      ],
      "name": "OperatorSoftSlashed",
      "type": "event"
    },
    {
      "anonymous": false,
      "inputs": [
        {
          "indexed": true,
          "internalType": "bytes32",
          "name": "tenantId",
          "type": "bytes32"
        },
        {
          "indexed": true,
          "internalType": "address",
          "name": "operator",
          "type": "address"
        },
        {
          "indexed": false,
          "internalType": "uint256",
          "name": "amount",
          "type": "uint256"
        },
        {
          "indexed": false,
          "internalType": "uint256",
          "name": "totalStake",
          "type": "uint256"
        }
      ],
      "name": "OperatorStakeToppedUp",
      "type": "event"
    },
    {
      "anonymous": false,
      "inputs": [
        {
          "indexed": true,
          "internalType": "bytes32",
          "name": "tenantId",
          "type": "bytes32"
        },
        {
          "indexed": true,
          "internalType": "address",
          "name": "operator",
          "type": "address"
        },
        {
          "indexed": false,
          "internalType": "bool",
          "name": "isActive",
          "type": "bool"
        },
        {
          "indexed": false,
          "internalType": "string",
          "name": "reason",
          "type": "string"
        }
      ],
      "name": "OperatorStatusUpdated",
      "type": "event"
    },
    {
      "anonymous": false,
      "inputs": [
        {
          "indexed": true,
          "internalType": "bytes32",
          "name": "tenantId",
          "type": "bytes32"
        },
        {
          "indexed": true,
          "internalType": "address",
          "name": "operator",
          "type": "address"
        },
        {
          "indexed": false,
          "internalType": "uint256",
          "name": "availableAt",
          "type": "uint256"
        }
      ],
      "name": "OperatorUnstakeRequested",
      "type": "event"
    },
    {
      "anonymous": false,
      "inputs": [
        {
          "indexed": true,
          "internalType": "bytes32",
          "name": "tenantId",
          "type": "bytes32"
        },
        {
          "indexed": true,
          "internalType": "address",
          "name": "operator",
          "type": "address"
        },
        {
          "indexed": false,
          "internalType": "uint256",
          "name": "amount",
          "type": "uint256"
        }
      ],
      "name": "OperatorUnstaked",
      "type": "event"
    },
    {
      "anonymous": false,
      "inputs": [
        {
          "indexed": true,
          "internalType": "address",
          "name": "protocolOwner",
          "type": "address"
        }
      ],
      "name": "ProtocolInitialized",
      "type": "event"
    },
    {
      "anonymous": false,
      "inputs": [
        {
          "indexed": true,
          "internalType": "bytes32",
          "name": "role",
          "type": "bytes32"
        },
        {
          "indexed": true,
          "internalType": "bytes32",
          "name": "previousAdminRole",
          "type": "bytes32"
        },
        {
          "indexed": true,
          "internalType": "bytes32",
          "name": "newAdminRole",
          "type": "bytes32"
        }
      ],
      "name": "RoleAdminChanged",
      "type": "event"
    },
    {
      "anonymous": false,
      "inputs": [
        {
          "indexed": true,
          "internalType": "bytes32",
          "name": "role",
          "type": "bytes32"
        },
        {
          "indexed": true,
          "internalType": "address",
          "name": "account",
          "type": "address"
        },
        {
          "indexed": true,
          "internalType": "address",
          "name": "sender",
          "type": "address"
        }
      ],
      "name": "RoleGranted",
      "type": "event"
    },
    {
      "anonymous": false,
      "inputs": [
        {
          "indexed": true,
          "internalType": "bytes32",
          "name": "role",
          "type": "bytes32"
        },
        {
          "indexed": true,
          "internalType": "address",
          "name": "account",
          "type": "address"
        },
        {
          "indexed": true,
          "internalType": "address",
          "name": "sender",
          "type": "address"
        }
      ],
      "name": "RoleRevoked",
      "type": "event"
    },
    {
      "anonymous": false,
      "inputs": [
        {
          "indexed": true,
          "internalType": "bytes32",
          "name": "tenantId",
          "type": "bytes32"
        },
        {
          "indexed": true,
          "internalType": "address",
          "name": "admin",
          "type": "address"
        },
        {
          "indexed": true,
          "internalType": "address",
          "name": "treasury",
          "type": "address"
        }
      ],
      "name": "TenantCreated",
      "type": "event"
    },
    {
      "anonymous": false,
      "inputs": [
        {
          "indexed": true,
          "internalType": "bytes32",
          "name": "tenantId",
          "type": "bytes32"
        },
        {
          "indexed": false,
          "internalType": "bool",
          "name": "isActive",
          "type": "bool"
        }
      ],
      "name": "TenantStatusUpdated",
      "type": "event"
    },
    {
      "anonymous": false,
      "inputs": [
        {
          "indexed": true,
          "internalType": "bytes32",
          "name": "tenantId",
          "type": "bytes32"
        },
        {
          "indexed": true,
          "internalType": "address",
          "name": "oldTreasury",
          "type": "address"
        },
        {
          "indexed": true,
          "internalType": "address",
          "name": "newTreasury",
          "type": "address"
        }
      ],
      "name": "TreasuryUpdated",
      "type": "event"
    },
    {
      "anonymous": false,
      "inputs": [
        {
          "indexed": true,
          "internalType": "bytes32",
          "name": "tenantId",
          "type": "bytes32"
        },
        {
          "indexed": false,
          "internalType": "uint256",
          "name": "oldValue",
          "type": "uint256"
        },
        {
          "indexed": false,
          "internalType": "uint256",
          "name": "newValue",
          "type": "uint256"
        }
      ],
      "name": "UnstakeCooldownUpdated",
      "type": "event"
    },
    {
      "anonymous": false,
      "inputs": [
        {
          "indexed": true,
          "internalType": "bytes32",
          "name": "tenantId",
          "type": "bytes32"
        },
        {
          "indexed": true,
          "internalType": "bytes32",
          "name": "violationCode",
          "type": "bytes32"
        },
        {
          "indexed": false,
          "internalType": "uint16",
          "name": "oldPenaltyBps",
          "type": "uint16"
        },
        {
          "indexed": false,
          "internalType": "uint16",
          "name": "newPenaltyBps",
          "type": "uint16"
        }
      ],
      "name": "ViolationPenaltyUpdated",
      "type": "event"
    },
    {
      "inputs": [],
      "name": "COSIGN_ROLE_NONE",
      "outputs": [
        {
          "internalType": "uint16",
          "name": "",
          "type": "uint16"
        }
      ],
      "stateMutability": "view",
      "type": "function"
    },
    {
      "inputs": [],
      "name": "DEFAULT_ADMIN_ROLE",
      "outputs": [
        {
          "internalType": "bytes32",
          "name": "",
          "type": "bytes32"
        }
      ],
      "stateMutability": "view",
      "type": "function"
    },
    {
      "inputs": [],
      "name": "MAX_COSIGN_ROLE_ID",
      "outputs": [
        {
          "internalType": "uint16",
          "name": "",
          "type": "uint16"
        }
      ],
      "stateMutability": "view",
      "type": "function"
    },
    {
      "inputs": [],
      "name": "MAX_PENALTY_BPS",
      "outputs": [
        {
          "internalType": "uint16",
          "name": "",
          "type": "uint16"
        }
      ],
      "stateMutability": "view",
      "type": "function"
    },
    {
      "inputs": [],
      "name": "MIN_COSIGN_ROLE_ID",
      "outputs": [
        {
          "internalType": "uint16",
          "name": "",
          "type": "uint16"
        }
      ],
      "stateMutability": "view",
      "type": "function"
    },
    {
      "inputs": [],
      "name": "MIN_STAKE",
      "outputs": [
        {
          "internalType": "uint256",
          "name": "",
          "type": "uint256"
        }
      ],
      "stateMutability": "view",
      "type": "function"
    },
    {
      "inputs": [],
      "name": "PROTOCOL_ADMIN_ROLE",
      "outputs": [
        {
          "internalType": "bytes32",
          "name": "",
          "type": "bytes32"
        }
      ],
      "stateMutability": "view",
      "type": "function"
    },
    {
      "inputs": [],
      "name": "UNSTAKE_COOLDOWN",
      "outputs": [
        {
          "internalType": "uint256",
          "name": "",
          "type": "uint256"
        }
      ],
      "stateMutability": "view",
      "type": "function"
    },
    {
      "inputs": [
        {
          "internalType": "bytes32",
          "name": "",
          "type": "bytes32"
        },
        {
          "internalType": "bytes32",
          "name": "",
          "type": "bytes32"
        }
      ],
      "name": "coSignCount",
      "outputs": [
        {
          "internalType": "uint256",
          "name": "",
          "type": "uint256"
        }
      ],
      "stateMutability": "view",
      "type": "function"
    },
    {
      "inputs": [
        {
          "components": [
            {
              "internalType": "bytes32",
              "name": "tenantId",
              "type": "bytes32"
            },
            {
              "internalType": "bytes32",
              "name": "fileHash",
              "type": "bytes32"
            },
            {
              "internalType": "uint256",
              "name": "nonce",
              "type": "uint256"
            },
            {
              "internalType": "uint256",
              "name": "deadline",
              "type": "uint256"
            }
          ],
          "internalType": "struct VoucherProtocol.CoSignPayload",
          "name": "payload",
          "type": "tuple"
        },
        {
          "internalType": "bytes",
          "name": "signature",
          "type": "bytes"
        }
      ],
      "name": "coSignDocumentWithSignature",
      "outputs": [],
      "stateMutability": "nonpayable",
      "type": "function"
    },
    {
      "inputs": [
        {
          "internalType": "bytes32",
          "name": "",
          "type": "bytes32"
        },
        {
          "internalType": "bytes32",
          "name": "",
          "type": "bytes32"
        }
      ],
      "name": "coSignQualified",
      "outputs": [
        {
          "internalType": "bool",
          "name": "",
          "type": "bool"
        }
      ],
      "stateMutability": "view",
      "type": "function"
    },
    {
      "inputs": [
        {
          "internalType": "bytes32",
          "name": "tenantId",
          "type": "bytes32"
        },
        {
          "internalType": "address",
          "name": "tenantTreasury",
          "type": "address"
        },
        {
          "components": [
            {
              "internalType": "address",
              "name": "admin",
              "type": "address"
            },
            {
              "internalType": "address",
              "name": "slasher",
              "type": "address"
            },
            {
              "internalType": "address",
              "name": "operatorManager",
              "type": "address"
            },
            {
              "internalType": "uint256",
              "name": "minStake",
              "type": "uint256"
            },
            {
              "internalType": "uint256",
              "name": "unstakeCooldown",
              "type": "uint256"
            }
          ],
          "internalType": "struct VoucherProtocol.TenantConfig",
          "name": "config",
          "type": "tuple"
        }
      ],
      "name": "createTenant",
      "outputs": [],
      "stateMutability": "nonpayable",
      "type": "function"
    },
    {
      "inputs": [
        {
          "internalType": "bytes32",
          "name": "",
          "type": "bytes32"
        },
        {
          "internalType": "bytes32",
          "name": "",
          "type": "bytes32"
        },
        {
          "internalType": "address",
          "name": "",
          "type": "address"
        }
      ],
      "name": "documentSigners",
      "outputs": [
        {
          "internalType": "bool",
          "name": "",
          "type": "bool"
        }
      ],
      "stateMutability": "view",
      "type": "function"
    },
    {
      "inputs": [
        {
          "internalType": "bytes32",
          "name": "",
          "type": "bytes32"
        },
        {
          "internalType": "bytes32",
          "name": "",
          "type": "bytes32"
        }
      ],
      "name": "documents",
      "outputs": [
        {
          "internalType": "bytes32",
          "name": "tenantId",
          "type": "bytes32"
        },
        {
          "internalType": "string",
          "name": "cid",
          "type": "string"
        },
        {
          "internalType": "address",
          "name": "issuer",
          "type": "address"
        },
        {
          "internalType": "uint256",
          "name": "timestamp",
          "type": "uint256"
        },
        {
          "internalType": "bool",
          "name": "isValid",
          "type": "bool"
        },
        {
          "internalType": "bytes32",
          "name": "ciphertextHash",
          "type": "bytes32"
        },
        {
          "internalType": "bytes32",
          "name": "encryptionMetaHash",
          "type": "bytes32"
        },
        {
          "internalType": "uint32",
          "name": "docType",
          "type": "uint32"
        },
        {
          "internalType": "uint32",
          "name": "version",
          "type": "uint32"
        }
      ],
      "stateMutability": "view",
      "type": "function"
    },
    {
      "inputs": [
        {
          "internalType": "bytes32",
          "name": "tenantId",
          "type": "bytes32"
        }
      ],
      "name": "executeUnstake",
      "outputs": [],
      "stateMutability": "nonpayable",
      "type": "function"
    },
    {
      "inputs": [
        {
          "internalType": "bytes32",
          "name": "tenantId",
          "type": "bytes32"
        },
        {
          "internalType": "uint32",
          "name": "docType",
          "type": "uint32"
        }
      ],
      "name": "getCoSignPolicyStruct",
      "outputs": [
        {
          "components": [
            {
              "internalType": "bool",
              "name": "enabled",
              "type": "bool"
            },
            {
              "internalType": "uint256",
              "name": "minStake",
              "type": "uint256"
            },
            {
              "internalType": "uint256",
              "name": "minSigners",
              "type": "uint256"
            },
            {
              "internalType": "uint256",
              "name": "requiredRoleMask",
              "type": "uint256"
            }
          ],
          "internalType": "struct VoucherProtocol.CoSignPolicy",
          "name": "",
          "type": "tuple"
        }
      ],
      "stateMutability": "view",
      "type": "function"
    },
    {
      "inputs": [
        {
          "internalType": "bytes32",
          "name": "tenantId",
          "type": "bytes32"
        },
        {
          "internalType": "bytes32",
          "name": "fileHash",
          "type": "bytes32"
        }
      ],
      "name": "getDocument",
      "outputs": [
        {
          "components": [
            {
              "internalType": "bytes32",
              "name": "tenantId",
              "type": "bytes32"
            },
            {
              "internalType": "string",
              "name": "cid",
              "type": "string"
            },
            {
              "internalType": "address",
              "name": "issuer",
              "type": "address"
            },
            {
              "internalType": "uint256",
              "name": "timestamp",
              "type": "uint256"
            },
            {
              "internalType": "bool",
              "name": "isValid",
              "type": "bool"
            },
            {
              "internalType": "bytes32",
              "name": "ciphertextHash",
              "type": "bytes32"
            },
            {
              "internalType": "bytes32",
              "name": "encryptionMetaHash",
              "type": "bytes32"
            },
            {
              "internalType": "uint32",
              "name": "docType",
              "type": "uint32"
            },
            {
              "internalType": "uint32",
              "name": "version",
              "type": "uint32"
            }
          ],
          "internalType": "struct VoucherProtocol.Document",
          "name": "",
          "type": "tuple"
        }
      ],
      "stateMutability": "view",
      "type": "function"
    },
    {
      "inputs": [
        {
          "internalType": "bytes32",
          "name": "tenantId",
          "type": "bytes32"
        },
        {
          "internalType": "uint256",
          "name": "index",
          "type": "uint256"
        }
      ],
      "name": "getOperatorAtIndex",
      "outputs": [
        {
          "internalType": "address",
          "name": "",
          "type": "address"
        }
      ],
      "stateMutability": "view",
      "type": "function"
    },
    {
      "inputs": [
        {
          "internalType": "bytes32",
          "name": "tenantId",
          "type": "bytes32"
        }
      ],
      "name": "getOperatorListLength",
      "outputs": [
        {
          "internalType": "uint256",
          "name": "",
          "type": "uint256"
        }
      ],
      "stateMutability": "view",
      "type": "function"
    },
    {
      "inputs": [
        {
          "internalType": "bytes32",
          "name": "tenantId",
          "type": "bytes32"
        },
        {
          "internalType": "address",
          "name": "operator",
          "type": "address"
        }
      ],
      "name": "getOperatorStruct",
      "outputs": [
        {
          "components": [
            {
              "internalType": "bytes32",
              "name": "tenantId",
              "type": "bytes32"
            },
            {
              "internalType": "string",
              "name": "metadataURI",
              "type": "string"
            },
            {
              "internalType": "uint256",
              "name": "stakeAmount",
              "type": "uint256"
            },
            {
              "internalType": "bool",
              "name": "isActive",
              "type": "bool"
            }
          ],
          "internalType": "struct VoucherProtocol.Operator",
          "name": "",
          "type": "tuple"
        }
      ],
      "stateMutability": "view",
      "type": "function"
    },
    {
      "inputs": [
        {
          "internalType": "bytes32",
          "name": "role",
          "type": "bytes32"
        }
      ],
      "name": "getRoleAdmin",
      "outputs": [
        {
          "internalType": "bytes32",
          "name": "",
          "type": "bytes32"
        }
      ],
      "stateMutability": "view",
      "type": "function"
    },
    {
      "inputs": [
        {
          "internalType": "uint256",
          "name": "index",
          "type": "uint256"
        }
      ],
      "name": "getTenantAtIndex",
      "outputs": [
        {
          "internalType": "bytes32",
          "name": "",
          "type": "bytes32"
        }
      ],
      "stateMutability": "view",
      "type": "function"
    },
    {
      "inputs": [],
      "name": "getTenantListLength",
      "outputs": [
        {
          "internalType": "uint256",
          "name": "",
          "type": "uint256"
        }
      ],
      "stateMutability": "view",
      "type": "function"
    },
    {
      "inputs": [
        {
          "internalType": "bytes32",
          "name": "tenantId",
          "type": "bytes32"
        }
      ],
      "name": "getTenantStruct",
      "outputs": [
        {
          "components": [
            {
              "internalType": "address",
              "name": "admin",
              "type": "address"
            },
            {
              "internalType": "address",
              "name": "treasury",
              "type": "address"
            },
            {
              "internalType": "bool",
              "name": "isActive",
              "type": "bool"
            },
            {
              "internalType": "uint256",
              "name": "createdAt",
              "type": "uint256"
            }
          ],
          "internalType": "struct VoucherProtocol.Tenant",
          "name": "",
          "type": "tuple"
        }
      ],
      "stateMutability": "view",
      "type": "function"
    },
    {
      "inputs": [
        {
          "internalType": "bytes32",
          "name": "role",
          "type": "bytes32"
        },
        {
          "internalType": "address",
          "name": "account",
          "type": "address"
        }
      ],
      "name": "grantRole",
      "outputs": [],
      "stateMutability": "nonpayable",
      "type": "function"
    },
    {
      "inputs": [
        {
          "internalType": "bytes32",
          "name": "role",
          "type": "bytes32"
        },
        {
          "internalType": "address",
          "name": "account",
          "type": "address"
        }
      ],
      "name": "hasRole",
      "outputs": [
        {
          "internalType": "bool",
          "name": "",
          "type": "bool"
        }
      ],
      "stateMutability": "view",
      "type": "function"
    },
    {
      "inputs": [
        {
          "internalType": "bytes32",
          "name": "tenantId",
          "type": "bytes32"
        },
        {
          "internalType": "string",
          "name": "_metadataURI",
          "type": "string"
        }
      ],
      "name": "joinAsOperator",
      "outputs": [],
      "stateMutability": "payable",
      "type": "function"
    },
    {
      "inputs": [
        {
          "internalType": "bytes32",
          "name": "",
          "type": "bytes32"
        },
        {
          "internalType": "address",
          "name": "",
          "type": "address"
        }
      ],
      "name": "nonces",
      "outputs": [
        {
          "internalType": "uint256",
          "name": "",
          "type": "uint256"
        }
      ],
      "stateMutability": "view",
      "type": "function"
    },
    {
      "inputs": [
        {
          "internalType": "bytes32",
          "name": "",
          "type": "bytes32"
        },
        {
          "internalType": "address",
          "name": "",
          "type": "address"
        }
      ],
      "name": "operators",
      "outputs": [
        {
          "internalType": "bytes32",
          "name": "tenantId",
          "type": "bytes32"
        },
        {
          "internalType": "string",
          "name": "metadataURI",
          "type": "string"
        },
        {
          "internalType": "uint256",
          "name": "stakeAmount",
          "type": "uint256"
        },
        {
          "internalType": "bool",
          "name": "isActive",
          "type": "bool"
        }
      ],
      "stateMutability": "view",
      "type": "function"
    },
    {
      "inputs": [
        {
          "internalType": "bytes32",
          "name": "",
          "type": "bytes32"
        },
        {
          "internalType": "address",
          "name": "",
          "type": "address"
        }
      ],
      "name": "pendingUnstakeAt",
      "outputs": [
        {
          "internalType": "uint256",
          "name": "",
          "type": "uint256"
        }
      ],
      "stateMutability": "view",
      "type": "function"
    },
    {
      "inputs": [],
      "name": "protocolOwner",
      "outputs": [
        {
          "internalType": "address",
          "name": "",
          "type": "address"
        }
      ],
      "stateMutability": "view",
      "type": "function"
    },
    {
      "inputs": [
        {
          "internalType": "bytes32",
          "name": "tenantId",
          "type": "bytes32"
        },
        {
          "internalType": "address",
          "name": "lostOperator",
          "type": "address"
        },
        {
          "internalType": "address",
          "name": "newOperator",
          "type": "address"
        },
        {
          "internalType": "string",
          "name": "reason",
          "type": "string"
        }
      ],
      "name": "recoverOperatorByAdmin",
      "outputs": [],
      "stateMutability": "nonpayable",
      "type": "function"
    },
    {
      "inputs": [
        {
          "internalType": "bytes32",
          "name": "tenantId",
          "type": "bytes32"
        },
        {
          "internalType": "address",
          "name": "lostOperator",
          "type": "address"
        },
        {
          "internalType": "string",
          "name": "reason",
          "type": "string"
        }
      ],
      "name": "recoverOperatorByDelegate",
      "outputs": [],
      "stateMutability": "nonpayable",
      "type": "function"
    },
    {
      "inputs": [
        {
          "internalType": "bytes32",
          "name": "",
          "type": "bytes32"
        },
        {
          "internalType": "address",
          "name": "",
          "type": "address"
        }
      ],
      "name": "recoveryDelegates",
      "outputs": [
        {
          "internalType": "address",
          "name": "",
          "type": "address"
        }
      ],
      "stateMutability": "view",
      "type": "function"
    },
    {
      "inputs": [
        {
          "components": [
            {
              "internalType": "bytes32",
              "name": "tenantId",
              "type": "bytes32"
            },
            {
              "internalType": "bytes32",
              "name": "fileHash",
              "type": "bytes32"
            },
            {
              "internalType": "string",
              "name": "cid",
              "type": "string"
            },
            {
              "internalType": "bytes32",
              "name": "ciphertextHash",
              "type": "bytes32"
            },
            {
              "internalType": "bytes32",
              "name": "encryptionMetaHash",
              "type": "bytes32"
            },
            {
              "internalType": "uint32",
              "name": "docType",
              "type": "uint32"
            },
            {
              "internalType": "uint32",
              "name": "version",
              "type": "uint32"
            },
            {
              "internalType": "uint256",
              "name": "nonce",
              "type": "uint256"
            },
            {
              "internalType": "uint256",
              "name": "deadline",
              "type": "uint256"
            }
          ],
          "internalType": "struct VoucherProtocol.RegisterPayload",
          "name": "payload",
          "type": "tuple"
        },
        {
          "internalType": "bytes",
          "name": "signature",
          "type": "bytes"
        }
      ],
      "name": "registerWithSignature",
      "outputs": [],
      "stateMutability": "nonpayable",
      "type": "function"
    },
    {
      "inputs": [
        {
          "internalType": "bytes32",
          "name": "role",
          "type": "bytes32"
        },
        {
          "internalType": "address",
          "name": "callerConfirmation",
          "type": "address"
        }
      ],
      "name": "renounceRole",
      "outputs": [],
      "stateMutability": "nonpayable",
      "type": "function"
    },
    {
      "inputs": [
        {
          "internalType": "bytes32",
          "name": "tenantId",
          "type": "bytes32"
        }
      ],
      "name": "requestUnstake",
      "outputs": [],
      "stateMutability": "nonpayable",
      "type": "function"
    },
    {
      "inputs": [
        {
          "internalType": "bytes32",
          "name": "tenantId",
          "type": "bytes32"
        },
        {
          "internalType": "bytes32",
          "name": "fileHash",
          "type": "bytes32"
        },
        {
          "internalType": "string",
          "name": "reason",
          "type": "string"
        }
      ],
      "name": "revokeDocument",
      "outputs": [],
      "stateMutability": "nonpayable",
      "type": "function"
    },
    {
      "inputs": [
        {
          "internalType": "bytes32",
          "name": "role",
          "type": "bytes32"
        },
        {
          "internalType": "address",
          "name": "account",
          "type": "address"
        }
      ],
      "name": "revokeRole",
      "outputs": [],
      "stateMutability": "nonpayable",
      "type": "function"
    },
    {
      "inputs": [
        {
          "internalType": "bytes32",
          "name": "tenantId",
          "type": "bytes32"
        },
        {
          "internalType": "uint32",
          "name": "docType",
          "type": "uint32"
        },
        {
          "internalType": "address",
          "name": "operator",
          "type": "address"
        },
        {
          "internalType": "bool",
          "name": "whitelisted",
          "type": "bool"
        },
        {
          "internalType": "uint16",
          "name": "roleId",
          "type": "uint16"
        }
      ],
      "name": "setCoSignOperator",
      "outputs": [],
      "stateMutability": "nonpayable",
      "type": "function"
    },
    {
      "inputs": [
        {
          "internalType": "bytes32",
          "name": "tenantId",
          "type": "bytes32"
        },
        {
          "internalType": "uint32",
          "name": "docType",
          "type": "uint32"
        },
        {
          "internalType": "bool",
          "name": "enabled",
          "type": "bool"
        },
        {
          "internalType": "uint256",
          "name": "minStake",
          "type": "uint256"
        },
        {
          "internalType": "uint256",
          "name": "minSigners",
          "type": "uint256"
        },
        {
          "internalType": "uint256",
          "name": "requiredRoleMask",
          "type": "uint256"
        }
      ],
      "name": "setCoSignPolicy",
      "outputs": [],
      "stateMutability": "nonpayable",
      "type": "function"
    },
    {
      "inputs": [
        {
          "internalType": "bytes32",
          "name": "tenantId",
          "type": "bytes32"
        },
        {
          "internalType": "uint256",
          "name": "newMinOperatorStake",
          "type": "uint256"
        }
      ],
      "name": "setMinOperatorStake",
      "outputs": [],
      "stateMutability": "nonpayable",
      "type": "function"
    },
    {
      "inputs": [
        {
          "internalType": "bytes32",
          "name": "tenantId",
          "type": "bytes32"
        },
        {
          "internalType": "address",
          "name": "operator",
          "type": "address"
        },
        {
          "internalType": "bool",
          "name": "isActive",
          "type": "bool"
        },
        {
          "internalType": "string",
          "name": "reason",
          "type": "string"
        }
      ],
      "name": "setOperatorStatus",
      "outputs": [],
      "stateMutability": "nonpayable",
      "type": "function"
    },
    {
      "inputs": [
        {
          "internalType": "bytes32",
          "name": "tenantId",
          "type": "bytes32"
        },
        {
          "internalType": "address",
          "name": "delegate",
          "type": "address"
        }
      ],
      "name": "setRecoveryDelegate",
      "outputs": [],
      "stateMutability": "nonpayable",
      "type": "function"
    },
    {
      "inputs": [
        {
          "internalType": "bytes32",
          "name": "tenantId",
          "type": "bytes32"
        },
        {
          "internalType": "bool",
          "name": "isActive",
          "type": "bool"
        }
      ],
      "name": "setTenantStatus",
      "outputs": [],
      "stateMutability": "nonpayable",
      "type": "function"
    },
    {
      "inputs": [
        {
          "internalType": "bytes32",
          "name": "tenantId",
          "type": "bytes32"
        },
        {
          "internalType": "address",
          "name": "newTreasury",
          "type": "address"
        }
      ],
      "name": "setTreasury",
      "outputs": [],
      "stateMutability": "nonpayable",
      "type": "function"
    },
    {
      "inputs": [
        {
          "internalType": "bytes32",
          "name": "tenantId",
          "type": "bytes32"
        },
        {
          "internalType": "uint256",
          "name": "newUnstakeCooldown",
          "type": "uint256"
        }
      ],
      "name": "setUnstakeCooldown",
      "outputs": [],
      "stateMutability": "nonpayable",
      "type": "function"
    },
    {
      "inputs": [
        {
          "internalType": "bytes32",
          "name": "tenantId",
          "type": "bytes32"
        },
        {
          "internalType": "bytes32",
          "name": "violationCode",
          "type": "bytes32"
        },
        {
          "internalType": "uint16",
          "name": "penaltyBps",
          "type": "uint16"
        }
      ],
      "name": "setViolationPenalty",
      "outputs": [],
      "stateMutability": "nonpayable",
      "type": "function"
    },
    {
      "inputs": [
        {
          "internalType": "bytes32",
          "name": "tenantId",
          "type": "bytes32"
        },
        {
          "internalType": "address",
          "name": "_operator",
          "type": "address"
        },
        {
          "internalType": "string",
          "name": "reason",
          "type": "string"
        }
      ],
      "name": "slashOperator",
      "outputs": [],
      "stateMutability": "nonpayable",
      "type": "function"
    },
    {
      "inputs": [
        {
          "internalType": "bytes32",
          "name": "tenantId",
          "type": "bytes32"
        },
        {
          "internalType": "address",
          "name": "_operator",
          "type": "address"
        },
        {
          "internalType": "bytes32",
          "name": "violationCode",
          "type": "bytes32"
        },
        {
          "internalType": "string",
          "name": "reason",
          "type": "string"
        }
      ],
      "name": "softSlashOperator",
      "outputs": [],
      "stateMutability": "nonpayable",
      "type": "function"
    },
    {
      "inputs": [
        {
          "internalType": "bytes4",
          "name": "interfaceId",
          "type": "bytes4"
        }
      ],
      "name": "supportsInterface",
      "outputs": [
        {
          "internalType": "bool",
          "name": "",
          "type": "bool"
        }
      ],
      "stateMutability": "view",
      "type": "function"
    },
    {
      "inputs": [
        {
          "internalType": "bytes32",
          "name": "",
          "type": "bytes32"
        },
        {
          "internalType": "uint32",
          "name": "",
          "type": "uint32"
        }
      ],
      "name": "tenantCoSignPolicies",
      "outputs": [
        {
          "internalType": "bool",
          "name": "enabled",
          "type": "bool"
        },
        {
          "internalType": "uint256",
          "name": "minStake",
          "type": "uint256"
        },
        {
          "internalType": "uint256",
          "name": "minSigners",
          "type": "uint256"
        },
        {
          "internalType": "uint256",
          "name": "requiredRoleMask",
          "type": "uint256"
        }
      ],
      "stateMutability": "view",
      "type": "function"
    },
    {
      "inputs": [
        {
          "internalType": "bytes32",
          "name": "",
          "type": "bytes32"
        },
        {
          "internalType": "uint32",
          "name": "",
          "type": "uint32"
        },
        {
          "internalType": "address",
          "name": "",
          "type": "address"
        }
      ],
      "name": "tenantCoSignRoles",
      "outputs": [
        {
          "internalType": "uint16",
          "name": "",
          "type": "uint16"
        }
      ],
      "stateMutability": "view",
      "type": "function"
    },
    {
      "inputs": [
        {
          "internalType": "bytes32",
          "name": "",
          "type": "bytes32"
        },
        {
          "internalType": "uint32",
          "name": "",
          "type": "uint32"
        },
        {
          "internalType": "address",
          "name": "",
          "type": "address"
        }
      ],
      "name": "tenantCoSignWhitelisted",
      "outputs": [
        {
          "internalType": "bool",
          "name": "",
          "type": "bool"
        }
      ],
      "stateMutability": "view",
      "type": "function"
    },
    {
      "inputs": [
        {
          "internalType": "uint256",
          "name": "",
          "type": "uint256"
        }
      ],
      "name": "tenantList",
      "outputs": [
        {
          "internalType": "bytes32",
          "name": "",
          "type": "bytes32"
        }
      ],
      "stateMutability": "view",
      "type": "function"
    },
    {
      "inputs": [
        {
          "internalType": "bytes32",
          "name": "",
          "type": "bytes32"
        }
      ],
      "name": "tenantMinOperatorStake",
      "outputs": [
        {
          "internalType": "uint256",
          "name": "",
          "type": "uint256"
        }
      ],
      "stateMutability": "view",
      "type": "function"
    },
    {
      "inputs": [
        {
          "internalType": "bytes32",
          "name": "",
          "type": "bytes32"
        }
      ],
      "name": "tenantUnstakeCooldown",
      "outputs": [
        {
          "internalType": "uint256",
          "name": "",
          "type": "uint256"
        }
      ],
      "stateMutability": "view",
      "type": "function"
    },
    {
      "inputs": [
        {
          "internalType": "bytes32",
          "name": "",
          "type": "bytes32"
        },
        {
          "internalType": "bytes32",
          "name": "",
          "type": "bytes32"
        }
      ],
      "name": "tenantViolationPenalties",
      "outputs": [
        {
          "internalType": "uint16",
          "name": "",
          "type": "uint16"
        }
      ],
      "stateMutability": "view",
      "type": "function"
    },
    {
      "inputs": [
        {
          "internalType": "bytes32",
          "name": "",
          "type": "bytes32"
        }
      ],
      "name": "tenants",
      "outputs": [
        {
          "internalType": "address",
          "name": "admin",
          "type": "address"
        },
        {
          "internalType": "address",
          "name": "treasury",
          "type": "address"
        },
        {
          "internalType": "bool",
          "name": "isActive",
          "type": "bool"
        },
        {
          "internalType": "uint256",
          "name": "createdAt",
          "type": "uint256"
        }
      ],
      "stateMutability": "view",
      "type": "function"
    },
    {
      "inputs": [
        {
          "internalType": "bytes32",
          "name": "tenantId",
          "type": "bytes32"
        }
      ],
      "name": "topUpStake",
      "outputs": [],
      "stateMutability": "payable",
      "type": "function"
    },
    {
      "inputs": [
        {
          "internalType": "bytes32",
          "name": "",
          "type": "bytes32"
        },
        {
          "internalType": "bytes32",
          "name": "",
          "type": "bytes32"
        }
      ],
      "name": "trustedCoSignCount",
      "outputs": [
        {
          "internalType": "uint256",
          "name": "",
          "type": "uint256"
        }
      ],
      "stateMutability": "view",
      "type": "function"
    },
    {
      "inputs": [
        {
          "internalType": "bytes32",
          "name": "",
          "type": "bytes32"
        },
        {
          "internalType": "bytes32",
          "name": "",
          "type": "bytes32"
        }
      ],
      "name": "trustedCoSignRoleMask",
      "outputs": [
        {
          "internalType": "uint256",
          "name": "",
          "type": "uint256"
        }
      ],
      "stateMutability": "view",
      "type": "function"
    },
    {
      "inputs": [
        {
          "internalType": "bytes32",
          "name": "tenantId",
          "type": "bytes32"
        },
        {
          "internalType": "string",
          "name": "metadataURI",
          "type": "string"
        }
      ],
      "name": "updateOperatorMetadata",
      "outputs": [],
      "stateMutability": "nonpayable",
      "type": "function"
    }
  ],
  "bytecode": "0x60a060405234801561000f575f5ffd5b5060017f9b779b17422d0df92223018b32b4d1fa46e071723d6817e2486d003becc55f0055600180546001600160a01b03191633908117909155610054905f9061014f565b5061007f7fd0c934f24ef5a377dc3832429ce607cbe940a3ca3c6cd7e532bd35b4b212d1963361014f565b50604080517f8b73c3c69bb8fe3d512ecc4cf759cc79239f7b179b0ffacaa9a75d522b39400f60208201527f32e8a79951df9d41f0345a487dbe19ec03b0a7de9751dd4031f0cc3d0a623968918101919091527fc89efdaa54c0f20c7adf612882df0950f5a951637e0307cdcb4c672f298b8bc660608201524660808201523060a082015260c00160408051601f1981840301815290829052805160209091012060805233907fc130514d7c8c002bccb3fd35204490d020b73c0188386dbb07de86d15d5cb9a0905f90a26101f8565b5f828152602081815260408083206001600160a01b038516845290915281205460ff166101ef575f838152602081815260408083206001600160a01b03861684529091529020805460ff191660011790556101a73390565b6001600160a01b0316826001600160a01b0316847f2f8788117e7eff1d82e926ec794901d17c78024a50270940304540a733656f0d60405160405180910390a45060016101f2565b505f5b92915050565b608051615d736102105f395f614b0a0152615d735ff3fe6080604052600436106103a8575f3560e01c80638bdb1de3116101e9578063c70496a411610108578063e26edb7a1161009d578063f4410c061161006d578063f4410c0614610d22578063fb827fa814610d41578063fc89626714610d70578063ff14d45814610d9b575f5ffd5b8063e26edb7a14610c92578063e7b06ccd14610cb1578063eaa3668f14610cd0578063f3e49baa14610ce3575f5ffd5b8063d4b77cfc116100d8578063d4b77cfc14610bd5578063d547741f14610bf4578063d9fe7f6714610c13578063dfa89c1d14610c53575f5ffd5b8063c70496a414610b69578063cb1c2b5c14610b88578063cbbb0fec14610ba3578063d019036e14610bc2575f5ffd5b8063a2375cf31161017e578063b04da8a11161014e578063b04da8a114610abe578063b5004d7914610af4578063c1d6ba6914610b2b578063c664e0d514610b4a575f5ffd5b8063a2375cf314610a41578063a468703d14610a60578063a60f4c0914610a7f578063aee2bc8614610a9e575f5ffd5b806395f001e6116101b957806395f001e61461096c57806399c894041461098b5780639e531042146109aa578063a217fddf14610a2e575f5ffd5b80638bdb1de3146108ef5780638d18edf01461091a57806391d1485414610939578063920da43314610958575f5ffd5b80633ebf6f7d116102d5578063627a654f1161026a5780636dc0c12a1161023a5780636dc0c12a14610845578063715eba9a146108645780637ff637311461088357806386e2b63f146108b9575f5ffd5b8063627a654f146107905780636b044e3d146107c45780636cc531d4146107e35780636d184dd31461080f575f5ffd5b8063502ea5c2116102a5578063502ea5c2146106ee578063541bd3ee146107275780635533b9bf146107465780635e50980714610771575f5ffd5b80633ebf6f7d1461060957806342149fd01461067a5780634d00857a146106995780634f138e01146106b8575f5ffd5b80630f3384e01161034b578063248a9ca31161031b578063248a9ca31461056357806328a1b2c9146105915780632f2ff15d146105cb57806336568abe146105ea575f5ffd5b80630f3384e0146104e4578063130d571b146105055780631b48ba1f14610524578063246145d814610550575f5ffd5b80630619a7d0116103865780630619a7d0146104475780630a75a2f01461049b5780630b60c58f146104b95780630e0895b9146104cf575f5ffd5b8063015d4ad3146103ac57806301ffc9a7146104005780630225d3cc1461041f575b5f5ffd5b3480156103b7575f5ffd5b506103eb6103c63660046151bc565b600b60209081525f938452604080852082529284528284209052825290205460ff1681565b60405190151581526020015b60405180910390f35b34801561040b575f5ffd5b506103eb61041a3660046151ee565b610e72565b34801561042a575f5ffd5b5061043461271081565b60405161ffff90911681526020016103f7565b348015610452575f5ffd5b5061046661046136600461522f565b610ea8565b6040516103f7919081511515815260208083015190820152604080830151908201526060918201519181019190915260800190565b3480156104a6575f5ffd5b506003545b6040519081526020016103f7565b3480156104c4575f5ffd5b506104ab6201518081565b3480156104da575f5ffd5b5061043461010081565b3480156104ef575f5ffd5b506105036104fe366004615259565b610f29565b005b348015610510575f5ffd5b5061050361051f3660046152cd565b611001565b34801561052f575f5ffd5b5061054361053e366004615259565b611133565b6040516103f79190615365565b61050361055e36600461540f565b6112b5565b34801561056e575f5ffd5b506104ab61057d366004615457565b5f9081526020819052604090206001015490565b34801561059c575f5ffd5b506104346105ab366004615259565b601360209081525f928352604080842090915290825290205461ffff1681565b3480156105d6575f5ffd5b506105036105e536600461546e565b6115cf565b3480156105f5575f5ffd5b5061050361060436600461546e565b6115f9565b348015610614575f5ffd5b5061065861062336600461522f565b601060209081525f9283526040808420909152908252902080546001820154600283015460039093015460ff90921692909184565b60408051941515855260208501939093529183015260608201526080016103f7565b348015610685575f5ffd5b5061050361069436600461548f565b611631565b3480156106a4575f5ffd5b506105036106b33660046154f6565b611b14565b3480156106c3575f5ffd5b506104ab6106d2366004615259565b600c60209081525f928352604080842090915290825290205481565b3480156106f9575f5ffd5b506103eb610708366004615259565b600f60209081525f928352604080842090915290825290205460ff1681565b348015610732575f5ffd5b50610503610741366004615457565b611d30565b348015610751575f5ffd5b506104ab610760366004615457565b5f9081526005602052604090205490565b34801561077c575f5ffd5b5061050361078b366004615550565b611f1b565b34801561079b575f5ffd5b506107af6107aa366004615259565b612040565b6040516103f799989796959493929190615579565b3480156107cf575f5ffd5b506105036107de3660046155dd565b612134565b3480156107ee575f5ffd5b506108026107fd36600461546e565b612223565b6040516103f79190615614565b34801561081a575f5ffd5b506104ab610829366004615259565b600d60209081525f928352604080842090915290825290205481565b348015610850575f5ffd5b5061050361085f36600461565b565b612331565b34801561086f575f5ffd5b5061050361087e36600461546e565b6126f7565b34801561088e575f5ffd5b506104ab61089d366004615259565b600e60209081525f928352604080842090915290825290205481565b3480156108c4575f5ffd5b506104ab6108d336600461546e565b600760209081525f928352604080842090915290825290205481565b3480156108fa575f5ffd5b506104ab610909366004615457565b60146020525f908152604090205481565b348015610925575f5ffd5b5061050361093436600461569f565b6127da565b348015610944575f5ffd5b506103eb61095336600461546e565b612f1f565b348015610963575f5ffd5b50610434600181565b348015610977575f5ffd5b506105036109863660046156f4565b612f47565b348015610996575f5ffd5b506104ab6109a5366004615457565b612fef565b3480156109b5575f5ffd5b506109fd6109c4366004615457565b600260208190525f91825260409091208054600182015491909201546001600160a01b0392831692821691600160a01b900460ff169084565b604080516001600160a01b0395861681529490931660208501529015159183019190915260608201526080016103f7565b348015610a39575f5ffd5b506104ab5f81565b348015610a4c575f5ffd5b50610503610a5b36600461540f565b61300e565b348015610a6b575f5ffd5b50610503610a7a366004615715565b6130e1565b348015610a8a575f5ffd5b50610503610a99366004615752565b6136af565b348015610aa9575f5ffd5b506104ab5f516020615cde5f395f51905f5281565b348015610ac9575f5ffd5b506104ab610ad836600461546e565b600860209081525f928352604080842090915290825290205481565b348015610aff575f5ffd5b50610b13610b0e366004615259565b613802565b6040516001600160a01b0390911681526020016103f7565b348015610b36575f5ffd5b50600154610b13906001600160a01b031681565b348015610b55575f5ffd5b50610503610b6436600461546e565b61383c565b348015610b74575f5ffd5b506104ab610b83366004615457565b61395f565b348015610b93575f5ffd5b506104ab67016345785d8a000081565b348015610bae575f5ffd5b50610503610bbd366004615259565b613983565b348015610bcd575f5ffd5b506104345f81565b348015610be0575f5ffd5b50610503610bef3660046157a6565b613a4c565b348015610bff575f5ffd5b50610503610c0e36600461546e565b613f14565b348015610c1e575f5ffd5b50610434610c2d3660046157d8565b601260209081525f938452604080852082529284528284209052825290205461ffff1681565b348015610c5e575f5ffd5b50610b13610c6d36600461546e565b600960209081525f92835260408084209091529082529020546001600160a01b031681565b348015610c9d575f5ffd5b50610503610cac366004615457565b613f38565b348015610cbc575f5ffd5b50610503610ccb366004615808565b614053565b610503610cde366004615457565b61437f565b348015610cee575f5ffd5b506103eb610cfd3660046157d8565b601160209081525f938452604080852082529284528284209052825290205460ff1681565b348015610d2d575f5ffd5b50610503610d3c36600461548f565b6144d2565b348015610d4c575f5ffd5b50610d60610d5b36600461546e565b614714565b6040516103f7949392919061584e565b348015610d7b575f5ffd5b506104ab610d8a366004615457565b60156020525f908152604090205481565b348015610da6575f5ffd5b50610e2f610db5366004615457565b604080516080810182525f808252602082018190529181018290526060810191909152505f90815260026020818152604092839020835160808101855281546001600160a01b039081168252600183015490811693820193909352600160a01b90920460ff16151593820193909352910154606082015290565b6040516103f7919081516001600160a01b039081168252602080840151909116908201526040808301511515908201526060918201519181019190915260800190565b5f6001600160e01b03198216637965db0b60e01b1480610ea257506301ffc9a760e01b6001600160e01b03198316145b92915050565b610ed160405180608001604052805f151581526020015f81526020015f81526020015f81525090565b505f91825260106020908152604080842063ffffffff939093168452918152918190208151608081018352815460ff161515815260018201549381019390935260028101549183019190915260030154606082015290565b5f828152600260205260409020546001600160a01b0316610f5d576040516315858c8d60e31b815260040160405180910390fd5b610f6f610f69836147d1565b33612f1f565b610f8b576040516282b42960e81b815260040160405180910390fd5b805f03610fab576040516310a571d160e31b815260040160405180910390fd5b5f8281526014602090815260409182902080549084905582518181529182018490529184917fb3e495fc3e71835a852989aa9b3d6b27f6b8d42624cb9b3cf02660a2398cc4f691015b60405180910390a2505050565b5f858152600260205260409020546001600160a01b0316611035576040516315858c8d60e31b815260040160405180910390fd5b611041610f69866147d1565b61105d576040516282b42960e81b815260040160405180910390fd5b5f8581526004602090815260408083206001600160a01b038816845290915281206002015490036110a157604051636567cc4d60e11b815260040160405180910390fd5b5f8581526004602090815260408083206001600160a01b03881684529091529020600301805460ff1916841515179055826110f9575f8581526008602090815260408083206001600160a01b03881684529091528120555b836001600160a01b0316855f516020615d1e5f395f51905f52858585604051611124939291906158a6565b60405180910390a35050505050565b6111916040518061012001604052805f8152602001606081526020015f6001600160a01b031681526020015f81526020015f151581526020015f81526020015f81526020015f63ffffffff1681526020015f63ffffffff1681525090565b5f838152600a60209081526040808320858452825291829020825161012081019093528054835260018101805491928401916111cc906158ca565b80601f01602080910402602001604051908101604052809291908181526020018280546111f8906158ca565b80156112435780601f1061121a57610100808354040283529160200191611243565b820191905f5260205f20905b81548152906001019060200180831161122657829003601f168201915b505050918352505060028201546001600160a01b0316602082015260038201546040820152600482015460ff161515606082015260058201546080820152600682015460a082015260079091015463ffffffff80821660c08401526401000000009091041660e0909101529392505050565b6112cc5f516020615cde5f395f51905f5233612f1f565b156112ea57604051630bfde4ab60e01b815260040160405180910390fd5b5f838152600260205260409020546001600160a01b031661131e576040516315858c8d60e31b815260040160405180910390fd5b5f83815260026020526040902060010154600160a01b900460ff1661135657604051633ae035b560e21b815260040160405180910390fd5b5f838152601460205260409020543410156113a2575f83815260146020526040908190205490516322df051360e11b815234600482015260248101919091526044015b60405180910390fd5b5f8381526004602090815260408083203384529091529020600201541515806113e657505f83815260046020908152604080832033845290915290206003015460ff165b156114045760405163781f2ed160e11b815260040160405180910390fd5b604051806080016040528084815260200183838080601f0160208091040260200160405190810160405280939291908181526020018383808284375f92018290525093855250503460208085019190915260016040948501819052888452600482528484203385528252939092208451815591840151919283019161148a91508261595a565b5060408281015160028301556060909201516003909101805460ff19169115159190911790555f848152600660209081528282203383529052205460ff1661151e575f8381526005602090815260408083208054600181810183559185528385200180546001600160a01b0319163390811790915587855260068452828520908552909252909120805460ff191690911790555b5f83815260086020908152604080832033808552925280832092909255905184907f89093fa8f3c791613d772d3d77195c6050e6b0d2f7915c934f7299c3e60e14d19061157090869086903490615a15565b60405180910390a3336001600160a01b0316835f516020615d1e5f395f51905f5260016040516115c29115158152604060208201819052600690820152651293d253915160d21b606082015260800190565b60405180910390a3505050565b5f828152602081905260409020600101546115e981614832565b6115f3838361483c565b50505050565b6001600160a01b03811633146116225760405163334bd91960e11b815260040160405180910390fd5b61162c82826148cb565b505050565b5f848152600260205260409020546001600160a01b0316611665576040516315858c8d60e31b815260040160405180910390fd5b5f8481526004602090815260408083206001600160a01b038716845290915290206003015460ff16156116ab57604051631ae4c62160e31b815260040160405180910390fd5b5f8481526004602090815260408083206001600160a01b038716845290915281206002015490036116ef5760405163e5e6218160e01b815260040160405180910390fd5b5f8481526008602090815260408083206001600160a01b03871684529091529020541561172f57604051633c10931960e21b815260040160405180910390fd5b5f8481526009602090815260408083206001600160a01b0387811685529252909120541633146117725760405163ce4f24bb60e01b815260040160405180910390fd5b5f8481526004602090815260408083203384529091529020600201541515806117b657505f84815260046020908152604080832033845290915290206003015460ff165b156117d457604051632f55c93160e11b815260040160405180910390fd5b5f8481526004602090815260408083206001600160a01b03871684528252808320815160808101909252805482526001810180549293919291840191611819906158ca565b80601f0160208091040260200160405190810160405280929190818152602001828054611845906158ca565b80156118905780601f1061186757610100808354040283529160200191611890565b820191905f5260205f20905b81548152906001019060200180831161187357829003601f168201915b50505091835250506002820154602082015260039091015460ff1615156040918201528101519091505f036118d857604051636567cc4d60e11b815260040160405180910390fd5b6040805160808101825286815260208381015181830190815284840151838501526060808601511515908401525f898152600483528481203382529092529290208151815591519091906001820190611931908261595a565b5060408281015160028301556060909201516003909101805460ff19169115159190911790555f868152600660209081528282203383529052205460ff166119c5575f8581526005602090815260408083208054600181810183559185528385200180546001600160a01b0319163390811790915589855260068452828520908552909252909120805460ff191690911790555b5f8581526007602090815260408083206001600160a01b03881680855290835281842054338086528386209190915589855260088452828520908552835281842084905588845260048352818420908452909152812081815590611a2c6001830182615157565b505f600282018190556003909101805460ff191690558581526007602090815260408083206001600160a01b038816808552908352818420849055888452600883528184208185528352818420849055888452600983528184208185529092529182902080546001600160a01b0319169055828201519151339288917fd9f8b9c3708d68f065bd3abc87d385dd96a656d93537a092b9612a9775bd631091611ad79189908990615a38565b60405180910390a46040515f90339087907f7e8f7689d5c1589dea13355ed1b30d2a11c050a08189c224a84103455f87036f908490a45050505050565b5f858152600260205260409020546001600160a01b0316611b48576040516315858c8d60e31b815260040160405180910390fd5b611b54610f69866147d1565b611b70576040516282b42960e81b815260040160405180910390fd5b6001600160a01b038316611b96576040516282b42960e81b815260040160405180910390fd5b818015611bb55750611bb55f516020615cde5f395f51905f5284612f1f565b15611bd357604051630bfde4ab60e01b815260040160405180910390fd5b8115611c5257600161ffff82161080611bf1575061010061ffff8216115b15611c0f57604051636005ea8760e11b815260040160405180910390fd5b5f85815260126020908152604080832063ffffffff8816845282528083206001600160a01b03871684529091529020805461ffff191661ffff8316179055611c8b565b5f85815260126020908152604080832063ffffffff8816845282528083206001600160a01b03871684529091529020805461ffff191690555b5f85815260116020908152604080832063ffffffff88168085529083528184206001600160a01b038816808652908452828520805460ff19168815159081179091558a865260128552838620838752855283862082875285529483902054835195865261ffff1693850193909352919288917fdef872ea7445739ffc07c56472edf8475b85cca6440175796472fbf2026f079d91015b60405180910390a45050505050565b611d38614934565b5f81815260086020908152604080832033845290915281205490819003611d7257604051631509a84360e11b815260040160405180910390fd5b80421015611d9657604051633a84e5cf60e01b815260048101829052602401611399565b5f82815260046020908152604080832033845290915281206002015490819003611dd357604051636567cc4d60e11b815260040160405180910390fd5b5f8381526004602090815260408083203380855290835281842060028101859055600301805460ff19169055868452600883528184208185529092528083208390555183908381818185875af1925050503d805f8114611e4e576040519150601f19603f3d011682016040523d82523d5f602084013e611e53565b606091505b5050905080611e7557604051630db2c7f160e31b815260040160405180910390fd5b604051828152339085907fc95c831f7facab10cbf2586454bb2cdaec5e9702311d8c3c3c2cc804a1abb4ca9060200160405180910390a3336001600160a01b0316845f516020615d1e5f395f51905f525f604051611ef7911515815260406020820181905260089082015267155394d51052d15160c21b606082015260800190565b60405180910390a3505050611f1860015f516020615cfe5f395f51905f5255565b50565b5f838152600260205260409020546001600160a01b0316611f4f576040516315858c8d60e31b815260040160405180910390fd5b611f5b610f69846147d1565b611f77576040516282b42960e81b815260040160405180910390fd5b81611f95576040516310a571d160e31b815260040160405180910390fd5b61ffff81161580611fab575061271061ffff8216115b15611fcf576040516332938fe960e21b815261ffff82166004820152602401611399565b5f838152601360209081526040808320858452825291829020805461ffff19811661ffff868116918217909355845192909116808352928201529091849186917fcb56c846dda3cc605bef1888996092a907b9919475bf7505bda8fa8c95123301910160405180910390a350505050565b600a60209081525f92835260408084209091529082529020805460018201805491929161206c906158ca565b80601f0160208091040260200160405190810160405280929190818152602001828054612098906158ca565b80156120e35780601f106120ba576101008083540402835291602001916120e3565b820191905f5260205f20905b8154815290600101906020018083116120c657829003601f168201915b5050506002840154600385015460048601546005870154600688015460079098015496976001600160a01b039094169692955060ff9091169350919063ffffffff8082169164010000000090041689565b5f848152600a60209081526040808320868452909152902060028101546001600160a01b0316612177576040516328193b9d60e21b815260040160405180910390fd5b612183610f698661494f565b15801561219d575060028101546001600160a01b03163314155b156121ba576040516282b42960e81b815260040160405180910390fd5b600481015460ff166121df5760405163499945c160e01b815260040160405180910390fd5b60048101805460ff191690556040513390859087907fc3cb92e8b6c0aebd791488f8d927216bf2ea5ede447d480f483c21865b04f1a190611d219088908890615a51565b61224d60405180608001604052805f8152602001606081526020015f81526020015f151581525090565b5f8381526004602090815260408083206001600160a01b0386168452825291829020825160808101909352805483526001810180549192840191612290906158ca565b80601f01602080910402602001604051908101604052809291908181526020018280546122bc906158ca565b80156123075780601f106122de57610100808354040283529160200191612307565b820191905f5260205f20905b8154815290600101906020018083116122ea57829003601f168201915b50505091835250506002820154602082015260039091015460ff1615156040909101529392505050565b5f516020615cde5f395f51905f5261234881614832565b83612366576040516310a571d160e31b815260040160405180910390fd5b5f6123746020840184615a6c565b6001600160a01b0316148061239057506001600160a01b038316155b156123ae57604051630e4607ed60e41b815260040160405180910390fd5b5f6123bf6040840160208501615a6c565b6001600160a01b031614806123eb57505f6123e06060840160408501615a6c565b6001600160a01b0316145b1561240957604051630e4607ed60e41b815260040160405180910390fd5b6124275f516020615cde5f395f51905f526109536020850185615a6c565b8061244e575061244e5f516020615cde5f395f51905f526109536040850160208601615a6c565b8061247557506124755f516020615cde5f395f51905f526109536060850160408601615a6c565b8061249257506124925f516020615cde5f395f51905f5284612f1f565b156124b057604051630bfde4ab60e01b815260040160405180910390fd5b81606001355f036124d4576040516310a571d160e31b815260040160405180910390fd5b81608001355f036124f8576040516310a571d160e31b815260040160405180910390fd5b5f848152600260205260409020546001600160a01b03161561252d576040516355ad509160e11b815260040160405180910390fd5b6040805160808101909152806125466020850185615a6c565b6001600160a01b03908116825285811660208084019190915260016040808501829052426060958601525f8a81526002808552828220885181549088166001600160a01b0319909116178155948801518585018054948a01511515600160a01b026001600160a81b0319909516919097161792909217909455949093015193019290925560038054918201815582527fc2575a0e9e593c00f959f8c92f12db2869c3395a3b0502d05e2516446f71f85b018590556126038561494f565b90505f61260f8661498b565b90505f61261b876147d1565b90506126338361262e6020880188615a6c565b61483c565b506126488261262e6040880160208901615a6c565b5061265d8161262e6060880160408901615a6c565b5061266883846149c9565b61267282846149c9565b61267c81846149c9565b5f8781526014602090815260408083206060890135905560158252909120608087013590556001600160a01b038716906126b890870187615a6c565b6001600160a01b0316887f76815c6c3d66579360681cc597126b11d4eaabe670b868db92df92d641a5965c60405160405180910390a450505050505050565b5f828152600260205260409020546001600160a01b031661272b576040516315858c8d60e31b815260040160405180910390fd5b612737610f698361494f565b612753576040516282b42960e81b815260040160405180910390fd5b6001600160a01b03811661277a57604051630e4607ed60e41b815260040160405180910390fd5b5f8281526002602052604080822060010180546001600160a01b031981166001600160a01b038681169182179093559251911692839186917f7e9441be41617a5403de8dfc31de5901f7525f4e4a606654266fa886d567f53f91a4505050565b6127e2614934565b82355f908152600260205260409020546001600160a01b0316612818576040516315858c8d60e31b815260040160405180910390fd5b82355f90815260026020526040902060010154600160a01b900460ff1661285257604051633ae035b560e21b815260040160405180910390fd5b8261010001354211156128785760405163df4cc36d60e01b815260040160405180910390fd5b82355f908152600a602090815260408083208287013584529091529020600201546001600160a01b0316156128c05760405163019b268b60e71b815260040160405180910390fd5b5f6128cc848484614a13565b90506128e55f516020615cde5f395f51905f5282612f1f565b1561290357604051630bfde4ab60e01b815260040160405180910390fd5b83355f9081526004602090815260408083206001600160a01b038516845290915281206002015490036129495760405163127225b560e11b815260040160405180910390fd5b83355f9081526004602090815260408083206001600160a01b038516845290915290206003015460ff1661299057604051631a8660cb60e01b815260040160405180910390fd5b83355f9081526007602090815260408083206001600160a01b038516845290915290205460e0850135146129d757604051638baa579f60e01b815260040160405180910390fd5b6040805161012081018252853581529060208201906129f890870187615a85565b8080601f0160208091040260200160405190810160405280939291908181526020018383808284375f920191909152505050908252506001600160a01b0383166020820152426040820152600160608083019190915286013560808083019190915286013560a08083019190915260c091820191612a7b91908801908801615ac8565b63ffffffff168152602001612a9660e0870160c08801615ac8565b63ffffffff16905284355f908152600a60209081526040808320828901358452825290912082518155908201516001820190612ad2908261595a565b506040828101516002830180546001600160a01b039283166001600160a01b031990911617905560608401516003840155608084015160048401805491151560ff1992831617905560a080860151600586015560c080870151600687015560e0870151600790960180546101009098015163ffffffff9081166401000000000267ffffffffffffffff199099169716969096179690961790945588355f818152600b6020908152858220818d0135808452908252868320958a16835294815285822080549094166001908117909455828252600c81528582209482529384528481209290925581526010909152908120909290918391612bd791908901908901615ac8565b63ffffffff16815260208082019290925260409081015f208151608081018352815460ff1615158082526001830154948201949094526002820154928101929092526003015460608201529150612c555784355f908152600f602090815260408083208289013584529091529020805460ff19166001179055612db4565b84355f90815260116020526040812090612c7560c0880160a08901615ac8565b63ffffffff16815260208082019290925260409081015f9081206001600160a01b038616825290925290205460ff168015612cda575060208082015186355f9081526004835260408082206001600160a01b0387168352909352919091206002015410155b15612db45784355f90815260126020526040812081612cff60c0890160a08a01615ac8565b63ffffffff16815260208082019290925260409081015f9081206001600160a01b038716825290925290205461ffff16905060018110801590612d48575061010061ffff821611155b15612db25785355f908152600d60209081526040808320828a01358452909152902060019055612d7781614bbe565b86355f818152600e60209081526040808320828c0135808552925290912092909255612db291612dad60c08a0160a08b01615ac8565b614bd9565b505b612dc360e08601356001615af5565b85355f8181526007602090815260408083206001600160a01b0388168085529252909120929092557f092b6bbc92673a71e1b53a3b945184caf28010a041d50f717734c740984858d460e0880135612e1c816001615af5565b6040805192835260208301919091520160405180910390a36001600160a01b038216602086013586357fd352cb361a4f142c2abad9421dd213ae4d4b7e836b57e422fbb6c0d6512632e4612e7360408a018a615a85565b60608b013560808c0135612e8d60c08e0160a08f01615ac8565b8d60c0016020810190612ea09190615ac8565b604051612eb296959493929190615b08565b60405180910390a4816001600160a01b03168560200135865f01357f1aa23f6aa7a78fe1f2e49edc378c1d7d45f3593993339beb9f6f9835f87517be6001604051612eff91815260200190565b60405180910390a4505061162c60015f516020615cfe5f395f51905f5255565b5f918252602082815260408084206001600160a01b0393909316845291905290205460ff1690565b5f516020615cde5f395f51905f52612f5e81614832565b5f838152600260205260409020546001600160a01b0316612f92576040516315858c8d60e31b815260040160405180910390fd5b5f83815260026020526040908190206001018054841515600160a01b0260ff60a01b199091161790555183907ff232ed796c7d121df062e0962438bf7a57d1fb9a2c6451caaf7e2695a963cfe690610ff490851515815260200190565b60038181548110612ffe575f80fd5b5f91825260209091200154905081565b5f838152600260205260409020546001600160a01b0316613042576040516315858c8d60e31b815260040160405180910390fd5b5f83815260046020908152604080832033845290915290206003015460ff1661307e57604051631a8660cb60e01b815260040160405180910390fd5b5f83815260046020908152604080832033845290915290206001016130a4828483615b46565b50336001600160a01b0316837f8313da849f3eb567d52489e0ba249ce302063096590f8d8b6025d5f7fec89ad984846040516115c2929190615a51565b6130e9614934565b82355f908152600260205260409020546001600160a01b031661311f576040516315858c8d60e31b815260040160405180910390fd5b82355f90815260026020526040902060010154600160a01b900460ff1661315957604051633ae035b560e21b815260040160405180910390fd5b826060013542111561317e5760405163df4cc36d60e01b815260040160405180910390fd5b82355f908152600a602090815260408083208287013584528252808320815161012081019092528054825260018101805492939192918401916131c0906158ca565b80601f01602080910402602001604051908101604052809291908181526020018280546131ec906158ca565b80156132375780601f1061320e57610100808354040283529160200191613237565b820191905f5260205f20905b81548152906001019060200180831161321a57829003601f168201915b505050918352505060028201546001600160a01b0390811660208301526003830154604080840191909152600484015460ff161515606084015260058401546080840152600684015460a084015260079093015463ffffffff80821660c08501526401000000009091041660e09092019190915290820151919250166132d0576040516328193b9d60e21b815260040160405180910390fd5b80608001516132f25760405163b863738b60e01b815260040160405180910390fd5b5f6132fe858585614d5d565b90506133175f516020615cde5f395f51905f5282612f1f565b1561333557604051630bfde4ab60e01b815260040160405180910390fd5b84355f9081526004602090815260408083206001600160a01b0385168452909152812060020154900361337b5760405163127225b560e11b815260040160405180910390fd5b84355f9081526004602090815260408083206001600160a01b038516845290915290206003015460ff166133c257604051631a8660cb60e01b815260040160405180910390fd5b84355f9081526007602090815260408083206001600160a01b03851684529091529081902054908601351461340a57604051638baa579f60e01b815260040160405180910390fd5b84355f908152600b6020908152604080832082890135845282528083206001600160a01b038516845290915290205460ff161561345a57604051630709bc1d60e31b815260040160405180910390fd5b84355f90815260106020908152604080832060e086015163ffffffff16845282528083208151608081018352815460ff16158015825260018301549482019490945260028201549281019290925260030154606082015291906134d1576134ce875f01358560e00151858560200151614dbb565b90505b86355f818152600b60209081526040808320828c01358085529083528184206001600160a01b03891685528352818420805460ff19166001908117909155948452600c8352818420908452909152812054909161352e9190615af5565b88355f908152600c60209081526040808320828d0135845290915290819020829055909150613561908901356001615af5565b88355f9081526007602090815260408083206001600160a01b03891684529091529020558251156135f35787355f908152600d60209081526040808320828c0135845290915281208054600192906135ba908490615af5565b909155505087355f818152600e60209081526040808320828d0135808552925290912080548517905560e08701516135f3929190614bd9565b6001600160a01b03841688357f092b6bbc92673a71e1b53a3b945184caf28010a041d50f717734c740984858d460408b0135613630816001615af5565b6040805192835260208301919091520160405180910390a3836001600160a01b03168860200135895f01357f1aa23f6aa7a78fe1f2e49edc378c1d7d45f3593993339beb9f6f9835f87517be8460405161368c91815260200190565b60405180910390a4505050505061162c60015f516020615cfe5f395f51905f5255565b5f868152600260205260409020546001600160a01b03166136e3576040516315858c8d60e31b815260040160405180910390fd5b6136ef610f69876147d1565b61370b576040516282b42960e81b815260040160405180910390fd5b838015613716575081155b8015613720575080155b1561373e57604051631cc23ed560e31b815260040160405180910390fd5b6040805160808101825285151581526020808201868152828401868152606084018681525f8c81526010855286812063ffffffff8d1680835295528690209451855490151560ff199091161785559151600185015551600284015551600390920191909155905187907ff0a24041e06d08c0414775769d1f217c906f14d760e3f298d16d2c64b2672d90906137f2908890889088908890931515845260208401929092526040830152606082015260800190565b60405180910390a3505050505050565b5f82815260056020526040812080548390811061382157613821615c00565b5f918252602090912001546001600160a01b03169392505050565b5f828152600260205260409020546001600160a01b0316613870576040516315858c8d60e31b815260040160405180910390fd5b5f82815260046020908152604080832033845290915290206003015460ff166138ac57604051631a8660cb60e01b815260040160405180910390fd5b6001600160a01b0381166138d357604051632f55c93160e11b815260040160405180910390fd5b336001600160a01b038216036138fc57604051632f55c93160e11b815260040160405180910390fd5b5f82815260096020908152604080832033808552925280832080546001600160a01b0319166001600160a01b0386169081179091559051909285917f7e8f7689d5c1589dea13355ed1b30d2a11c050a08189c224a84103455f87036f9190a45050565b5f6003828154811061397357613973615c00565b905f5260205f2001549050919050565b5f828152600260205260409020546001600160a01b03166139b7576040516315858c8d60e31b815260040160405180910390fd5b6139c3610f69836147d1565b6139df576040516282b42960e81b815260040160405180910390fd5b805f036139ff576040516310a571d160e31b815260040160405180910390fd5b5f8281526015602090815260409182902080549084905582518181529182018490529184917fac9a0b846eb7810e402bb79aeb08206ea6da2dc091e6775f62391fcf42df6cfc9101610ff4565b5f858152600260205260409020546001600160a01b0316613a80576040516315858c8d60e31b815260040160405180910390fd5b613a8c610f69866147d1565b613aa8576040516282b42960e81b815260040160405180910390fd5b5f8581526004602090815260408083206001600160a01b038816845290915290206003015460ff1615613aee57604051631ae4c62160e31b815260040160405180910390fd5b6001600160a01b0383161580613b155750836001600160a01b0316836001600160a01b0316145b15613b3357604051632f55c93160e11b815260040160405180910390fd5b5f8581526004602090815260408083206001600160a01b0387168452909152902060020154151580613b8957505f8581526004602090815260408083206001600160a01b038716845290915290206003015460ff165b15613ba757604051632f55c93160e11b815260040160405180910390fd5b5f8581526004602090815260408083206001600160a01b03881684528252808320815160808101909252805482526001810180549293919291840191613bec906158ca565b80601f0160208091040260200160405190810160405280929190818152602001828054613c18906158ca565b8015613c635780601f10613c3a57610100808354040283529160200191613c63565b820191905f5260205f20905b815481529060010190602001808311613c4657829003601f168201915b50505091835250506002820154602082015260039091015460ff1615156040918201528101519091505f03613cab57604051636567cc4d60e11b815260040160405180910390fd5b6040805160808101825287815260208381015181830190815284840151838501526060808601511515908401525f8a8152600483528481206001600160a01b038a1682529092529290208151815591519091906001820190613d0d908261595a565b5060408281015160028301556060909201516003909101805460ff19169115159190911790555f878152600660209081528282206001600160a01b03881683529052205460ff16613db3575f8681526005602090815260408083208054600180820183559185528385200180546001600160a01b0319166001600160a01b038a169081179091558a855260068452828520908552909252909120805460ff191690911790555b5f8681526007602090815260408083206001600160a01b0389811680865291845282852054908916808652838620919091558a855260088452828520908552835281842084905589845260048352818420908452909152812081815590613e1d6001830182615157565b505f600282018190556003909101805460ff191690558681526007602090815260408083206001600160a01b03808a168086529184528285208590558a85526008845282852082865284528285208590558a8552600984528285208286529093529281902080546001600160a01b0319169055838101519051918716929189917fd9f8b9c3708d68f065bd3abc87d385dd96a656d93537a092b9612a9775bd631091613ecd919089908990615a38565b60405180910390a46040515f906001600160a01b0386169088907f7e8f7689d5c1589dea13355ed1b30d2a11c050a08189c224a84103455f87036f908490a4505050505050565b5f82815260208190526040902060010154613f2e81614832565b6115f383836148cb565b5f818152600260205260409020546001600160a01b0316613f6c576040516315858c8d60e31b815260040160405180910390fd5b5f81815260046020908152604080832033845290915290206003015460ff16613fa857604051631a8660cb60e01b815260040160405180910390fd5b5f8181526004602090815260408083203384529091528120600201549003613fe357604051636567cc4d60e11b815260040160405180910390fd5b5f81815260156020526040812054613ffb9042615af5565b5f838152600860209081526040808320338085529083529281902084905551838152929350909184917f1e522a03c71586a099d51a73c0f68c1c799fed85c43cf290bcf7158d8b163ad2910160405180910390a35050565b61405b614934565b6001600160a01b0384163303614084576040516358f62b7160e11b815260040160405180910390fd5b5f858152600260205260409020546001600160a01b03166140b8576040516315858c8d60e31b815260040160405180910390fd5b6140c4610f698661498b565b6140e0576040516282b42960e81b815260040160405180910390fd5b5f8581526004602090815260408083206001600160a01b03881684529091528120600201549081900361412657604051636567cc4d60e11b815260040160405180910390fd5b5f86815260136020908152604080832087845290915281205461ffff1690819003614167576040516331deee5760e01b815260048101869052602401611399565b5f61271061417961ffff841685615c14565b6141839190615c2b565b9050805f03614190575060015b5f61419b8285615c4a565b5f8a81526004602090815260408083206001600160a01b038d168085529083528184206002018590558d84526008835281842090845282528083208390558c83526014909152902054909150811015614291575f8981526004602090815260408083206001600160a01b038c16808552908352818420600301805460ff191690558c845260098352818420818552835281842080546001600160a01b03191690558151938452918301819052601c908301527f534f46545f534c41534845445f42454c4f575f4d494e5f5354414b45000000006060830152908a905f516020615d1e5f395f51905f529060800160405180910390a35b5f898152600260205260408082206001015490516001600160a01b039091169084908381818185875af1925050503d805f81146142e9576040519150601f19603f3d011682016040523d82523d5f602084013e6142ee565b606091505b505090508061431057604051630db2c7f160e31b815260040160405180910390fd5b87896001600160a01b03168b7fe7a3bd933c3f07d41c0cb8538135a0a594505125738765a878a693108558ac3b878787338e8e60405161435596959493929190615c5d565b60405180910390a4505050505061437860015f516020615cfe5f395f51905f5255565b5050505050565b5f818152600260205260409020546001600160a01b03166143b3576040516315858c8d60e31b815260040160405180910390fd5b5f81815260046020908152604080832033845290915281206002015490036143ee5760405163127225b560e11b815260040160405180910390fd5b5f81815260046020908152604080832033845290915290206003015460ff1661442a57604051631a8660cb60e01b815260040160405180910390fd5b345f0361444a57604051636567cc4d60e11b815260040160405180910390fd5b5f81815260046020908152604080832033845290915281206002018054349290614475908490615af5565b90915550505f81815260046020908152604080832033808552908352928190206002015481513481529283015283917f98354ada0e4b6a8410fec2063480eb039a321691ae42acf10b9ad333b092672f910160405180910390a350565b6144da614934565b5f848152600260205260409020546001600160a01b031661450e576040516315858c8d60e31b815260040160405180910390fd5b61451a610f698561498b565b614536576040516282b42960e81b815260040160405180910390fd5b5f8481526004602090815260408083206001600160a01b03871684529091528120600201549081900361457c57604051636567cc4d60e11b815260040160405180910390fd5b5f8581526004602090815260408083206001600160a01b0388811680865291845282852060038101805460ff1916905560029081018690558a86526008855283862083875285528386208690558a86526009855283862092865291845282852080546001600160a01b0319169055898552925280832060010154905191169083908381818185875af1925050503d805f8114614633576040519150601f19603f3d011682016040523d82523d5f602084013e614638565b606091505b505090508061465a57604051630db2c7f160e31b815260040160405180910390fd5b336001600160a01b0316856001600160a01b0316877f175ef2f76f006472eb75e90808dc704bb073491330e002ec9e017969699c14ca8588886040516146a293929190615a38565b60405180910390a4846001600160a01b0316865f516020615d1e5f395f51905f525f6040516146f491151581526040602082018190526007908201526614d31054d2115160ca1b606082015260800190565b60405180910390a350506115f360015f516020615cfe5f395f51905f5255565b600460209081525f928352604080842090915290825290208054600182018054919291614740906158ca565b80601f016020809104026020016040519081016040528092919081815260200182805461476c906158ca565b80156147b75780601f1061478e576101008083540402835291602001916147b7565b820191905f5260205f20905b81548152906001019060200180831161479a57829003601f168201915b50505050600283015460039093015491929160ff16905084565b6040805160208101829052601c60608201527f54454e414e545f4f50455241544f525f4d414e414745525f524f4c450000000060808201529081018290525f9060a0015b604051602081830303815290604052805190602001209050919050565b611f188133614ef8565b5f6148478383612f1f565b6148c4575f838152602081815260408083206001600160a01b03861684529091529020805460ff1916600117905561487c3390565b6001600160a01b0316826001600160a01b0316847f2f8788117e7eff1d82e926ec794901d17c78024a50270940304540a733656f0d60405160405180910390a4506001610ea2565b505f610ea2565b5f6148d68383612f1f565b156148c4575f838152602081815260408083206001600160a01b0386168085529252808320805460ff1916905551339286917ff6391f5c32d9c69d2a47ea670b442974b53935d1edc7fd64eb21e047a839171b9190a4506001610ea2565b61493c614f35565b60025f516020615cfe5f395f51905f5255565b6040805160208101829052601160608201527054454e414e545f41444d494e5f524f4c4560781b60808201529081018290525f9060a001614815565b6040805160208101829052601360608201527254454e414e545f534c41534845525f524f4c4560681b60808201529081018290525f9060a001614815565b5f82815260208190526040808220600101805490849055905190918391839186917fbd79b86ffe0ab8e8776151514217cd7cacd52c909f66475c3af44e129f0b00ff9190a4505050565b5f807f5a2a29527149cfad2193f6f6cc0087ff61ae917e661c07c22456d63a5183659c85356020870135614a4a6040890189615a85565b604051614a58929190615ca0565b604051908190039020606089013560808a0135614a7b60c08c0160a08d01615ac8565b614a8b60e08d0160c08e01615ac8565b6040805160208101999099528801969096526060870194909452608086019290925260a085015260c084015263ffffffff90811660e08481019190915291166101008381019190915290870135610120830152860135610140820152610160015b6040516020818303038152906040528051906020012090505f614b497f00000000000000000000000000000000000000000000000000000000000000008360405161190160f01b8152600281019290925260228201526042902090565b9050614b8c85858080601f0160208091040260200160405190810160405280939291908181526020018383808284375f920191909152508593925050614f669050565b92506001600160a01b038316614bb557604051638baa579f60e01b815260040160405180910390fd5b50509392505050565b5f614bca600183615caf565b61ffff166001901b9050919050565b5f838152600f6020908152604080832085845290915290205460ff1615614bff57505050565b5f83815260106020908152604080832063ffffffff851684528252918290208251608081018452815460ff161515808252600183015493820193909352600282015493810193909352600301546060830152614c7c5750505f918252600f602090815260408084209284529190529020805460ff19166001179055565b6040808201515f868152600d60209081528382208783528152838220546060860151898452600e8352858420898552909252939091205491909210801592918216909114908290614cca5750805b15614d55575f868152600f602090815260408083208884528252808320805460ff19166001179055888352600d8252808320888452825280832054898452600e835281842089855290925291829020549151879289927faddff4259d1ed72121575a0a8627d986e7e63da19e837c06d33a958c61e73032926137f29290918252602082015260400190565b505050505050565b604080517f362c00056d2ad738d0353633a51831825692201225c7f50e6206735b03e575e06020828101919091528535828401528501356060828101919091529185013560808201529084013560a08201525f90819060c001614aec565b5f84815260116020908152604080832063ffffffff8716845282528083206001600160a01b038616845290915281205460ff16614e0b5760405163fbf23f3360e01b815260040160405180910390fd5b5f8581526004602090815260408083206001600160a01b0387168452909152902060020154821115614e7f575f8581526004602081815260408084206001600160a01b03881685529091529182902060020154915162c09e3560e81b81526113999291859101918252602082015260400190565b5f85815260126020908152604080832063ffffffff8816845282528083206001600160a01b038716845290915290205461ffff166001811080614ec7575061010061ffff8216115b15614ee557604051636005ea8760e11b815260040160405180910390fd5b614eee81614bbe565b9695505050505050565b614f028282612f1f565b614f315760405163e2517d3f60e01b81526001600160a01b038216600482015260248101839052604401611399565b5050565b5f516020615cfe5f395f51905f5254600203614f6457604051633ee5aeb560e01b815260040160405180910390fd5b565b5f5f5f5f614f748686614f8e565b925092509250614f848282614fd7565b5090949350505050565b5f5f5f8351604103614fc5576020840151604085015160608601515f1a614fb78882858561508f565b955095509550505050614fd0565b505081515f91506002905b9250925092565b5f826003811115614fea57614fea615cc9565b03614ff3575050565b600182600381111561500757615007615cc9565b036150255760405163f645eedf60e01b815260040160405180910390fd5b600282600381111561503957615039615cc9565b0361505a5760405163fce698f760e01b815260048101829052602401611399565b600382600381111561506e5761506e615cc9565b03614f31576040516335e2f38360e21b815260048101829052602401611399565b5f80807f7fffffffffffffffffffffffffffffff5d576e7357a4501ddfe92f46681b20a08411156150c857505f9150600390508261514d565b604080515f808252602082018084528a905260ff891692820192909252606081018790526080810186905260019060a0016020604051602081039080840390855afa158015615119573d5f5f3e3d5ffd5b5050604051601f1901519150506001600160a01b03811661514457505f92506001915082905061514d565b92505f91508190505b9450945094915050565b508054615163906158ca565b5f825580601f10615172575050565b601f0160209004905f5260205f2090810190611f1891905b8082111561519d575f815560010161518a565b5090565b80356001600160a01b03811681146151b7575f5ffd5b919050565b5f5f5f606084860312156151ce575f5ffd5b83359250602084013591506151e5604085016151a1565b90509250925092565b5f602082840312156151fe575f5ffd5b81356001600160e01b031981168114615215575f5ffd5b9392505050565b803563ffffffff811681146151b7575f5ffd5b5f5f60408385031215615240575f5ffd5b823591506152506020840161521c565b90509250929050565b5f5f6040838503121561526a575f5ffd5b50508035926020909101359150565b803580151581146151b7575f5ffd5b5f5f83601f840112615298575f5ffd5b50813567ffffffffffffffff8111156152af575f5ffd5b6020830191508360208285010111156152c6575f5ffd5b9250929050565b5f5f5f5f5f608086880312156152e1575f5ffd5b853594506152f1602087016151a1565b93506152ff60408701615279565b9250606086013567ffffffffffffffff81111561531a575f5ffd5b61532688828901615288565b969995985093965092949392505050565b5f81518084528060208401602086015e5f602082860101526020601f19601f83011685010191505092915050565b60208152815160208201525f6020830151610120604084015261538c610140840182615337565b905060408401516153a860608501826001600160a01b03169052565b506060840151608084015260808401516153c660a085018215159052565b5060a084015160c084015260c084015160e084015260e08401516153f361010085018263ffffffff169052565b5061010084015163ffffffff8116610120850152509392505050565b5f5f5f60408486031215615421575f5ffd5b83359250602084013567ffffffffffffffff81111561543e575f5ffd5b61544a86828701615288565b9497909650939450505050565b5f60208284031215615467575f5ffd5b5035919050565b5f5f6040838503121561547f575f5ffd5b82359150615250602084016151a1565b5f5f5f5f606085870312156154a2575f5ffd5b843593506154b2602086016151a1565b9250604085013567ffffffffffffffff8111156154cd575f5ffd5b6154d987828801615288565b95989497509550505050565b803561ffff811681146151b7575f5ffd5b5f5f5f5f5f60a0868803121561550a575f5ffd5b8535945061551a6020870161521c565b9350615528604087016151a1565b925061553660608701615279565b9150615544608087016154e5565b90509295509295909350565b5f5f5f60608486031215615562575f5ffd5b83359250602084013591506151e5604085016154e5565b89815261012060208201525f61559361012083018b615337565b6001600160a01b03999099166040830152506060810196909652931515608086015260a085019290925260c084015263ffffffff90811660e0840152166101009091015292915050565b5f5f5f5f606085870312156155f0575f5ffd5b8435935060208501359250604085013567ffffffffffffffff8111156154cd575f5ffd5b60208152815160208201525f60208301516080604084015261563960a0840182615337565b9050604084015160608401526060840151151560808401528091505092915050565b5f5f5f83850360e081121561566e575f5ffd5b8435935061567e602086016151a1565b925060a0603f1982011215615691575f5ffd5b506040840190509250925092565b5f5f5f604084860312156156b1575f5ffd5b833567ffffffffffffffff8111156156c7575f5ffd5b840161012081870312156156d9575f5ffd5b9250602084013567ffffffffffffffff81111561543e575f5ffd5b5f5f60408385031215615705575f5ffd5b8235915061525060208401615279565b5f5f5f83850360a0811215615728575f5ffd5b6080811215615735575f5ffd5b50839250608084013567ffffffffffffffff81111561543e575f5ffd5b5f5f5f5f5f5f60c08789031215615767575f5ffd5b863595506157776020880161521c565b945061578560408801615279565b959894975094956060810135955060808101359460a0909101359350915050565b5f5f5f5f5f608086880312156157ba575f5ffd5b853594506157ca602087016151a1565b93506152ff604087016151a1565b5f5f5f606084860312156157ea575f5ffd5b833592506157fa6020850161521c565b91506151e5604085016151a1565b5f5f5f5f5f6080868803121561581c575f5ffd5b8535945061582c602087016151a1565b935060408601359250606086013567ffffffffffffffff81111561531a575f5ffd5b848152608060208201525f6158666080830186615337565b60408301949094525090151560609091015292915050565b81835281816020850137505f828201602090810191909152601f909101601f19169091010190565b8315158152604060208201525f6158c160408301848661587e565b95945050505050565b600181811c908216806158de57607f821691505b6020821081036158fc57634e487b7160e01b5f52602260045260245ffd5b50919050565b634e487b7160e01b5f52604160045260245ffd5b601f82111561162c57805f5260205f20601f840160051c8101602085101561593b5750805b601f840160051c820191505b81811015614378575f8155600101615947565b815167ffffffffffffffff81111561597457615974615902565b6159888161598284546158ca565b84615916565b6020601f8211600181146159ba575f83156159a35750848201515b5f19600385901b1c1916600184901b178455614378565b5f84815260208120601f198516915b828110156159e957878501518255602094850194600190920191016159c9565b5084821015615a0657868401515f19600387901b60f8161c191681555b50505050600190811b01905550565b604081525f615a2860408301858761587e565b9050826020830152949350505050565b838152604060208201525f6158c160408301848661587e565b602081525f615a6460208301848661587e565b949350505050565b5f60208284031215615a7c575f5ffd5b615215826151a1565b5f5f8335601e19843603018112615a9a575f5ffd5b83018035915067ffffffffffffffff821115615ab4575f5ffd5b6020019150368190038213156152c6575f5ffd5b5f60208284031215615ad8575f5ffd5b6152158261521c565b634e487b7160e01b5f52601160045260245ffd5b80820180821115610ea257610ea2615ae1565b60a081525f615b1b60a08301888a61587e565b602083019690965250604081019390935263ffffffff91821660608401521660809091015292915050565b67ffffffffffffffff831115615b5e57615b5e615902565b615b7283615b6c83546158ca565b83615916565b5f601f841160018114615ba3575f8515615b8c5750838201355b5f19600387901b1c1916600186901b178355614378565b5f83815260208120601f198716915b82811015615bd25786850135825560209485019460019092019101615bb2565b5086821015615bee575f1960f88860031b161c19848701351681555b505060018560011b0183555050505050565b634e487b7160e01b5f52603260045260245ffd5b8082028115828204841417610ea257610ea2615ae1565b5f82615c4557634e487b7160e01b5f52601260045260245ffd5b500490565b81810381811115610ea257610ea2615ae1565b61ffff8716815285602082015284604082015260018060a01b038416606082015260a060808201525f615c9460a08301848661587e565b98975050505050505050565b818382375f9101908152919050565b61ffff8281168282160390811115610ea257610ea2615ae1565b634e487b7160e01b5f52602160045260245ffdfed0c934f24ef5a377dc3832429ce607cbe940a3ca3c6cd7e532bd35b4b212d1969b779b17422d0df92223018b32b4d1fa46e071723d6817e2486d003becc55f00c974b626665c0d05de92a6d1c80baa1fecf1d44a7fe6c4fb1dcbe04cddebb540a2646970667358221220280f4b65b29a3847dbec0632d9bfe2aae3d67d48657e7908e3a31aab0919e9c464736f6c634300081c0033",
  "linkReferences": {},
  "deployedLinkReferences": {},
  "immutableReferences": {
    "7604": [
      {
        "length": 32,
        "start": 19210
      }
    ]
  },
  "inputSourceName": "project/contracts/VoucherProtocol.sol",
  "buildInfoId": "solc-0_8_28-b1b881de3de83780a3bbd782384c2c4d27395709"
}