{
  "_format": "hh3-artifact-1",
  "contractName": "VoucherProtocol",
  "sourceName": "contracts/VoucherProtocol.sol",
  "abi": [
    {
      "inputs": [],
      "stateMutability": "nonpayable",
      "type": "constructor"
    },
    {
      "inputs": [],
      "name": "AccessControlBadConfirmation",
      "type": "error"
    },
    {
      "inputs": [
        {
          "internalType": "address",
          "name": "account",
          "type": "address"
        },
        {
          "internalType": "bytes32",
          "name": "neededRole",
          "type": "bytes32"
        }
      ],
      "name": "AccessControlUnauthorizedAccount",
      "type": "error"
    },
    {
      "inputs": [],
      "name": "AlreadyCoSigned",
      "type": "error"
    },
    {
      "inputs": [],
      "name": "CannotSlashYourself",
      "type": "error"
    },
    {
      "inputs": [],
      "name": "CoSignerNotWhitelisted",
      "type": "error"
    },
    {
      "inputs": [],
      "name": "DocumentAlreadyExists",
      "type": "error"
    },
    {
      "inputs": [],
      "name": "DocumentAlreadyRevoked",
      "type": "error"
    },
    {
      "inputs": [],
      "name": "DocumentNotFound",
      "type": "error"
    },
    {
      "inputs": [],
      "name": "DocumentNotValid",
      "type": "error"
    },
    {
      "inputs": [],
      "name": "EthTransferFailed",
      "type": "error"
    },
    {
      "inputs": [],
      "name": "ExpiredSignature",
      "type": "error"
    },
    {
      "inputs": [
        {
          "internalType": "uint256",
          "name": "currentStake",
          "type": "uint256"
        },
        {
          "internalType": "uint256",
          "name": "requiredStake",
          "type": "uint256"
        }
      ],
      "name": "InsufficientCoSignStake",
      "type": "error"
    },
    {
      "inputs": [
        {
          "internalType": "uint256",
          "name": "sent",
          "type": "uint256"
        },
        {
          "internalType": "uint256",
          "name": "required",
          "type": "uint256"
        }
      ],
      "name": "InsufficientStake",
      "type": "error"
    },
    {
      "inputs": [],
      "name": "InvalidCoSignPolicy",
      "type": "error"
    },
    {
      "inputs": [],
      "name": "InvalidCoSignRole",
      "type": "error"
    },
    {
      "inputs": [],
      "name": "InvalidConfigValue",
      "type": "error"
    },
    {
      "inputs": [],
      "name": "InvalidOperatorAddress",
      "type": "error"
    },
    {
      "inputs": [
        {
          "internalType": "uint16",
          "name": "provided",
          "type": "uint16"
        }
      ],
      "name": "InvalidPenaltyBps",
      "type": "error"
    },
    {
      "inputs": [],
      "name": "InvalidRecoveryTarget",
      "type": "error"
    },
    {
      "inputs": [],
      "name": "InvalidSignature",
      "type": "error"
    },
    {
      "inputs": [],
      "name": "InvalidTenantAddress",
      "type": "error"
    },
    {
      "inputs": [],
      "name": "NoPendingUnstake",
      "type": "error"
    },
    {
      "inputs": [],
      "name": "NoStake",
      "type": "error"
    },
    {
      "inputs": [],
      "name": "NoStakeToRecover",
      "type": "error"
    },
    {
      "inputs": [],
      "name": "OperatorAlreadyActive",
      "type": "error"
    },
    {
      "inputs": [],
      "name": "OperatorNotActive",
      "type": "error"
    },
    {
      "inputs": [],
      "name": "OperatorNotInTenant",
      "type": "error"
    },
    {
      "inputs": [],
      "name": "OperatorNotLost",
      "type": "error"
    },
    {
      "inputs": [
        {
          "internalType": "bytes32",
          "name": "violationCode",
          "type": "bytes32"
        }
      ],
      "name": "PenaltyNotConfigured",
      "type": "error"
    },
    {
      "inputs": [],
      "name": "ProtocolAdminCannotHaveOtherRoles",
      "type": "error"
    },
    {
      "inputs": [],
      "name": "RecoveryNotAllowed",
      "type": "error"
    },
    {
      "inputs": [],
      "name": "ReentrancyGuardReentrantCall",
      "type": "error"
    },
    {
      "inputs": [],
      "name": "TenantAlreadyExists",
      "type": "error"
    },
    {
      "inputs": [],
      "name": "TenantInactive",
      "type": "error"
    },
    {
      "inputs": [],
      "name": "TenantNotFound",
      "type": "error"
    },
    {
      "inputs": [],
      "name": "TenantRoleConflict",
      "type": "error"
    },
    {
      "inputs": [],
      "name": "Unauthorized",
      "type": "error"
    },
    {
      "inputs": [],
      "name": "UnstakeInProgress",
      "type": "error"
    },
    {
      "inputs": [
        {
          "internalType": "uint256",
          "name": "readyAt",
          "type": "uint256"
        }
      ],
      "name": "UnstakeNotReady",
      "type": "error"
    },
    {
      "anonymous": false,
      "inputs": [
        {
          "indexed": true,
          "internalType": "bytes32",
          "name": "tenantId",
          "type": "bytes32"
        },
        {
          "indexed": true,
          "internalType": "uint32",
          "name": "docType",
          "type": "uint32"
        },
        {
          "indexed": true,
          "internalType": "address",
          "name": "operator",
          "type": "address"
        },
        {
          "indexed": false,
          "internalType": "bool",
          "name": "whitelisted",
          "type": "bool"
        },
        {
          "indexed": false,
          "internalType": "uint16",
          "name": "roleId",
          "type": "uint16"
        }
      ],
      "name": "CoSignOperatorConfigured",
      "type": "event"
    },
    {
      "anonymous": false,
      "inputs": [
        {
          "indexed": true,
          "internalType": "bytes32",
          "name": "tenantId",
          "type": "bytes32"
        },
        {
          "indexed": true,
          "internalType": "uint32",
          "name": "docType",
          "type": "uint32"
        },
        {
          "indexed": false,
          "internalType": "bool",
          "name": "enabled",
          "type": "bool"
        },
        {
          "indexed": false,
          "internalType": "uint256",
          "name": "minStake",
          "type": "uint256"
        },
        {
          "indexed": false,
          "internalType": "uint256",
          "name": "minSigners",
          "type": "uint256"
        },
        {
          "indexed": false,
          "internalType": "uint256",
          "name": "requiredRoleMask",
          "type": "uint256"
        }
      ],
      "name": "CoSignPolicyUpdated",
      "type": "event"
    },
    {
      "anonymous": false,
      "inputs": [
        {
          "indexed": true,
          "internalType": "bytes32",
          "name": "tenantId",
          "type": "bytes32"
        },
        {
          "indexed": true,
          "internalType": "bytes32",
          "name": "fileHash",
          "type": "bytes32"
        },
        {
          "indexed": false,
          "internalType": "string",
          "name": "cid",
          "type": "string"
        },
        {
          "indexed": true,
          "internalType": "address",
          "name": "issuer",
          "type": "address"
        },
        {
          "indexed": false,
          "internalType": "bytes32",
          "name": "ciphertextHash",
          "type": "bytes32"
        },
        {
          "indexed": false,
          "internalType": "bytes32",
          "name": "encryptionMetaHash",
          "type": "bytes32"
        },
        {
          "indexed": false,
          "internalType": "uint32",
          "name": "docType",
          "type": "uint32"
        },
        {
          "indexed": false,
          "internalType": "uint32",
          "name": "version",
          "type": "uint32"
        }
      ],
      "name": "DocumentAnchored",
      "type": "event"
    },
    {
      "anonymous": false,
      "inputs": [
        {
          "indexed": true,
          "internalType": "bytes32",
          "name": "tenantId",
          "type": "bytes32"
        },
        {
          "indexed": true,
          "internalType": "bytes32",
          "name": "fileHash",
          "type": "bytes32"
        },
        {
          "indexed": false,
          "internalType": "uint256",
          "name": "trustedSigners",
          "type": "uint256"
        },
        {
          "indexed": false,
          "internalType": "uint256",
          "name": "roleMask",
          "type": "uint256"
        }
      ],
      "name": "DocumentCoSignQualified",
      "type": "event"
    },
    {
      "anonymous": false,
      "inputs": [
        {
          "indexed": true,
          "internalType": "bytes32",
          "name": "tenantId",
          "type": "bytes32"
        },
        {
          "indexed": true,
          "internalType": "bytes32",
          "name": "fileHash",
          "type": "bytes32"
        },
        {
          "indexed": true,
          "internalType": "address",
          "name": "signer",
          "type": "address"
        },
        {
          "indexed": false,
          "internalType": "uint256",
          "name": "totalSigners",
          "type": "uint256"
        }
      ],
      "name": "DocumentCoSigned",
      "type": "event"
    },
    {
      "anonymous": false,
      "inputs": [
        {
          "indexed": true,
          "internalType": "bytes32",
          "name": "tenantId",
          "type": "bytes32"
        },
        {
          "indexed": true,
          "internalType": "bytes32",
          "name": "fileHash",
          "type": "bytes32"
        },
        {
          "indexed": true,
          "internalType": "address",
          "name": "revoker",
          "type": "address"
        },
        {
          "indexed": false,
          "internalType": "string",
          "name": "reason",
          "type": "string"
        }
      ],
      "name": "DocumentRevoked",
      "type": "event"
    },
    {
      "anonymous": false,
      "inputs": [
        {
          "indexed": true,
          "internalType": "bytes32",
          "name": "tenantId",
          "type": "bytes32"
        },
        {
          "indexed": false,
          "internalType": "uint256",
          "name": "oldValue",
          "type": "uint256"
        },
        {
          "indexed": false,
          "internalType": "uint256",
          "name": "newValue",
          "type": "uint256"
        }
      ],
      "name": "MinOperatorStakeUpdated",
      "type": "event"
    },
    {
      "anonymous": false,
      "inputs": [
        {
          "indexed": true,
          "internalType": "bytes32",
          "name": "tenantId",
          "type": "bytes32"
        },
        {
          "indexed": true,
          "internalType": "address",
          "name": "signer",
          "type": "address"
        },
        {
          "indexed": false,
          "internalType": "uint256",
          "name": "oldNonce",
          "type": "uint256"
        },
        {
          "indexed": false,
          "internalType": "uint256",
          "name": "newNonce",
          "type": "uint256"
        }
      ],
      "name": "NonceConsumed",
      "type": "event"
    },
    {
      "anonymous": false,
      "inputs": [
        {
          "indexed": true,
          "internalType": "bytes32",
          "name": "tenantId",
          "type": "bytes32"
        },
        {
          "indexed": true,
          "internalType": "address",
          "name": "operator",
          "type": "address"
        },
        {
          "indexed": false,
          "internalType": "string",
          "name": "metadata",
          "type": "string"
        },
        {
          "indexed": false,
          "internalType": "uint256",
          "name": "stake",
          "type": "uint256"
        }
      ],
      "name": "OperatorJoined",
      "type": "event"
    },
    {
      "anonymous": false,
      "inputs": [
        {
          "indexed": true,
          "internalType": "bytes32",
          "name": "tenantId",
          "type": "bytes32"
        },
        {
          "indexed": true,
          "internalType": "address",
          "name": "operator",
          "type": "address"
        },
        {
          "indexed": false,
          "internalType": "string",
          "name": "metadataURI",
          "type": "string"
        }
      ],
      "name": "OperatorMetadataUpdated",
      "type": "event"
    },
    {
      "anonymous": false,
      "inputs": [
        {
          "indexed": true,
          "internalType": "bytes32",
          "name": "tenantId",
          "type": "bytes32"
        },
        {
          "indexed": true,
          "internalType": "address",
          "name": "oldOperator",
          "type": "address"
        },
        {
          "indexed": true,
          "internalType": "address",
          "name": "newOperator",
          "type": "address"
        },
        {
          "indexed": false,
          "internalType": "uint256",
          "name": "stakeAmount",
          "type": "uint256"
        },
        {
          "indexed": false,
          "internalType": "string",
          "name": "reason",
          "type": "string"
        }
      ],
      "name": "OperatorRecovered",
      "type": "event"
    },
    {
      "anonymous": false,
      "inputs": [
        {
          "indexed": true,
          "internalType": "bytes32",
          "name": "tenantId",
          "type": "bytes32"
        },
        {
          "indexed": true,
          "internalType": "address",
          "name": "oldOperator",
          "type": "address"
        },
        {
          "indexed": true,
          "internalType": "address",
          "name": "newOperator",
          "type": "address"
        },
        {
          "indexed": false,
          "internalType": "address",
          "name": "rootOperator",
          "type": "address"
        }
      ],
      "name": "OperatorRecoveryAliasUpdated",
      "type": "event"
    },
    {
      "anonymous": false,
      "inputs": [
        {
          "indexed": true,
          "internalType": "bytes32",
          "name": "tenantId",
          "type": "bytes32"
        },
        {
          "indexed": true,
          "internalType": "address",
          "name": "operator",
          "type": "address"
        },
        {
          "indexed": true,
          "internalType": "address",
          "name": "delegate",
          "type": "address"
        }
      ],
      "name": "OperatorRecoveryDelegateUpdated",
      "type": "event"
    },
    {
      "anonymous": false,
      "inputs": [
        {
          "indexed": true,
          "internalType": "bytes32",
          "name": "tenantId",
          "type": "bytes32"
        },
        {
          "indexed": true,
          "internalType": "address",
          "name": "operator",
          "type": "address"
        },
        {
          "indexed": false,
          "internalType": "uint256",
          "name": "amount",
          "type": "uint256"
        },
        {
          "indexed": true,
          "internalType": "address",
          "name": "slasher",
          "type": "address"
        },
        {
          "indexed": false,
          "internalType": "string",
          "name": "reason",
          "type": "string"
        }
      ],
      "name": "OperatorSlashed",
      "type": "event"
    },
    {
      "anonymous": false,
      "inputs": [
        {
          "indexed": true,
          "internalType": "bytes32",
          "name": "tenantId",
          "type": "bytes32"
        },
        {
          "indexed": true,
          "internalType": "address",
          "name": "operator",
          "type": "address"
        },
        {
          "indexed": true,
          "internalType": "bytes32",
          "name": "violationCode",
          "type": "bytes32"
        },
        {
          "indexed": false,
          "internalType": "uint16",
          "name": "penaltyBps",
          "type": "uint16"
        },
        {
          "indexed": false,
          "internalType": "uint256",
          "name": "slashedAmount",
          "type": "uint256"
        },
        {
          "indexed": false,
          "internalType": "uint256",
          "name": "remainingStake",
          "type": "uint256"
        },
        {
          "indexed": false,
          "internalType": "address",
          "name": "slasher",
          "type": "address"
        },
        {
          "indexed": false,
          "internalType": "string",
          "name": "reason",
          "type": "string"
        }
      ],
      "name": "OperatorSoftSlashed",
      "type": "event"
    },
    {
      "anonymous": false,
      "inputs": [
        {
          "indexed": true,
          "internalType": "bytes32",
          "name": "tenantId",
          "type": "bytes32"
        },
        {
          "indexed": true,
          "internalType": "address",
          "name": "operator",
          "type": "address"
        },
        {
          "indexed": false,
          "internalType": "uint256",
          "name": "amount",
          "type": "uint256"
        },
        {
          "indexed": false,
          "internalType": "uint256",
          "name": "totalStake",
          "type": "uint256"
        }
      ],
      "name": "OperatorStakeToppedUp",
      "type": "event"
    },
    {
      "anonymous": false,
      "inputs": [
        {
          "indexed": true,
          "internalType": "bytes32",
          "name": "tenantId",
          "type": "bytes32"
        },
        {
          "indexed": true,
          "internalType": "address",
          "name": "operator",
          "type": "address"
        },
        {
          "indexed": false,
          "internalType": "bool",
          "name": "isActive",
          "type": "bool"
        },
        {
          "indexed": false,
          "internalType": "string",
          "name": "reason",
          "type": "string"
        }
      ],
      "name": "OperatorStatusUpdated",
      "type": "event"
    },
    {
      "anonymous": false,
      "inputs": [
        {
          "indexed": true,
          "internalType": "bytes32",
          "name": "tenantId",
          "type": "bytes32"
        },
        {
          "indexed": true,
          "internalType": "address",
          "name": "operator",
          "type": "address"
        },
        {
          "indexed": false,
          "internalType": "uint256",
          "name": "availableAt",
          "type": "uint256"
        }
      ],
      "name": "OperatorUnstakeRequested",
      "type": "event"
    },
    {
      "anonymous": false,
      "inputs": [
        {
          "indexed": true,
          "internalType": "bytes32",
          "name": "tenantId",
          "type": "bytes32"
        },
        {
          "indexed": true,
          "internalType": "address",
          "name": "operator",
          "type": "address"
        },
        {
          "indexed": false,
          "internalType": "uint256",
          "name": "amount",
          "type": "uint256"
        }
      ],
      "name": "OperatorUnstaked",
      "type": "event"
    },
    {
      "anonymous": false,
      "inputs": [
        {
          "indexed": true,
          "internalType": "address",
          "name": "protocolOwner",
          "type": "address"
        }
      ],
      "name": "ProtocolInitialized",
      "type": "event"
    },
    {
      "anonymous": false,
      "inputs": [
        {
          "indexed": true,
          "internalType": "bytes32",
          "name": "role",
          "type": "bytes32"
        },
        {
          "indexed": true,
          "internalType": "bytes32",
          "name": "previousAdminRole",
          "type": "bytes32"
        },
        {
          "indexed": true,
          "internalType": "bytes32",
          "name": "newAdminRole",
          "type": "bytes32"
        }
      ],
      "name": "RoleAdminChanged",
      "type": "event"
    },
    {
      "anonymous": false,
      "inputs": [
        {
          "indexed": true,
          "internalType": "bytes32",
          "name": "role",
          "type": "bytes32"
        },
        {
          "indexed": true,
          "internalType": "address",
          "name": "account",
          "type": "address"
        },
        {
          "indexed": true,
          "internalType": "address",
          "name": "sender",
          "type": "address"
        }
      ],
      "name": "RoleGranted",
      "type": "event"
    },
    {
      "anonymous": false,
      "inputs": [
        {
          "indexed": true,
          "internalType": "bytes32",
          "name": "role",
          "type": "bytes32"
        },
        {
          "indexed": true,
          "internalType": "address",
          "name": "account",
          "type": "address"
        },
        {
          "indexed": true,
          "internalType": "address",
          "name": "sender",
          "type": "address"
        }
      ],
      "name": "RoleRevoked",
      "type": "event"
    },
    {
      "anonymous": false,
      "inputs": [
        {
          "indexed": true,
          "internalType": "bytes32",
          "name": "tenantId",
          "type": "bytes32"
        },
        {
          "indexed": true,
          "internalType": "address",
          "name": "admin",
          "type": "address"
        },
        {
          "indexed": true,
          "internalType": "address",
          "name": "treasury",
          "type": "address"
        }
      ],
      "name": "TenantCreated",
      "type": "event"
    },
    {
      "anonymous": false,
      "inputs": [
        {
          "indexed": true,
          "internalType": "bytes32",
          "name": "tenantId",
          "type": "bytes32"
        },
        {
          "indexed": false,
          "internalType": "bool",
          "name": "isActive",
          "type": "bool"
        }
      ],
      "name": "TenantStatusUpdated",
      "type": "event"
    },
    {
      "anonymous": false,
      "inputs": [
        {
          "indexed": true,
          "internalType": "bytes32",
          "name": "tenantId",
          "type": "bytes32"
        },
        {
          "indexed": true,
          "internalType": "address",
          "name": "oldTreasury",
          "type": "address"
        },
        {
          "indexed": true,
          "internalType": "address",
          "name": "newTreasury",
          "type": "address"
        }
      ],
      "name": "TreasuryUpdated",
      "type": "event"
    },
    {
      "anonymous": false,
      "inputs": [
        {
          "indexed": true,
          "internalType": "bytes32",
          "name": "tenantId",
          "type": "bytes32"
        },
        {
          "indexed": false,
          "internalType": "uint256",
          "name": "oldValue",
          "type": "uint256"
        },
        {
          "indexed": false,
          "internalType": "uint256",
          "name": "newValue",
          "type": "uint256"
        }
      ],
      "name": "UnstakeCooldownUpdated",
      "type": "event"
    },
    {
      "anonymous": false,
      "inputs": [
        {
          "indexed": true,
          "internalType": "bytes32",
          "name": "tenantId",
          "type": "bytes32"
        },
        {
          "indexed": true,
          "internalType": "bytes32",
          "name": "violationCode",
          "type": "bytes32"
        },
        {
          "indexed": false,
          "internalType": "uint16",
          "name": "oldPenaltyBps",
          "type": "uint16"
        },
        {
          "indexed": false,
          "internalType": "uint16",
          "name": "newPenaltyBps",
          "type": "uint16"
        }
      ],
      "name": "ViolationPenaltyUpdated",
      "type": "event"
    },
    {
      "inputs": [],
      "name": "COSIGN_ROLE_NONE",
      "outputs": [
        {
          "internalType": "uint16",
          "name": "",
          "type": "uint16"
        }
      ],
      "stateMutability": "view",
      "type": "function"
    },
    {
      "inputs": [],
      "name": "DEFAULT_ADMIN_ROLE",
      "outputs": [
        {
          "internalType": "bytes32",
          "name": "",
          "type": "bytes32"
        }
      ],
      "stateMutability": "view",
      "type": "function"
    },
    {
      "inputs": [],
      "name": "MAX_COSIGN_ROLE_ID",
      "outputs": [
        {
          "internalType": "uint16",
          "name": "",
          "type": "uint16"
        }
      ],
      "stateMutability": "view",
      "type": "function"
    },
    {
      "inputs": [],
      "name": "MAX_PENALTY_BPS",
      "outputs": [
        {
          "internalType": "uint16",
          "name": "",
          "type": "uint16"
        }
      ],
      "stateMutability": "view",
      "type": "function"
    },
    {
      "inputs": [],
      "name": "MIN_COSIGN_ROLE_ID",
      "outputs": [
        {
          "internalType": "uint16",
          "name": "",
          "type": "uint16"
        }
      ],
      "stateMutability": "view",
      "type": "function"
    },
    {
      "inputs": [],
      "name": "MIN_STAKE",
      "outputs": [
        {
          "internalType": "uint256",
          "name": "",
          "type": "uint256"
        }
      ],
      "stateMutability": "view",
      "type": "function"
    },
    {
      "inputs": [],
      "name": "PROTOCOL_ADMIN_ROLE",
      "outputs": [
        {
          "internalType": "bytes32",
          "name": "",
          "type": "bytes32"
        }
      ],
      "stateMutability": "view",
      "type": "function"
    },
    {
      "inputs": [],
      "name": "UNSTAKE_COOLDOWN",
      "outputs": [
        {
          "internalType": "uint256",
          "name": "",
          "type": "uint256"
        }
      ],
      "stateMutability": "view",
      "type": "function"
    },
    {
      "inputs": [
        {
          "internalType": "bytes32",
          "name": "tenantId",
          "type": "bytes32"
        },
        {
          "internalType": "bytes32",
          "name": "fileHash",
          "type": "bytes32"
        }
      ],
      "name": "coSignCount",
      "outputs": [
        {
          "internalType": "uint256",
          "name": "",
          "type": "uint256"
        }
      ],
      "stateMutability": "view",
      "type": "function"
    },
    {
      "inputs": [
        {
          "components": [
            {
              "internalType": "bytes32",
              "name": "tenantId",
              "type": "bytes32"
            },
            {
              "internalType": "bytes32",
              "name": "fileHash",
              "type": "bytes32"
            },
            {
              "internalType": "uint256",
              "name": "nonce",
              "type": "uint256"
            },
            {
              "internalType": "uint256",
              "name": "deadline",
              "type": "uint256"
            }
          ],
          "internalType": "struct VoucherTypes.CoSignPayload",
          "name": "payload",
          "type": "tuple"
        },
        {
          "internalType": "bytes",
          "name": "signature",
          "type": "bytes"
        }
      ],
      "name": "coSignDocumentWithSignature",
      "outputs": [],
      "stateMutability": "nonpayable",
      "type": "function"
    },
    {
      "inputs": [
        {
          "internalType": "bytes32",
          "name": "tenantId",
          "type": "bytes32"
        },
        {
          "internalType": "bytes32",
          "name": "fileHash",
          "type": "bytes32"
        }
      ],
      "name": "coSignQualified",
      "outputs": [
        {
          "internalType": "bool",
          "name": "",
          "type": "bool"
        }
      ],
      "stateMutability": "view",
      "type": "function"
    },
    {
      "inputs": [
        {
          "internalType": "bytes32",
          "name": "tenantId",
          "type": "bytes32"
        },
        {
          "internalType": "address",
          "name": "tenantTreasury",
          "type": "address"
        },
        {
          "components": [
            {
              "internalType": "address",
              "name": "admin",
              "type": "address"
            },
            {
              "internalType": "address",
              "name": "slasher",
              "type": "address"
            },
            {
              "internalType": "address",
              "name": "operatorManager",
              "type": "address"
            },
            {
              "internalType": "uint256",
              "name": "minStake",
              "type": "uint256"
            },
            {
              "internalType": "uint256",
              "name": "unstakeCooldown",
              "type": "uint256"
            }
          ],
          "internalType": "struct VoucherTypes.TenantConfig",
          "name": "config",
          "type": "tuple"
        }
      ],
      "name": "createTenant",
      "outputs": [],
      "stateMutability": "nonpayable",
      "type": "function"
    },
    {
      "inputs": [
        {
          "internalType": "bytes32",
          "name": "tenantId",
          "type": "bytes32"
        },
        {
          "internalType": "bytes32",
          "name": "fileHash",
          "type": "bytes32"
        },
        {
          "internalType": "address",
          "name": "signer",
          "type": "address"
        }
      ],
      "name": "documentSigners",
      "outputs": [
        {
          "internalType": "bool",
          "name": "",
          "type": "bool"
        }
      ],
      "stateMutability": "view",
      "type": "function"
    },
    {
      "inputs": [
        {
          "internalType": "bytes32",
          "name": "tenantId",
          "type": "bytes32"
        }
      ],
      "name": "executeUnstake",
      "outputs": [],
      "stateMutability": "nonpayable",
      "type": "function"
    },
    {
      "inputs": [
        {
          "internalType": "bytes32",
          "name": "tenantId",
          "type": "bytes32"
        },
        {
          "internalType": "uint32",
          "name": "docType",
          "type": "uint32"
        }
      ],
      "name": "getCoSignPolicyStruct",
      "outputs": [
        {
          "components": [
            {
              "internalType": "bool",
              "name": "enabled",
              "type": "bool"
            },
            {
              "internalType": "uint256",
              "name": "minStake",
              "type": "uint256"
            },
            {
              "internalType": "uint256",
              "name": "minSigners",
              "type": "uint256"
            },
            {
              "internalType": "uint256",
              "name": "requiredRoleMask",
              "type": "uint256"
            }
          ],
          "internalType": "struct VoucherTypes.CoSignPolicy",
          "name": "",
          "type": "tuple"
        }
      ],
      "stateMutability": "view",
      "type": "function"
    },
    {
      "inputs": [
        {
          "internalType": "bytes32",
          "name": "tenantId",
          "type": "bytes32"
        },
        {
          "internalType": "bytes32",
          "name": "fileHash",
          "type": "bytes32"
        }
      ],
      "name": "getCoSignStatus",
      "outputs": [
        {
          "internalType": "uint256",
          "name": "count",
          "type": "uint256"
        },
        {
          "internalType": "uint256",
          "name": "trustedCount",
          "type": "uint256"
        },
        {
          "internalType": "uint256",
          "name": "roleMask",
          "type": "uint256"
        },
        {
          "internalType": "bool",
          "name": "qualified",
          "type": "bool"
        }
      ],
      "stateMutability": "view",
      "type": "function"
    },
    {
      "inputs": [
        {
          "internalType": "bytes32",
          "name": "tenantId",
          "type": "bytes32"
        },
        {
          "internalType": "bytes32",
          "name": "fileHash",
          "type": "bytes32"
        }
      ],
      "name": "getDocument",
      "outputs": [
        {
          "components": [
            {
              "internalType": "bytes32",
              "name": "tenantId",
              "type": "bytes32"
            },
            {
              "internalType": "string",
              "name": "cid",
              "type": "string"
            },
            {
              "internalType": "address",
              "name": "issuer",
              "type": "address"
            },
            {
              "internalType": "uint256",
              "name": "timestamp",
              "type": "uint256"
            },
            {
              "internalType": "bool",
              "name": "isValid",
              "type": "bool"
            },
            {
              "internalType": "bytes32",
              "name": "ciphertextHash",
              "type": "bytes32"
            },
            {
              "internalType": "bytes32",
              "name": "encryptionMetaHash",
              "type": "bytes32"
            },
            {
              "internalType": "uint32",
              "name": "docType",
              "type": "uint32"
            },
            {
              "internalType": "uint32",
              "name": "version",
              "type": "uint32"
            }
          ],
          "internalType": "struct VoucherTypes.Document",
          "name": "",
          "type": "tuple"
        }
      ],
      "stateMutability": "view",
      "type": "function"
    },
    {
      "inputs": [
        {
          "internalType": "bytes32",
          "name": "tenantId",
          "type": "bytes32"
        },
        {
          "internalType": "address",
          "name": "operator",
          "type": "address"
        }
      ],
      "name": "getNonce",
      "outputs": [
        {
          "internalType": "uint256",
          "name": "",
          "type": "uint256"
        }
      ],
      "stateMutability": "view",
      "type": "function"
    },
    {
      "inputs": [
        {
          "internalType": "bytes32",
          "name": "tenantId",
          "type": "bytes32"
        },
        {
          "internalType": "uint256",
          "name": "index",
          "type": "uint256"
        }
      ],
      "name": "getOperatorAtIndex",
      "outputs": [
        {
          "internalType": "address",
          "name": "",
          "type": "address"
        }
      ],
      "stateMutability": "view",
      "type": "function"
    },
    {
      "inputs": [
        {
          "internalType": "bytes32",
          "name": "tenantId",
          "type": "bytes32"
        }
      ],
      "name": "getOperatorListLength",
      "outputs": [
        {
          "internalType": "uint256",
          "name": "",
          "type": "uint256"
        }
      ],
      "stateMutability": "view",
      "type": "function"
    },
    {
      "inputs": [
        {
          "internalType": "bytes32",
          "name": "tenantId",
          "type": "bytes32"
        },
        {
          "internalType": "address",
          "name": "operator",
          "type": "address"
        }
      ],
      "name": "getOperatorStruct",
      "outputs": [
        {
          "components": [
            {
              "internalType": "bytes32",
              "name": "tenantId",
              "type": "bytes32"
            },
            {
              "internalType": "address",
              "name": "walletAddress",
              "type": "address"
            },
            {
              "internalType": "string",
              "name": "metadataURI",
              "type": "string"
            },
            {
              "internalType": "uint256",
              "name": "stakeAmount",
              "type": "uint256"
            },
            {
              "internalType": "bool",
              "name": "isActive",
              "type": "bool"
            }
          ],
          "internalType": "struct VoucherTypes.Operator",
          "name": "",
          "type": "tuple"
        }
      ],
      "stateMutability": "view",
      "type": "function"
    },
    {
      "inputs": [
        {
          "internalType": "bytes32",
          "name": "tenantId",
          "type": "bytes32"
        },
        {
          "internalType": "address",
          "name": "operator",
          "type": "address"
        }
      ],
      "name": "getPendingUnstakeAt",
      "outputs": [
        {
          "internalType": "uint256",
          "name": "",
          "type": "uint256"
        }
      ],
      "stateMutability": "view",
      "type": "function"
    },
    {
      "inputs": [
        {
          "internalType": "bytes32",
          "name": "tenantId",
          "type": "bytes32"
        },
        {
          "internalType": "address",
          "name": "operator",
          "type": "address"
        }
      ],
      "name": "getRecoveryAlias",
      "outputs": [
        {
          "internalType": "address",
          "name": "rootOperator",
          "type": "address"
        },
        {
          "internalType": "address",
          "name": "replacedBy",
          "type": "address"
        }
      ],
      "stateMutability": "view",
      "type": "function"
    },
    {
      "inputs": [
        {
          "internalType": "bytes32",
          "name": "role",
          "type": "bytes32"
        }
      ],
      "name": "getRoleAdmin",
      "outputs": [
        {
          "internalType": "bytes32",
          "name": "",
          "type": "bytes32"
        }
      ],
      "stateMutability": "view",
      "type": "function"
    },
    {
      "inputs": [
        {
          "internalType": "uint256",
          "name": "index",
          "type": "uint256"
        }
      ],
      "name": "getTenantAtIndex",
      "outputs": [
        {
          "internalType": "bytes32",
          "name": "",
          "type": "bytes32"
        }
      ],
      "stateMutability": "view",
      "type": "function"
    },
    {
      "inputs": [
        {
          "internalType": "bytes32",
          "name": "tenantId",
          "type": "bytes32"
        }
      ],
      "name": "getTenantConfig",
      "outputs": [
        {
          "internalType": "uint256",
          "name": "minStake",
          "type": "uint256"
        },
        {
          "internalType": "uint256",
          "name": "cooldown",
          "type": "uint256"
        }
      ],
      "stateMutability": "view",
      "type": "function"
    },
    {
      "inputs": [],
      "name": "getTenantListLength",
      "outputs": [
        {
          "internalType": "uint256",
          "name": "",
          "type": "uint256"
        }
      ],
      "stateMutability": "view",
      "type": "function"
    },
    {
      "inputs": [
        {
          "internalType": "bytes32",
          "name": "tenantId",
          "type": "bytes32"
        }
      ],
      "name": "getTenantStruct",
      "outputs": [
        {
          "components": [
            {
              "internalType": "address",
              "name": "admin",
              "type": "address"
            },
            {
              "internalType": "address",
              "name": "operatorManager",
              "type": "address"
            },
            {
              "internalType": "address",
              "name": "treasury",
              "type": "address"
            },
            {
              "internalType": "bool",
              "name": "isActive",
              "type": "bool"
            },
            {
              "internalType": "uint256",
              "name": "createdAt",
              "type": "uint256"
            }
          ],
          "internalType": "struct VoucherTypes.Tenant",
          "name": "",
          "type": "tuple"
        }
      ],
      "stateMutability": "view",
      "type": "function"
    },
    {
      "inputs": [
        {
          "internalType": "bytes32",
          "name": "role",
          "type": "bytes32"
        },
        {
          "internalType": "address",
          "name": "account",
          "type": "address"
        }
      ],
      "name": "grantRole",
      "outputs": [],
      "stateMutability": "nonpayable",
      "type": "function"
    },
    {
      "inputs": [
        {
          "internalType": "bytes32",
          "name": "role",
          "type": "bytes32"
        },
        {
          "internalType": "address",
          "name": "account",
          "type": "address"
        }
      ],
      "name": "hasRole",
      "outputs": [
        {
          "internalType": "bool",
          "name": "",
          "type": "bool"
        }
      ],
      "stateMutability": "view",
      "type": "function"
    },
    {
      "inputs": [
        {
          "internalType": "bytes32",
          "name": "tenantId",
          "type": "bytes32"
        },
        {
          "internalType": "string",
          "name": "_metadataURI",
          "type": "string"
        }
      ],
      "name": "joinAsOperator",
      "outputs": [],
      "stateMutability": "payable",
      "type": "function"
    },
    {
      "inputs": [
        {
          "internalType": "bytes32",
          "name": "tenantId",
          "type": "bytes32"
        },
        {
          "internalType": "address",
          "name": "operator",
          "type": "address"
        }
      ],
      "name": "nonces",
      "outputs": [
        {
          "internalType": "uint256",
          "name": "",
          "type": "uint256"
        }
      ],
      "stateMutability": "view",
      "type": "function"
    },
    {
      "inputs": [
        {
          "internalType": "bytes32",
          "name": "tenantId",
          "type": "bytes32"
        },
        {
          "internalType": "address",
          "name": "operator",
          "type": "address"
        }
      ],
      "name": "pendingUnstakeAt",
      "outputs": [
        {
          "internalType": "uint256",
          "name": "",
          "type": "uint256"
        }
      ],
      "stateMutability": "view",
      "type": "function"
    },
    {
      "inputs": [],
      "name": "protocolOwner",
      "outputs": [
        {
          "internalType": "address",
          "name": "",
          "type": "address"
        }
      ],
      "stateMutability": "view",
      "type": "function"
    },
    {
      "inputs": [
        {
          "internalType": "bytes32",
          "name": "tenantId",
          "type": "bytes32"
        },
        {
          "internalType": "address",
          "name": "lostOperator",
          "type": "address"
        },
        {
          "internalType": "address",
          "name": "newOperator",
          "type": "address"
        },
        {
          "internalType": "string",
          "name": "reason",
          "type": "string"
        }
      ],
      "name": "recoverOperatorByAdmin",
      "outputs": [],
      "stateMutability": "nonpayable",
      "type": "function"
    },
    {
      "inputs": [
        {
          "internalType": "bytes32",
          "name": "tenantId",
          "type": "bytes32"
        },
        {
          "internalType": "address",
          "name": "lostOperator",
          "type": "address"
        },
        {
          "internalType": "string",
          "name": "reason",
          "type": "string"
        }
      ],
      "name": "recoverOperatorByDelegate",
      "outputs": [],
      "stateMutability": "nonpayable",
      "type": "function"
    },
    {
      "inputs": [
        {
          "internalType": "bytes32",
          "name": "tenantId",
          "type": "bytes32"
        },
        {
          "internalType": "address",
          "name": "operator",
          "type": "address"
        }
      ],
      "name": "recoveryDelegates",
      "outputs": [
        {
          "internalType": "address",
          "name": "",
          "type": "address"
        }
      ],
      "stateMutability": "view",
      "type": "function"
    },
    {
      "inputs": [
        {
          "components": [
            {
              "internalType": "bytes32",
              "name": "tenantId",
              "type": "bytes32"
            },
            {
              "internalType": "bytes32",
              "name": "fileHash",
              "type": "bytes32"
            },
            {
              "internalType": "string",
              "name": "cid",
              "type": "string"
            },
            {
              "internalType": "bytes32",
              "name": "ciphertextHash",
              "type": "bytes32"
            },
            {
              "internalType": "bytes32",
              "name": "encryptionMetaHash",
              "type": "bytes32"
            },
            {
              "internalType": "uint32",
              "name": "docType",
              "type": "uint32"
            },
            {
              "internalType": "uint32",
              "name": "version",
              "type": "uint32"
            },
            {
              "internalType": "uint256",
              "name": "nonce",
              "type": "uint256"
            },
            {
              "internalType": "uint256",
              "name": "deadline",
              "type": "uint256"
            }
          ],
          "internalType": "struct VoucherTypes.RegisterPayload",
          "name": "payload",
          "type": "tuple"
        },
        {
          "internalType": "bytes",
          "name": "signature",
          "type": "bytes"
        }
      ],
      "name": "registerWithSignature",
      "outputs": [],
      "stateMutability": "nonpayable",
      "type": "function"
    },
    {
      "inputs": [
        {
          "internalType": "bytes32",
          "name": "role",
          "type": "bytes32"
        },
        {
          "internalType": "address",
          "name": "callerConfirmation",
          "type": "address"
        }
      ],
      "name": "renounceRole",
      "outputs": [],
      "stateMutability": "nonpayable",
      "type": "function"
    },
    {
      "inputs": [
        {
          "internalType": "bytes32",
          "name": "tenantId",
          "type": "bytes32"
        }
      ],
      "name": "requestUnstake",
      "outputs": [],
      "stateMutability": "nonpayable",
      "type": "function"
    },
    {
      "inputs": [
        {
          "internalType": "bytes32",
          "name": "tenantId",
          "type": "bytes32"
        },
        {
          "internalType": "bytes32",
          "name": "fileHash",
          "type": "bytes32"
        },
        {
          "internalType": "string",
          "name": "reason",
          "type": "string"
        }
      ],
      "name": "revokeDocument",
      "outputs": [],
      "stateMutability": "nonpayable",
      "type": "function"
    },
    {
      "inputs": [
        {
          "internalType": "bytes32",
          "name": "role",
          "type": "bytes32"
        },
        {
          "internalType": "address",
          "name": "account",
          "type": "address"
        }
      ],
      "name": "revokeRole",
      "outputs": [],
      "stateMutability": "nonpayable",
      "type": "function"
    },
    {
      "inputs": [
        {
          "internalType": "bytes32",
          "name": "tenantId",
          "type": "bytes32"
        },
        {
          "internalType": "uint32",
          "name": "docType",
          "type": "uint32"
        },
        {
          "internalType": "address",
          "name": "operator",
          "type": "address"
        },
        {
          "internalType": "bool",
          "name": "whitelisted",
          "type": "bool"
        },
        {
          "internalType": "uint16",
          "name": "roleId",
          "type": "uint16"
        }
      ],
      "name": "setCoSignOperator",
      "outputs": [],
      "stateMutability": "nonpayable",
      "type": "function"
    },
    {
      "inputs": [
        {
          "internalType": "bytes32",
          "name": "tenantId",
          "type": "bytes32"
        },
        {
          "internalType": "uint32",
          "name": "docType",
          "type": "uint32"
        },
        {
          "internalType": "bool",
          "name": "enabled",
          "type": "bool"
        },
        {
          "internalType": "uint256",
          "name": "minStake",
          "type": "uint256"
        },
        {
          "internalType": "uint256",
          "name": "minSigners",
          "type": "uint256"
        },
        {
          "internalType": "uint256",
          "name": "requiredRoleMask",
          "type": "uint256"
        }
      ],
      "name": "setCoSignPolicy",
      "outputs": [],
      "stateMutability": "nonpayable",
      "type": "function"
    },
    {
      "inputs": [
        {
          "internalType": "bytes32",
          "name": "tenantId",
          "type": "bytes32"
        },
        {
          "internalType": "uint256",
          "name": "newMinOperatorStake",
          "type": "uint256"
        }
      ],
      "name": "setMinOperatorStake",
      "outputs": [],
      "stateMutability": "nonpayable",
      "type": "function"
    },
    {
      "inputs": [
        {
          "internalType": "bytes32",
          "name": "tenantId",
          "type": "bytes32"
        },
        {
          "internalType": "address",
          "name": "operator",
          "type": "address"
        },
        {
          "internalType": "bool",
          "name": "isActive",
          "type": "bool"
        },
        {
          "internalType": "string",
          "name": "reason",
          "type": "string"
        }
      ],
      "name": "setOperatorStatus",
      "outputs": [],
      "stateMutability": "nonpayable",
      "type": "function"
    },
    {
      "inputs": [
        {
          "internalType": "bytes32",
          "name": "tenantId",
          "type": "bytes32"
        },
        {
          "internalType": "address",
          "name": "delegate",
          "type": "address"
        }
      ],
      "name": "setRecoveryDelegate",
      "outputs": [],
      "stateMutability": "nonpayable",
      "type": "function"
    },
    {
      "inputs": [
        {
          "internalType": "bytes32",
          "name": "tenantId",
          "type": "bytes32"
        },
        {
          "internalType": "bool",
          "name": "isActive",
          "type": "bool"
        }
      ],
      "name": "setTenantStatus",
      "outputs": [],
      "stateMutability": "nonpayable",
      "type": "function"
    },
    {
      "inputs": [
        {
          "internalType": "bytes32",
          "name": "tenantId",
          "type": "bytes32"
        },
        {
          "internalType": "address",
          "name": "newTreasury",
          "type": "address"
        }
      ],
      "name": "setTreasury",
      "outputs": [],
      "stateMutability": "nonpayable",
      "type": "function"
    },
    {
      "inputs": [
        {
          "internalType": "bytes32",
          "name": "tenantId",
          "type": "bytes32"
        },
        {
          "internalType": "uint256",
          "name": "newUnstakeCooldown",
          "type": "uint256"
        }
      ],
      "name": "setUnstakeCooldown",
      "outputs": [],
      "stateMutability": "nonpayable",
      "type": "function"
    },
    {
      "inputs": [
        {
          "internalType": "bytes32",
          "name": "tenantId",
          "type": "bytes32"
        },
        {
          "internalType": "bytes32",
          "name": "violationCode",
          "type": "bytes32"
        },
        {
          "internalType": "uint16",
          "name": "penaltyBps",
          "type": "uint16"
        }
      ],
      "name": "setViolationPenalty",
      "outputs": [],
      "stateMutability": "nonpayable",
      "type": "function"
    },
    {
      "inputs": [
        {
          "internalType": "bytes32",
          "name": "tenantId",
          "type": "bytes32"
        },
        {
          "internalType": "address",
          "name": "_operator",
          "type": "address"
        },
        {
          "internalType": "string",
          "name": "reason",
          "type": "string"
        }
      ],
      "name": "slashOperator",
      "outputs": [],
      "stateMutability": "nonpayable",
      "type": "function"
    },
    {
      "inputs": [
        {
          "internalType": "bytes32",
          "name": "tenantId",
          "type": "bytes32"
        },
        {
          "internalType": "address",
          "name": "_operator",
          "type": "address"
        },
        {
          "internalType": "bytes32",
          "name": "violationCode",
          "type": "bytes32"
        },
        {
          "internalType": "string",
          "name": "reason",
          "type": "string"
        }
      ],
      "name": "softSlashOperator",
      "outputs": [],
      "stateMutability": "nonpayable",
      "type": "function"
    },
    {
      "inputs": [
        {
          "internalType": "bytes4",
          "name": "interfaceId",
          "type": "bytes4"
        }
      ],
      "name": "supportsInterface",
      "outputs": [
        {
          "internalType": "bool",
          "name": "",
          "type": "bool"
        }
      ],
      "stateMutability": "view",
      "type": "function"
    },
    {
      "inputs": [
        {
          "internalType": "bytes32",
          "name": "tenantId",
          "type": "bytes32"
        },
        {
          "internalType": "uint32",
          "name": "docType",
          "type": "uint32"
        },
        {
          "internalType": "address",
          "name": "operator",
          "type": "address"
        }
      ],
      "name": "tenantCoSignRoles",
      "outputs": [
        {
          "internalType": "uint16",
          "name": "",
          "type": "uint16"
        }
      ],
      "stateMutability": "view",
      "type": "function"
    },
    {
      "inputs": [
        {
          "internalType": "bytes32",
          "name": "tenantId",
          "type": "bytes32"
        },
        {
          "internalType": "uint32",
          "name": "docType",
          "type": "uint32"
        },
        {
          "internalType": "address",
          "name": "operator",
          "type": "address"
        }
      ],
      "name": "tenantCoSignWhitelisted",
      "outputs": [
        {
          "internalType": "bool",
          "name": "",
          "type": "bool"
        }
      ],
      "stateMutability": "view",
      "type": "function"
    },
    {
      "inputs": [
        {
          "internalType": "bytes32",
          "name": "tenantId",
          "type": "bytes32"
        }
      ],
      "name": "tenantMinOperatorStake",
      "outputs": [
        {
          "internalType": "uint256",
          "name": "",
          "type": "uint256"
        }
      ],
      "stateMutability": "view",
      "type": "function"
    },
    {
      "inputs": [
        {
          "internalType": "bytes32",
          "name": "tenantId",
          "type": "bytes32"
        }
      ],
      "name": "tenantUnstakeCooldown",
      "outputs": [
        {
          "internalType": "uint256",
          "name": "",
          "type": "uint256"
        }
      ],
      "stateMutability": "view",
      "type": "function"
    },
    {
      "inputs": [
        {
          "internalType": "bytes32",
          "name": "tenantId",
          "type": "bytes32"
        },
        {
          "internalType": "bytes32",
          "name": "violationCode",
          "type": "bytes32"
        }
      ],
      "name": "tenantViolationPenalties",
      "outputs": [
        {
          "internalType": "uint16",
          "name": "",
          "type": "uint16"
        }
      ],
      "stateMutability": "view",
      "type": "function"
    },
    {
      "inputs": [
        {
          "internalType": "bytes32",
          "name": "tenantId",
          "type": "bytes32"
        }
      ],
      "name": "topUpStake",
      "outputs": [],
      "stateMutability": "payable",
      "type": "function"
    },
    {
      "inputs": [
        {
          "internalType": "bytes32",
          "name": "tenantId",
          "type": "bytes32"
        },
        {
          "internalType": "bytes32",
          "name": "fileHash",
          "type": "bytes32"
        }
      ],
      "name": "trustedCoSignCount",
      "outputs": [
        {
          "internalType": "uint256",
          "name": "",
          "type": "uint256"
        }
      ],
      "stateMutability": "view",
      "type": "function"
    },
    {
      "inputs": [
        {
          "internalType": "bytes32",
          "name": "tenantId",
          "type": "bytes32"
        },
        {
          "internalType": "bytes32",
          "name": "fileHash",
          "type": "bytes32"
        }
      ],
      "name": "trustedCoSignRoleMask",
      "outputs": [
        {
          "internalType": "uint256",
          "name": "",
          "type": "uint256"
        }
      ],
      "stateMutability": "view",
      "type": "function"
    },
    {
      "inputs": [
        {
          "internalType": "bytes32",
          "name": "tenantId",
          "type": "bytes32"
        },
        {
          "internalType": "string",
          "name": "metadataURI",
          "type": "string"
        }
      ],
      "name": "updateOperatorMetadata",
      "outputs": [],
      "stateMutability": "nonpayable",
      "type": "function"
    }
  ],
  "bytecode": "0x60a060405234801561000f575f5ffd5b5060017f9b779b17422d0df92223018b32b4d1fa46e071723d6817e2486d003becc55f0055600380546001600160a01b03191633908117909155610054905f9061014f565b5061007f7fd0c934f24ef5a377dc3832429ce607cbe940a3ca3c6cd7e532bd35b4b212d1963361014f565b50604080517f8b73c3c69bb8fe3d512ecc4cf759cc79239f7b179b0ffacaa9a75d522b39400f60208201527f32e8a79951df9d41f0345a487dbe19ec03b0a7de9751dd4031f0cc3d0a623968918101919091527fc89efdaa54c0f20c7adf612882df0950f5a951637e0307cdcb4c672f298b8bc660608201524660808201523060a082015260c00160408051601f1981840301815290829052805160209091012060805233907fc130514d7c8c002bccb3fd35204490d020b73c0188386dbb07de86d15d5cb9a0905f90a26101f8565b5f828152602081815260408083206001600160a01b038516845290915281205460ff166101ef575f838152602081815260408083206001600160a01b03861684529091529020805460ff191660011790556101a73390565b6001600160a01b0316826001600160a01b0316847f2f8788117e7eff1d82e926ec794901d17c78024a50270940304540a733656f0d60405160405180910390a45060016101f2565b505f5b92915050565b608051612d596102175f395f81816119ec0152611baf0152612d595ff3fe6080604052600436106103a8575f3560e01c806386e2b63f116101e9578063cb1c2b5c11610108578063e26edb7a1161009d578063f3e49baa1161006d578063f3e49baa14610cfd578063f4410c0614610d50578063fc89626714610d6f578063ff14d45814610d9a575f5ffd5b8063e26edb7a14610c5f578063e7b06ccd14610c7e578063e9e51a4f14610c9d578063eaa3668f14610cea575f5ffd5b8063d4b77cfc116100d8578063d4b77cfc14610b8b578063d547741f14610baa578063d9fe7f6714610bc9578063dfa89c1d14610c1d575f5ffd5b8063cb1c2b5c14610aa1578063cbbb0fec14610abc578063d019036e14610adb578063d1e4bbde14610aee575f5ffd5b8063a468703d1161017e578063b5004d791161014e578063b5004d7914610a0d578063c1d6ba6914610a44578063c664e0d514610a63578063c70496a414610a82575f5ffd5b8063a468703d146109af578063a60f4c09146109ce578063aee2bc86146109ed578063b04da8a114610692575f5ffd5b8063920da433116101b9578063920da4331461094a57806395f001e61461095e578063a217fddf1461097d578063a2375cf314610990575f5ffd5b806386e2b63f1461086a5780638bdb1de3146108e15780638d18edf01461090c57806391d148541461092b575f5ffd5b806336568abe116102d55780635e5098071161026a5780636dc0c12a1161023a5780636dc0c12a1461082c578063715eba9a1461084b578063795f92691461086a5780637ff63731146108ab575f5ffd5b80635e5098071461078c5780636b044e3d146107ab5780636cc531d4146107ca5780636d184dd3146107f6575f5ffd5b80634f138e01116102a55780634f138e01146106d3578063502ea5c214610709578063541bd3ee146107425780635533b9bf14610761575f5ffd5b806336568abe1461063557806342149fd0146106545780634d00857a146106735780634e76b0e414610692575f5ffd5b80630f3384e01161034b578063246145d81161031b578063246145d81461059b578063248a9ca3146105ae57806328a1b2c9146105dc5780632f2ff15d14610616575f5ffd5b80630f3384e0146104f0578063130d571b146105115780631b48ba1f146105305780631b90bef11461055c575f5ffd5b80630619a7d0116103865780630619a7d0146104535780630a75a2f0146104a75780630b60c58f146104c55780630e0895b9146104db575f5ffd5b8063015d4ad3146103ac57806301ffc9a71461040c5780630225d3cc1461042b575b5f5ffd5b3480156103b7575f5ffd5b506103f76103c636600461238e565b5f928352600f602090815260408085209385529281528284206001600160a01b039290921684525290205460ff1690565b60405190151581526020015b60405180910390f35b348015610417575f5ffd5b506103f76104263660046123c0565b610e8e565b348015610436575f5ffd5b5061044061271081565b60405161ffff9091168152602001610403565b34801561045e575f5ffd5b5061047261046d3660046123fa565b610ec4565b604051610403919081511515815260208083015190820152604080830151908201526060918201519181019190915260800190565b3480156104b2575f5ffd5b506005545b604051908152602001610403565b3480156104d0575f5ffd5b506104b76201518081565b3480156104e6575f5ffd5b5061044061010081565b3480156104fb575f5ffd5b5061050f61050a366004612424565b610f45565b005b34801561051c575f5ffd5b5061050f61052b366004612491565b610fb6565b34801561053b575f5ffd5b5061054f61054a366004612424565b61102a565b6040516104039190612529565b348015610567575f5ffd5b5061057b6105763660046125d3565b6111ac565b604080516001600160a01b03938416815292909116602083015201610403565b61050f6105a93660046125f4565b6111f2565b3480156105b9575f5ffd5b506104b76105c836600461263c565b5f9081526020819052604090206001015490565b3480156105e7575f5ffd5b506104406105f6366004612424565b5f91825260176020908152604080842092845291905290205461ffff1690565b348015610621575f5ffd5b5061050f6106303660046125d3565b611260565b348015610640575f5ffd5b5061050f61064f3660046125d3565b611294565b34801561065f575f5ffd5b5061050f61066e366004612653565b6112cc565b34801561067e575f5ffd5b5061050f61068d3660046126ba565b61133d565b34801561069d575f5ffd5b506104b76106ac3660046125d3565b5f918252600a602090815260408084206001600160a01b0393909316845291905290205490565b3480156106de575f5ffd5b506104b76106ed366004612424565b5f91825260106020908152604080842092845291905290205490565b348015610714575f5ffd5b506103f7610723366004612424565b5f91825260136020908152604080842092845291905290205460ff1690565b34801561074d575f5ffd5b5061050f61075c36600461263c565b6113a8565b34801561076c575f5ffd5b506104b761077b36600461263c565b5f9081526007602052604090205490565b348015610797575f5ffd5b5061050f6107a6366004612714565b61142e565b3480156107b6575f5ffd5b5061050f6107c536600461273d565b61147d565b3480156107d5575f5ffd5b506107e96107e43660046125d3565b6114bc565b6040516104039190612774565b348015610801575f5ffd5b506104b7610810366004612424565b5f91825260116020908152604080842092845291905290205490565b348015610837575f5ffd5b5061050f6108463660046127cd565b6115e8565b348015610856575f5ffd5b5061050f6108653660046125d3565b61195f565b348015610875575f5ffd5b506104b76108843660046125d3565b5f9182526009602090815260408084206001600160a01b0393909316845291905290205490565b3480156108b6575f5ffd5b506104b76108c5366004612424565b5f91825260126020908152604080842092845291905290205490565b3480156108ec575f5ffd5b506104b76108fb36600461263c565b5f9081526018602052604090205490565b348015610917575f5ffd5b5061050f610926366004612811565b6119ac565b348015610936575f5ffd5b506103f76109453660046125d3565b611a55565b348015610955575f5ffd5b50610440600181565b348015610969575f5ffd5b5061050f610978366004612866565b611a7d565b348015610988575f5ffd5b506104b75f81565b34801561099b575f5ffd5b5061050f6109aa3660046125f4565b611b32565b3480156109ba575f5ffd5b5061050f6109c9366004612887565b611b6f565b3480156109d9575f5ffd5b5061050f6109e83660046128c4565b611bd6565b3480156109f8575f5ffd5b506104b75f516020612ce45f395f51905f5281565b348015610a18575f5ffd5b50610a2c610a27366004612424565b611c6c565b6040516001600160a01b039091168152602001610403565b348015610a4f575f5ffd5b50600354610a2c906001600160a01b031681565b348015610a6e575f5ffd5b5061050f610a7d3660046125d3565b611ca6565b348015610a8d575f5ffd5b506104b7610a9c36600461263c565b611cf3565b348015610aac575f5ffd5b506104b767016345785d8a000081565b348015610ac7575f5ffd5b5061050f610ad6366004612424565b611d1a565b348015610ae6575f5ffd5b506104405f81565b348015610af9575f5ffd5b50610b69610b08366004612424565b5f8281526010602090815260408083208484528252808320548584526011835281842085855283528184205486855260128452828520868652845282852054968552601384528285209585529490925290912054909391929160ff90911690565b6040805194855260208501939093529183015215156060820152608001610403565b348015610b96575f5ffd5b5061050f610ba5366004612918565b611d5f565b348015610bb5575f5ffd5b5061050f610bc43660046125d3565b611da0565b348015610bd4575f5ffd5b50610440610be336600461294a565b5f92835260166020908152604080852063ffffffff9490941685529281528284206001600160a01b039290921684525290205461ffff1690565b348015610c28575f5ffd5b50610a2c610c373660046125d3565b5f918252600b602090815260408084206001600160a01b039384168552909152909120541690565b348015610c6a575f5ffd5b5061050f610c7936600461263c565b611dc4565b348015610c89575f5ffd5b5061050f610c9836600461297a565b611e2d565b348015610ca8575f5ffd5b50610cd5610cb736600461263c565b5f908152601860209081526040808320546019909252909120549091565b60408051928352602083019190915201610403565b61050f610cf836600461263c565b611eb8565b348015610d08575f5ffd5b506103f7610d1736600461294a565b5f92835260156020908152604080852063ffffffff9490941685529281528284206001600160a01b039290921684525290205460ff1690565b348015610d5b575f5ffd5b5061050f610d6a366004612653565b611ef6565b348015610d7a575f5ffd5b506104b7610d8936600461263c565b5f9081526019602052604090205490565b348015610da5575f5ffd5b50610e42610db436600461263c565b6040805160a0810182525f80825260208201819052918101829052606081018290526080810191909152505f90815260046020908152604091829020825160a08101845281546001600160a01b0390811682526001830154811693820193909352600282015492831693810193909352600160a01b90910460ff161515606083015260030154608082015290565b6040805182516001600160a01b0390811682526020808501518216908301528383015116918101919091526060808301511515908201526080918201519181019190915260a001610403565b5f6001600160e01b03198216637965db0b60e01b1480610ebe57506301ffc9a760e01b6001600160e01b03198316145b92915050565b610eed60405180608001604052805f151581526020015f81526020015f81526020015f81525090565b505f91825260146020908152604080842063ffffffff939093168452918152918190208151608081018352815460ff161515815260018201549381019390935260028101549183019190915260030154606082015290565b60405163b5b5bd1960e01b8152600480820152602481018390526044810182905273__$dda01e1e2c7bee2f4d7421c1baf2ea2b46$__9063b5b5bd19906064015b5f6040518083038186803b158015610f9c575f5ffd5b505af4158015610fae573d5f5f3e3d5ffd5b505050505050565b604051633278158760e21b815273__$dda01e1e2c7bee2f4d7421c1baf2ea2b46$__9063c9e0561c90610ff7906004908990899089908990899086016129e8565b5f6040518083038186803b15801561100d575f5ffd5b505af415801561101f573d5f5f3e3d5ffd5b505050505050505050565b6110886040518061012001604052805f8152602001606081526020015f6001600160a01b031681526020015f81526020015f151581526020015f81526020015f81526020015f63ffffffff1681526020015f63ffffffff1681525090565b5f838152600e60209081526040808320858452825291829020825161012081019093528054835260018101805491928401916110c390612a29565b80601f01602080910402602001604051908101604052809291908181526020018280546110ef90612a29565b801561113a5780601f106111115761010080835404028352916020019161113a565b820191905f5260205f20905b81548152906001019060200180831161111d57829003601f168201915b505050918352505060028201546001600160a01b0316602082015260038201546040820152600482015460ff161515606082015260058201546080820152600682015460a082015260079091015463ffffffff80821660c08401526401000000009091041660e0909101529392505050565b5f828152600c602090815260408083206001600160a01b0380861680865291845282852054878652600d85528386209286529190935292205491811691165b9250929050565b60405163c6816c2560e01b815273__$dda01e1e2c7bee2f4d7421c1baf2ea2b46$__9063c6816c259061122f906004908790879087908401612a61565b5f6040518083038186803b158015611245575f5ffd5b505af4158015611257573d5f5f3e3d5ffd5b50505050505050565b5f8281526020819052604090206001015461127a81611f7f565b6112848383611f89565b61128e8383612028565b50505050565b6001600160a01b03811633146112bd5760405163334bd91960e11b815260040160405180910390fd5b6112c782826120b7565b505050565b604051630f89227160e41b815273__$3d61d23392165436041ba58e9c3ae7a4b8$__9063f89227109061130b9060049088908890889088908501612a8a565b5f6040518083038186803b158015611321575f5ffd5b505af4158015611333573d5f5f3e3d5ffd5b5050505050505050565b60405163d4c3d82f60e01b81526004808201526024810186905263ffffffff851660448201526001600160a01b0384166064820152821515608482015261ffff821660a482015273__$116968842c4656ce8c4b8b252f1bdb323f$__9063d4c3d82f9060c401610ff7565b6113b0612120565b6040516302cad5b360e41b81526004808201526024810182905273__$dda01e1e2c7bee2f4d7421c1baf2ea2b46$__90632cad5b30906044015f6040518083038186803b1580156113ff575f5ffd5b505af4158015611411573d5f5f3e3d5ffd5b5050505061142b60015f516020612d045f395f51905f5255565b50565b60405163682c181760e01b8152600480820152602481018490526044810183905261ffff8216606482015273__$dda01e1e2c7bee2f4d7421c1baf2ea2b46$__9063682c18179060840161122f565b604051631fc48baf60e21b815273__$78279d367c11614a675a71643e6f07974a$__90637f122ebc9061130b9060049088908890889088908501612ac2565b6114f56040518060a001604052805f81526020015f6001600160a01b03168152602001606081526020015f81526020015f151581525090565b5f8381526006602090815260408083206001600160a01b03808716855290835292819020815160a081018352815481526001820154909416928401929092526002820180549184019161154790612a29565b80601f016020809104026020016040519081016040528092919081815260200182805461157390612a29565b80156115be5780601f10611595576101008083540402835291602001916115be565b820191905f5260205f20905b8154815290600101906020018083116115a157829003601f168201915b50505091835250506003820154602082015260049091015460ff1615156040909101529392505050565b5f516020612ce45f395f51905f526115ff81611f7f565b8361161d576040516310a571d160e31b815260040160405180910390fd5b5f61162b6020840184612ae7565b6001600160a01b0316148061164757506001600160a01b038316155b1561166557604051630e4607ed60e41b815260040160405180910390fd5b5f6116766060840160408501612ae7565b6001600160a01b03160361169d57604051630e4607ed60e41b815260040160405180910390fd5b6116b26116ad6020840184612ae7565b61213b565b6116c56116ad6060840160408501612ae7565b6116ce8361213b565b6116f46116de6020840184612ae7565b6116ee6060850160408601612ae7565b85612170565b81606001355f03611718576040516310a571d160e31b815260040160405180910390fd5b81608001355f0361173c576040516310a571d160e31b815260040160405180910390fd5b5f848152600460205260409020546001600160a01b031615611771576040516355ad509160e11b815260040160405180910390fd5b6040805160a081019091528061178a6020850185612ae7565b6001600160a01b031681526020016117a86060850160408601612ae7565b6001600160a01b03908116825285811660208084019190915260016040808501829052426060958601525f8a815260048452818120875181549087166001600160a01b0319918216178255948801518185018054918816919096161790945590860151600284018054968801511515600160a01b026001600160a81b031990971691909516179490941790925560809093015160039093019290925560058054928301815581527f036b6384b5eca791c62761152d0c79bb0604c104a5fb6f4eb0703f3154bb3db090910185905561187f856121db565b90505f61188b86612230565b905061189982876001612278565b6118a581876002612278565b6118bb826118b66020870187612ae7565b612028565b506118d0816118b66060870160408801612ae7565b506118db82836122a5565b6118e581836122a5565b5f8681526018602090815260408083206060880135905560198252909120608086013590556001600160a01b0386169061192190860186612ae7565b6001600160a01b0316877f76815c6c3d66579360681cc597126b11d4eaabe670b868db92df92d641a5965c60405160405180910390a4505050505050565b604051630285ca7f60e31b8152600480820152602481018390526001600160a01b038216604482015273__$dda01e1e2c7bee2f4d7421c1baf2ea2b46$__9063142e53f890606401610f86565b6119b4612120565b60405163102f3fbf60e31b815273__$78279d367c11614a675a71643e6f07974a$__90638179fdf890611a13906004908790879087907f0000000000000000000000000000000000000000000000000000000000000000908501612b42565b5f6040518083038186803b158015611a29575f5ffd5b505af4158015611a3b573d5f5f3e3d5ffd5b505050506112c760015f516020612d045f395f51905f5255565b5f918252602082815260408084206001600160a01b0393909316845291905290205460ff1690565b5f516020612ce45f395f51905f52611a9481611f7f565b5f838152600460205260409020546001600160a01b0316611ac8576040516315858c8d60e31b815260040160405180910390fd5b5f83815260046020526040908190206002018054841515600160a01b0260ff60a01b199091161790555183907ff232ed796c7d121df062e0962438bf7a57d1fb9a2c6451caaf7e2695a963cfe690611b2590851515815260200190565b60405180910390a2505050565b60405163335ca18d60e11b815273__$dda01e1e2c7bee2f4d7421c1baf2ea2b46$__906366b9431a9061122f906004908790879087908401612a61565b611b77612120565b6040516331c4d92160e21b815273__$116968842c4656ce8c4b8b252f1bdb323f$__9063c713648490611a13906004908790879087907f0000000000000000000000000000000000000000000000000000000000000000908501612c0b565b604051634b4758a360e01b81526004808201526024810187905263ffffffff8616604482015284151560648201526084810184905260a4810183905260c4810182905273__$116968842c4656ce8c4b8b252f1bdb323f$__90634b4758a39060e4015f6040518083038186803b158015611c4e575f5ffd5b505af4158015611c60573d5f5f3e3d5ffd5b50505050505050505050565b5f828152600760205260408120805483908110611c8b57611c8b612c63565b5f918252602090912001546001600160a01b03169392505050565b60405163b1fcae5760e01b8152600480820152602481018390526001600160a01b038216604482015273__$3d61d23392165436041ba58e9c3ae7a4b8$__9063b1fcae5790606401610f86565b5f60046001018281548110611d0a57611d0a612c63565b905f5260205f2001549050919050565b604051632768e85560e01b8152600480820152602481018390526044810182905273__$dda01e1e2c7bee2f4d7421c1baf2ea2b46$__90632768e85590606401610f86565b604051631a8fa21960e11b815273__$3d61d23392165436041ba58e9c3ae7a4b8$__9063351f443290610ff790600490899089908990899089908601612c77565b5f82815260208190526040902060010154611dba81611f7f565b61128e83836120b7565b604051635acd273b60e11b81526004808201526024810182905273__$dda01e1e2c7bee2f4d7421c1baf2ea2b46$__9063b59a4e76906044015b5f6040518083038186803b158015611e14575f5ffd5b505af4158015611e26573d5f5f3e3d5ffd5b5050505050565b611e35612120565b60405163098794fb60e21b815273__$dda01e1e2c7bee2f4d7421c1baf2ea2b46$__9063261e53ec90611e7690600490899089908990899089908601612cb0565b5f6040518083038186803b158015611e8c575f5ffd5b505af4158015611e9e573d5f5f3e3d5ffd5b50505050611e2660015f516020612d045f395f51905f5255565b60405163170e5d4360e31b81526004808201526024810182905273__$dda01e1e2c7bee2f4d7421c1baf2ea2b46$__9063b872ea1890604401611dfe565b611efe612120565b604051631d731cc960e01b815273__$dda01e1e2c7bee2f4d7421c1baf2ea2b46$__90631d731cc990611f3d9060049088908890889088908501612a8a565b5f6040518083038186803b158015611f53575f5ffd5b505af4158015611f65573d5f5f3e3d5ffd5b5050505061128e60015f516020612d045f395f51905f5255565b61142b81336122ef565b5f8281526002602052604090205460ff1680611fa457505050565b5f83815260016020526040902054611fbb8361213b565b5f1960ff83160161201c57611fd8611fd282612230565b84612330565b80611ffe57505f818152600460205260409020600201546001600160a01b038481169116145b1561128e5760405163432cb05160e11b815260040160405180910390fd5b611fd8611fd2826121db565b5f6120338383611a55565b6120b0575f838152602081815260408083206001600160a01b03861684529091529020805460ff191660011790556120683390565b6001600160a01b0316826001600160a01b0316847f2f8788117e7eff1d82e926ec794901d17c78024a50270940304540a733656f0d60405160405180910390a4506001610ebe565b505f610ebe565b5f6120c28383611a55565b156120b0575f838152602081815260408083206001600160a01b0386168085529252808320805460ff1916905551339286917ff6391f5c32d9c69d2a47ea670b442974b53935d1edc7fd64eb21e047a839171b9190a4506001610ebe565b612128612342565b60025f516020612d045f395f51905f5255565b6121525f516020612ce45f395f51905f5282612330565b1561142b57604051630bfde4ab60e01b815260040160405180910390fd5b816001600160a01b0316836001600160a01b031614806121a15750826001600160a01b0316816001600160a01b0316145b806121bd5750816001600160a01b0316816001600160a01b0316145b156112c75760405163432cb05160e11b815260040160405180910390fd5b6040805160208101829052601160608201527054454e414e545f41444d494e5f524f4c4560781b60808201529081018290525f9060a0015b604051602081830303815290604052805190602001209050919050565b6040805160208101829052601c60608201527f54454e414e545f4f50455241544f525f4d414e414745525f524f4c450000000060808201529081018290525f9060a001612213565b5f92835260016020908152604080852093909355600290529120805460ff191660ff909216919091179055565b5f82815260208190526040808220600101805490849055905190918391839186917fbd79b86ffe0ab8e8776151514217cd7cacd52c909f66475c3af44e129f0b00ff9190a4505050565b6122f98282611a55565b61232c5760405163e2517d3f60e01b81526001600160a01b03821660048201526024810183905260440160405180910390fd5b5050565b5f61233b8383611a55565b9392505050565b5f516020612d045f395f51905f525460020361237157604051633ee5aeb560e01b815260040160405180910390fd5b565b80356001600160a01b0381168114612389575f5ffd5b919050565b5f5f5f606084860312156123a0575f5ffd5b83359250602084013591506123b760408501612373565b90509250925092565b5f602082840312156123d0575f5ffd5b81356001600160e01b03198116811461233b575f5ffd5b803563ffffffff81168114612389575f5ffd5b5f5f6040838503121561240b575f5ffd5b8235915061241b602084016123e7565b90509250929050565b5f5f60408385031215612435575f5ffd5b50508035926020909101359150565b80358015158114612389575f5ffd5b5f5f83601f840112612463575f5ffd5b50813567ffffffffffffffff81111561247a575f5ffd5b6020830191508360208285010111156111eb575f5ffd5b5f5f5f5f5f608086880312156124a5575f5ffd5b853594506124b560208701612373565b93506124c360408701612444565b9250606086013567ffffffffffffffff8111156124de575f5ffd5b6124ea88828901612453565b969995985093965092949392505050565b5f81518084528060208401602086015e5f602082860101526020601f19601f83011685010191505092915050565b60208152815160208201525f602083015161012060408401526125506101408401826124fb565b9050604084015161256c60608501826001600160a01b03169052565b5060608401516080840152608084015161258a60a085018215159052565b5060a084015160c084015260c084015160e084015260e08401516125b761010085018263ffffffff169052565b5061010084015163ffffffff8116610120850152509392505050565b5f5f604083850312156125e4575f5ffd5b8235915061241b60208401612373565b5f5f5f60408486031215612606575f5ffd5b83359250602084013567ffffffffffffffff811115612623575f5ffd5b61262f86828701612453565b9497909650939450505050565b5f6020828403121561264c575f5ffd5b5035919050565b5f5f5f5f60608587031215612666575f5ffd5b8435935061267660208601612373565b9250604085013567ffffffffffffffff811115612691575f5ffd5b61269d87828801612453565b95989497509550505050565b803561ffff81168114612389575f5ffd5b5f5f5f5f5f60a086880312156126ce575f5ffd5b853594506126de602087016123e7565b93506126ec60408701612373565b92506126fa60608701612444565b9150612708608087016126a9565b90509295509295909350565b5f5f5f60608486031215612726575f5ffd5b83359250602084013591506123b7604085016126a9565b5f5f5f5f60608587031215612750575f5ffd5b8435935060208501359250604085013567ffffffffffffffff811115612691575f5ffd5b602081528151602082015260018060a01b0360208301511660408201525f604083015160a060608401526127ab60c08401826124fb565b9050606084015160808401526080840151151560a08401528091505092915050565b5f5f5f83850360e08112156127e0575f5ffd5b843593506127f060208601612373565b925060a0603f1982011215612803575f5ffd5b506040840190509250925092565b5f5f5f60408486031215612823575f5ffd5b833567ffffffffffffffff811115612839575f5ffd5b8401610120818703121561284b575f5ffd5b9250602084013567ffffffffffffffff811115612623575f5ffd5b5f5f60408385031215612877575f5ffd5b8235915061241b60208401612444565b5f5f5f83850360a081121561289a575f5ffd5b60808112156128a7575f5ffd5b50839250608084013567ffffffffffffffff811115612623575f5ffd5b5f5f5f5f5f5f60c087890312156128d9575f5ffd5b863595506128e9602088016123e7565b94506128f760408801612444565b959894975094956060810135955060808101359460a0909101359350915050565b5f5f5f5f5f6080868803121561292c575f5ffd5b8535945061293c60208701612373565b93506124c360408701612373565b5f5f5f6060848603121561295c575f5ffd5b8335925061296c602085016123e7565b91506123b760408501612373565b5f5f5f5f5f6080868803121561298e575f5ffd5b8535945061299e60208701612373565b935060408601359250606086013567ffffffffffffffff8111156124de575f5ffd5b81835281816020850137505f828201602090810191909152601f909101601f19169091010190565b86815285602082015260018060a01b0385166040820152831515606082015260a060808201525f612a1d60a0830184866129c0565b98975050505050505050565b600181811c90821680612a3d57607f821691505b602082108103612a5b57634e487b7160e01b5f52602260045260245ffd5b50919050565b848152836020820152606060408201525f612a806060830184866129c0565b9695505050505050565b85815284602082015260018060a01b0384166040820152608060608201525f612ab76080830184866129c0565b979650505050505050565b858152846020820152836040820152608060608201525f612ab76080830184866129c0565b5f60208284031215612af7575f5ffd5b61233b82612373565b5f5f8335601e19843603018112612b15575f5ffd5b830160208101925035905067ffffffffffffffff811115612b34575f5ffd5b8036038213156111eb575f5ffd5b8581526080602080830182905286359183019190915285013560a08201525f612b6e6040870187612b00565b61012060c0850152612b856101a0850182846129c0565b606089013560e086015260808901356101008601529150612baa905060a088016123e7565b63ffffffff16610120840152612bc260c088016123e7565b63ffffffff1661014084015260e08701356101608401526101008701356101808401528281036040840152612bf88186886129c0565b9150508260608301529695505050505050565b8581528435602080830191909152850135604080830191909152850135606080830191909152850135608082015260e060a082018190525f90612c5190830185876129c0565b90508260c08301529695505050505050565b634e487b7160e01b5f52603260045260245ffd5b868152602081018690526001600160a01b0385811660408301528416606082015260a0608082018190525f90612a1d90830184866129c0565b86815285602082015260018060a01b038516604082015283606082015260a060808201525f612a1d60a0830184866129c056fed0c934f24ef5a377dc3832429ce607cbe940a3ca3c6cd7e532bd35b4b212d1969b779b17422d0df92223018b32b4d1fa46e071723d6817e2486d003becc55f00a264697066735822122041cfbb16ecaa12523995f428228638678e6ad3c9bb85efa634c89a230c29050a64736f6c634300081c0033",
  "linkReferences": {
    "project/contracts/CoSignLib.sol": {
      "CoSignLib": [
        {
          "length": 20,
          "start": 5533
        },
        {
          "length": 20,
          "start": 7581
        },
        {
          "length": 20,
          "start": 7730
        }
      ]
    },
    "project/contracts/DocumentLib.sol": {
      "DocumentLib": [
        {
          "length": 20,
          "start": 5795
        },
        {
          "length": 20,
          "start": 7130
        }
      ]
    },
    "project/contracts/OperatorLib.sol": {
      "OperatorLib": [
        {
          "length": 20,
          "start": 4479
        },
        {
          "length": 20,
          "start": 4572
        },
        {
          "length": 20,
          "start": 5144
        },
        {
          "length": 20,
          "start": 5603
        },
        {
          "length": 20,
          "start": 5746
        },
        {
          "length": 20,
          "start": 7073
        },
        {
          "length": 20,
          "start": 7512
        },
        {
          "length": 20,
          "start": 8020
        },
        {
          "length": 20,
          "start": 8183
        },
        {
          "length": 20,
          "start": 8283
        },
        {
          "length": 20,
          "start": 8427
        },
        {
          "length": 20,
          "start": 8484
        }
      ]
    },
    "project/contracts/RecoveryLib.sol": {
      "RecoveryLib": [
        {
          "length": 20,
          "start": 5362
        },
        {
          "length": 20,
          "start": 7912
        },
        {
          "length": 20,
          "start": 8069
        }
      ]
    }
  },
  "deployedLinkReferences": {
    "project/contracts/CoSignLib.sol": {
      "CoSignLib": [
        {
          "length": 20,
          "start": 4998
        },
        {
          "length": 20,
          "start": 7046
        },
        {
          "length": 20,
          "start": 7195
        }
      ]
    },
    "project/contracts/DocumentLib.sol": {
      "DocumentLib": [
        {
          "length": 20,
          "start": 5260
        },
        {
          "length": 20,
          "start": 6595
        }
      ]
    },
    "project/contracts/OperatorLib.sol": {
      "OperatorLib": [
        {
          "length": 20,
          "start": 3944
        },
        {
          "length": 20,
          "start": 4037
        },
        {
          "length": 20,
          "start": 4609
        },
        {
          "length": 20,
          "start": 5068
        },
        {
          "length": 20,
          "start": 5211
        },
        {
          "length": 20,
          "start": 6538
        },
        {
          "length": 20,
          "start": 6977
        },
        {
          "length": 20,
          "start": 7485
        },
        {
          "length": 20,
          "start": 7648
        },
        {
          "length": 20,
          "start": 7748
        },
        {
          "length": 20,
          "start": 7892
        },
        {
          "length": 20,
          "start": 7949
        }
      ]
    },
    "project/contracts/RecoveryLib.sol": {
      "RecoveryLib": [
        {
          "length": 20,
          "start": 4827
        },
        {
          "length": 20,
          "start": 7377
        },
        {
          "length": 20,
          "start": 7534
        }
      ]
    }
  },
  "immutableReferences": {
    "11510": [
      {
        "length": 32,
        "start": 6636
      },
      {
        "length": 32,
        "start": 7087
      }
    ]
  },
  "inputSourceName": "project/contracts/VoucherProtocol.sol",
  "buildInfoId": "solc-0_8_28-e70e43389c9b7df8500652c8831f1e548408617b"
}